:100000000C9466050C948E050C948E050C948E054C
:100010000C948E050C948E050C948E050C948E0514
:100020000C948E050C948E050C948E050C948E0504
:100030000C948E050C94EC070C946C0B0C948E05B0
:100040000C94360D0C948E050C94590C0C948B0C5E
:100050000C948E050C949D090C948E050C948E05C1
:100060000C94840A0C948E0580808080808080802F
:100070008080808080808080808080808080808080
:100080008080808080808080808080808080808070
:100090008081818181818181818181818181818151
:1000A0008181828282828282828282828282828331
:1000B000838383838383838383838484848484840A
:1000C00084848484858585858585858585868686E1
:1000D00086868686868787878787878788888888B1
:1000E000888888888989898989898A8A8A8A8A8A7E
:1000F0008A8B8B8B8B8B8B8C8C8C8C8C8C8D8D8D45
:100100008D8D8E8E8E8E8E8E8F8F8F8F8F90909006
:1001100090909191919191929292929293939393C4
:10012000939494949494959595959696969696977F
:100130009797979898989898999999999A9A9A9A36
:100140009B9B9B9B9C9C9C9C9D9D9D9D9E9E9E9EE7
:100150009F9F9F9FA0A0A0A0A1A1A1A1A2A2A2A396
:10016000A3A3A3A4A4A4A4A5A5A5A6A6A6A6A7A741
:10017000A7A8A8A8A8A9A9A9AAAAAAAAABABABACE8
:10018000ACACACADADADAEAEAEAFAFAFB0B0B0B08D
:10019000B1B1B1B2B2B2B3B3B3B4B4B4B5B5B5B52D
:1001A000B6B6B6B7B7B7B8B8B8B9B9B9BABABABBCC
:1001B000BBBBBCBCBCBDBDBDBEBEBEBFBFBFC0C067
:1001C000C0C1C1C1C2C2C2C3C3C4C4C4C5C5C5C6FF
:1001D000C6C6C7C7C7C8C8C8C9C9C9CACACBCBCB96
:1001E000CCCCCCCDCDCDCECECFCFCFD0D0D0D1D129
:1001F000D1D2D2D3D3D3D4D4D4D5D5D5D6D6D7D7BC
:10020000D7D8D8D8D9D9DADADADBDBDBDCDCDDDD4C
:10021000DDDEDEDEDFDFE0E0E0E1E1E2E2E2E3E3DB
:10022000E3E4E4E5E5E5E6E6E7E7E7E8E8E8E9E969
:10023000EAEAEAEBEBECECECEDEDEDEEEEEFEFEFF6
:10024000F0F0F1F1F1F2F2F3F3F3F4F4F5F5F5F681
:10025000F6F6F7F7F8F8F8F9F9FAFAFAFBFBFCFC0E
:10026000FCFDFDFEFEFEFFFF000000010101020299
:100270000303030404050505060607070708080924
:1002800009090A0A0A0B0B0C0C0C0D0D0E0E0E0FB1
:100290000F1010101111121212131313141415153C
:1002A00015161617171718181819191A1A1A1B1BCA
:1002B0001C1C1C1D1D1D1E1E1F1F1F202020212158
:1002C00022222223232424242525252626272727E6
:1002D00028282829292A2A2A2B2B2B2C2C2C2D2D77
:1002E0002E2E2E2F2F2F3030303131323232333309
:1002F000333434343535363636373737383838399D
:1003000039393A3A3A3B3B3B3C3C3D3D3D3E3E3E33
:100310003F3F3F40404041414142424243434344CA
:100320004444454545464646474747484848494965
:10033000494A4A4A4A4B4B4B4C4C4C4D4D4D4E4E04
:100340004E4F4F4F4F5050505151515252525353A4
:100350005353545454555555555656565757575749
:10036000585858595959595A5A5A5B5B5B5B5C5CEF
:100370005C5C5D5D5D5E5E5E5E5F5F5F5F6060609A
:100380006061616161626262626363636364646449
:1003900064656565656666666667676767676868FA
:1003A0006868696969696A6A6A6A6A6B6B6B6B6BB0
:1003B0006C6C6C6C6C6D6D6D6D6E6E6E6E6E6E6F6A
:1003C0006F6F6F6F70707070707171717171717229
:1003D00072727272737373737373747474747474EB
:1003E00075757575757575767676767676767777B2
:1003F000777777777778787878787878797979797E
:10040000797979797A7A7A7A7A7A7A7A7A7B7B7B4D
:100410007B7B7B7B7B7B7B7C7C7C7C7C7C7C7C7C23
:100420007C7C7D7D7D7D7D7D7D7D7D7D7D7D7D7EFD
:100430007E7E7E7E7E7E7E7E7E7E7E7E7E7E7E7EDC
:100440007F7F7F7F7F7F7F7F7F7F7F7F7F7F7F7FBC
:100450007F7F7F7F7F7F7F7F7F7F7F7F7F7F7F7FAC
:100460007F7F7F7F7F7F7F7F7F7F7F7F7F7F7F7F9C
:100470007F7F7F7F7F7F7F7F7F7F7F7F7F7F7F7F8C
:100480007F7F7F7F7F7F7F7F7F7F7F7F7F7F7F7F7C
:100490007F7F7E7E7E7E7E7E7E7E7E7E7E7E7E7E7A
:1004A0007E7E7D7D7D7D7D7D7D7D7D7D7D7D7D7C7B
:1004B0007C7C7C7C7C7C7C7C7C7C7B7B7B7B7B7B82
:1004C0007B7B7B7B7A7A7A7A7A7A7A7A7A7979798B
:1004D000797979797978787878787878777777779B
:1004E00077777777767676767676757575757575AE
:1004F00075747474747474737373737373727272C7
:10050000727271717171717170707070706F6F6FE4
:100510006F6F6E6E6E6E6E6D6D6D6D6D6C6C6C6C06
:100520006C6B6B6B6B6B6A6A6A6A6A69696969682A
:100530006868686767676767666666666565656554
:100540006464646463636363626262626161616183
:10055000606060605F5F5F5F5E5E5E5E5D5D5D5CB4
:100560005C5C5C5B5B5B5B5A5A5A595959595858E9
:100570005857575757565656555555555454545322
:100580005353535252525151515050504F4F4F4F5D
:100590004E4E4E4D4D4D4C4C4C4B4B4B4A4A4A4A9D
:1005A00049494948484847474746464645454544DE
:1005B00044444343434242424141414040403F3F23
:1005C0003F3E3E3E3D3D3D3C3C3C3B3B3A3A3A396A
:1005D00039393838383737373636363535343434B4
:1005E00033333332323231313030302F2F2F2E2E01
:1005F0002E2D2D2C2C2C2B2B2B2A2A2A292928284E
:10060000282727272626252525242424232322229C
:100610002222212120201F1F1F1E1E1D1D1D1C1CEC
:100620001C1B1B1A1A1A191918181817171716163F
:100630001515151414131313121212111110101092
:100640000F0F0E0E0E0D0D0C0C0C0B0B0A0A0A09E7
:10065000090908080707070606050505040403033A
:10066000030202010101000000FFFFFEFEFEFDFD8E
:10067000FCFCFCFBFBFAFAFAF9F9F8F8F8F7F7F6E4
:10068000F6F6F5F5F5F4F4F3F3F3F2F2F1F1F1F037
:10069000F0EFEFEFEEEEEEEDEDECECECEBEBEAEA8B
:1006A000EAE9E9E8E8E8E7E7E7E6E6E5E5E5E4E4DE
:1006B000E3E3E3E2E2E2E1E1E0E0E0DFDFDEDEDE31
:1006C000DDDDDDDCDCDBDBDBDADADAD9D9D8D8D882
:1006D000D7D7D7D6D6D5D5D5D4D4D4D3D3D3D2D2D1
:1006E000D1D1D1D0D0D0CFCFCFCECECDCDCDCCCC1F
:1006F000CCCBCBCBCACAC9C9C9C8C8C8C7C7C7C66B
:10070000C6C6C5C5C5C4C4C4C3C3C2C2C2C1C1C1B3
:10071000C0C0C0BFBFBFBEBEBEBDBDBDBCBCBCBBFC
:10072000BBBBBABABAB9B9B9B8B8B8B7B7B7B6B641
:10073000B6B5B5B5B5B4B4B4B3B3B3B2B2B2B1B182
:10074000B1B0B0B0B0AFAFAFAEAEAEADADADACACC2
:10075000ACACABABABAAAAAAAAA9A9A9A8A8A8A8FD
:10076000A7A7A7A6A6A6A6A5A5A5A4A4A4A4A3A337
:10077000A3A3A2A2A2A1A1A1A1A0A0A0A09F9F9F6C
:100780009F9E9E9E9E9D9D9D9D9C9C9C9C9B9B9B9D
:100790009B9A9A9A9A9999999998989898989797CC
:1007A00097979696969696959595959494949494F5
:1007B000939393939392929292929191919191901B
:1007C000909090908F8F8F8F8F8E8E8E8E8E8E8D3D
:1007D0008D8D8D8D8C8C8C8C8C8C8B8B8B8B8B8B5B
:1007E0008A8A8A8A8A8A8A89898989898989888874
:1007F0008888888888878787878787878686868688
:100800008686868685858585858585858584848497
:1008100084848484848484838383838383838383A1
:1008200083838282828282828282828282828281A7
:1008300081818181818181818181818181818181A8
:1008400080808080808080808080808080808080A8
:100850008080808080808080808080808080808098
:1008600080808080808080800000000076A9080061
:10087000512D090004B90900054D0A00D3E90A0009
:10088000F48F0B00F63F0C0070FA0C0000C00D0056
:100890004F910E00116F0F00025A1000EC52110020
:1008A000A35A1200087213000A9A1400A6D3150066
:1008B000E91F1700ED7F1800E0F4190000801B000D
:1008C0009E221D0022DE1E0004B42000D8A52200B6
:1008D00046B5240010E42600153429004DA72B004E
:1008E000D23F2E00DAFF3000C0E93300FFFF3600B0
:1008F0003D453A0044BC3D0008684100AF4B45000F
:100900008C6A490020C84D002A6852009C4E57004E
:10091000A47F5C00B4FF610080D36700FFFF6D001F
:100920007B8A740089787B0011D082005F978A00EF
:1009300018D5920041909B0053D0A400339DAE0087
:1009400046FFB80069FFC30000A7CF00FDFFDB0032
:10095000F414E9000BF1F60020A00501BE2E1501EC
:1009600030AA250182203701A6A04901663A5D011F
:100970008CFE7101D2FE8701004E9F01FAFFB70184
:10098000F229D20120E2ED0140400B027C5D2A02F7
:100990004C544B0204416E024C419302CC74BA0297
:1009A00028FDE302A4FD0F03009C3E03F4FF6F0348
:1009B000E453A40340C4DB0380801604F8BA540453
:1009C00098A896040882DC049882260598E97405A4
:1009D00030FAC70548FB1F0600387D06E8FFDF0632
:1009E000C8A748078088B70700012D08F075A90837
:1009F00030512D091004B90930054D0AA0D3E90A78
:100A0000A0F48F0B00F63F0CC06FFA0C70FFBF0D07
:100A1000804E910EB0106F0FA0015A10E0EB5211F2
:100A200060A25A1220087213600A9A1440A7D315C4
:100A300040E81F1700EC7F1880DFF419E0FE7F1BF1
:100A4000009D221D6021DE1E4003B420C0D7A522D8
:100A5000C044B5244010E426C0143429804EA72B8E
:100A600080D23F2E00D8FF300100000200000300BA
:100A70000400050000000800020100000304070054
:100A80000000000000000001020408102040800166
:100A900002040810200102040810200404040404C5
:100AA000040404020202020202030303030303001C
:100AB000000000250028002B000000000024002773
:100AC000002A00009207FB08CF09BB0C11241FBEAF
:100AD000CFEFD8E0DEBFCDBF11E0A0E0B1E0E2EFA4
:100AE000FFE102C005900D92A231B107D9F724E0D1
:100AF000A2E1B1E001C01D92A137B207E1F71AE00F
:100B0000CCECDAE004C02297FE010E94F30FC43C53
:100B1000D107C9F70E94FF0C0C94F70F0C9400004A
:100B200020E030E040E454E460912E0170912F0108
:100B300080913001909131010E941B0F0E949E0E06
:100B400060932A0170932B0180932C0190932D01C7
:100B50002FB7F8948DED94E2A6E0B0E080934601C3
:100B600090934701A0934801B09349012FBF809112
:100B7000220190912301909325018093240180E02C
:100B800093E090931B0180931A0180E092E390938D
:100B90001F0180931E0180E090E290931D018093DD
:100BA0001C01909323018093220180E095E29093B1
:100BB00021018093200180E091E00C944108CF92C4
:100BC000DF92EF92FF92A0E0B0E06627782F892FA6
:100BD0009A2F0E94D6096B017C01609338017093B3
:100BE000390180933A0190933B01272F382F492FE9
:100BF0005527A0913201B09133010E94DE0F60931E
:100C000034017093350180933601909337019C0134
:100C100044275527A0914001B09141010E94DE0F69
:100C200060933C0170933D0180933E0190933F019E
:100C30008FB7F89453E0F694E794D794C7945A95F5
:100C4000D1F7C0925A01D0925B01E0925C01F09220
:100C50005D018FBF8091340190913501A0913601E3
:100C6000B09137012FB7F89463E0B695A7959795A3
:100C700087956A95D1F78093500190935101A09385
:100C80005201B09353012FBFFF90EF90DF90CF90B0
:100C90000895CF92DF92EF92FF920E94E808C090F1
:100CA0002601D0902701E0902801F09029016C15D1
:100CB0007D058E059F0508F458C080912201909112
:100CC0002301409124015091250120911A01309176
:100CD0001B014817590759F4809120019091210177
:100CE000820F931F909321018093200106C0820FF1
:100CF000931F909323018093220190932501809369
:100D00002401809122019091230120911E013091B4
:100D10001F012817390734F420E03DEF30931B0101
:100D200020931A0120911C0130911D018217930715
:100D300034F480E093E090931B0180931A010E94A9
:100D4000E808C0902A01D0902B01E0902C01F0908F
:100D50002D016C0D7D1D8E1D9F1D609326017093CE
:100D60002701809328019093290180914601909159
:100D70004701A0914801B091490140914201509131
:100D800043016091440170914501840F951FA61F96
:100D9000B71F8093420190934301A0934401B09305
:100DA0004501CD019770E0914A01F0914B01E80FA8
:100DB000F91FE491FF27E7FDF095E25AFE4FF0930B
:100DC0004101E0934001C0901201D0901301E090E6
:100DD0001401F09015012091240130912501442740
:100DE00037FD4095542FBB27F7FCBA95AF2D9E2DAC
:100DF0008D2D281B390B4A0B5B0BA0911601B0916E
:100E000017010E94DE0F472F582F692F772767FDA4
:100E10007A954C0D5D1D6E1D7F1D40931201509300
:100E200013016093140170931501BB2777FDBA95E8
:100E3000A72F962F852F9093190180931801FF906B
:100E4000EF90DF90CF900C94DF05CF92DF92EF927E
:100E5000FF92CF93DF9320913C0130913D0140916F
:100E60003E0150913F018091500190915101A0911C
:100E70005201B0915301ECE4F1E0C080D180E280F6
:100E8000F3808C0D9D1DAE1DBF1D80839183A283B9
:100E9000B383CD019770E0915401F0915501E80FB3
:100EA000F91FE491C0905A01D0905B01E0905C0181
:100EB000F0905D01C6E5D1E088819981AA81BB816E
:100EC000C80ED91EEA1EFB1EC882D982EA82FB82A6
:100ED000AE2FBB27A7FDB0950E94E90FBB27A92F16
:100EE000982F872FCBE0880F991FAA1FBB1FCA9589
:100EF000D1F78C0D9D1DAE1DBF1DCD019770E091EA
:100F00005E01F0915F01E80FF91F8491992787FD39
:100F10009095DF91CF91FF90EF90DF90CF90089563
:100F20000C94C50788E690E090935F0180935E0182
:100F3000909355018093540190934B0180934A0103
:100F400080E093E090933301809332018FE692E149
:100F5000A3E8B1E480932E0190932F01A093300178
:100F6000B093310110922A0110922B0110922C01A2
:100F700010922D018CEC9CE0909317018093160148
:100F800008950E9449060C94800990917103809104
:100F90007003981306C090917303809172039813A5
:100FA0001AC00E94250720917103E22FF0E0EE0F96
:100FB000FF1FE059FE4F8C509F4F918380832F5F1E
:100FC00020937103211107C08091730391E0892759
:100FD00080937303089508951F920F920FB60F9296
:100FE00011242F933F938F939F93AF93BF93EF93CE
:100FF000FF9380917003E82FF0E0EE0FFF1FE059A0
:10100000FE4F208131818F5F80937003811119C061
:101010008091720391E08927809372038091740319
:1010200090917503A0917603B09177030196A11D6D
:10103000B11D8093740390937503A0937603B093CE
:101040007703C901E3E0880F991FEA95E1F79067FC
:101050002A989EBD0DB407FEFDCF9EB58EBD0DB482
:1010600007FEFDCF8EB52A9AFF91EF91BF91AF9108
:101070009F918F913F912F910F900FBE0F901F90D6
:101080001895CF93DF93EC010E94A20B81E00E94A0
:10109000B80B80E00E94450984B580936F0185B547
:1010A00080936E0187B580936D0180916E0080936F
:1010B0006C019E0140E050E060E472E48FE090E05B
:1010C0000E94B00FDA01C90140E061EC77E00E94B4
:1010D000110B0E94660B84B58093670185B58093E0
:1010E000660187B58093650180916E0080936401ED
:1010F0008091800080936B018091810080936A01D0
:1011000080918800909189008093690180916F009F
:101110008093680161E089E00E94EA0BC1E0C0931E
:10112000C30380E18093C4031092C50380938100C0
:101130001092800088EE91E0A0E0B0E0C093BE0382
:101140009093C0038093BF039093870080938600A1
:1011500081E18093810061E089E00E94EA0B809147
:1011600080009091C503892B806880938000209136
:10117000BF033091C003A4EFB0E00E94CF0FBAE0EC
:101180009695879577956795BA95D1F7709389006D
:10119000609388008091BE039091C403892B809353
:1011A0008100C0936F0080918000809363018091E3
:1011B00081008093620180918800909189008093E2
:1011C000610180916F0080936001DF91CF9108955C
:1011D000209170038091740390917503A091760320
:1011E000B09177036627782F892F9A2F620F711D90
:1011F000811D911D08951092700310927103109239
:101200007203109273030895811109C080917A00CE
:10121000846080937A0080917A008D7F1AC081303B
:1012200071F480917A008B7F80937A0080917A00AC
:10123000826080937A0080917A0081600FC0823052
:1012400079F480917A008B7F80937A0080917A0084
:10125000826080937A0080917A008E7F80937A00FA
:10126000089580E090E041E050E060917E009A01B6
:10127000082E01C0220F0A94EAF7622B60937E00C9
:1012800001968830910589F70895EAE7F0E09081AA
:10129000986090830E9404090C94310987708064DF
:1012A00080937C00EAE7F0E0808180648083089589
:1012B000CF93DF931F92CDB7DEB7809180039091DB
:1012C00081038F3F2FEF920761F0FC01E858FC4F3C
:1012D00020812983019790938103809380038981E2
:1012E00001C08FEF80930101809101018F3F21F0B8
:1012F000809101010E944E090F90DF91CF910895D6
:10130000809101018F3F29F40E94580981E0809368
:1013100000010895EAE7F0E0808180648083089509
:10132000E09101018091780090917900EE0FFF0B20
:10133000EE57FC4F9183808308951F920F920FB652
:101340000F9211242F933F934F935F936F937F934B
:101350008F939F93AF93BF93EF93FF93809100017F
:10136000882329F00E948A091092000107C00E9478
:1013700090090E94580981E080930001FF91EF914C
:10138000BF91AF919F918F917F916F915F914F919D
:101390003F912F910F900FBE0F901F9018958FEFD8
:1013A0009FEF90938103809380030895CF92DF9203
:1013B000EF92FF920F931F9344E0849F90011124BA
:1013C000F901E859F74FC590D590E590F490F901EF
:1013D000E459F74F0591159125913491A901980190
:1013E0002C193D094E095F098827992721153105D8
:1013F000E1E04E07510558F0232F342F452F552794
:101400000E947E0FBB27A92F982F872F04C00E9410
:101410007E0FAA27BB27BC01CD016C0D7D1D8E1D43
:101420009F1D1F910F91FF90EF90DF90CF90089537
:1014300082E08093BD038FEF8093980310929A030C
:101440008091920381508093990380919303880F38
:1014500081608093BB0385EE8093BC00089584E097
:101460008093BD038FEF8093980310929A0320918D
:10147000940320939903A0919503B09196038BE96F
:1014800093E0FC013E2F381B321718F43D91319345
:10149000F9CF8091970390E0880F991F8093BB0349
:1014A00085EE8093BC00089585ED8093BC0080910B
:1014B000BC0084FDFCCF8091BD038093BC031092DF
:1014C000BD038091BC03833011F40C942F0A8091EA
:1014D000BC03813011F40C94180A089585EC8093B4
:1014E000BC008091BD038093BC031092BD0380912A
:1014F000BC03833011F40C942F0A8091BC0381301B
:1015000011F40C94180A08951F920F920FB60F92BF
:1015100011242F933F934F935F936F937F938F93F8
:101520009F93AF93BF93EF93FF938091B900887F10
:10153000883239F170F4803109F130F4882309F4EC
:101540005BC08830D9F05CC08831D9F0803261F15D
:1015500057C08034C1F150F4803331F1883309F041
:101560004FC0809398030E946E0A4AC08035F9F0FC
:101570008835A9F1883409F043C040C08091BB038D
:1015800010C090919A03809199039817B8F5E09153
:101590009A0381E08E0F80939A03F0E0E556FC4FAA
:1015A00080818093BB0015C08093980327C0E09191
:1015B0009A0381E08E0F80939A038091BB00F0E044
:1015C000E556FC4F808390919A0380919903981778
:1015D00010F485EC01C085E88093BC0011C0E09157
:1015E0009A0381E08E0F80939A038091BB00F0E014
:1015F000E556FC4F808302C0109298030E94540A63
:10160000FF91EF91BF91AF919F918F917F916F91DA
:101610005F914F913F912F910F900FBE0F901F90B0
:101620001895CF92DF92EF92FF927093C903609367
:10163000C8034093CA03A0E0B0E034E0880F991FCC
:10164000AA1FBB1F3A95D1F720E030E0F901E85915
:10165000F54FE491EE2381F06C017D01022E04C070
:10166000F694E794D794C7940A94D2F751E0C5163C
:10167000D506E104F10438F02F5F3F4F2B303105E0
:1016800029F780E01EC0A1E0B0E002C0AA0FBB1F96
:101690002A95E2F7A70196010E94E90F24E09595AB
:1016A0008795779567952A95D1F77093C7036093CF
:1016B000C60310926E0082E084BDE5BDCA94C7BC2B
:1016C00081E0FF90EF90DF90CF900895EEE6F0E09C
:1016D000808182608083089578941F920F920FB664
:1016E0000F9211242F933F934F935F936F937F93A8
:1016F0008F939F93AF93BF93EF93FF9310926E00DE
:10170000E091C803F091C9030995F8948091CA0348
:10171000882311F016BCA99A80916E008260809394
:101720006E00FF91EF91BF91AF919F918F917F914B
:101730006F915F914F913F912F910F900FBE0F903E
:101740001F90189561E08AE00E94230C61E08AE016
:101750000E94EA0B8CB580618CBD8CB580648CBD19
:1017600061E08DE00E94EA0B61E08BE00C94EA0BF3
:10177000811103C08CB5806202C08CB58F7D8CBD99
:101780000895833081F028F4813099F08230A1F0FF
:1017900008958730A9F08830B9F08430D1F4809171
:1017A00080008F7D03C0809180008F7780938000C0
:1017B000089584B58F7702C084B58F7D84BD089568
:1017C0008091B0008F7703C08091B0008F7D8093AF
:1017D000B0000895CF93DF9390E0FC01E957F54FF7
:1017E0002491FC01E556F54F8491882349F190E05E
:1017F000880F991FFC01E754F54FA591B4918155CD
:10180000954FFC01C591D4919FB7611108C0F89420
:101810008C91209582238C93888182230AC0623028
:1018200051F4F8948C91322F309583238C938881D6
:10183000822B888304C0F8948C91822B8C939FBF59
:10184000DF91CF9108950F931F93CF93DF931F9252
:10185000CDB7DEB7282F30E0F901ED58F54F849170
:10186000F901E957F54F1491F901E556F54F049147
:101870000023C9F0882321F069830E94C10B69818C
:10188000E02FF0E0EE0FFF1FE155F54FA591B49169
:101890009FB7F8948C91611103C01095812301C00A
:1018A000812B8C939FBF0F90DF91CF911F910F9150
:1018B00008951F920F920FB60F9211242F938F93BA
:1018C0009F93EF93FF93E091DB03F091DC03808122
:1018D000E091E103F091E20382FD12C090818091DA
:1018E000E4038F5F8F732091E503821751F0E0913D
:1018F000E403F0E0E553FC4F958F8093E40301C0CF
:101900008081FF91EF919F918F912F910F900FBE4A
:101910000F901F9018951F920F920FB60F921124DF
:101920002F933F934F935F936F937F938F939F93E7
:10193000AF93BF93EF93FF938BEC93E00E94F60D70
:10194000FF91EF91BF91AF919F918F917F916F9197
:101950005F914F913F912F910F900FBE0F901F906D
:1019600018958BEC93E00E94BB0D21E0892B09F4C4
:1019700020E0822F08951092CE031092CD0388EEBE
:1019800093E0A0E0B0E08093CF039093D003A093C6
:10199000D103B093D20386E091E09093CC0380937F
:1019A000CB0385EC90E09093D8038093D70384EC2D
:1019B00090E09093DA038093D90380EC90E09093C9
:1019C000DC038093DB0381EC90E09093DE03809353
:1019D000DD0382EC90E09093E0038093DF0386ECDC
:1019E00090E09093E2038093E1031092E40310925D
:1019F000E5031092E6031092E703089508950E940C
:101A0000800D0E94FE0C0E949005C8EEDDE00E9451
:101A100090072097E1F30E94E80DF9CFCF92DF9273
:101A2000EF92FF920F931F93CF93DF937C016A0194
:101A3000EB0100E010E00C151D0571F06991D70174
:101A4000ED91FC910190F081E02DC7010995892B62
:101A500019F00F5F1F4FEFCFC801DF91CF911F919A
:101A60000F91FF90EF90DF90CF9008951F920F920B
:101A70000FB60F9211242F933F938F939F93AF93A1
:101A8000BF938091690490916A04A0916B04B09116
:101A90006C043091680423E0230F2D3720F4019665
:101AA000A11DB11D05C026E8230F0296A11DB11D81
:101AB000209368048093690490936A04A0936B0454
:101AC000B0936C0480916D0490916E04A0916F04AA
:101AD000B09170040196A11DB11D80936D04909387
:101AE0006E04A0936F04B0937004BF91AF919F9167
:101AF0008F913F912F910F900FBE0F901F901895CF
:101B0000789484B5826084BD84B5816084BD85B5D8
:101B1000826085BD85B5816085BDEEE6F0E080819F
:101B200081608083E1E8F0E01082808182608083C0
:101B3000808181608083E0E8F0E080818160808343
:101B4000E1EBF0E0808184608083E0EBF0E0808175
:101B500081608083EAE7F0E0808184608083808117
:101B600082608083808181608083808180688083BF
:101B70001092C1000895FC01818D228D90E0805C5F
:101B80009F4F821B91098F7399270895FC01918DB6
:101B9000828D981731F0828DE80FF11D858D90E0D0
:101BA00008958FEF9FEF0895FC01918D828D981716
:101BB00061F0828DDF01A80FB11D5D968C91928D31
:101BC0009F5F9F73928F90E008958FEF9FEF08952E
:101BD00081EB9CE0892B49F080E090E0892B29F093
:101BE0000E94B10C81110C9400000895FC01848DB9
:101BF000DF01A80FB11DA35ABF4F2C91848D90E037
:101C000001968F739927848FA689B7892C93A08911
:101C1000B1898C9180648C93938D848D981306C0C8
:101C20000288F389E02D80818F7D80830895CF9392
:101C3000DF93EC01888D8823C9F0EA89FB898081D4
:101C400085FD05C0A889B9898C9186FD0FC00FB6A6
:101C500007FCF5CF808185FFF2CFA889B9898C91E7
:101C600085FFEDCFCE010E94F60DE7CFDF91CF913A
:101C70000895CF92DF92FF920F931F93CF93DF933C
:101C80001F92CDB7DEB76C0181E0D60158968C93D8
:101C900058975B969C915B975C968C915C97981398
:101CA00007C05096ED91FC915197808185FD2EC023
:101CB000F601038D10E00F5F1F4F0F731127F02EF9
:101CC000F601848DF81211C00FB607FCF9CFD601CA
:101CD0005096ED91FC915197808185FFF1CFC6011F
:101CE00069830E94F60D6981EBCF838DE80FF11DAA
:101CF000E35AFF4F6083D6015B960C935B97529635
:101D0000ED91FC915397808180620CC0D60156966C
:101D1000ED91FC91579760835096ED91FC9151970E
:101D200080818064808381E090E00F90DF91CF918B
:101D30001F910F91FF90DF90CF9008955BD088F0B6
:101D40009F5790F0B92F9927B751A0F0D1F0660FA7
:101D5000771F881F991F1AF0BA95C9F712C0B130C2
:101D600081F062D0B1E008955FC0672F782F882797
:101D7000B85F39F0B93FCCF3869577956795B39501
:101D8000D9F73EF490958095709561957F4F8F4F70
:101D90009F4F089597F99F6780E870E060E008958D
:101DA0009FEF80EC089500240A9416161706180673
:101DB0000906089500240A9412161306140605064F
:101DC0000895092E0394000C11F4882352F0BB0FE0
:101DD00040F4BF2B11F460FF04C06F5F7F4F8F4F43
:101DE0009F4F089557FD9058440F551F59F05F3F7E
:101DF00071F04795880F97FB991F61F09F3F79F02D
:101E000087950895121613061406551FF2CF4695AE
:101E1000F1DF08C0161617061806991FF1CF869530
:101E20007105610508940895E894BB276627772714
:101E3000CB0197F908950BD0C4CFB5DF28F0BADFF6
:101E400018F0952309F0A6CFABCF1124EECFCADF4F
:101E5000A0F3959FD1F3950F50E0551F629FF001BD
:101E6000729FBB27F00DB11D639FAA27F00DB11D16
:101E7000AA1F649F6627B00DA11D661F829F22279F
:101E8000B00DA11D621F739FB00DA11D621F839F26
:101E9000A00D611D221F749F3327A00D611D231FFC
:101EA000849F600D211D822F762F6A2F11249F574A
:101EB00050408AF0E1F088234AF0EE0FFF1FBB1F6D
:101EC000661F771F881F91505040A9F79E3F51050C
:101ED00070F060CFAACF5F3FECF3983EDCF38695BD
:101EE00077956795B795F795E7959F5FC1F7FE2BB7
:101EF000880F911D9695879597F90895DB018F932B
:101F00009F930E94DE0FBF91AF91A29F800D911D04
:101F1000A39F900DB29F900D11240895A1E21A2E57
:101F2000AA1BBB1BFD010DC0AA1FBB1FEE1FFF1F7D
:101F3000A217B307E407F50720F0A21BB30BE40BCD
:101F4000F50B661F771F881F991F1A9469F7609514
:101F50007095809590959B01AC01BD01CF010895CE
:101F6000052E97FB1EF400940E94C70F57FD07D063
:101F70000E948E0F07FC03D04EF40C94C70F5095AF
:101F80004095309521953F4F4F4F5F4F0895909565
:101F90008095709561957F4F8F4F9F4F0895A29FB9
:101FA000B001B39FC001A39F700D811D1124911D2D
:101FB000B29F700D811D1124911D08950E94CF0FB5
:101FC000A59F900DB49F900DA49F800D911D11248D
:101FD0000895B7FF0C94DE0F0E94DE0F821B930B57
:101FE0000895EE0FFF1F0590F491E02D0994F894E9
:021FF000FFCF21
:101FF20001FF00000000390E0E0DBB0DD40DC60D01
:02200200170EB7
:00000001FF
