:100000000C94D2240C94FA240C94FA240C94FA2420
:100010000C94FA240C94FA240C94FA240C94FA24E8
:100020000C94FA240C94FA240C94FA240C94FA24D8
:100030000C94FA240C9459260C94522A0C94FA2409
:100040000C94392C0C94FA240C945C2B0C948E2B6D
:100050000C94FA240C94F7270C94FA240C94FA24A8
:100060000C946A290C94FA24081009090706090C53
:1000700012141819171614141212131315161A182D
:10008000130E0A0C0D101114120F0E0C0C0807049D
:10009000070808080706F2E0D8E4EBE9E5E7EDE435
:1000A000D8D0DAE0DEDCE7F7FBF4EBEDEEEEEDF7CF
:1000B0000204FEF9FF0505FCF9FD0101FF0305033C
:1000C000FCF6F7FBFFFFFF01040501FDFBFDFF0050
:1000D000020406070502FFFF000206090A0B0B09CE
:1000E000060300FFFE020402FE01050500FBFBFD06
:1000F00001020303040303050605020103080A09BC
:10010000090A0A0807080D0D0A0A0D100E0C0A0646
:1001100004060808090A0A0B0A090502010408096D
:1001200007060604FDF2ECECF2F6F6F7F5F1EBE566
:10013000E4E8E9E7E8EEF4F2EEECEEEEEDF2F8FEDC
:10014000FEFCFBFCFCFAF8FAFE0204040502FEFCCD
:10015000FDFCFDFE000201FFFDFDFDFDFEFE0001B8
:1001600003040405060707080A0908080807070624
:100170000607090A09090A0C090604070A05010409
:100180000B0A04FF0000FDFAFCFFFCF9F6F8F7F497
:10019000F1F2F8FAF8F6F8FBFCFDFDFDFDFDFDFFC0
:1001A00001030304050809080606070A0D0F0F0DD1
:1001B0000D0C0C0B0F1113100B06FCF7F8FF00FED3
:1001C000FBF8F6EDE6E8EEEFECEBEFF2EDE8EAED4A
:1001D000EDEDEEF1F4F0F0F4F9FAF9FBFE020100B6
:1001E00000FFFF01030200010305050507070705DE
:1001F00005050503040606050508090A0A0C0C0C8A
:100200000B0C0D0C0B0C11100B090B0F0E0E0E101E
:100210000D090706060501F8F4F7FAF5EDEBEAE932
:10022000E4E4E6E9E9E5E7EBEBE8E6EAEEEFEFF236
:10023000F8F8F8F9FE020202050C100D0B0F151765
:10024000141419201E1A18181B18141418170E0A43
:100250000B100D07FAECE9F3FBF9F2EBE6E0DBDE5D
:10026000E5E5E1E0E1E3E4E2E0E4E9EEF4FAFCFCF8
:10027000FD010507080B0E111314131416191D1D8B
:100280001E1F232321202123211D1A19140F0703C8
:1002900000FBF4EBEAE8E5DEDCDCDAD9D9DDDDDC15
:1002A000DCDFDFDDDDE0E2E3E5E9ECEFF4F9FD00C2
:1002B000070E111315191B1B1D1E1D1A19181513D6
:1002C000100A0B0E0D05FCFBFAF8F4F7FBF7EFE94B
:1002D000EAEEEFEEF2F6F5F5F900030304090E0E6F
:1002E0000F111416181B1E2225292C3035393A38C7
:1002F0003532332C2320211B0800FEF6D9CBDDE755
:10030000DED0D2CDC4BCC1CFD1CBC5C5C3C4C5C856
:10031000CCD3D8DFE3E8EFF3F9000C12161515166D
:100320001617191B171513110D0B0B0704050A05DA
:10033000FEFBFCFBF8FBFF01FDFD0106090E11139E
:1003400014191F201F1D1E1D21262B2C28292B2F81
:100350002D2E2B1F130E0DF9E6DFDFD6C6C8C8C839
:10036000C5C8CBC8CFD0CECCD4DAD0C5C7D9E3DD91
:10037000DBE4F0F5FC0D1C201E242B2C2D2C282159
:100380001F1C170F0A090601FAF7F8F6F2F0F2F34C
:10039000F0F1F2F7F8FB01070D111B2025292F358D
:1003A0003A41484E524D413E48564F412D221A087F
:1003B000F6E5E5D3C1B1AEACA5AAA7A69DA4A9A5B3
:1003C000A6ACB1AFAEB8C6CFD4DBEDFB07131F2789
:1003D0002B3137373233312C252620140A0305FE02
:1003E000FCF4EEE8E3E7E4E4E3E9EAECF1F8FF0229
:1003F0000A11181D222B30363D4046495256574FA0
:10040000463D312D1F0CF0E5DED6CCC5C3BBBDC0CB
:10041000C3BFBFC1BEBABDC2C3C3CDDBE5EFF909DF
:100420001726303A3D3E3F3E3B322F28231B171202
:100430000A03FDF6EBE4E0D9D2CDCCCFD0D6DDE790
:10044000F0F8FCFF0A192425292D31323A4B555872
:10045000565A564F43362F1B01DCCFC7C0B6ABA64A
:10046000A1ABB1B4B1B6B5ACAAB1B9B6B7C0D2E41C
:10047000F4010F1F313F43423F413E362C272219E2
:1004800010100E09FFF4EBE0DBD6D0C2BDC1C7CB24
:10049000D2E3EBF4FE0F191B21272E323E434B56BD
:1004A000606F747C776B58443E2C11E6D1CCC8C386
:1004B000BDBFBDC8D0CBC4C2C1B7ADB4BABCBDC648
:1004C000DCF20D17222D3D43382F27271E150D096D
:1004D00004FEFA0204FCECDBD2C7C7BDB6B1B4C45B
:1004E000CEE4F0FF06132323231E262B2F363F4D89
:1004F0005764747C7E71644C32230DEDBDAEB2B78F
:10050000B8B9C0BDCBD8D3C0B5B5A9A1ABBBC1C527
:10051000D8F512293333343A3A2B150602FEFAF98C
:1005200000040405080801F3DDCAC4C5C2BFC9DC64
:10053000F10A2130363D413E39332D26262D3A4CE5
:100540005E6B757D7E735C391704ECC69B8C96A33D
:10055000B3BFC9CCD7DED3C3BAB5A79FADBFD2E076
:10056000F71530474A44352D2612FBE2E0E2E4EB72
:10057000F603020200FAEFDCC8B2AEB9C4CAD3EF88
:10058000102C3B3E3A36372E1F151A232A39536753
:100590006F787F7A6A522AF5DDD4BE9589A2B9CBED
:1005A000DCEAE7EDF9E7CBBEC2B9AFC6E4FC061E54
:1005B000384A575141251508F6E3D5DBE0E5EFFB56
:1005C00001FCF7EFDECEBEB0A7ADC3D7E7F50B2831
:1005D0003C433B30271F191216212A384B66707393
:1005E00076746B512DF9D7CEBFA08A9CB5CCDFE5D0
:1005F000E2E1EDE2CBBEBBB8B5CCE8041725313A59
:100600004640290BF7F3EEE2D6DAE6EEF80102FAFD
:10061000F5E9D5CBCBC7BFC9E2FA0C1D2C353D3D62
:1006200032211817171317223243586A6D6D6E68FE
:10063000553B1AEBCBC1B9A396A9C0D6E4E6DAD8EC
:10064000E4DAC4B7BDC3CAE3FA0E1B252E353D2C30
:100650000FF4E9E9E6E0D6DFF2FEFBF6F7F4EFE4AB
:10066000D7CCCFDAE0E6F9111D23282F2F2B221348
:100670000D111A1920333E4147575C5B5F5A4B32CC
:1006800016EFD3D0C6AB94A3BCD0DCDCD7D7E5E261
:10069000D4CDD1D5DAF0071620272824272210F54B
:1006A000E4DFE1E5E2E0E6F802FFF7EFEDE5DDD3B8
:1006B000D5E0E3E5EF08151B1E1E1A181D160E0ED9
:1006C000110E10222C2F3038414C5658595A5E5674
:1006D0003C11E8DAD1BA9C93A0B8D3DDDCE0F1F0AC
:1006E000DCD0D3D7D4DAE90118201D1C262311F859
:1006F000E2D6D5DAD4D2DBEAF4FB03FFF5ECEBE685
:10070000E0E3ECF5FB0B1817151C2113090703FD9B
:1007100004121418222C2E364041464F5759606659
:1007200064582FF7D3D1C7A89290A0C1E9EFE0E6B3
:10073000F8F1D8D5DAD4D1E3FB0E262F25191D1EEA
:1007400004E0CCCED0CCCCD7E6F0FF0703FF01F716
:10075000E0E1F0F5F101171C1E1D14070803EFE09E
:10076000E3EDF5020C101922241F22282B2E3B4FFB
:1007700059636B706D633FFAC3B8B99C818499BCAF
:10078000E901F4F204F7D4D0E3DFDAED04183646D9
:10079000301B1810F4DCCFC8C9CED9E9F8FE020529
:1007A000FEFD02FAE9ECF9F8FF121E1B1A1603F31C
:1007B000EADCCDCFDBE6F0FD1120241D16140F0D71
:1007C0000F1C2C3D4E5F6D767C776A5C3EFDBCACA9
:1007D000B1A18E939DB4E703F2E7F5EBCED3E7E644
:1007E000E7FE0E18303C280E08FFE7D2CAC9CAD768
:1007F000EBFB030C1108040B1002F9FBFE01090CC2
:1008000004060B03F2E8E0D5D0CECBD7EEFCFD0614
:100810001215171B160B101A1A192D444B4C59653B
:10082000616068634F3E1DD8A7ACB1928096A7BAAD
:10083000E2FBF1F60DFFE0E800FBF301111C2C30A8
:100840001D0A04F8E2D0CDCBC7CBDAF2040E1217A2
:100850001917130C0706080502070AFFF0EAE2D988
:10086000D8D9D6D8E0E2E6F50002050C0D131B1B23
:1008700016181B1D222726252F3A3E3F4C5B5D5440
:10088000525146350EC996999F878094A0B8EC04C2
:10089000F70315FAE4FD0CFE071B1923403A18086C
:1008A000FEE3CDC4B9B5C0D1DFEEF801080C0E14DB
:1008B000140E0E10121921190C04FDF1E5D7CCC944
:1008C000C8C5D2ECFF0505030B1E22161113100B31
:1008D00009090E16130D1622242530383D434646CD
:1008E0004E5D61513F26F0B197968B828D97A7DBC5
:1008F0000A09061E18F5F407FFFB0E120F2A3D2306
:100900000802ECC5B2AFA8A8B7C9DBF6121F1F21B9
:100910002823140C0E0B0A18211813150BF5E7DE0B
:10092000CFC8CED1D0DAEFFE060B0B0B1115120E8D
:100930000F1316120A0707030001040A11161F2DD0
:10094000312C2D3230343F3F3D474E48380ECEA833
:10095000A7A08B8894AAD4FC060E242101F5FEFDE5
:10096000FB0506071C2A1801F6E3C9BCB4ACB4C8E1
:10097000D7E6FF161D1B1A1C1D170D0B141E201A7F
:1009800016151105F4E7E1DCD2CDD3DDE6F3FE0068
:1009900000050A0C0A0502050A0C0B09080700FBF2
:1009A000FEFDF5FD1013121F2621252E2A293233B4
:1009B0002F3C52574A3E3313D5A39A998C8B9AA851
:1009C000CBFF110716270FF4FB03FF081412213D7C
:1009D000381601F3D4B7ADA5A4B8CED4E60E2621BF
:1009E0001C1E1A13100E0F161F2426251F11FAE5C0
:1009F000D6CCC3C2CAD6E6F5031219130D0A01F606
:100A0000F9FDF9FD0B101117170BFEF4EAE7EBEFF8
:100A1000F6051019263339362E282E3636363F4342
:100A20004040392A20FEB586959D8387A7B8E023EC
:100A3000301C394A15FA1203E60212F908280DEBA8
:100A4000F0DDB3ACAB959CBFCEDD001B304444352C
:100A5000302813070C0D0F110A060902F1E4D8CA59
:100A6000C5C8CDDEF3020F1E2A30322C17FBE8E496
:100A7000E7E8EAF2FE11201C100C07FBF8FCFBFF74
:100A80000F17151D2727211C1A19140D121F2728AF
:100A90002827272E301F0A07F7C099A6B2A4AEC593
:100AA000C7E31E2305192A03EF01F2E20009F00251
:100AB0001DFCDFF0EACBCAC9AFB6E1F0EE051E209F
:100AC000232D2B2123200E09100A0306040100F711
:100AD000EBEAE7E0DEE1E8FB0B0E192B2E2A2C26D1
:100AE000160F03E4D2DCE1E1E9EAE6F70D0C050DAF
:100AF0000E040409060711130D1A2C241413181AD6
:100B000018100C19241B141D25242316050704D1C5
:100B1000A8BFCCB1B3CAC2DA1613EC0B2C00F11685
:100B200003DAF707E7FB2504DEF6F9DAD6D5BFC00E
:100B3000DAE0E0F912161E2B2A2A2D2211121A11C0
:100B400004050A0E1006FBF7F3EFEDEBE6EBF8FEFB
:100B5000091A1D191F1C10100E01F7E2C0C8ECEC99
:100B6000DEEAF5FE161F0AFD090CFCF8070E0A085E
:100B70000E171B1207071118170D0F232C292931E7
:100B80002E2A241B1112F5BAACC1B8A2B1B6B6E236
:100B90000AF1E8141B000A1800F90E06FB1C2B06CC
:100BA000F508FFE4E3DCBDC3E2DAD2F60D091C313F
:100BB00027212817091414070A0F090E1505F3F841
:100BC000F7E7E3E5DDDFEAF2FB0D18151925241937
:100BD000150C00FDF0CAC3E4ECE0E7EDF5142006C7
:100BE000FC0C0C010401FD0E14050F261C0B141D3A
:100BF0001716170E162D33272D39312B28190CFCFB
:100C0000C7AABDC2A7AABDBED70601E90E24FDF53D
:100C100010FBE5FCFFEF0A2308F91313F5EDEBD207
:100C2000CEE5E0D3EE09010A2A29181E1A08101889
:100C300003F9080C060A0AFDF4F6F0E3DFE0DDDE56
:100C4000EAF9030B1012151E1F12070503FDECD164
:100C5000D5EBF1F0F0F000181A0D0404020302FBCA
:100C6000030F0902141D14121518202922212A34F9
:100C7000372E28211D1B1A0D06E3B6BED2BBA7B620
:100C8000B4BBE406EFEF1615FD0E1DFDF80D0A03CB
:100C90001D18F5EFFFF9E1D7CFC4CCDFD9DBFA0A95
:100CA00004132F2E23272217252309000C0C0606D8
:100CB00002F3EAF2ECDEDCE0DBE1F5FE020C1114FB
:100CC0001C1C140A0703F7E9DBD8EBF2E7F000027B
:100CD0000D160B030A06F9FE03FE060D02011012A3
:100CE0000D111D1B1C2425282E35302E2C2C2726BB
:100CF0002317FFC9B7C3BB9CA1AAADCCFA00F00D66
:100D00001D07011A07EE04150916301901070AF02C
:100D1000DCD6C6B8C8D6CADCFF03031B281D1D23BA
:100D2000160D1713030E1E130B160CF4F1EFDAD188
:100D3000DAD9D6E9FAFA010D0F10180DFB010DFFF3
:100D4000EEE3DAF00B04EEF70C15130CFCF1F8F9F6
:100D5000F4F6FDFFFF091218161417242D2F271C77
:100D60002E3E3A383D342E35301E160AC498B2BF96
:100D70009995B0B2CA0813E8002708EA0B0FEBF9FF
:100D80001D0F0D393102010EEFD0D2C9B1BFD2C94A
:100D9000D6010D0313231A131D0F0310170C12296C
:100DA000200F1417F8E8E8D9D0D9DED8EB010507F1
:100DB00013130E0F0B00FA00F9F0F2EBEB0006F93B
:100DC000FA0104080A05FCFF0202020304070909EC
:100DD0000B11111018181522251B28322F344039F9
:100DE0002B2C2C1F15FCBAA0BAC0A2A8BBBDD808DA
:100DF00007EC0716F6EC0F0CF1001A16203C22F94E
:100E0000FB04E8CFCEBEB0C6D9D0DDFE00F9091B89
:100E10000F0C151113282A151D2F26161809EEEC94
:100E2000F0DED9EAEAE4F00103050802FF0708FF53
:100E3000FFFE0104FAE9F60E0BFCFC03081109FBA6
:100E4000F7FCF8F7F9FAFD04040010180D0F1C1751
:100E500017231D192D392E333D292034301109EE69
:100E6000AFA1C7C19DB0C4C2E41701E60C16E6E409
:100E70000EFCE810290F214923F0030FD8BCCDC088
:100E8000AFD2F1E2E90804F2071902FA1014112AAC
:100E900036232230260E0B03E9E3F3EEDEE7F4F10E
:100EA000F20102F7F7F9F8FD02F2E3F00504030E90
:100EB0000D08101204000800F2F8FFF6F4FCF4EF3D
:100EC000F8FBF5011414131C1F1A262D292B32359B
:100ED00039423D352E251910E8A698B5B8A0B2C9FB
:100EE000C8DB0905E7F700DDD2010CF9113A2E2124
:100EF000382DFDEDF9D9BED4DEC6D6FFF8E5FB0BE3
:100F0000ECE5FFFDF10B221A263F321A1F1A0406E8
:100F100009EFE60002EEF807F5ECFCF8E9F905F256
:100F2000ECFDFEF1F600FDFD04070D1511070A0E9C
:100F300007FFF9F5F3F3F1F4FCFF02090D0D1516A7
:100F40000D0C14171C2D333139453E393929180F32
:100F5000EFB1A3BCBEA7B5C6BFCEF4F0D6EAFCE0A5
:100F6000D6041606183F37232F2A02F2F6DCCAE50C
:100F7000F6DFDEFBF7DDE2EEDED8EFFAF9102C2C1F
:100F80002832332518130D0D0E0D0D110D01FFFA2A
:100F9000EDE1DED9D7E3F0F6F7F9F5E5D7E1F8FFB3
:100FA000FA04151814181707FAF2E8EAFC01F6FD1E
:100FB0000F0E09131C11080D15181C2B363836405E
:100FC00046413D382C272C05BCA8CACBA8B3CBBFC3
:100FD000C2E8E8D3E9F4CBC2F80F00153426223872
:100FE00028030B0BE3DDFDF8DDEEFADFCEDBD8CA1C
:100FF000D9E2DFF111151425210F101A0E0D1F2152
:101000001116281A03FFFCE4DEEAE9E0E8F2E5DD68
:10101000E7F1EAECF5F8031417121B1E11080A0990
:101020000913110206150F0712150A080F0D0A08F9
:101030000814242B2C33363338392D251CE4B4C442
:10104000DAC2BFE1D4BBCBDEC2C7E4CCACD70F035E
:101050000F372907223104002211E7FC1B06F7FE97
:10106000EBCCD1D6C3CDECEFED0714040711090387
:10107000141E18203031262216070300F4F0F8F26F
:10108000E6ECEED6BFC4D7DDE0EDFD060D130C0E89
:10109000150DFF04161C1E2121160F181B15151AFD
:1010A00016121717130F08090F1B283432292D3574
:1010B00020D9B7C9D6C6D2E8DBD7E7E1BDC7DFC3C1
:1010C000A7D0FFFA092D1E05161AF6F9160AF91708
:1010D0002B0E070FEECDE0E6CAD6F9F7EAFB01F3D7
:1010E000F3F9ECEF101E1B283323181B1104060C18
:1010F00008050A0A03F3DBC2BEC9D5E2EDF7010514
:10110000050907F6F1FE060C1D29231B17120E1503
:101110001D232B2C2626261912140D06121E232AF7
:10112000271D1C0BCBAAC4D3BED400EFD8EEEEB95A
:10113000B8DBCDBDE2FEFA172E0BF20504EAFD186E
:101140000900191E010308E8CFE2EDE4FC1203F4E4
:10115000FFFDEEF1FD00FD06131B2423170E0E0606
:10116000060D0C0C1615FEE9DED9D0DBF3F8F3FE04
:1011700006FCFCF9F0ECF6FF0A1B211A0E1112070F
:10118000020D171523333029282720211A151B2279
:101190001B1E2B1F100DE5A9B5DFCCC2F6F8C8CE7B
:1011A000F1CDB5D7D3B7E110F4FF2E17EA0412E959
:1011B000EF1B10F41321F9F209F3D0E2F0E1EC0691
:1011C000FDEEFDFAE5F205F6F81B24182126140CB5
:1011D000140A03101A13121301E1CBD9E6E6EF0348
:1011E00001F80102FAF2F0EFFA0509101B180F0ED0
:1011F0000F0D151B1D28322E292E2C242224232CC2
:101200002D26242A2419F2B5B0D3D3BFE6F4CABFE1
:10121000E2CFA5C3D5B8CC09FEF11E1CEBF315FF38
:10122000F3171B071A2D03E8FCEFCFE0F8E2DEFF0F
:1012300001EDF5F9E4E5F7F5FF1820161B241D1B59
:101240001E19151E2116120EFDE3DAE9F1EFF9035E
:10125000F9F901F6EEF0ECEB000D07050A0A0404BB
:10126000090F14151C282925282118222C272C3C6D
:101270003629272E291EEDB8C0DCD1C5EAE2BEC34F
:10128000E1C6ABC4C1B3D5FDEBF31603E903180403
:10129000071C0F07222A05FA00E7DAF6FDE4EAFD4B
:1012A000F0E9F5EBD9E4F2F0082019101718151C35
:1012B0001F1D1B1D211F1307FDE1CEE7FDF3F405E4
:1012C000F4E2EFF4EAE4E7EBF805080A0808070E91
:1012D0001110161C23262A2829231F23231E2639F2
:1012E000342C2A2C2018E9B5C5EBDBCBFBF0C1CAA6
:1012F000F3CCADCDCAB7E30EF0F418FDDF0315FB58
:1013000004210B032425FBF703E6E10001E4EFFED3
:10131000ECEBFAEEDCE8F0ED0013100908080B1214
:10132000131A19171A1A120A02EEE5F705FFFDFF44
:10133000F3EEF4F2EEECE9EF000602FCF9FA010933
:101340001217161C242A2929261F21282D2B323555
:101350002E2C2624201CDDB2CEECD0CDF9D4ADC786
:10136000E9BEB9D6C1B9F311EAFB1CFBE5121E02B6
:1013700011250B0B2D22F7FCFFDDE205FCE4F3F059
:10138000DDECFAE3DBEBE8EC09150D0D0B0B1418A3
:10139000151B1E151C231B0E06F5E3F50805F9F9B0
:1013A000F1EBF5F9F4EAE9EDF4FF0704FBFE0300C5
:1013B000061017171E2524252725212427232F341F
:1013C000302D2E261F19D6B1D2EECCD9FBD1B2D0FA
:1013D000DEB4BEC8B3C1F8FCE8040CEBF3170E068C
:1013E0001D1D0B1F2F180507F7E4F500F4F3F7E5B3
:1013F000DFEFE7D9DFE3E3F607030910070A191A5D
:1014000017201F1D242215110CF4ED030D00FAFB0B
:10141000F2F0F9F4EAE8E9EFFF0702FCFBFD040B48
:101420000E0F1920212729261F21202022242F2CAE
:101430002D29261E2202C1C1E2DEC9F2ECC0C5E19F
:10144000C9B5CFC0B1D9FEECF20DFAE8011007130F
:101450001F12192A21141202EDF5FDF7F5F7ECE63B
:10146000F0ECDFDFDEDAECFDFB000C0604121415F5
:10147000212319222A1D14180CF4F2030800FDFD83
:10148000F9F7F8F7F4EDECF0F90104FDFA030908B7
:101490000A151A181B2125211F2122252025282B5A
:1014A0002D2A242320E1B9D5F0CED0F2D7BCCFDE4F
:1014B000BCBDC5B8BFEBFBEFFD02F5F80A0A0A1286
:1014C00010152624181305F0F3FAF7F7FBF1E6EDF3
:1014D000F2E8DCDCDEE4F3FE03060402090D11157C
:1014E000171822261F1D150A0301FE0303FAF9FF30
:1014F00001FBF8F2EEEBF1F9FBFAFD00FE040D0A38
:1015000006111C181B25242125231F2C2D26282CD1
:101510002B26272421ECBDD1F5DFCCEBDBBBC5E4CA
:10152000CABAC4BAB6DAFBEDEEFDF9F4040E070749
:101530000B1422211A140BF8F801FAF9FBF4E8F362
:10154000FBE9DFE2E3E2F600FAFF07060511120C01
:101550000F151D201F19120A03050405FFF8F6FBDD
:10156000FEFBFCF6F0EBF2FBFBF7F9FFFE05100DBE
:10157000040D1718191F1A191F212122251D2525B1
:10158000252428211808D7CBE3EDCFDCE7CBC3DE39
:10159000DDB9BBC2BDCDEDEFE7F7FCF4FC0A0A06EE
:1015A0000D13202318141202F90903F8FEFCEBEBCB
:1015B000FAEDE3E3E5E6F1FDFEFFFB01090D0A0CA0
:1015C0000E0E1822201B180E070D0B040603F9F44B
:1015D000FDFFFCF1EAF1F2F1F5F8EFF4FEFE030B8A
:1015E0000B0B151D1D1D1C191E252A28241E202726
:1015F0002424201E181FFDCBCDEBE2C9E2E4CCC9A8
:10160000E3D4BFC8CAC7D8F8F5F1FAFDF9FF05035E
:101610000609111E1C14130CFCFF09FDFA01FEF251
:10162000F6F8EEEAE8EAEAF0F901FEFA010400FF52
:10163000090A0814201B16190F04060903020705DE
:10164000FDFAFDFBF1EBEFEFEFF4FAF4F2FB01FE34
:101650000109090D181E1C1F2224252626252123D9
:101660002F2E26221F1D21FECCD1F4E7CEE2E6CD9F
:10167000C9DED0C4CAC7C3DEF7F1ECEFF6F8F9FC57
:1016800007080411231D11140CFAFF0C05FD0101BC
:10169000F9F9F9F0E9E8E7EAF5F8F7FD00FC0004EC
:1016A0000102070611222114121308040503FF0684
:1016B0000A060502FCF4EFEFF4F5F5F8F8F8FAFD88
:1016C000FDFD00050B1113191F1E1D2325262724C0
:1016D0002A332F272A2A1F1F17EBD2EAFADEDAE76E
:1016E000DCCAD3D7C3BDC0C1C9E4F0E9E7EAF4FB63
:1016F000F7F7080E0917231C131008030C0F06FF39
:10170000030402FBF3F2EDE5E7F2F5F2F3F8000172
:10171000FDFF0303010711191B1711121200FA062E
:101720000B0303060401F8F1EDEEEDF0F7F9F8F51F
:10173000F7F8F8F9FD050C11131C211912171D21DA
:10174000282D2B2A292929211C2121F9D8E803EC4D
:10175000CFE1E7D9D2DCCEC4C8CAC7D2EBEDE6E907
:10176000F3FCFEFAFB080B0C181C1610100A090EED
:101770000B0402090601FDF8F3EEECEFF6F5EFF0CD
:10178000F8FF01FEFAFD0406090F1718110C100FDF
:101790000601FE00091003F8FBFBF2EDF3F1EDEF9B
:1017A000F4F6FDFEF7F4F9FF020910131516171FE2
:1017B000201719282B20222C2F271F202420F9D86E
:1017C000E401EED3E0EBE0D5DCD1CACACAC8D3E964
:1017D000EDECE8EDF8FBF5F605080B151D1D1915E8
:1017E0000B0C140E0508100B07FFF5F3F3ECE5EBFB
:1017F000F2F2EEF0F8F7F1F0F8FE00060E1516150D
:1018000014131309FCFF0A0C07060401FCF6F6F397
:10181000ECEAF1F4F7FEFEFBF7F9FCFC010B121504
:101820001C1D1B1F1C171B232320293030271F1EA4
:101830002215E7D8F201E1D9EEEBD8D5D9C5C1C858
:10184000C8C5D5E8E8E3E3EEF6F0EBF809090C19B2
:101850001F2020180D131B130709110C0400FCF4A2
:10186000EDE9E8E9EAEDF1F3F6F3F3F7FBFBFF0945
:10187000101416171816110E0CFFF8030F0A00FFAC
:10188000FF00F9F0ECEFF1EEF0F8FEFDFBFAFBFFE4
:10189000FE00091316191D20211C171B1F1F232BC7
:1018A000292628251E1E13EAD6F005EBD8E9F0E01C
:1018B000D5D5CBC6C8C7C5D3E2E3E1E2E6EFF3EB8B
:1018C000EF050B051123221918110C141508061029
:1018D0000F090700F8F4ECE4EBF1EDEEF8F9F3F39F
:1018E000F6F7FAFE0108101416161312110C080769
:1018F00001FA010C09FBFAFDF9F1F0F2F0EDF1F754
:10190000F8F9FCFDFCFF04080A0F161C1E1E21221C
:101910001D1920282724272B2824232416F3E0F53B
:1019200007EDDBEAF5E3DADCCEC4CACEC5CEE1E3EF
:10193000DFE5EAEBEEECECF90403071518100D0EE9
:101940000F0E0B06081110080504FFF8F2F0F6F967
:10195000F6F3F8F9F6F7F6F3F5FD03060C0F0E0DA6
:1019600010120B05070D06F9FA060900FBFCFDFA3B
:10197000F6F3F1F2F3F8FAFBFDFFFEFE0305070CA8
:1019800013181B1C1B1A1A1C202121232B2A252467
:10199000251F1D14F5E4F90BF3E1ECF4E3D9D9CFDD
:1019A000C8CBCBC4D1E3E4DCDCE3E8E7E0E4F5005A
:1019B00000020D110C0D10100F1110111514110D46
:1019C00006000003FEFAFEFFF8F3FAFCF4EDF0F86F
:1019D000FBFCFF050504060604040501020808FFD8
:1019E000FA040A03F9F9FFFEF8F90100F9F9FDFF1D
:1019F00000030303070C10121615161A19171B21E2
:101A00001E202524242525212213F3E8FF10F8E6C3
:101A1000EEF8EEE0DBD4CCC7C9CCD2DADCDADADF20
:101A2000E1DEDBDEEBF6FAFD07100B070B111213FC
:101A30001313171C1A0F090A0A0605050604FFFCF2
:101A4000FCFAF3F2F4F6F7FAFD0000FEFD0001FFE8
:101A5000FEFEFCFC0304FDFE0809FEFAFE00FDFB91
:101A60000003030102060605070C0E0D0F131517E0
:101A70001717181A1C1C1E1E1F21201D1C1E07EDE7
:101A8000EC0305EFEAF4F6E4DCDBD7CFCACBD2DB1C
:101A9000DCD5D5DADBDCE0E3E5F1FDFCFA050D068B
:101AA000050E13131619191A1A141011110B0A0C1A
:101AB0000B0B0902FE00FEF4F2F7FAF9F9FBFBFD4D
:101AC000FEFFFEFEFCF8FAFE0303FEFC030A06FF1F
:101AD000FE02030405050200010508080505090EBC
:101AE000110F0B0E111013171A16191E1F1F1E1F90
:101AF0001D1D0BF1ED0510F6E6F0FCEFDFDAD9D78E
:101B0000D2CED0DADDD7D6DBDDDDDCDDDFECF6F8FA
:101B1000FA0103FE040D0E0B101618191A15100FFA
:101B20000E0B0B0F0D0B0906FFFDFDF8F4F7FBF98B
:101B3000F9FCFDFAF8F8F9FE0402FF010300FF05C5
:101B40000600FF080D080000040500FC0004020365
:101B50000706030103060A0D0D0C0E1115181512C8
:101B60001820201E1F211F1B08F3F50A0BF4EBF8A9
:101B7000FDEEDFD8D5D4D4D2D3D8D9D5D4D9DFE1AE
:101B8000DFE0E6F1F7F8FA010607080B101719165F
:101B9000181F20160F1013110F0F0E0A0601FDFB60
:101BA000F8F6F3F1F3F8F7F1F1F8FAF6F4F80002C9
:101BB00000FF040700FB040C06FBFE090C050204F1
:101BC00001FFFEFEFDFDFEFCFD0004030206080809
:101BD000090B0C0F151A1B1A1C1F1D1C1D1E202182
:101BE00016FEFA0A13FFEDF2FBF4E6E0DDD8D4D0DE
:101BF000D3D9DCD5D2D9DEDBD9DDE3EAF6FEFDFCB4
:101C00000105080E1213161A1E201E1610121412A9
:101C1000100F0A060603FCF7F6F5F4F2F0F2F3F300
:101C2000F3F7F8F5F4F8FE010304070808080602C4
:101C300001070C07FF030904F9F6FBFBF5F5FBFDB3
:101C4000F9F7F9FAFCFEFDFE030A0D0E0D0F171D44
:101C50001C181D24262221262724212313F9F40AE7
:101C60000FF6EBF5F9E7DAD8D4D0D1D5D6D7D6D858
:101C7000DDDEDCDFE7EAEBF70304020A0F0C0C13EE
:101C800016161516191B19110D0A0702FFFFFEFF84
:101C9000FBF5F3F4F0EAEAECF0F4F7F7FAFFFEFAFA
:101CA000FB01080A0C0D0F11100F1013100B050487
:101CB0000705FDF7FBFCF6ECEBF3F6EFEAEEF3F3CA
:101CC000F1F3F6FAFD00040B101213171B1D1E2072
:101CD000242728292A27292D2B201C13FCF0FD0658
:101CE000F3E3EAF4EBDDD2CACACFD2D1D3D7DBE03B
:101CF000E2E0E3EBEFEFF80509090C13120F111303
:101D000012121315130E09060502FDFBFAF6F4F57F
:101D1000F3EFECEFF2EFEEF4FBFDFEFF010205093D
:101D20000C0E111515141618151413110E0E0C04A3
:101D3000FEF7F1F0F6F4EBE7EAECE5DEE0E6E6E6E6
:101D4000EDF4F6F6FAFE0105090D14191E1F1F2207
:101D5000272722262E33312926292A241B0EF7EE87
:101D6000FA03F1E1E8EEE0D0CECBC7C8CCCFD5D9AD
:101D7000D8D8E1E8EAEAEDF2FF0D0D0B0E12100FD4
:101D8000151816121414120C05FEFBFBF9F7F5F1E9
:101D9000F1F3F0EBECF1F2F1F5FCFEFDFF03090EBF
:101DA0000E0F151B1A1718191716141212120C05FC
:101DB0000403FFF9F5F3EBDCD8E9EFDDD2E0EBE269
:101DC000D9E0EDF1EEF1FA010003090D131B1E201D
:101DD000252C2F2B27292C2A292D30292225271F76
:101DE00015140BEFDFEEFBE5D4E0E9D8C8CAC9C58E
:101DF000CAD1D0D3DFE5E1E2EAF2F4F6FE0B14112A
:101E00000F1419130F1517121113100B0804FBF4FC
:101E1000F3F2F0F0F2F4F3EEECEDEEEEF3FC00038F
:101E2000080A090C0D0A0C151918171714100F0DB4
:101E300008050806010000F8EFEEEFEEE8DAD6E755
:101E4000F7ECDFEAF9F7EBE9F4020402060D1115ED
:101E50001412151A1A1C252925201E222824191BA4
:101E600026261B131519191308F4E2E8F6EDD8DE3F
:101E7000EFE6D1D0D5CFCCD2D6D8E0E7E7E8EEF385
:101E8000F4F5F90410120E1117140E0F110E0B10A9
:101E9000110D0703FCF6F5F2EDEBEFF2F4F3EFEDC5
:101EA000F3F7F4F4FC0406070B0E0E1012121316CF
:101EB00017151314130F0906060601FCFBF8F6F3B9
:101EC000EDEBECE6D9E1F2F6EDF0F7F8F4F0F2FB29
:101ED0000709090B1013130E0D141918191E201ED3
:101EE0001B1C1D1917181612141B1915110D0906A4
:101EF000F7DCD9EEF6E3DFE8E4D6D5D5C9CBDBE0F5
:101F0000DCE6F3EDE7F1F8F4F6040E111617141100
:101F100012100E0E0B090D0E05FEFBF4ECEDF0EEAB
:101F2000EBEEF1F2F2F0F0F3F7F9FC03090C0F120B
:101F30001011171511171F1A1214160F0805020198
:101F400000FEF8F3F0EDE5DADCEBF3EAE7EFF6F4A8
:101F5000F0EEF0F700080D101315130F0F12141701
:101F60001E211E1B1B1B181211161C1A15161612E9
:101F70000C0907090BF9DEDCF1F3DED9E7E5D6D66B
:101F8000DCD6D4DFE1D8E3F8F6EAF403FFF9010C7C
:101F90000F1112111215130C06060601FEFBFBF9B8
:101FA000F3ECECEFEBE7EAF0F0F1F2F1F3F9FCFE21
:101FB000050C0F1114141416171716151514120FFB
:101FC0000A0501FCF8F7F4EDEAE8E1D9DFE7E7E517
:101FD000EBF2F3F1EFF1F80206090F1519181514D9
:101FE000191B1A1C23252220201E1A171618191B2C
:101FF0001D1B1410100B05080BF7DDDFF3F2DCDA04
:10200000E5E1D4D6D7D0D3E1DFD5E1F3F1EAF5FEAF
:10201000F9F9070D090D130F0C1414070308070134
:102020000202FBF6F3EDECF1EFEBF0F4F4F4F9F966
:10203000FAFE0101050D0F0E1014171717161513D0
:10204000110F0E0B0702FDFAF9F6EFE7E6E3DFE604
:10205000F0EDE4E8F1F1EEF3F9FB00070A0B0F13E2
:102060001311141A1E1C1D2021201F1E1E1F1D19B6
:102070001C1F19151C1F160F100F0B08F8E0DEF0BF
:10208000EFD9D7E6E4D4D3D7CDCBD9DAD1DDF5F586
:10209000E9F2FEF9F6040C090D16140F13140801E9
:1020A000090B050204FFF9F6F1ECECEDE9E9F0F5B6
:1020B000F6F7F8F8FAFDFE01070D0F0F10121616CD
:1020C00013101011100E0A04FFFEFBF2EAEAEAE810
:1020D000E8EAE9E6E9EDEDEBEEF3F8FC0003060AC9
:1020E0000C0C0D1117191B1E1F1E1F201E1E1F205A
:1020F0001F20201E1C1B1A16181A1A17150AF3E1A6
:10210000E2EAE3DBE0E7DFD8D7D1C7CAD3D4D6E42D
:10211000F0EEEEF7FBF5F70207070E151313151097
:1021200005020505030301FCFAF8F2EBEBECEBEB1F
:10213000F2F8F9F7F8FAFCFE01070D101012161666
:10214000121010100F0E0F0E0A03FCF7F3EEE9E168
:10215000E0EBF4EDE2E8F2EFE7ECF5F9FD0205075C
:102160000E13110E111415181E2322212021201EDA
:102170001C1D201F1F21221E1916191A13101107CA
:10218000E7D5E3F3E2D0DBE6DACED3CFC5C9D7D2C9
:10219000CFE5FAF0E7F600F6F5060E0A0E15131372
:1021A000191301FD070800FF02FFF9F6EFEBEFF34B
:1021B000EFEDF5FAF8F8FAFBFC02080A0F14130F1A
:1021C00011130F0C0D0F0F100E090303FDEEE4E7C2
:1021D000ECEBEAEDF1F1EFEDECEDF2F6FAFF0306D0
:1021E000090C0D0C0A0F141919191B2022211E1E8F
:1021F0002223211D1F1F1E1F211D16171B160B0733
:10220000F8DCD0E2EBD8CEDCE1D0C9CEC9C2CED862
:10221000D1D7F0FAEDEEFEFFF701100E0D191D15E6
:10222000151A1003050D07010303FDF8F4ECE9EDA1
:10223000EEECF0F9FCFAF9FAFBFE03070B101211B1
:1022400013151613110F1011100D0804FDF5EFEC06
:10225000EAE7E5E4E7ECEEEBEAEDF0F0F1F6FD029B
:102260000507090E12121011171B1B1F2425201F12
:1022700022231F1C20221E191D211F1A180F070AB6
:102280000AECCCD4F0E8CCD0E5DCC6CAD1C6C5DABD
:10229000DBCFE1FEF6E3F308FDF207181210191583
:1022A0000F171805FC0A0E02FD02FEF6F3EFE9ED2A
:1022B000F1EBE9F600FCF9FEFFFDFF03030A14153C
:1022C0000F0F14140F0F0F0B0A0B0804FFF7ECEAA3
:1022D000EDEBE6E9EFEBE6E8EEECEBF0F4F3F7011B
:1022E0000301050C0D0B0E141818191C1F222220B7
:1022F00020202120212122202024272119191812F1
:102300000B03EBD3D9EEE4CBD0E3D9C2C7D1C7C01E
:10231000D0D3CDDDF7F3E7F606FAF20918110F1C5A
:102320001F181B190A040F0E01FF0802F6F5F6EF3D
:10233000ECF1F0EEF6FEFAF6FD01FBFB030B0D10DF
:1023400013131415120F0F100D0A070603FEF3E600
:10235000E3E9ECE7E5E6E9ECECE9E9EEF3F3F4FBBD
:10236000030402060B0C0A0F191F1C1A1F24232238
:102370002222242725202126231F22241E1816145A
:10238000110EF5CFCAE7ECCCC3DBE0C8C4CFC7BBA6
:10239000C9D3CBD4F5FBE8F00802EFFF1816101BE9
:1023A00020181B2111FE071308FB0107FCF2F1F0B6
:1023B000EBEDEFEFF3FBF9F4FA0200FB01080B0E73
:1023C0001314141719130E11120C080A0800F8F44C
:1023D000EFEAE8E9E8E5E5E9EDEEEDECEDF0F4FA39
:1023E000FDFE00050C0E0C0D111416191D1F2224E4
:1023F00024232424211E2225211E24261D161713E2
:102400000C0D04DEC7DFF5D9BFD5E9CFBDCDCFBCFC
:10241000C4D9D0C9EC04EDE40510F4F1111A0E167C
:10242000241C17221E06000D0CFF010800F6F4F014
:10243000E9ECF0EBE9F6FEF9F8FEFEFC0105060C0E
:102440001615101319150E0F110E0A090804FCF5C4
:10245000F2F1ECE4DDDEE4EBEBE7E8EDF0EEECF2DC
:10246000FBFEFCFF080D0C0C0F101115181B22258C
:10247000201D2428211C1F222121232525221D184F
:10248000120E100BEBCFDAF1E3C8D1E5D8C2C9CEFA
:10249000C0C1D5D5CADEFCF3E4F80BFBF108150D7D
:1024A0000F1E1B121C1E09000E0EFEFE0B06F6F27E
:1024B000F3EEECEFEDEAF2FDFBF8FC02FFFE0207A3
:1024C0000C131714151A180F1015130C0C0903010F
:1024D00000F7EEF0EBDEDDEDF1E5E2ECEFECEDEE3A
:1024E000EFF6FEFEFF080E0B080A0D101417181B5E
:1024F0001F20202224211F20232322232221211FC9
:10250000191615120C07F5D9D1E3E6CEC9DCDEC9E0
:10251000C6CEC4BDCDD5CBD7F6FBECF60901F30290
:10252000120E0F1D1E141A1F0EFE070CFCF60203DE
:10253000F4F2F6EEE5EBEEE8EAF9FEF8FC06060248
:10254000060D0F1014181B1E1B1411120F0A090A76
:10255000070300FAF1ECEBE2DADFEAEAE4E8F2F290
:10256000ECEDF3F7F9FD02080D0F0E0E1114151422
:102570001921231E1E2326241F1D1D21221F1D1F5E
:102580001E1B1A1A160F0C08FCE6D9DCE4DDD1D2AA
:10259000DAD5CECFCCC3C7D4D3D0E4FAF6EFFA0263
:1025A000FBFD090C0B151C1410161304000704FB8B
:1025B000FC00F9F1F1F1EBE9ECEBE9F0FAFBFA02DE
:1025C0000908060B101315191A1B1E1E1A181611CE
:1025D0000C0B09050200FAF6F4EADDE3EFE6D1D8C8
:1025E000F0F6E9E8F2F6F7F8F7F8040F0B040E1C22
:1025F0001A11121A1B1819202524232424221F1B08
:10260000171B201C171A1D1810080403F9DBC7D864
:10261000EDDAC3D0E1D3C6CECCC1CCDDD1CCEC0554
:10262000F6EC010C000113130D171F14111C1701F8
:10263000FF0C05F4F903FAEFF3F2E8E8EFE9E4F050
:10264000FCF7F7040A04050C0C0E191D16161F1FC3
:10265000181617120B090803FDFAF6F3F1ECE7E779
:10266000E8E1D9DCE8EEEDEDF1F7FAFBFAFD03095C
:102670000B0C131C1F1814161A18171B20211F21CE
:1026800023221D1918181918191A191517130802D9
:1026900004F3D2CCE4E7CDCCE1DEC7CBD6C7BFD6BE
:1026A000DDCAD5FF05EDF30D08F909190E0B1D1F45
:1026B00011151F0FFD0309FBF2FBFDF2EEF1E9E33B
:1026C000E9EBE4E8F7FBF6FD0907030B110D0E1823
:1026D0001B171B211D1413120B0301FEFAF8F4F053
:1026E000F0F1E8DFDCDFE0E3E6E9EBF0F5F8FAFD36
:1026F0000205080C11141518191816181817171AAE
:102700001C1C1D1D1A191A191918171514171A1936
:102710001513100B0808FBDFD1DFEADACDDBE2D2BC
:10272000CAD4D1C6D0DCD1CEEC02F6F1040BFE0146
:1027300011120B131C1819231C07000903F4F1F7DD
:10274000F4F0F2F1E9E8EDE9E3EAF3F3F501090762
:102750000910110E141A15131C2019131311080354
:1027600000FBF6F5F4F0EDE9E5E3E6E3DFE3EDF297
:10277000F1F5FB00040808070C131210171F1E18B0
:10278000181A1815161919181716161514100D0DF4
:102790001113151716141311090405FADED2E1EB13
:1027A000DCD3DEE1D5D2D6CDC6D2D8CDD3F0FCF382
:1027B000F606060007100D0C151A181C22190A0639
:1027C0000802F7F4F5F4F3F4F1EDEDEFEDEAF0F7CC
:1027D000F7F80007090B0F101012141315191A152A
:1027E00011100E0C0700FAF7F6F4F2EEEBEAE6DE53
:1027F000DEE7EDEBEBF4FE01030505070B0C0C1116
:10280000161818191A18171614121315141314156C
:1028100012100F0D0A0B0F1316181813100E0C09B7
:1028200003EED8DBEDE8D3D4E4E1D2D3D8CFCBD5D7
:10283000D5D0DEF6F9F1FB0907020B100D0E1513CA
:10284000111A1F12040609FDF2F3F6F1EFF1F1EE91
:10285000F0F1ECEBF2F5F3F60107090E1111121588
:1028600014121517131013140F0904FFFAF7F2EEE0
:10287000EEF0EFEAE6E8E9E4E1E6EFF4F7FB020860
:102880000D0D0B0C10110E11181A1716171716151F
:10289000131314151415161412100F0F111212170A
:1028A0001D1B161413100AF9E2DAE4E6D8D4DDE0B1
:1028B000D7D7D8D0CACECECAD8EEF2EEFA080702E1
:1028C0000A0C080B1415131B20160B0C0AFEF5F44A
:1028D000F2EDEFF2F0EEF2F1EAEAF0F1EDF2FE03E2
:1028E000060E151514191917181B19151617130D9F
:1028F0000A04FDFAF8F2EEF0EEE9E8ECE9E1DFE3D4
:10290000E4E6EDF3F7FE070B0B0A0B0C0C0B0B0DBB
:10291000111212111111100E0D0E0E1011110F10B7
:10292000121313131313181E1F1B1A1714120AF372
:10293000DFE3EDE3D5DCE5DED8DDD8CDD0D7CFCCF5
:10294000E2F5F3F40710090710100B101613141D0D
:102950001D110C0C04F6F0EFE9E6E9EBE9EAECEA0C
:10296000E7EAEEEDEEF701060A111616191B191625
:10297000191C18161A1B140C0803FCF6F2EFEEEFE4
:10298000EEEBE9ECEBE3DDDEE6EBEEF1F9020A0B50
:102990000A0B0D0D09090E0E0B0A0E0F0D0D0A077D
:1029A000080D0C0A0B1013110F10141716161B220A
:1029B000231F1F1F1A161405EAE2EDECDAD6E2E037
:1029C000D5D7DBD0CAD3D3CAD4EDF3EEFA0C0E09B7
:1029D0000F110B0C151510171E160B0E0E01F4F22D
:1029E000F0E9E7EBE9E6E9EBE9EAEFF0EDF2FD0209
:1029F000040B1417181C1E1B1A1C1A16181A151073
:102A00000F0D03FCF8F6F2EFEBE7E9ECE9E2E5E89D
:102A1000E4E4EBF1F2F9000203090D0A08090D0CD8
:102A20000A090B0C0A0A0A09090A0A0B0D111213EA
:102A30001415141517181A1C21222122221E1612F1
:102A400009F4E4E5E9DDD4D9DDD7D5D9D3CACFD4AB
:102A5000CDCEE4F2F0F5060D090B100C090E100CAA
:102A6000101A170C090B05F8F0EFEDEAE9E9EAEEA8
:102A7000EFECEBEEEFEFF3FB00040C1417191C1C4A
:102A800018191C19141519160F0E0D0600FDF8F172
:102A9000F0EFECE9EAEAE7E8E9E7E3E7EFF3F2F67B
:102AA000FE010105070504080B07060A0D0B0A0DB8
:102AB0000E0C0C0E100F1014171616181A1A191ADD
:102AC0001D1F1E1E1F1F1F1C171007F8EBE7E9E153
:102AD000D8D7DAD7D5D8D5D0D1D5D0CFDBE7E9ED67
:102AE000FA0303070E0C07090E0C0B1115100C103E
:102AF0000E04FBF9F7F0EDEEEEEDF0F2F1F2F6F97F
:102B0000F7F6FB0105070C1116191A1A1A191614F3
:102B10001312100F0D090603FEF9F5F2EEEBEAE9C8
:102B2000E8E9EAE9EAEAE7E6EDF3F5F4F8FE040697
:102B30000607080A0B0A0B0D10100F1014141111C0
:102B400013151413141517191716181B1A181A1B16
:102B50001A1714100A02F6ECEAEAE2DBDCDEDCDA31
:102B6000DBD9D3D3D4D1D1DAE3E6ECF6FE00030609
:102B70000606080A090A0F121110110F0A0400FCB8
:102B8000F9F7F6F6F7F8F8F9F9F9F8F8F9FAFBFFBA
:102B90000205080B0E10111010100F0E0D0D0D0B6D
:102BA0000A09070300FDF9F5F4F2F0F0F1EFECEC9F
:102BB000EAE8EAF0F1F0F3F8FBFCFF020303060891
:102BC0000A0D10100F0F10100E0F0F0F0F1215140B
:102BD00013131313131414131315171817171411B1
:102BE0000D05FAF2F0F0EAE4E6E8E5E2E3E1DCD92B
:102BF000D8D7D5DAE2E5E7EEF6F9FAFE02020104EB
:102C000007090C0F100F11120F0B070401FEFCFA3D
:102C1000FAFBFBFAF9F9F9F8F6F6F7F8F9FAFD011B
:102C20000508090A0B0C0C0C0C0C0C0C0B0B0B0AFA
:102C300007050300FDFAF8F5F4F5F3F0F0F1EFEB1A
:102C4000EDF2F4F1F1F4F7F9FAFCFD0003040407E6
:102C50000B0B09090B0D0D0D0E0F11131314141688
:102C600015131314151515161717161514120F072B
:102C7000FDF7F6F6EFE9E9EAE8E6E5E2E0DFDCD7C2
:102C8000D6DBE0E0E3EBF2F6F9FCFE010404030519
:102C90000A0B0B0E1112100F0D0A080501FFFDFCA7
:102CA000FAFAFAFAFBFBF9F7F7F8F7F7F8FCFE0087
:102CB0000204060708080808090908090A0A08079B
:102CC00007050301FFFDFCFAF9F7F6F5F3EFEFF264
:102CD000F4F3F2F4F5F6F6F7F8F8FAFBFD00030664
:102CE00007090A0C0C0C0D0D0D0E111313141516FB
:102CF000161615141414131312121212100D0B08B9
:102D000002FAF6F5F1ECEAEAEAE9E9E9E6E3E2E0FB
:102D1000DEDEE1E4E6E9EDF1F5F8F9FAFCFDFEFFAF
:102D200001030507080B0D0E0D0B0A080705040328
:102D300002020202030303020100FFFEFEFEFFFF88
:102D4000000203040505050504040303030202024F
:102D50000202020100FFFEFDFDFBFAFAFBF9F7F8A3
:102D6000F9F5F4F7FAF8F7FAFBFAF9FAFBFCFEFFCB
:102D700000010406050507070707080A0B0C0D0DDF
:102D80000F101010101010100F0F0F0F0F0E0E0D50
:102D90000D0C0A0804FFFCFBF9F6F4F3F3F2F2F170
:102DA000EFECECE9E6E5E7E7E6E6E9EBEDEFF0F27C
:102DB000F4F5F6F7F9FBFCFE0003040607090A0A1E
:102DC0000A09080908070707070708070606050391
:102DD00001000000FFFFFF000000FFFF00000000F7
:102DE00000000000010100000001010000FFFEFDE5
:102DF000FDFCFCFBF9F8FAFBFAF9FAFBFBFBFBFB29
:102E0000FCFCFDFDFE0000010102040505060606AE
:102E1000070707070808080808090A0A0A0A0A0B28
:102E20000B0C0C0D0D0E0E0F0E0E0F0D09070604E8
:102E300001FEFDFCF9F8F7F5F3F1EEECEAE8E7E75F
:102E4000E7E6E6E8E9EBECEDEFF0F2F4F5F6F7F99A
:102E5000FCFDFE000203040405050404050504044A
:102E60000505050506060606060707070707060601
:102E70000607060505040303020100FFFFFEFDFC33
:102E8000FCFBFBFAFBFBFBFBFBFBFCFDFCFCFDFE88
:102E9000FEFDFEFFFFFFFFFFFFFFFFFFFFFFFFFE47
:102EA000FEFEFEFEFEFF000001020203050606070D
:102EB00009090A0B0C0C0E0F0F0F0F10100F10103A
:102EC0000F0E0D0E0C09060402FFFDFCFAF8F6F5D4
:102ED000F4F2F0EFEEECEAEAEAE9E9EAE9EAECED2D
:102EE000EDEEF0F1F1F2F3F3F4F6F8F9FAFBFDFE92
:102EF000FF0001030303050707080A0A0B0C0C0D6A
:102F00000E0D0D0C0C0B0B0B0A0909090807060521
:102F1000050403010101010000FFFFFFFEFEFDFDAE
:102F2000FDFCFCFBFBFBFAF9F9FAFAF9F8F8F8F802
:102F3000F8F8F8F8F8F9FAFAFBFCFDFDFF000002DA
:102F400003040506070808090A0B0B0B0B0C0D0CF4
:102F50000C0D0D0C0C0D0C0C0D0C0B0B0B0A0908B9
:102F60000705040200FFFEFCFAF9F8F7F5F3F2F1A9
:102F7000EFEDEBEAE9E9E8E8E8E8E8E8E8E9E9EBB9
:102F8000ECEDEEF0F2F3F5F6F9FCFD0002040608B4
:102F9000090A0C0E0F10111212121312121313122F
:102FA0001211100F0E0E0C09090807050403010089
:102FB000FFFDFBFAF8F8F6F5F5F4F3F2F2F3F2F1AF
:102FC000F1F2F3F3F3F4F5F6F6F7F8F9FAFAFAFB9F
:102FD000FDFEFEFF000102040506070808090A0CB1
:102FE0000D0E0E0E101212131314141414151515C1
:102FF00015141312110F0C0907050300FDFBF8F55A
:10300000F2F0EDEBE9E5E2E0DFDDDBDBDADBDBDD97
:10301000DEDFE1E3E3E5E8EBEDF0F3F6FAFD0003D4
:10302000070A0C0E111315161718191A1B1C1C1B56
:103030001B1A1A18171614120F0E0C0A0806030191
:1030400000FEFCFAF8F7F6F5F4F3F3F2F1F1F1F023
:10305000EFEFF0F0EEEDEFF1F0F0F2F2F2F3F4F565
:10306000F6F8F8F9FAFCFE01030306090A0B0E1044
:1030700012141516181A1C1D1E1E1E1F2021201F9B
:103080001F1E1C1A1A18120B090703FFFCF9F4F093
:10309000EEEAE6E2DFDAD5D4D4D2D0D0CFCFD2D4A4
:1030A000D5D7DBDDDFE4E8EAEEF2F5F8FC00050950
:1030B0000D10121618191B1E1E1E1F201F1F1F1E6B
:1030C0001D1D1C1A18171513110E0B0907050200F8
:1030D000FDFBFAF8F6F4F2F1F0EFEEEDECEBEAE9D5
:1030E000E9EAEAE8E9EBEBEDEEEEEFF0F1F2F4F607
:1030F000F7F8FAFBFE010305070A0D10131517195F
:103100001A1C1E202223232324252626252424229C
:103110001F1B17110E0B0500FDFAF5F1EEE9E5E1B5
:10312000DCD6D3D1D0CDCBCBCCCDCFD1D3D5D8DB82
:10313000DEE2E6E9EBEFF3F6FAFF03070B0F1216F8
:10314000191B1D1F1F1F21212020212020211F1E90
:103150001D1B191513110D0B08050200FDFBF8F6D8
:10316000F5F2F0EFEEECEBEBE9E8E8E6E6E8E8E7AD
:10317000E7E8EBEDEDEEF0EFF0F4F6F7F9FBFCFE2F
:10318000020406080A0D101215181A1B1D1F212310
:103190002424242527282727282724221E16101018
:1031A0000D0500FEF7F1F0EEE7E2DFD9D4D2D1CE83
:1031B000CBCBC9C8CCCFD1D3D7D9DBE1E7E8E9EE97
:1031C000F1F3F7FBFE02070B0D111517191C1D1C5F
:1031D0001D1F1E1E20201D1E201E1D1D1C18171524
:1031E00012100F0B060402FFFCFBF9F6F4F2F0EFED
:1031F000EFEDEBEAE9E8E6E8EAE8E7E8E9EAEDEE30
:10320000EEF0F1F0F3F6F6F8FBFBFD010304080A1B
:103210000B0E111417191B1C1E20232423252726EF
:10322000282827272825221F1710100E06FFFDF734
:10323000F1F0EEE8E2DEDAD5D3D2CFCDCCCAC9CCFC
:10324000D0D1D1D5D9DBDFE5E7E9EDF0F2F6FAFC34
:10325000FF05080A0F1315181B1C1C1C1E1E1E1F21
:103260001F1E1E1F1E1C1D1C181616130E0D0B06EE
:103270000201FEFBFAF9F5F3F3F1EFEEEEECEAE909
:10328000EAE9E9E9E9E9E9E9EAEFF0EEEEF1F1F27C
:10329000F5F6F6F8FAFBFF02020407080B1011140A
:1032A0001819191C1E2023232325272728292828FD
:1032B0002826211A1415120A0503FCF6F6F4EEE886
:1032C000E3DDDAD9D7D3D1D0CECDCFD0D1D2D4D6B9
:1032D000D7DDE1E2E4E9EBECF0F4F5F9FE010308F7
:1032E0000D0F131718171A1C1D1E20201E1F21203A
:1032F0001F201D1A1A1A161313100A08070300FFBD
:10330000FDF9F7F7F4F2F4F2EFEEEEECEBEBEAEBAB
:10331000EBE9E9ECEDEEF0EEEEF0F0F1F4F5F5F6B8
:10332000F7F9FEFFFF020505080E0F101416171916
:103330001B1C1E2021222426262528282423201673
:10334000121613080605FBF5F9F6EDE9E5DDDADC02
:10335000DAD4D2D2D0CFD2D2D0D4D8D7D8DEE2E20B
:10336000E5EAEBEBF0F3F4FA000003090C0E131797
:1033700016171A1A1A1C1F1E1D1E1F1D1E1F1D1A8E
:1033800019171513120F0B09060200FFFFFBF9F7BF
:10339000F5F4F5F3F1F1EFECEDEDECEDEEECECEE38
:1033A000F1F2F2F1F1F2F2F3F5F7F8F8F9FBFEFFC2
:1033B00000040506090C0D0E111416151619191A1C
:1033C0001D1E1E212221232523201C110E1411064F
:1033D0000404FBF6FAF8F0EAE5DEDCDFDCD6D3D451
:1033E000D3D1D6D7D3D5DBDBDAE1E5E4E9EEEEEEF7
:1033F000F4F5F6FD0202050A0E11151817171A1A30
:10340000191C1E1C1B1D1C1B1E1D18171916121221
:10341000100A0908030000FCF8F8F8F5F4F3F1F0DD
:10342000F0F0EDEBEDECEAEBEDECEFF1EFF0F4F4B6
:10343000F2F5F6F4F5F8F9FBFDFEFFFF01030506D2
:10344000080A0B0D0F11131515161717191C1D1C43
:103450001E20201F21201E1B140C0D110A02030127
:10346000F8F6FAF3ECEAE5DDDEE2DCD7D8D8D5D819
:10347000DBD8D9DEDEDCE0E5E7EAEFEFEEF3F7F8E4
:10348000FB010303060C0E10141514161A19191C4F
:103490001C191A1D19191B18141516120F0F0C08D8
:1034A000060501FEFEFBF8F8F8F5F3F3F1F0F0EF96
:1034B000EDEEEFEDEDEDEDEEF0F1F1F0F2F5F5F40E
:1034C000F8F9F6F8FAF7FA00FDFD03020005070423
:1034D000080A070A0E0D0F13121216181819191BD5
:1034E0001C1A1A1C1D1D1B1917100A0E11080203A5
:1034F000FDF7F9F8F0EEEAE3E1E3E1DCDBDAD9DA53
:10350000DCDDDBDDE1E2E1E4E8E9ECF1F1F2F7FA40
:10351000FAFF040405090C0D111413131718171AD8
:103520001B17181B19171A19141414110F0E0B0955
:1035300008050200FEFBFAF8F5F3F2F1F0EFEFEE0A
:10354000ECEDEEEDEDEDEDEDEFEFEFF1F2F3F5F685
:10355000F7F9F9F9FBFCFD00FFFEFF020204050488
:10356000060707080B0C0C0D0E0F11121313131581
:103570001618181817191917181916151209050C05
:103580000B00FF01F9F3F7F5EEEDEAE3E0E4E3DD2C
:10359000DEDEDBDCE1DEDCE2E4E2E3E8EAEBF0F0F5
:1035A000F0F5F9F8FB020403060A0B0E13131214CC
:1035B0001615171B1B18191A18181A171213120FA1
:1035C0000D0D09060603FEFDFCF8F7F7F4F2F2F123
:1035D000F0F1F0EEEDEDEDEEEFEFF0F0F2F3F3F4ED
:1035E000F5F3F5FBFAF7FBFCFBFDFFFE010300031F
:1035F0000708080808090B0A0B0C0B0C0F0F0F111A
:103600001111131211131412131412121311111396
:1036100012100A02040901FAFCFAF3F5F6EEEEEED6
:10362000E7E1E2E3E0E0DEDCDDE1E1DEE2E6E4E387
:10363000E7EAEAF0F3F0F4FBFBFB020504080B0BEE
:103640000E141412141616171819191A181616171C
:103650001613100F0D0B0807050301FEFCFAF9F70E
:10366000F5F3F2F2F1F0F0F1F0EFF0F0F0F0F0F14C
:10367000F1F2F3F5F6F8F9FAFCFCFCFE00FFFF01AD
:1036800002030607060508090A0A0A0A0A0A0B0BBA
:103690000B0B0D0E0E0E0E1011101011100E11123C
:1036A000100F101111110E0700FF03FFF8F6F8F6C6
:1036B000F3F4F0EFF0EAE3E4E7E4E3E5E3E2E6E77E
:1036C000E4E6EAEAEBECECEEF3F6F3F6FCFDFB00E5
:1036D0000503060908090F121214151416181918F3
:1036E000171514151414110D0C0B0905050501FF10
:1036F000FAF8F8F7F3F1F4F1EFF0F0F1F1F1EEEEA2
:10370000F2F3F1F0F2F3F2F5F8F7F5F9FEFEFEFE52
:10371000FF01020101070808080A0C0B0A090C0C3A
:103720000A0A090B0D0E0E0D0E1113100E101110BA
:103730000E0F13151310141615140AFCF902FDEFE1
:10374000EEF4F5F1F1F0EFF3EEE1DEE5E4DFE3E4D2
:10375000E3E7EAE8E8EEEDEAEBEBECEFF5F6F5F897
:10376000FD000103060708080B0F12141617191D98
:103770001E1B1B191715130F0C0D0B090706030051
:10378000FFFDFBFAF7F3F2F2F2F3F3F1F1F1F2F3EA
:10379000F2F2F1F0EEEEEDEDF1F2F3F6F8FAFCFBF9
:1037A000FAFEFFFD0307070A0C0C0E100B0B0D0BA6
:1037B0000C10100F121211131011161714101113F0
:1037C0001512121817151311111410FDF1F0F6F25D
:1037D000E5E5F0F2EBECEDE9EAE6DCDCE1E2E1E67E
:1037E000E6E9EDECEAEAEBE9E8E9EAEEF1F7F8FA06
:1037F000FDFFFE000506080A0C11161A1D1E1C1CF2
:103800001C181415110F0F0E0A0B0A06030201FEF5
:10381000FBFAF9F8F8F9F9FAF9F6F6F7F3F2F5F236
:10382000F1F2F0E9E9EDF1EFE9EEF6F7F5F8FBFD7D
:10383000010100070B0D0E0C0B0F0F090B0C0C0EEA
:103840000E0F131412131212181712131515161641
:1038500012171A14171512131406F3EBEAF2EBE21F
:10386000E7EFECEAEEE7E4EAE4DBDEE8EBEBEFF0CF
:10387000F3F1EBE7E5EAE9E6E6ECF2F5FAF8F9FB55
:10388000FCFD0005080E0F10181E1E1B1815141342
:103890000F0E0E0C0A0A0A07030200FFFCFCFDFED5
:1038A000FDFCFCFCFCFBF9F8F9F9F8F6F6F6F3EE92
:1038B000E7E7EBF1ECEBF4F7F7F6F8F5FB020001C4
:1038C000080F110F0C0D0E07060A080A0C0E0D1139
:1038D0001210100E1316151619191819141216179E
:1038E000191613171A150C06EDDFE9F1E7DFECF0F6
:1038F000EFECEEE5E1E9E6DDE2F0F2F0F5F5F1ED11
:10390000E4E2E5E9E9E9EBEEF5F6F6F5F6F9F9FDBD
:10391000030B101215161B1B1916121212130F0F80
:10392000110B05040400FEFDFAFD01FFFF0101FF7C
:10393000FFFCFB00FAF9FCFCF7F6F4E3DFEAF3ED39
:10394000E7EFF3F3F4F6F2F5000101070D0D0D0BAF
:103950000C0D070205080B100F0F11110D0A0E11A7
:10396000130E10161A191615131612121418151410
:10397000191A180BFAE0DCE5EFE4E0EEF1EEEDEDFC
:10398000DCDEECEAE2EDFAF8F9FDF7EFEAE3E1E379
:10399000EAECEFECEFF4F2F0F0F6F6FA030A0A0DB7
:1039A0001816101419191618161617140F040204F5
:1039B00005FFFD0402000000FCFF0401FF0303FFFC
:1039C000FE00FEFAF2E4E3E8F1EFF2F1EDF2F2F1DB
:1039D000EEF8F8F8FF0404030A0A0A0B0807070EBA
:1039E0000F0F0E0C0D0D11111213101315171211CC
:1039F0001619191416171613120B0912170F0C09A2
:103A0000F3DADAE6E4E0E1E4E6EDECDFDEE8EEE668
:103A1000E6EFF5F5F0EFEDE9E3E1E3E7F1F4F0EEE1
:103A2000F2F1EDF3FB0002080C0F1312110D0F134E
:103A300016171718140F0B0C09030203080C0D05B9
:103A40000305030000FFFC050801F9F6E9E5EEF3C4
:103A5000EDEFF9F9F7F6F3EFF7FDF9F6FE0400FEE6
:103A6000FF00FEFCFF060E100F0F11161A1511169F
:103A70001916141A181817151010131316191A13EB
:103A80001315191610FFEBE0DFE3E2E5E7EBEBE8D7
:103A9000DFDAE1E7EBE8F0F4F3F1EFEEE8E7E4E496
:103AA000EBF2F5EFF0EFEFF0F2FAFE0505090C127C
:103AB000140F0E0D121216191916100B0609080113
:103AC000FF0A0D060004040406FDF7F8FCE7DDEE2E
:103AD000FEFBF2F6F4F8F8F3EDF70902F8F803024A
:103AE000F7F3F6FD02070C0F15171411181F151325
:103AF000192017161915161310061219140F110F85
:103B0000070B0E0D0A02EEE1E5EEEAEBECEEEBE858
:103B1000E5DEE3E8EAE4E6EDEDEBEBEDE6E2E5E831
:103B2000F0F7FCF5F2F7F9FBFA0103090E0F0F0E9F
:103B30000F0B0603060E1113120E0B0702F9FC03FE
:103B40000300050800FEFFFCF9FAF3E2E4F0F4F1EB
:103B5000F800FFFEFEF9F6FAFFFEFE000000030685
:103B60000503050C12161A1B1D1E1B151214161820
:103B70001D1E1E1F1F1710161B1E1D25262519FC96
:103B8000DBCEDCDFE0E0EAE9E7DFD1CCD8E7E5E94E
:103B9000F2F9F2EBE4DCD9DADFE4EDEFECE9E8EAA4
:103BA000EAECF0FB070D111114120F0B0D12171F89
:103BB00022221C19110C0C0E0D0E100D0A08060104
:103BC00000FEF7EEEBECF2FBFCF5EDECEDEFEEEFCB
:103BD000F5FBF9F4F3F4F4F4F4F5FAFE01050D0E37
:103BE0000E0D0F161C1C151C27261C191B16161A49
:103BF0001D1D1E211E1B1B1D1F202213F1D5D7E5E5
:103C0000E2E1E7EBE7E6DED2DAE8E7DEE7EEEBE774
:103C1000E5E0DDDCD8D9E5EFEDE8E8EEF0EDEBF33B
:103C2000FD040C12151B1F19131517171A1E1B194B
:103C300017110C0A08090D0E0B0601FFFFF9F2F02F
:103C4000EFEDF4FDF9F1EFECE8EEF1EFF4FCF9F350
:103C5000F3F2F1F9FEFD0108090A12181714161BF8
:103C60001C1C2025222023231E1F252A2723222334
:103C7000252720FBD5D2E3E3E2EFF3EAE8E5D4D44D
:103C8000E5E8DDE5F5F8F2EAE0D6D4D3D5DBE4E506
:103C9000E3E5ECEBE1DFE6F2FE0B0E0F16170F0E7D
:103CA0001719191E2223211B110B0906080B0D10D1
:103CB0000E070304FEF6F5F0EAF1FE01FCFAF2EA63
:103CC000EAEEEEF3FCFFFBF9F7F7F9F9FB01060466
:103CD000070D1212131618181A191A1D1E20212169
:103CE0001F232A292325292C3024EDC0C4DADBDD4B
:103CF000EDE8E6EBE3CAD4EDE6DDEEFEFBF8EFDB44
:103D0000D6DDD7CFD9E6E3E5EEF0E8E0E2E9FA0B5D
:103D10001313182321181418191A222425211609FF
:103D20000406050B0D0C0B09080708FDF1EAEAEF84
:103D3000FC04FEF8F0E8E5EAEAEDF1F3F4F9FBF84B
:103D4000F7F2F1F7FF0108111212131313181613EB
:103D50001C26251E212422272A2D26262D323833E3
:103D600015D5B9CCDDD6E1F5ECE7E9D6C3DDF1DE5A
:103D7000D8F604FDF7EBD9D9DDD0CED6E0E3E9EBF8
:103D8000EEEFDEDAE9FF07121F1D22231B131921B4
:103D9000191A1E2423180B030504050807090D0E24
:103DA0000F0E05F0E1E2EEFD00FDFAF8F0E6E7EBBC
:103DB000F1F6F5F3F5F7F1EBF1F5FAFF0209121A56
:103DC00016171D150F131D2122252529251B1F251B
:103DD00027293037373904C5BCD7DCD6F3F0E8EEF5
:103DE000E8C4C6EFE8D2ED0B03FCFCE6D4DED5C494
:103DF000CEE5E6DFE8EEEBDDD5DDF205141E21268B
:103E000022140A141D191A1C1E1C1A0CFDF8F1F2BA
:103E1000FA0403020201060900F6F1ECEBF2FD00E0
:103E20000400FCF6F0F0F1F5F6FBFFFEFF00FF00EA
:103E30000005090F151A212125231910141C1E2114
:103E4000272827241E2327201920271F11E4BABC66
:103E5000D4D5CCE5EAE2E1DFCFD1EDE6D7EC090736
:103E6000FBF9EEDEDED5CED6E7ECE6ECEDECE9E8EC
:103E7000EEF90C161E272D2D251D15171F222020AB
:103E80001A0F04FDF6F4FCFF020202020304FFFE17
:103E9000F4E6DEE0E8F0FAFEFAF8F2EAE3E5EBF346
:103EA000F9F8F6FB0405FFFD080C10171D1C1D2872
:103EB000251B171E1F1F262E35312C2B2B201D25B1
:103EC000221B1A03CBB9D1D7C9D9EADDE0F1E1CB86
:103ED000E4F2D8D4FD07F7F7F8E5DDE6D6CDDEED60
:103EE000E4E3F0EBE4E4E3E70116151723261E1ADA
:103EF000191A1B1D1F211C140F02F6F7FCF8F908F4
:103F00000C0B0F0F05010800F6F3EFE8EAF5F8F6E1
:103F1000F2ECEBEBEAEBF4F9F7FC0302FEFF00FF37
:103F20000610120F111B1E1B15171A191E292B2400
:103F3000262B28272E251618211D1303D5B5C3DEE1
:103F4000D8D8EEEEDEDDE3D5D8EEF1E4F409FFEEED
:103F5000EFECD8D6DEE1E7F7F8EAEEF2E3D7E7FADE
:103F600002112223252A2417151712192425201A95
:103F70000DFCFBF7EDEF000604090A03FFFDF9FA5B
:103F8000FDF4E6E4E5E4E6EBEDF0F3F0EFF6F8F748
:103F9000FE04FFF9FE01FE040D100D0F1516171992
:103FA0002124201E242620232725222C312B201ECD
:103FB0001D170F0B03DCB6BAD9DDDAE9ECD4CDDA84
:103FC000D8D6EAF0DDE4FEFDEBEEF2E3E1EBEAE663
:103FD000F5FEF1ECF4EFE1E7FA03091C25201B20C4
:103FE0001C111824241D22241A0F0800FAFD0000B9
:103FF000010401FEFBF9F6F2F0F1F6EDE7E8EBE67D
:10400000E7F5F7F4F5FAF6F4FAFCFBFE0201010419
:104010000504060A0B0F121514182124201A202358
:1040200026292D2D292E322F221B180F050506E7D4
:10403000BEB9D6DED5E1EEDDCBDBDFD5DAEEE9E0E9
:10404000F909F7E5EFEFDFDFE9EAE7EFF2EDEEF48C
:10405000F0ECF4000A0F16181D1E1916191D1A1A75
:104060001A1B1B130A05090601030500FC00FBF1DE
:10407000F1F7F7F6FAF5E9E4EAEAEBF600FDF6FA0D
:10408000FDFCF8FB0000010102FEF9FAFE02010549
:104090000A0F131921221F1B1C222B2E2E29252526
:1040A0002C32291B120B040605E0BDC0DDDED5E471
:1040B000EEDCC8D3DBDBDEEBEDF30105F7EBF0ED77
:1040C000E7E3ECF3F7F5F2F2ECE5E1EAF4FC0006E5
:1040D0000B10131010151A181B2227221C17110F72
:1040E0000E0B05020201FFFBF4F1F2F4F7FBF8EC12
:1040F000E5E8EDF1F6FDFEFDFCFBFBFEFEFCFF0638
:104100000601FEFEFBFB000103080F0F121A1B172E
:10411000161A1B21292B292727262B2B271E191579
:10412000160FE4B9B8E2E7D6D9ECDCBABCD1E2DCD0
:10413000DEE0F30204F6EDF2F2F1EBF3FA02F9F24B
:10414000F4F4E8DADFEAF7FD0204070803040E1BC3
:104150001C1D252E2F2A241D1916131213100905B4
:1041600003FDF1E9E9ECEEEBE5DEDBDCE2EAF2F798
:10417000F7F3F2FA0100FAFE070902FFFFFFFEFD66
:10418000FF03090B0F171E1B171A1E20242B2F3499
:1041900034312E34342B201C1B1912F1CBC3E0E533
:1041A000DAD9E5D4BABDD3DED5D2D5E8F4F5EAEA5A
:1041B000EEEAEBEFF8F6FBFBFBF9F5EAE1ECF7FDD5
:1041C000FA0004040200040A131318222B2A2625DD
:1041D000201B181B191715100B0502FBF6F3F0ED49
:1041E000ECECE1D6D1D8DFE5EDF2F2ECEBF0F8FB48
:1041F000FC00060A0905FFFAFAFE03071013100E69
:10420000131714141A22272B2F302D292C33342E58
:10421000292A28210CE8CCD5EBEAE0E5E5C8B5C1B0
:10422000D4D0C6C8D5E7F2F0E4E4E5E5E9F500034B
:10423000050301FFFAEDE9F4FF03060906FFF9F8AB
:10424000FC060D131B2325221F1A18191B1B1F23E5
:104250001D10090801F8F4F6F7F5F2ECE2D2C7C92F
:10426000D5E1EAF0F0EEEBECEFF2F900070909070F
:104270000602FEFE02070A0E12171D1F1D19181B4B
:10428000242B2F3032302C2C2B2A2B2E2D2C23FF9D
:10429000D0C4E2F3EAE4E4D0B2B0C2CECDCCCED901
:1042A000E7EBE1DEE3E5E9F1FB01070700FAFCFAE1
:1042B000F3F3FC060A0903FDF9F8FB061012151BBF
:1042C0001F1D1B19181B1E1D1D2120170C0904FD85
:1042D000F8F9FEFCF3EAE8E4DAD1D2D7DDE6EEF055
:1042E000EAE6E7ECF2FA02070B0B090500FD02090A
:1042F0000D1011121011171B1B1A1D21282D313200
:10430000312E2B2C2C2D2927242318FEDCCDD7E68B
:10431000E9E2DED1BEB2BCC9CCC8C9D6E4EAE3DD6D
:10432000DDE3E9F2FB02050501FE0101FCF9010AEA
:104330000C09070502FFFD010C151512151A1B19B2
:1043400018191B1D1D1F1E180F0805050401FFFB72
:10435000F6EEE9E8E1D3CDD7E6ECEBE9E6E1DFE61E
:10436000F5FEFDFAFF0708030103060A0C0F1314FC
:10437000100F141A1D1E222524212124282A2A2840
:10438000272826221E1814121002E9D2CED6DEDF0C
:10439000DDD5C6BAB9C2C9CDD1D7DCE1E3E3E4E4E7
:1043A000EAF2FC02080804020307040204090A0AEC
:1043B0000907040101030A0F11101011131413123D
:1043C000151C1E1D1917120B07050400FDF9F8F541
:1043D000F0E9E4DFD7D3D5DEE8EEECEBEDEFEFF17B
:1043E000F7FC000104060808080A0D12141413183B
:1043F0001A1C1F1F1D20272725212122262B2B2990
:1044000024221E212524190C04F5E1D3D6DBDFDE9E
:10441000D9CEC3BDBAC0C8D0D1D3D9E2E5E2E2E675
:10442000EFF7FF040A0A07040606030103080B0955
:1044300003FFFBF9F7FD050B0B0A0E0F0E0A0D101B
:1044400015171917110D0B0B0A0E0D0902FFFDF8B8
:10445000F6F3F2ECE3DAD7DAE0E6EDEFEFF0F0F2C4
:10446000F8000305060604030001091112101315D4
:1044700016151A20211F20211D19191E2830322A35
:10448000221E1C1F242D29190801FAE8D6CCD0D6EB
:10449000DDD8D3CABFB3B0BDCBD5D6DADCE2E4E613
:1044A000E8EDF701080A10110D0504060906060BD0
:1044B0000D0801FEFDFE01080D1011100F0C0D106E
:1044C00015151517181612100A07040402FCF8F542
:1044D000F2EEECEAE9E6DFD9D9E3EBEFF0F0F2EE49
:1044E000EEF0FC030403050907040006090E0F1192
:1044F00014151717191E2425211E21242423282EC4
:104500002E28211E1E242422191102F8F3EFE1CADD
:10451000C6CEDBD3CDC8C3B9B8C5CDD4D7DDDDE4B5
:10452000ECF0EDEDF5FF0A0B0C080704060B0C0987
:10453000040A0D0E0905FFFAFC030C10100B080706
:104540000D11120F0C0D0D10100C05FEFBF9FF02E2
:10455000FFF9F7F6F4F0EFF0F0ECE0DADBE5F2FE6D
:1045600002FCF8F2F1F4FF07090705080907030543
:104570000B12131211151918191D1E1D1C20221FB4
:10458000211D201C1E1C1A1C1A201919130E01F7BC
:10459000FDFCEDC6BBC7E1DED7DBD7C7B1BECCDCC7
:1045A000DBE0E7EDF6F0EFECF6FF070D1115130E6B
:1045B0000A0D0E0E0A0C0E0D080100FCFDFE04058E
:1045C000020104060505090A080A0D100F100C0562
:1045D000FFFDFEFDFEFEFBF6F3F0F0EDEDEBECEB88
:1045E000E5E7E7EEF5FEFDF2F0EFF2F600090C0A62
:1045F00007090D0C0805060A0E12141714101013E3
:1046000015191C1D1A181C1D201D1C1A1412101C13
:1046100024251B0C0BFFFBF50003F2D7BEC3D0E033
:10462000DAD9D7D5C8C1CAD2DEE0EAEEF8FDFFFE7E
:10463000FE050809080F1819120B04FFF8F7FC0112
:104640000803FFF8F8F6F6FD0003030506080B0C57
:104650000A08080D1112141311090404040602FDBE
:10466000FBFBF8F5F2F1EDE9E2DDDEE0EAF2FFFC5A
:10467000FAF4F2F7F904070D0B0B0B0D0D10110EE8
:104680000D0E120E0F0F13110D0E11141213110E29
:10469000090D151E1D1A151110121E2120181515B1
:1046A000100D0709FEDFBDB9D2E1D9D5DBDAC6B7F7
:1046B000BFCCD5D5DEEFFF04FDF8F6FB020B1014DE
:1046C000181810050302FDF5F9020A06FCF9F5F2C7
:1046D000EAECF5FE0401050A0F0B04050C12121397
:1046E00016181107000001FEFF0000FAF6F3EEE9CC
:1046F000E7ECF1F2F0EFEBE8EBF6FCF9F5F7FE058D
:104700000B0F10100C0A0D10110B08070C110E0DD9
:104710000A0A08080C0B0E0C1014121211141417AC
:104720001B20211D16191D1E1A101316201C1511F1
:104730000D08DAB6ADD0E6DCDBDEE8CCB7B4C7D81E
:10474000D5D8E7000704FEF9F3F7FD03060F1811AB
:1047500007FFFEF4EBE8F1020601F7F5F3EDE6EAF8
:10476000F90306070D12120A080D13141110121680
:10477000120B020000FDF8F5FBFDFEFBF6F7F3F06F
:10478000ECF1F8F4F2F2FF0401FEF9FF0002040A72
:10479000151410060305050600040A0B08000101A4
:1047A000050403060D11110F14150E090A171C201C
:1047B0001B191C1F1C171518120B0E101B161B1291
:1047C00015F9C6B8C0EAE3E7DFEAE1C0B7B9D5D268
:1047D000D7DAF60402F8F3F1ECF4F4040916100841
:1047E0000701FDE9E1E2F50507080802F6E9E7EE51
:1047F000FB040813161609FDFD040C0D11171817FC
:10480000130E0901FEFB020B11140E07FEF9F2ED67
:10481000F3F9FDFCF5F2F3F9F9F3F4F5FD00030803
:104820000A0AFEFD01080C080A0705010106040535
:1048300005090E0F0F0A060201060B10100F100CCF
:104840000A06091014161316191B1D16160E0D0A4A
:10485000080E111AF5D3BACDE1E4E5E4F5E4D5C1CB
:10486000CCD9D9D6DDF2F9FDF5F0EAF0F2F3F4F7A0
:10487000FDFDFCFA00FCF3EDF2FF0A0C0A0A0C073E
:10488000FFFE020E121313181B110B090D0D0A0D5A
:104890001317140C09060400FBFCFF0602FAF1EDE5
:1048A000EBE4E4E6EDEEEFF2F6F7F4F7FBFFFD00E4
:1048B00005090A0705FF01060C0C0605060C0D0C80
:1048C0000C0C0E0E0E0F1113121212110F0A0C10F7
:1048D0001413151918140F12161A0F0B0E131208B1
:1048E0000C0B0FF3D2C4D1EBE2E0DEF0E9D1C1C58D
:1048F000D9D8D5DBEEF9F3E6E4E9EEE8EEFA030405
:10490000FD000205FBF3F5FF070A0B0E0E0902FF7F
:1049100003060B0C1214150F0B09090A07090D13D6
:104920000F0D0D0C05FBF8FB0203FFFDF9F4EBE4A2
:10493000E0E0E7EDF7FBFCF7F3F1F2F5F800071024
:10494000030100000200000300040005000000084D
:104950000002010000030407000000000000000046
:104960000102040810204080010204081020010206
:1049700004081020040404040404040402020202D3
:1049800002020303030303030000000025002800C4
:104990002B0000000000240027002A00FF255527D7
:1049A0002928BE2B11241FBECFEFD8E0DEBFCDBF1C
:1049B00011E0A0E0B1E0E6E2FFE502C005900D9253
:1049C000A632B107D9F724E0A6E2B1E001C01D92FA
:1049D000AA35B207E1F719E4C4EAD9E404C0229782
:1049E000FE010E948D2FCC39D107C9F70E94022CFD
:1049F0000C94912F0C9400000E94C42881E08093B5
:104A0000400180E490E00C94AE268F929F92AF928A
:104A1000BF92CF92DF92EF92FF9284E190E00E94EA
:104A2000EF287C0184E190E00E94EF28E81AF90A5F
:104A300020910401309105012E0D3F1D3093050199
:104A40002093040180E490E00E94EF28892B59F420
:104A50008091040190910501919581959109909320
:104A600005018093040180E490E00E94EF28892BE7
:104A700061F488EE93E00E94EF2824EF31E0281BD8
:104A8000390B3093050120930401C0902601D0908A
:104A90002701E0902801F090290120910401309134
:104AA0000501442737FD4095542FBB27F7FCBA95E5
:104AB000AF2D9E2D8D2D281B390B4A0B5B0BA09122
:104AC0002A01B0912B010E94782FBB2797FDBA9540
:104AD000A92F982F872F8C0D9D1DAE1DBF1D809374
:104AE000260190932701A0932801B0932901892FD3
:104AF0009A2FAB2FBB27A7FDBA9520912C0130919F
:104B00002D01280F391F293D88E4380714F0295D4D
:104B1000384430932D0120932C0180912C019091E9
:104B20002D0197FF06C08752974B90932D018093DC
:104B30002C0180902E0190902F01A0903001B09018
:104B4000310160912C0170912D01CB01A0E0B0E00A
:104B5000772766270E94372E6B017C01C501B401BF
:104B60000E94372E9B01AC01C701B6010E94A12D06
:104B700020E030E040E85BE30E94C52E0E94062E54
:104B80006093320170933301809334019093350127
:104B9000FF90EF90DF90CF90BF90AF909F908F905D
:104BA00008952FB7F894EEE2F1E080819181A2811F
:104BB000B381409132015091330160913401709181
:104BC0003501840F951FA61FB71F80839183A28391
:104BD000B3832FBF40912E0150912F01609130017E
:104BE00070913101E0913E01F0913F01E60FF71F16
:104BF0008491992787FD909508950C94322688E634
:104C000090E090933F0180933E0180E090E0A9ED19
:104C1000B8E48093450190934601A0934701B09377
:104C20004801109240012091000130910101409112
:104C300002015091030160E070E080E89FE30E9470
:104C4000A12D20E030E040E857E40E94C52E0E94EC
:104C50000B2EE6E2F1E07583648308950E9405253A
:104C60000C94DA2790915A0380915903981306C047
:104C700090915C0380915B0398131AC00E94D12528
:104C800020915A03E22FF0E0EE0FFF1FE75AFE4F8C
:104C90008C509F4F918380832F5F20935A03211163
:104CA00007C080915C0391E0892780935C0308959D
:104CB00008951F920F920FB60F9211242F933F93D6
:104CC0008F939F93AF93BF93EF93FF93809159037B
:104CD000E82FF0E0EE0FFF1FE75AFE4F20813181F1
:104CE0008F5F80935903811119C080915B0391E01C
:104CF000892780935B0380915D0390915E03A0916F
:104D00005F03B09160030196A11DB11D80935D0307
:104D100090935E03A0935F03B0936003C901E3E047
:104D2000880F991FEA95E1F790672A989EBD0DB408
:104D300007FEFDCF9EB58EBD0DB407FEFDCF8EB52F
:104D40002A9AFF91EF91BF91AF919F918F913F91DF
:104D50002F910F900FBE0F901F901895CF93DF9358
:104D6000EC010E94882A81E00E949E2A80E00E9435
:104D70009F2784B58093580185B58093570187B5E7
:104D80008093560180916E00809355019E0140E012
:104D900050E060E472E48FE090E00E944A2FDA0174
:104DA000C90140E06EE276E20E94F7290E944C2A97
:104DB00084B58093500185B580934F0187B580936A
:104DC0004E0180916E0080934D0180918000809310
:104DD00054018091810080935301809188009091CB
:104DE00089008093520180916F008093510161E0AE
:104DF00089E00E94ED2AC1E0C093AC0380E180937A
:104E0000AD031092AE03809381001092800088EE73
:104E100091E0A0E0B0E0C093A7039093A903809332
:104E2000A803909387008093860081E1809381009E
:104E300061E089E00E94ED2A809180009091AE03AC
:104E4000892B8068809380002091A8033091A9036A
:104E5000A4EFB0E00E94692FBAE096958795779508
:104E60006795BA95D1F77093890060938800809117
:104E7000A7039091AD03892B80938100C0936F00AD
:104E80008091800080934C018091810080934B0140
:104E9000809188009091890080934A0180916F00F1
:104EA00080934901DF91CF91089510925903109298
:104EB0005A0310925B0310925C030895811109C09C
:104EC00080917A00846080937A0080917A008D7F4F
:104ED0001AC0813071F480917A008B7F80937A00C0
:104EE00080917A00826080937A0080917A0081605C
:104EF0000FC0823079F480917A008B7F80937A00A2
:104F000080917A00826080937A0080917A008E7F0F
:104F100080937A00089580E090E041E050E0609155
:104F20007E009A01082E01C0220F0A94EAF7622B34
:104F300060937E0001968830910589F70895EAE72D
:104F4000F0E09081986090830E945E270C948B27FC
:104F50008770806480937C00EAE7F0E08081806461
:104F600080830895CF93DF931F92CDB7DEB78091F2
:104F7000690390916A038F3F2FEF920761F0FC0164
:104F8000EF59FC4F20812983019790936A03809306
:104F90006903898101C08FEF809307018091070128
:104FA0008F3F21F0809107010E94A8270F90DF9189
:104FB000CF910895809107018F3F29F40E94B22775
:104FC00081E0809306010895EAE7F0E08081806443
:104FD00080830895E0910701809178009091790095
:104FE000EE0FFF0BE559FC4F9183808308951F92CC
:104FF0000F920FB60F9211242F933F934F935F930D
:105000006F937F938F939F93AF93BF93EF93FF9390
:1050100080910601882329F00E94E427109206015E
:1050200007C00E94EA270E94B22781E08093060110
:10503000FF91EF91BF91AF919F918F917F916F9170
:105040005F914F913F912F910F900FBE0F901F9046
:1050500018958FEF9FEF90936A03809369030895EB
:10506000CF92DF92EF92FF92CF93DF93C0E0D0E038
:10507000C12CD12C760188E00E94A72A8D569B4F27
:1050800081709927AA2797FDA095BA2F0C2E04C0EE
:10509000880F991FAA1FBB1F0A94D2F7C82AD92AC2
:1050A000EA2AFB2A2196C032D10529F7C701B601A9
:1050B000DF91CF91FF90EF90DF90CF900895CF9246
:1050C000DF92EF92FF920F931F9340911001509146
:1050D00011016091120170911301DA01992788275B
:1050E00084279527A627B7278C019D0145E0369593
:1050F0002795179507954A95D1F7082719272A2745
:105100003B2780910C0190910D01A0910E01B0916F
:105110000F018093100190931101A0931201B0939D
:105120001301409108015091090160910A017091A9
:105130000B0140930C0150930D0160930E0170938D
:105140000F016A017B01C826D926EA26FB26C70182
:10515000B6016027712782279327000F111F221F96
:10516000331F60277127822793276093080170936C
:10517000090180930A0190930B011F910F91FF90F9
:10518000EF90DF90CF900895CF93DF93CAE7D0E000
:105190008881877F88830E943028609310017093F4
:1051A000110180931201909313010E9430286093A3
:1051B0000C0170930D0180930E0190930F010E94DA
:1051C0003028609308017093090180930A0190933D
:1051D0000B01888188608883DF91CF910895CF93F8
:1051E000DF93EC010E945F289B01AC014427552707
:1051F000DE010E94832FDF91CF91089582E080939A
:10520000A6038FEF809381031092830380917B0329
:1052100081508093820380917C03880F816080930A
:10522000A40385EE8093BC00089584E08093A603D8
:105230008FEF809381031092830320917D0320934D
:105240008203A0917E03B0917F0384E893E0FC0188
:105250003E2F381B321718F43D913193F9CF8091CE
:10526000800390E0880F991F8093A40385EE8093BC
:10527000BC00089585ED8093BC008091BC0084FD46
:10528000FCCF8091A6038093A5031092A603809182
:10529000A503833011F40C9415298091A503813066
:1052A00011F40C94FE28089585EC8093BC00809145
:1052B000A6038093A5031092A6038091A5038330D3
:1052C00011F40C9415298091A503813011F40C94EC
:1052D000FE2808951F920F920FB60F9211242F935C
:1052E0003F934F935F936F937F938F939F93AF936E
:1052F000BF93EF93FF938091B900887F883239F193
:1053000070F4803109F130F4882309F45BC08830EF
:10531000D9F05CC08831D9F0803261F157C0803457
:10532000C1F150F4803331F1883309F04FC08093DC
:1053300081030E9454294AC08035F9F08835A9F1CB
:10534000883409F043C040C08091A40310C09091FC
:105350008303809182039817B8F5E091830381E07D
:105360008E0F80938303F0E0EC57FC4F8081809395
:10537000BB0015C08093810327C0E091830381E0C7
:105380008E0F809383038091BB00F0E0EC57FC4FBD
:1053900080839091830380918203981710F485ECA9
:1053A00001C085E88093BC0011C0E091830381E0D7
:1053B0008E0F809383038091BB00F0E0EC57FC4F8D
:1053C000808302C0109281030E943A29FF91EF91DD
:1053D000BF91AF919F918F917F916F915F914F910D
:1053E0003F912F910F900FBE0F901F901895CF9265
:1053F000DF92EF92FF927093B2036093B1034093F8
:10540000B303A0E0B0E034E0880F991FAA1FBB1FD0
:105410003A95D1F720E030E0F901EF5BF64BE491EB
:10542000EE2381F06C017D01022E04C0F694E79416
:10543000D794C7940A94D2F751E0C516D506E10473
:10544000F10438F02F5F3F4F2B30310529F780E012
:105450001EC0A1E0B0E002C0AA0FBB1F2A95E2F770
:10546000A70196010E94832F24E095958795779553
:1054700067952A95D1F77093B0036093AF031092AC
:105480006E0082E084BDE5BDCA94C7BC81E0FF9098
:10549000EF90DF90CF900895EEE6F0E0808182609B
:1054A0008083089578941F920F920FB60F92112463
:1054B0002F933F934F935F936F937F938F939F931C
:1054C000AF93BF93EF93FF9310926E00E091B103FF
:1054D000F091B2030995F8948091B303882311F0F9
:1054E00016BCA99A80916E00826080936E00FF9135
:1054F000EF91BF91AF919F918F917F916F915F914C
:105500004F913F912F910F900FBE0F901F901895C4
:1055100061E08AE00E94262B61E08AE00E94ED2A89
:105520008CB580618CBD8CB580648CBD61E08DE0F4
:105530000E94ED2A61E08BE00C94ED2A811103C0FA
:105540008CB5806202C08CB58F7D8CBD08958E3085
:1055500008F08E5087702091140190E4299F9001EB
:105560001124822B80937C0080917A008064809348
:105570007A0080917A0086FDFCCF8091780020919E
:10558000790090E0922B0895833081F028F48130E7
:1055900099F08230A1F008958730A9F08830B9F0F1
:1055A0008430D1F4809180008F7D03C08091800091
:1055B0008F7780938000089584B58F7702C084B57B
:1055C0008F7D84BD08958091B0008F7703C0809156
:1055D000B0008F7D8093B0000895CF93DF9390E06B
:1055E000FC01E05AF64B2491FC01EC58F64B8491F7
:1055F000882349F190E0880F991FFC01EE56F64B85
:10560000A591B4918857964BFC01C591D4919FB751
:10561000611108C0F8948C91209582238C93888125
:1056200082230AC0623051F4F8948C91322F309565
:1056300083238C938881822B888304C0F8948C9177
:10564000822B8C939FBFDF91CF9108950F931F936F
:10565000CF93DF931F92CDB7DEB7282F30E0F9014B
:10566000E45BF64B8491F901E05AF64B1491F90191
:10567000EC58F64B04910023C9F0882321F069838C
:105680000E94C42A6981E02FF0E0EE0FFF1FE85767
:10569000F64BA591B4919FB7F8948C91611103C01A
:1056A0001095812301C0812B8C939FBF0F90DF91B8
:1056B000CF911F910F9108951F920F920FB60F92E5
:1056C00011242F938F939F93EF93FF93E091C40343
:1056D000F091C5038081E091CA03F091CB0382FD74
:1056E00012C090818091CD038F5F8F732091CE0384
:1056F000821751F0E091CD03F0E0EC54FC4F958F10
:105700008093CD0301C08081FF91EF919F918F9194
:105710002F910F900FBE0F901F9018951F920F9210
:105720000FB60F9211242F933F934F935F936F9374
:105730007F938F939F93AF93BF93EF93FF9384EBEC
:1057400093E00E94F92CFF91EF91BF91AF919F914F
:105750008F917F916F915F914F913F912F910F901A
:105760000FBE0F901F90189584EB93E00E94BE2C03
:1057700021E0892B09F420E0822F08951092B703CD
:105780001092B60388EE93E0A0E0B0E08093B803F7
:105790009093B903A093BA03B093BB0389E191E05E
:1057A0009093B5038093B40385EC90E09093C1038C
:1057B0008093C00384EC90E09093C3038093C20372
:1057C00080EC90E09093C5038093C40381EC90E05B
:1057D0009093C7038093C60382EC90E09093C90333
:1057E0008093C80386EC90E09093CB038093CA0328
:1057F0001092CD031092CE031092CF031092D003DB
:10580000089508950E94832C0E94012C0E94FC247C
:10581000CBEEDCE20E94FD252097E1F30E94EB2C09
:10582000F9CFCF92DF92EF92FF920F931F93CF9316
:10583000DF937C016A01EB0100E010E00C151D050F
:1058400071F06991D701ED91FC910190F081E02D0B
:10585000C7010995892B19F00F5F1F4FEFCFC801C2
:10586000DF91CF911F910F91FF90EF90DF90CF903C
:1058700008951F920F920FB60F9211242F933F930A
:105880008F939F93AF93BF93809152049091530451
:10589000A0915404B09155043091510423E0230F9A
:1058A0002D3720F40196A11DB11D05C026E8230F58
:1058B0000296A11DB11D2093510480935204909330
:1058C0005304A0935404B0935504809156049091CE
:1058D0005704A0915804B09159040196A11DB11D1F
:1058E0008093560490935704A0935804B09359049E
:1058F000BF91AF919F918F913F912F910F900FBECC
:105900000F901F901895789484B5826084BD84B5FB
:10591000816084BD85B5826085BD85B5816085BDAA
:10592000EEE6F0E0808181608083E1E8F0E01082C3
:10593000808182608083808181608083E0E8F0E004
:10594000808181608083E1EBF0E0808184608083EE
:10595000E0EBF0E0808181608083EAE7F0E0808125
:105960008460808380818260808380818160808385
:105970008081806880831092C1000895FC01818D30
:10598000228D90E0805C9F4F821B91098F73992735
:105990000895FC01918D828D981731F0828DE80F6A
:1059A000F11D858D90E008958FEF9FEF0895FC0124
:1059B000918D828D981761F0828DDF01A80FB11D46
:1059C0005D968C91928D9F5F9F73928F90E008956A
:1059D0008FEF9FEF089584EB9BE2892B49F080E0E5
:1059E00090E0892B29F00E94B42B81110C940000C7
:1059F0000895FC01848DDF01A80FB11DA35ABF4F8C
:105A00002C91848D90E001968F739927848FA689BD
:105A1000B7892C93A089B1898C9180648C93938DE4
:105A2000848D981306C00288F389E02D80818F7DD4
:105A300080830895CF93DF93EC01888D8823C9F08C
:105A4000EA89FB89808185FD05C0A889B9898C9187
:105A500086FD0FC00FB607FCF5CF808185FFF2CF22
:105A6000A889B9898C9185FFEDCFCE010E94F92CD0
:105A7000E7CFDF91CF910895CF92DF92FF920F93FE
:105A80001F93CF93DF931F92CDB7DEB76C0181E0F8
:105A9000D60158968C9358975B969C915B975C9631
:105AA0008C915C97981307C05096ED91FC9151979B
:105AB000808185FD2EC0F601038D10E00F5F1F4F22
:105AC0000F731127F02EF601848DF81211C00FB656
:105AD00007FCF9CFD6015096ED91FC91519780814A
