:100000000C945C050C9484050C9484050C94840574
:100010000C9484050C9484050C9484050C9484053C
:100020000C9484050C9484050C9484050C9484052C
:100030000C9484050C947F070C94DD0B0C948405C0
:100040000C94460D0C9484050C94690C0C949B0C38
:100050000C9484050C9445090C9484050C94840537
:100060000C94F50A0C9484058080808080808080C8
:100070008080808080808080808080808080808080
:100080008080808080808080808080808080808070
:100090008081818181818181818181818181818151
:1000A0008181828282828282828282828282828331
:1000B000838383838383838383838484848484840A
:1000C00084848484858585858585858585868686E1
:1000D00086868686868787878787878788888888B1
:1000E000888888888989898989898A8A8A8A8A8A7E
:1000F0008A8B8B8B8B8B8B8C8C8C8C8C8C8D8D8D45
:100100008D8D8E8E8E8E8E8E8F8F8F8F8F90909006
:1001100090909191919191929292929293939393C4
:10012000939494949494959595959696969696977F
:100130009797979898989898999999999A9A9A9A36
:100140009B9B9B9B9C9C9C9C9D9D9D9D9E9E9E9EE7
:100150009F9F9F9FA0A0A0A0A1A1A1A1A2A2A2A396
:10016000A3A3A3A4A4A4A4A5A5A5A6A6A6A6A7A741
:10017000A7A8A8A8A8A9A9A9AAAAAAAAABABABACE8
:10018000ACACACADADADAEAEAEAFAFAFB0B0B0B08D
:10019000B1B1B1B2B2B2B3B3B3B4B4B4B5B5B5B52D
:1001A000B6B6B6B7B7B7B8B8B8B9B9B9BABABABBCC
:1001B000BBBBBCBCBCBDBDBDBEBEBEBFBFBFC0C067
:1001C000C0C1C1C1C2C2C2C3C3C4C4C4C5C5C5C6FF
:1001D000C6C6C7C7C7C8C8C8C9C9C9CACACBCBCB96
:1001E000CCCCCCCDCDCDCECECFCFCFD0D0D0D1D129
:1001F000D1D2D2D3D3D3D4D4D4D5D5D5D6D6D7D7BC
:10020000D7D8D8D8D9D9DADADADBDBDBDCDCDDDD4C
:10021000DDDEDEDEDFDFE0E0E0E1E1E2E2E2E3E3DB
:10022000E3E4E4E5E5E5E6E6E7E7E7E8E8E8E9E969
:10023000EAEAEAEBEBECECECEDEDEDEEEEEFEFEFF6
:10024000F0F0F1F1F1F2F2F3F3F3F4F4F5F5F5F681
:10025000F6F6F7F7F8F8F8F9F9FAFAFAFBFBFCFC0E
:10026000FCFDFDFEFEFEFFFF000000010101020299
:100270000303030404050505060607070708080924
:1002800009090A0A0A0B0B0C0C0C0D0D0E0E0E0FB1
:100290000F1010101111121212131313141415153C
:1002A00015161617171718181819191A1A1A1B1BCA
:1002B0001C1C1C1D1D1D1E1E1F1F1F202020212158
:1002C00022222223232424242525252626272727E6
:1002D00028282829292A2A2A2B2B2B2C2C2C2D2D77
:1002E0002E2E2E2F2F2F3030303131323232333309
:1002F000333434343535363636373737383838399D
:1003000039393A3A3A3B3B3B3C3C3D3D3D3E3E3E33
:100310003F3F3F40404041414142424243434344CA
:100320004444454545464646474747484848494965
:10033000494A4A4A4A4B4B4B4C4C4C4D4D4D4E4E04
:100340004E4F4F4F4F5050505151515252525353A4
:100350005353545454555555555656565757575749
:10036000585858595959595A5A5A5B5B5B5B5C5CEF
:100370005C5C5D5D5D5E5E5E5E5F5F5F5F6060609A
:100380006061616161626262626363636364646449
:1003900064656565656666666667676767676868FA
:1003A0006868696969696A6A6A6A6A6B6B6B6B6BB0
:1003B0006C6C6C6C6C6D6D6D6D6E6E6E6E6E6E6F6A
:1003C0006F6F6F6F70707070707171717171717229
:1003D00072727272737373737373747474747474EB
:1003E00075757575757575767676767676767777B2
:1003F000777777777778787878787878797979797E
:10040000797979797A7A7A7A7A7A7A7A7A7B7B7B4D
:100410007B7B7B7B7B7B7B7C7C7C7C7C7C7C7C7C23
:100420007C7C7D7D7D7D7D7D7D7D7D7D7D7D7D7EFD
:100430007E7E7E7E7E7E7E7E7E7E7E7E7E7E7E7EDC
:100440007F7F7F7F7F7F7F7F7F7F7F7F7F7F7F7FBC
:100450007F7F7F7F7F7F7F7F7F7F7F7F7F7F7F7FAC
:100460007F7F7F7F7F7F7F7F7F7F7F7F7F7F7F7F9C
:100470007F7F7F7F7F7F7F7F7F7F7F7F7F7F7F7F8C
:100480007F7F7F7F7F7F7F7F7F7F7F7F7F7F7F7F7C
:100490007F7F7E7E7E7E7E7E7E7E7E7E7E7E7E7E7A
:1004A0007E7E7D7D7D7D7D7D7D7D7D7D7D7D7D7C7B
:1004B0007C7C7C7C7C7C7C7C7C7C7B7B7B7B7B7B82
:1004C0007B7B7B7B7A7A7A7A7A7A7A7A7A7979798B
:1004D000797979797978787878787878777777779B
:1004E00077777777767676767676757575757575AE
:1004F00075747474747474737373737373727272C7
:10050000727271717171717170707070706F6F6FE4
:100510006F6F6E6E6E6E6E6D6D6D6D6D6C6C6C6C06
:100520006C6B6B6B6B6B6A6A6A6A6A69696969682A
:100530006868686767676767666666666565656554
:100540006464646463636363626262626161616183
:10055000606060605F5F5F5F5E5E5E5E5D5D5D5CB4
:100560005C5C5C5B5B5B5B5A5A5A595959595858E9
:100570005857575757565656555555555454545322
:100580005353535252525151515050504F4F4F4F5D
:100590004E4E4E4D4D4D4C4C4C4B4B4B4A4A4A4A9D
:1005A00049494948484847474746464645454544DE
:1005B00044444343434242424141414040403F3F23
:1005C0003F3E3E3E3D3D3D3C3C3C3B3B3A3A3A396A
:1005D00039393838383737373636363535343434B4
:1005E00033333332323231313030302F2F2F2E2E01
:1005F0002E2D2D2C2C2C2B2B2B2A2A2A292928284E
:10060000282727272626252525242424232322229C
:100610002222212120201F1F1F1E1E1D1D1D1C1CEC
:100620001C1B1B1A1A1A191918181817171716163F
:100630001515151414131313121212111110101092
:100640000F0F0E0E0E0D0D0C0C0C0B0B0A0A0A09E7
:10065000090908080707070606050505040403033A
:10066000030202010101000000FFFFFEFEFEFDFD8E
:10067000FCFCFCFBFBFAFAFAF9F9F8F8F8F7F7F6E4
:10068000F6F6F5F5F5F4F4F3F3F3F2F2F1F1F1F037
:10069000F0EFEFEFEEEEEEEDEDECECECEBEBEAEA8B
:1006A000EAE9E9E8E8E8E7E7E7E6E6E5E5E5E4E4DE
:1006B000E3E3E3E2E2E2E1E1E0E0E0DFDFDEDEDE31
:1006C000DDDDDDDCDCDBDBDBDADADAD9D9D8D8D882
:1006D000D7D7D7D6D6D5D5D5D4D4D4D3D3D3D2D2D1
:1006E000D1D1D1D0D0D0CFCFCFCECECDCDCDCCCC1F
:1006F000CCCBCBCBCACAC9C9C9C8C8C8C7C7C7C66B
:10070000C6C6C5C5C5C4C4C4C3C3C2C2C2C1C1C1B3
:10071000C0C0C0BFBFBFBEBEBEBDBDBDBCBCBCBBFC
:10072000BBBBBABABAB9B9B9B8B8B8B7B7B7B6B641
:10073000B6B5B5B5B5B4B4B4B3B3B3B2B2B2B1B182
:10074000B1B0B0B0B0AFAFAFAEAEAEADADADACACC2
:10075000ACACABABABAAAAAAAAA9A9A9A8A8A8A8FD
:10076000A7A7A7A6A6A6A6A5A5A5A4A4A4A4A3A337
:10077000A3A3A2A2A2A1A1A1A1A0A0A0A09F9F9F6C
:100780009F9E9E9E9E9D9D9D9D9C9C9C9C9B9B9B9D
:100790009B9A9A9A9A9999999998989898989797CC
:1007A00097979696969696959595959494949494F5
:1007B000939393939392929292929191919191901B
:1007C000909090908F8F8F8F8F8E8E8E8E8E8E8D3D
:1007D0008D8D8D8D8C8C8C8C8C8C8B8B8B8B8B8B5B
:1007E0008A8A8A8A8A8A8A89898989898989888874
:1007F0008888888888878787878787878686868688
:100800008686868685858585858585858584848497
:1008100084848484848484838383838383838383A1
:1008200083838282828282828282828282828281A7
:1008300081818181818181818181818181818181A8
:1008400080808080808080808080808080808080A8
:100850008080808080808080808080808080808098
:1008600080808080808080800000000076A9080061
:10087000512D090004B90900054D0A00D3E90A0009
:10088000F48F0B00F63F0C0070FA0C0000C00D0056
:100890004F910E00116F0F00025A1000EC52110020
:1008A000A35A1200087213000A9A1400A6D3150066
:1008B000E91F1700ED7F1800E0F4190000801B000D
:1008C0009E221D0022DE1E0004B42000D8A52200B6
:1008D00046B5240010E42600153429004DA72B004E
:1008E000D23F2E00DAFF3000C0E93300FFFF3600B0
:1008F0003D453A0044BC3D0008684100AF4B45000F
:100900008C6A490020C84D002A6852009C4E57004E
:10091000A47F5C00B4FF610080D36700FFFF6D001F
:100920007B8A740089787B0011D082005F978A00EF
:1009300018D5920041909B0053D0A400339DAE0087
:1009400046FFB80069FFC30000A7CF00FDFFDB0032
:10095000F414E9000BF1F60020A00501BE2E1501EC
:1009600030AA250182203701A6A04901663A5D011F
:100970008CFE7101D2FE8701004E9F01FAFFB70184
:10098000F229D20120E2ED0140400B027C5D2A02F7
:100990004C544B0204416E024C419302CC74BA0297
:1009A00028FDE302A4FD0F03009C3E03F4FF6F0348
:1009B000E453A40340C4DB0380801604F8BA540453
:1009C00098A896040882DC049882260598E97405A4
:1009D00030FAC70548FB1F0600387D06E8FFDF0632
:1009E000C8A748078088B70700012D08F075A90837
:1009F00030512D091004B90930054D0AA0D3E90A78
:100A0000A0F48F0B00F63F0CC06FFA0C70FFBF0D07
:100A1000804E910EB0106F0FA0015A10E0EB5211F2
:100A200060A25A1220087213600A9A1440A7D315C4
:100A300040E81F1700EC7F1880DFF419E0FE7F1BF1
:100A4000009D221D6021DE1E4003B420C0D7A522D8
:100A5000C044B5244010E426C0143429804EA72B8E
:100A600080D23F2E00D8FF300100000200000300BA
:100A7000040005010204081020408001020408104F
:100A800020010204081020040404040404040402E5
:100A90000202020202030303030303000000002515
:100AA0000028002B0000000000240027002A00007E
:100AB0003107A3087709CB0C11241FBECFEFD8E074
:100AC000DEBFCDBF11E0A0E0B1E0E0E2F0E202C0A5
:100AD00005900D92A032B107D9F724E0A0E2B1E071
:100AE00001C01D92A237B207E1F71AE0C8EBDAE0C5
:100AF00004C02297FE010E940A10C03BD107C9F72B
:100B00000E940F0D0C940E100C94000080E093E0F6
:100B1000909335018093340120E030E048E453E4C1
:100B200060913E0170913F0180914001909141019F
:100B30000E942B0F0E94AE0E60933A0170933B010E
:100B400080933C0190933D012FB7F89480E090EAA8
:100B5000A1E0B0E08093460190934701A093480143
:100B6000B09349012FBF0E94540A80E490E00C9496
:100B7000CC070C9458070F931F93EFB7F8940027F6
:100B8000142F252F362FF3E03695279517950795C7
:100B9000FA95D1F7DC0114960D931D932D933C9398
:100BA000179715E0440F551F661F771F1A95D1F749
:100BB00014964D935D936D937C931797EFBF1F91A0
:100BC0000F910895CF92DF92EF92FF9280912401CE
:100BD000811110C08091000190E0A0E0B0E080930E
:100BE000200190932101A0932201B093230181E081
:100BF000809324010E949008C0903601D090370164
:100C0000E0903801F09039016C157D058E059F0547
:100C100008F4D0C085E00E947F0A811114C086E0EC
:100C20000E947F0A2CE0829FC00111248496AA278B
:100C300097FDA095BA2F8093200190932101A09356
:100C40002201B09323018DE00E947F0A81111FC011
:100C500083E00E947F0A41E050E0481B510966276B
:100C600057FD6095762F8091200190912101A091F0
:100C70002201B0912301840F951FA61FB71F8093F7
:100C8000200190932101A0932201B093230185E0DC
:100C90000E947F0A811109C085E00E947F0A90E0CE
:100CA0000196109234018093350185E00E947F0AFD
:100CB00081110DC08FEF0E947F0A20913401309185
:100CC0003501280F311D309335012093340183E025
:100CD0000E947F0A21E030E0281B3109C901880FFA
:100CE000991F820F931FAA2797FDA095BA2F4091B5
:100CF0002001509121016091220170912301840F04
:100D0000951FA61FB71F8093200190932101A093E8
:100D10002201B09323019927AA27BB2777276627AB
:100D20000E947E09C72ED82EE92EFF24C0923001E2
:100D3000D0923101E0923201F0923301A09134015E
:100D4000B0913501A70196010E94F50FBB27A92F8D
:100D5000982F872F80932C0190932D01A0932E0123
:100D6000B0932F01B701A60186E591E00E94BB0573
:100D700040912C0150912D0160912E0170912F0115
:100D80008CE491E00E94BB050E949008C0903A015B
:100D9000D0903B01E0903C01F0903D016C0D7D1D39
:100DA0008E1D9F1D6093360170933701809338012B
:100DB00090933901FF90EF90DF90CF9008950F93BB
:100DC0001F93FC01448155816681778100811181E7
:100DD00022813381400F511F621F731F4083518353
:100DE00062837383CB0197700084F185E02DE80F57
:100DF000F91F84911F910F910895CF93DF938CE495
:100E000091E00E94DF06C82F82E491E00E94DF0695
:100E1000282F332727FD309520583F4F8C2F9927B7
:100E200087FD909580589F4F289FE001299FD00D06
:100E3000389FD00D112486E591E00E94DF069E01C7
:100E4000A82FBB27A7FDB0950E94EE0FAAE09595AD
:100E5000879577956795AA95D1F7CB01DF91CF91CB
:100E6000089588E690E090935F0180935E019093EF
:100E700055018093540190934B0180934A018FE672
:100E800092E1A3E8B1E480933E0190933F01A093E7
:100E90004001B093410110923A0110923B0110922F
:100EA0003C0110923D0108950E94E2050C9428092E
:100EB0009091720380917103981306C0909174030E
:100EC0008091730398131AC00E94FD06209172034B
:100ED000E22FF0E0EE0FFF1FEF58FE4F8C509F4FB8
:100EE000918380832F5F20937203211107C080912B
:100EF000740391E0892780937403089508951F92E5
:100F00000F920FB60F9211242F933F938F939F93BD
:100F1000AF93BF93EF93FF938091600191E0892796
:100F200080936001882359F180917103E82FF0E0EC
:100F3000EE0FFF1FEF58FE4F208131818F5F8093AE
:100F40007103811118C08091730389278093730303
:100F50008091750390917603A0917703B091780307
:100F60000196A11DB11D8093750390937603A09304
:100F70007703B09378033093890020938800FF9122
:100F8000EF91BF91AF919F918F913F912F910F90D2
:100F90000FBE0F901F9018957F928F929F92AF92E5
:100FA000BF92CF92DF92EF92FF920F931F93CF9356
:100FB000DF938C0180E00E94ED0884B5809370017E
:100FC00085B580936F0187B580936E01CEE6D0E042
:100FD000888180936D01980140E050E060E472E404
:100FE0008FE090E00E94C00FDA01C90140E064E5A3
:100FF00077E00E94820B0E94D70B84B58093680132
:1010000085B58093670187B5809366018881809359
:10101000650100E810E0F801808180936C01C1E86F
:10102000D0E0888180936B01B8E8CB2ED12CF601FB
:101030008081918180936A018FE6E82EF12CF7017F
:1010400080818093690161E089E00E94300C1092F8
:10105000C40395ECA92E93E0B92E98E1F501908395
:1010600026EC822E23E0922E82E0F4018083988386
:10107000F801808388EE91E0A0E0B0E077247394DB
:101080007092BF039093C1038093C0039093870035
:101090008093860089E1888361E089E00E94300CBA
:1010A000F8018081F4019081892B8068F8018083A8
:1010B0002091C0033091C103A4EFB0E00E94DF0F84
:1010C0003AE096958795779567953A95D1F7F60129
:1010D000718360838091BF03F5019081892B8883A0
:1010E000F7017082F8018081809364018881809388
:1010F0006301F6018081918180936201F701808113
:1011000080936101DF91CF911F910F91FF90EF903C
:10111000DF90CF90BF90AF909F908F907F90089579
:10112000209171038091750390917603A0917703CC
:10113000B09178036627782F892F9A2F620F711D3F
:10114000811D911D089510927103109272031092E7
:101150007303109274030895811109C080917A007D
:10116000846080937A0080917A008D7F1AC08130EC
:1011700071F480917A008B7F80937A0080917A005D
:10118000826080937A0080917A0081600FC0823003
:1011900079F480917A008B7F80937A0080917A0035
:1011A000826080937A0080917A008E7F80937A00AB
:1011B000089580E090E041E050E060917E009A0167
:1011C000082E01C0220F0A94EAF7622B60937E007A
:1011D00001968830910589F70895EAE7F0E090815B
:1011E000986090830E94AC080C94D9088770806442
:1011F00080937C00EAE7F0E080818064808308953A
:10120000CF93DF931F92CDB7DEB78091810390918A
:1012100082038F3F2FEF920761F0FC01E758FC4FEC
:101220002081298301979093820380938103898190
:1012300001C08FEF80930201809102018F3F21F066
:10124000809102010E94F6080F90DF91CF910895DE
:10125000809102018F3F29F40E94000981E0809370
:1012600001010895EAE7F0E08081806480830895B9
:10127000E09102018091780090917900EE0FFF0BD0
:10128000ED57FC4F9183808308951F920F920FB604
:101290000F9211242F933F934F935F936F937F93FC
:1012A0008F939F93AF93BF93EF93FF93809101012F
:1012B000882329F00E9432091092010107C00E9480
:1012C00038090E94000981E080930101FF91EF91AC
:1012D000BF91AF919F918F917F916F915F914F914E
:1012E0003F912F910F900FBE0F901F9018958FEF89
:1012F0009FEF90938203809381030895CF92DF92B2
:10130000EF92FF920F931F9344E0849F900111246A
:10131000F901E859F74FC590D590E590F490F9019F
:10132000E459F74F0591159125913491A901980140
:101330002C193D094E095F09882799272115310588
:10134000E1E04E07510558F0232F342F452F552744
:101350000E948E0FBB27A92F982F872F04C00E94B1
:101360008E0FAA27BB27BC01CD016C0D7D1D8E1DE4
:101370009F1D1F910F91FF90EF90DF90CF900895E8
:10138000CF92DF92EF92FF92CF93DF93C0E0D0E055
:10139000C12CD12C760188E00E94130C8D569B4FF6
:1013A00081709927AA2797FDA095BA2F0C2E04C00B
:1013B000880F991FAA1FBB1F0A94D2F7C82AD92ADF
:1013C000EA2AFB2A2196C032D10529F7C701B601C6
:1013D000DF91CF91FF90EF90DF90CF900895CF9263
:1013E000DF92EF92FF920F931F9340910B01509168
:1013F0000C0160910D0170910E01DA019927882787
:1014000084279527A627B7278C019D0145E03695AF
:101410002795179507954A95D1F7082719272A2761
:101420003B278091070190910801A0910901B0919B
:101430000A0180930B0190930C01A0930D01B093CE
:101440000E014091030150910401609105017091DA
:1014500006014093070150930801609309017093BE
:101460000A016A017B01C826D926EA26FB26C701A4
:10147000B6016027712782279327000F111F221FB3
:10148000331F60277127822793276093030170938E
:10149000040180930501909306011F910F91FF9025
:1014A000EF90DF90CF900895CF93DF93CAE7D0E01D
:1014B0008881877F88830E94C00960930B017093A5
:1014C0000C0180930D0190930E010E94C00960935E
:1014D0000701709308018093090190930A010E940B
:1014E000C0096093030170930401809305019093F8
:1014F0000601888188608883DF91CF910895CF931A
:10150000C82F0E94EF096C9FC0011124892FCF9131
:10151000089582E08093BE038FEF80939903109229
:101520009B0380919303815080939A03809194034D
:10153000880F81608093BC0385EE8093BC00089582
:1015400084E08093BE038FEF8093990310929B03F6
:101550002091950320939A03A0919603B09197034D
:101560008CE993E0FC013E2F381B321718F43D91B3
:101570003193F9CF8091980390E0880F991F809361
:10158000BC0385EE8093BC00089585ED8093BC007C
:101590008091BC0084FDFCCF8091BE038093BD038D
:1015A0001092BE038091BD03833011F40C94A00A05
:1015B0008091BD03813011F40C94890A089585EC63
:1015C0008093BC008091BE038093BD031092BE0344
:1015D0008091BD03833011F40C94A00A8091BD0367
:1015E000813011F40C94890A08951F920F920FB65E
:1015F0000F9211242F933F934F935F936F937F9399
:101600008F939F93AF93BF93EF93FF938091B90014
:10161000887F883239F170F4803109F130F4882301
:1016200009F45BC08830D9F05CC08831D9F08032D1
:1016300061F157C08034C1F150F4803331F1883307
:1016400009F04FC0809399030E94DF0A4AC0803599
:10165000F9F08835A9F1883409F043C040C0809181
:10166000BC0310C090919B0380919A039817B8F522
:10167000E0919B0381E08E0F80939B03F0E0E456A2
:10168000FC4F80818093BB0015C08093990327C0D5
:10169000E0919B0381E08E0F80939B038091BB00C0
:1016A000F0E0E456FC4F808390919B0380919A0375
:1016B000981710F485EC01C085E88093BC0011C038
:1016C000E0919B0381E08E0F80939B038091BB0090
:1016D000F0E0E456FC4F808302C0109299030E9410
:1016E000C50AFF91EF91BF91AF919F918F917F912B
:1016F0006F915F914F913F912F910F900FBE0F907F
:101700001F901895CF92DF92EF92FF927093CA03C9
:101710006093C9034093CB03A0E0B0E034E0880FAE
:10172000991FAA1FBB1F3A95D1F720E030E0F901BD
:10173000E859F54FE491EE2381F06C017D01022E12
:1017400004C0F694E794D794C7940A94D2F751E072
:10175000C516D506E104F10438F02F5F3F4F2B305A
:10176000310529F780E01EC0A1E0B0E002C0AA0F59
:10177000BB1F2A95E2F7A70196010E94001024E002
:1017800095958795779567952A95D1F77093C803B6
:101790006093C70310926E0082E084BDE5BDCA94D9
:1017A000C7BC81E0FF90EF90DF90CF900895EEE608
:1017B000F0E0808182608083089578941F920F9278
:1017C0000FB60F9211242F933F934F935F936F9314
:1017D0007F938F939F93AF93BF93EF93FF93109259
:1017E0006E00E091C903F091CA030995F8948091C5
:1017F000CB03882311F016BCA99A80916E008260F9
:1018000080936E00FF91EF91BF91AF919F918F9167
:101810007F916F915F914F913F912F910F900FBEEC
:101820000F901F9018958E3008F08E508770209181
:101830000F0190E4299F90011124822B80937C005A
:1018400080917A00806480937A0080917A0086FD8E
:10185000FCCF809178002091790090E0922B089540
:10186000CF93DF9390E0FC01ED58F54F2491FC01FC
:10187000E957F54F8491882349F190E0880F991F2B
:10188000FC01EB55F54FA591B4918556954FFC01A0
:10189000C591D4919FB7611108C0F8948C9120959F
:1018A00082238C93888182230AC0623051F4F89499
:1018B0008C91322F309583238C938881822B88835F
:1018C00004C0F8948C91822B8C939FBFDF91CF91B1
:1018D00008951F920F920FB60F9211242F938F939A
:1018E0009F93EF93FF93E091DC03F091DD03808100
:1018F000E091E203F091E30382FD12C090818091B8
:10190000E5038F5F8F732091E603821751F0E0911A
:10191000E503F0E0E453FC4F958F8093E50301C0AD
:101920008081FF91EF919F918F912F910F900FBE2A
:101930000F901F9018951F920F920FB60F921124BF
:101940002F933F934F935F936F937F938F939F93C7
:10195000AF93BF93EF93FF938CEC93E00E94060E3E
:10196000FF91EF91BF91AF919F918F917F916F9177
:101970005F914F913F912F910F900FBE0F901F904D
:1019800018958CEC93E00E94CB0D21E0892B09F493
:1019900020E0822F08951092CF031092CE0388EE9C
:1019A00093E0A0E0B0E08093D0039093D103A093A4
:1019B000D203B093D30384E191E09093CD0380935D
:1019C000CC0385EC90E09093D9038093D80384EC0A
:1019D00090E09093DB038093DA0380EC90E09093A7
:1019E000DD038093DC0381EC90E09093DF03809330
:1019F000DE0382EC90E09093E1038093E00386ECB9
:101A000090E09093E3038093E2031092E503109239
:101A1000E6031092E7031092E803089508950E94E8
:101A2000900D0E940E0D0E948605C8EFDDE00E9419
:101A3000B9052097E1F30E94F80DF9CFCF92DF921C
:101A4000EF92FF920F931F93CF93DF937C016A0174
:101A5000EB0100E010E00C151D0571F06991D70154
:101A6000ED91FC910190F081E02DC7010995892B42
:101A700019F00F5F1F4FEFCFC801DF91CF911F917A
:101A80000F91FF90EF90DF90CF9008951F920F92EB
:101A90000FB60F9211242F933F938F939F93AF9381
:101AA000BF9380916A0490916B04A0916C04B091F3
:101AB0006D043091690423E0230F2D3720F4019643
:101AC000A11DB11D05C026E8230F0296A11DB11D61
:101AD0002093690480936A0490936B04A0936C0430
:101AE000B0936D0480916E0490916F04A091700486
:101AF000B09171040196A11DB11D80936E04909365
:101B00006F04A0937004B0937104BF91AF919F9143
:101B10008F913F912F910F900FBE0F901F901895AE
:101B2000789484B5826084BD84B5816084BD85B5B8
:101B3000826085BD85B5816085BDEEE6F0E080817F
:101B400081608083E1E8F0E01082808182608083A0
:101B5000808181608083E0E8F0E080818160808323
:101B6000E1EBF0E0808184608083E0EBF0E0808155
:101B700081608083EAE7F0E08081846080838081F7
:101B8000826080838081816080838081806880839F
:101B90001092C1000895FC01818D228D90E0805C3F
:101BA0009F4F821B91098F7399270895FC01918D96
:101BB000828D981731F0828DE80FF11D858D90E0B0
:101BC00008958FEF9FEF0895FC01918D828D9817F6
:101BD00061F0828DDF01A80FB11D5D968C91928D11
:101BE0009F5F9F73928F90E008958FEF9FEF08950E
:101BF00081EC9CE0892B49F080E090E0892B29F072
:101C00000E94C10C81110C9400000895FC01848D88
:101C1000DF01A80FB11DA35ABF4F2C91848D90E016
:101C200001968F739927848FA689B7892C93A089F1
:101C3000B1898C9180648C93938D848D981306C0A8
:101C40000288F389E02D80818F7D80830895CF9372
:101C5000DF93EC01888D8823C9F0EA89FB898081B4
:101C600085FD05C0A889B9898C9186FD0FC00FB686
:101C700007FCF5CF808185FFF2CFA889B9898C91C7
:101C800085FFEDCFCE010E94060EE7CFDF91CF9109
:101C90000895CF92DF92FF920F931F93CF93DF931C
:101CA0001F92CDB7DEB76C0181E0D60158968C93B8
:101CB00058975B969C915B975C968C915C97981378
:101CC00007C05096ED91FC915197808185FD2EC003
:101CD000F601038D10E00F5F1F4F0F731127F02ED9
:101CE000F601848DF81211C00FB607FCF9CFD601AA
:101CF0005096ED91FC915197808185FFF1CFC601FF
:101D000069830E94060E6981EBCF838DE80FF11D78
:101D1000E35AFF4F6083D6015B960C935B97529614
:101D2000ED91FC915397808180620CC0D60156964C
:101D3000ED91FC91579760835096ED91FC915197EE
:101D400080818064808381E090E00F90DF91CF916B
:101D50001F910F91FF90DF90CF9008955BD088F096
:101D60009F5790F0B92F9927B751A0F0D1F0660F87
:101D7000771F881F991F1AF0BA95C9F712C0B130A2
:101D800081F062D0B1E008955FC0672F782F882777
:101D9000B85F39F0B93FCCF3869577956795B395E1
:101DA000D9F73EF490958095709561957F4F8F4F50
:101DB0009F4F089597F99F6780E870E060E008956D
:101DC0009FEF80EC089500240A9416161706180653
:101DD0000906089500240A9412161306140605062F
:101DE0000895092E0394000C11F4882352F0BB0FC0
:101DF00040F4BF2B11F460FF04C06F5F7F4F8F4F23
:101E00009F4F089557FD9058440F551F59F05F3F5D
:101E100071F04795880F97FB991F61F09F3F79F00C
:101E200087950895121613061406551FF2CF46958E
:101E3000F1DF08C0161617061806991FF1CF869510
:101E40007105610508940895E894BB2766277727F4
:101E5000CB0197F908950BD0C4CFB5DF28F0BADFD6
:101E600018F0952309F0A6CFABCF1124EECFCADF2F
:101E7000A0F3959FD1F3950F50E0551F629FF0019D
:101E8000729FBB27F00DB11D639FAA27F00DB11DF6
:101E9000AA1F649F6627B00DA11D661F829F22277F
:101EA000B00DA11D621F739FB00DA11D621F839F06
:101EB000A00D611D221F749F3327A00D611D231FDC
:101EC000849F600D211D822F762F6A2F11249F572A
:101ED00050408AF0E1F088234AF0EE0FFF1FBB1F4D
:101EE000661F771F881F91505040A9F79E3F5105EC
:101EF00070F060CFAACF5F3FECF3983EDCF386959D
:101F000077956795B795F795E7959F5FC1F7FE2B96
:101F1000880F911D9695879597F90895DB018F930A
:101F20009F930E94F50FBF91AF91A29F800D911DCD
:101F3000A39F900DB29F900D11240895A1E21A2E37
:101F4000AA1BBB1BFD010DC0AA1FBB1FEE1FFF1F5D
:101F5000A217B307E407F50720F0A21BB30BE40BAD
:101F6000F50B661F771F881F991F1A9469F76095F4
:101F70007095809590959B01AC01BD01CF010895AE
:101F8000052E97FB1EF400940E94D70F57FD07D033
:101F90000E949E0F07FC03D04EF40C94D70F50956F
:101FA0004095309521953F4F4F4F5F4F0895909545
:101FB0008095709561957F4F8F4F9F4F0895A29F99
:101FC000B001B39FC001A39F700D811D1124911D0D
:101FD000B29F700D811D1124911D08950E94DF0F85
:101FE000B7FF0895821B930B08950E94DF0FA59FF2
:101FF000900DB49F900DA49F800D911D1124089504
:10200000B7FF0C94F50F0E94F50F821B930B0895F8
:10201000EE0FFF1F0590F491E02D0994F894FFCF87
:102020002A01FFB53B121FE5559A155521E5070119
:1020300000000000490E1E0DCB0DE40DD60D270E3D
:00000001FF
