:100000000C9466110C948E110C948E110C948E111C
:100010000C948E110C948E110C948E110C948E11E4
:100020000C948E110C948E110C948E110C948E11D4
:100030000C948E110C94E5130C941C170C948E11D7
:100040000C94E6180C948E110C9409180C943B181F
:100050000C948E110C9483150C948E110C948E11AB
:100060000C9434160C948E11808080808080808067
:100070008080808080808080808080808080808080
:100080008080808080808080808080808080808070
:100090008080808080808080808080808080808060
:1000A0008080808080808080808080808080808050
:1000B0008080808080808080808080808080808040
:1000C0008080808080808080808080808080808030
:1000D0008080808080808080808080808080808020
:1000E0008080808080808080808080808080808010
:1000F0008080808080808080808080808080808000
:1001000080808080808080808080808181818181EA
:1001100081818181818181818181818181818181CF
:1001200081818181818181818181818181818181BF
:1001300081818181818181818181818181818181AF
:10014000818181818181818181818181818181829E
:10015000828282828282828282828282828282827F
:10016000828282828282828282828282828282826F
:10017000828282828282828282828282828282825F
:100180008282828383838383838383838383838342
:10019000838383838383838383838383838383832F
:1001A000838383838383838383838383838383841E
:1001B00084848484848484848484848484848484FF
:1001C00084848484848484848484848484848484EF
:1001D00084848484848485858585858585858585D5
:1001E00085858585858585858585858585858585BF
:1001F00085858585858585858586868686868686A8
:10020000868686868686868686868686868686868E
:100210008686868686868686868687878787878778
:10022000878787878787878787878787878787875E
:100230008787878787878787888888888888888846
:10024000888888888888888888888888888888882E
:100250008888888889898989898989898989898912
:100260008989898989898989898989898989898AFD
:100270008A8A8A8A8A8A8A8A8A8A8A8A8A8A8A8ADE
:100280008A8A8A8A8A8A8A8A8A8B8B8B8B8B8B8BC7
:100290008B8B8B8B8B8B8B8B8B8B8B8B8B8B8B8BAE
:1002A0008B8C8C8C8C8C8C8C8C8C8C8C8C8C8C8C8F
:1002B0008C8C8C8C8C8C8C8C8C8D8D8D8D8D8D8D77
:1002C0008D8D8D8D8D8D8D8D8D8D8D8D8D8D8D8D5E
:1002D0008E8E8E8E8E8E8E8E8E8E8E8E8E8E8E8E3E
:1002E0008E8E8E8E8E8E8F8F8F8F8F8F8F8F8F8F24
:1002F0008F8F8F8F8F8F8F8F8F8F8F8F909090900A
:1003000090909090909090909090909090909090ED
:1003100091919191919191919191919191919191CD
:1003200091919191929292929292929292929292B1
:100330009292929292929292939393939393939395
:100340009393939393939393939393949494949478
:10035000949494949494949494949494949495955B
:10036000959595959595959595959595959595953D
:10037000969696969696969696969696969696961D
:1003800096969797979797979797979797979797FF
:1003900097979797989898989898989898989898E1
:1003A00098989898989999999999999999999999C2
:1003B0009999999999999A9A9A9A9A9A9A9A9A9AA3
:1003C0009A9A9A9A9A9A9A9B9B9B9B9B9B9B9B9B84
:1003D0009B9B9B9B9B9B9B9B9C9C9C9C9C9C9C9C65
:1003E0009C9C9C9C9C9C9C9C9D9D9D9D9D9D9D9D45
:1003F0009D9D9D9D9D9D9D9D9E9E9E9E9E9E9E9E25
:100400009E9E9E9E9E9E9E9F9F9F9F9F9F9F9F9F03
:100410009F9F9F9F9F9F9FA0A0A0A0A0A0A0A0A0E3
:10042000A0A0A0A0A0A0A1A1A1A1A1A1A1A1A1A1C2
:10043000A1A1A1A1A1A2A2A2A2A2A2A2A2A2A2A2A1
:10044000A2A2A2A2A3A3A3A3A3A3A3A3A3A3A3A380
:10045000A3A3A3A4A4A4A4A4A4A4A4A4A4A4A4A45F
:10046000A4A4A5A5A5A5A5A5A5A5A5A5A5A5A5A53E
:10047000A6A6A6A6A6A6A6A6A6A6A6A6A6A6A7A71A
:10048000A7A7A7A7A7A7A7A7A7A7A7A7A8A8A8A8F8
:10049000A8A8A8A8A8A8A8A8A8A8A9A9A9A9A9A9D6
:1004A000A9A9A9A9A9A9A9A9AAAAAAAAAAAAAAAAB4
:1004B000AAAAAAAAAAABABABABABABABABABABAB91
:1004C000ABABABACACACACACACACACACACACACAC6F
:1004D000ACADADADADADADADADADADADADADAEAE4B
:1004E000AEAEAEAEAEAEAEAEAEAEAEAFAFAFAFAF27
:1004F000AFAFAFAFAFAFAFAFB0B0B0B0B0B0B0B004
:10050000B0B0B0B0B0B1B1B1B1B1B1B1B1B1B1B1E0
:10051000B1B1B2B2B2B2B2B2B2B2B2B2B2B2B2B3BC
:10052000B3B3B3B3B3B3B3B3B3B3B3B3B4B4B4B497
:10053000B4B4B4B4B4B4B4B4B5B5B5B5B5B5B5B573
:10054000B5B5B5B5B5B6B6B6B6B6B6B6B6B6B6B650
:10055000B6B7B7B7B7B7B7B7B7B7B7B7B7B7B8B82A
:10056000B8B8B8B8B8B8B8B8B8B8B9B9B9B9B9B905
:10057000B9B9B9B9B9B9BABABABABABABABABABAE1
:10058000BABABBBBBBBBBBBBBBBBBBBBBBBBBCBCBB
:10059000BCBCBCBCBCBCBCBCBCBCBDBDBDBDBDBD95
:1005A000BDBDBDBDBDBDBEBEBEBEBEBEBEBEBEBE71
:1005B000BEBEBFBFBFBFBFBFBFBFBFBFBFBFC0C04B
:1005C000C0C0C0C0C0C0C0C0C0C1C1C1C1C1C1C124
:1005D000C1C1C1C1C1C2C2C2C2C2C2C2C2C2C2C200
:1005E000C2C3C3C3C3C3C3C3C3C3C3C3C4C4C4C4D8
:1005F000C4C4C4C4C4C4C4C4C5C5C5C5C5C5C5C5B3
:10060000C5C5C5C6C6C6C6C6C6C6C6C6C6C6C6C78C
:10061000C7C7C7C7C7C7C7C7C7C7C8C8C8C8C8C864
:10062000C8C8C8C8C8C9C9C9C9C9C9C9C9C9C9C93F
:10063000C9CACACACACACACACACACACACBCBCBCB17
:10064000CBCBCBCBCBCBCBCCCCCCCCCCCCCCCCCCF1
:10065000CCCCCDCDCDCDCDCDCDCDCDCDCDCECECEC9
:10066000CECECECECECECECECFCFCFCFCFCFCFCFA2
:10067000CFCFCFD0D0D0D0D0D0D0D0D0D0D0D1D17B
:10068000D1D1D1D1D1D1D1D1D1D2D2D2D2D2D2D253
:10069000D2D2D2D2D3D3D3D3D3D3D3D3D3D3D3D42D
:1006A000D4D4D4D4D4D4D4D4D4D4D5D5D5D5D5D504
:1006B000D5D5D5D5D5D6D6D6D6D6D6D6D6D6D6D7DE
:1006C000D7D7D7D7D7D7D7D7D7D7D8D8D8D8D8D8B4
:1006D000D8D8D8D8D8D9D9D9D9D9D9D9D9D9D9DA8E
:1006E000DADADADADADADADADADADBDBDBDBDBDB64
:1006F000DBDBDBDBDBDCDCDCDCDCDCDCDCDCDCDD3E
:10070000DDDDDDDDDDDDDDDDDDDDDEDEDEDEDEDE13
:10071000DEDEDEDEDFDFDFDFDFDFDFDFDFDFDFE0EC
:10072000E0E0E0E0E0E0E0E0E0E0E1E1E1E1E1E1C3
:10073000E1E1E1E1E2E2E2E2E2E2E2E2E2E2E3E39B
:10074000E3E3E3E3E3E3E3E3E3E4E4E4E4E4E4E472
:10075000E4E4E4E5E5E5E5E5E5E5E5E5E5E5E6E64A
:10076000E6E6E6E6E6E6E6E6E7E7E7E7E7E7E7E721
:10077000E7E7E8E8E8E8E8E8E8E8E8E8E8E9E9E9F8
:10078000E9E9E9E9E9E9E9EAEAEAEAEAEAEAEAEAD0
:10079000EAEAEBEBEBEBEBEBEBEBEBEBECECECECA7
:1007A000ECECECECECECEDEDEDEDEDEDEDEDEDED7F
:1007B000EEEEEEEEEEEEEEEEEEEEEEEFEFEFEFEF54
:1007C000EFEFEFEFEFF0F0F0F0F0F0F0F0F0F0F12D
:1007D000F1F1F1F1F1F1F1F1F1F1F2F2F2F2F2F203
:1007E000F2F2F2F2F3F3F3F3F3F3F3F3F3F3F4F4DB
:1007F000F4F4F4F4F4F4F4F4F5F5F5F5F5F5F5F5B1
:10080000F5F5F5F6F6F6F6F6F6F6F6F6F6F7F7F788
:10081000F7F7F7F7F7F7F7F8F8F8F8F8F8F8F8F85F
:10082000F8F9F9F9F9F9F9F9F9F9F9FAFAFAFAFA34
:10083000FAFAFAFAFAFAFBFBFBFBFBFBFBFBFBFB0E
:10084000FCFCFCFCFCFCFCFCFCFCFDFDFDFDFDFDE2
:10085000FDFDFDFDFEFEFEFEFEFEFEFEFEFEFFFFBA
:10086000FFFFFFFFFFFFFFFFFF0000000000000091
:100870000000000101010101010101010102020268
:10088000020202020202020303030303030303033F
:100890000304040404040404040404050505050514
:1008A00005050505050506060606060606060606EE
:1008B00007070707070707070707080808080808C2
:1008C00008080808090909090909090909090A0A9A
:1008D0000A0A0A0A0A0A0A0A0A0B0B0B0B0B0B0B71
:1008E0000B0B0B0C0C0C0C0C0C0C0C0C0C0D0D0D48
:1008F0000D0D0D0D0D0D0D0E0E0E0E0E0E0E0E0E1F
:100900000E0E0F0F0F0F0F0F0F0F0F0F10101010F5
:1009100010101010101011111111111111111111CD
:1009200011121212121212121212121313131313A3
:10093000131313131314141414141414141414157B
:100940001515151515151515151516161616161651
:100950001616161617171717171717171717181829
:100960001818181818181818181919191919191900
:100970001919191A1A1A1A1A1A1A1A1A1A1A1B1BD8
:100980001B1B1B1B1B1B1B1B1C1C1C1C1C1C1C1CAF
:100990001C1C1C1D1D1D1D1D1D1D1D1D1D1E1E1E87
:1009A0001E1E1E1E1E1E1E1F1F1F1F1F1F1F1F1F5E
:1009B0001F1F202020202020202020202120212037
:1009C000212122212120212222222222222222220E
:1009D00022232323232323232323232324242424E4
:1009E00024242424242424252525252525252525BE
:1009F0002526262626262626262626262727272794
:100A0000272727272727272828282828282828286D
:100A10002829292929292929292929292A2A2A2A43
:100A20002A2A2A2A2A2A2A2B2B2B2B2B2B2B2B2B1D
:100A30002B2B2C2C2C2C2C2C2C2C2C2C2C2D2D2DF5
:100A40002D2D2D2D2D2D2D2D2E2E2E2E2E2E2E2ECE
:100A50002E2E2E2F2F2F2F2F2F2F2F2F2F2F3030A7
:100A6000303030303030303030313131313131317F
:100A70003131313132323232323232323232323359
:100A80003333333333333333333334343434343430
:100A9000343434343435353535353535353535350B
:100AA00036363636363636363636363637373737E2
:100AB00037373737373737383838383838383838BD
:100AC000383839393939393939393939393A3A3A95
:100AD0003A3A3A3A3A3A3A3A3A3B3B3B3B3B3B3B6F
:100AE0003B3B3B3B3B3C3C3C3C3C3C3C3C3C3C3C4B
:100AF0003D3D3D3D3D3D3D3D3D3D3D3D3E3E3E3E22
:100B00003E3E3E3E3E3E3E3F3F3F3F3F3F3F3F3FFC
:100B10003F3F3F40404040404040404040404041D7
:100B200041414141414141414141414242424242B0
:100B3000424242424242424343434343434343438C
:100B40004343434444444444444444444444444567
:100B50004545454545454545454545464646464640
:100B6000464646464646464747474747474747471C
:100B700047474748484848484848484848484848F8
:100B80004949494949494949494949494A4A4A4AD1
:100B90004A4A4A4A4A4A4A4A4A4B4B4B4B4B4B4BAE
:100BA0004B4B4B4B4B4C4C4C4C4C4C4C4C4C4C4C8A
:100BB0004C4C4D4D4D4D4D4D4D4D4D4D4D4D4D4E66
:100BC0004E4E4E4E4E4E4E4E4E4E4E4E4F4F4F4F41
:100BD0004F4F4F4F4F4F4F4F4F505050505050501E
:100BE00050505050505051515151515151515151FB
:100BF00051515152525252525252525252525252D8
:100C000053535353535353535353535353535454B2
:100C1000545454545454545454545455555555558F
:100C2000555555555555555555565656565656566D
:100C3000565656565656565757575757575757574B
:100C40005757575757585858585858585858585829
:100C50005858585959595959595959595959595907
:100C6000595A5A5A5A5A5A5A5A5A5A5A5A5A5A5AE5
:100C70005B5B5B5B5B5B5B5B5B5B5B5B5B5B5C5CC2
:100C80005C5C5C5C5C5C5C5C5C5C5C5C5C5D5D5DA1
:100C90005D5D5D5D5D5D5D5D5D5D5D5D5E5E5E5E80
:100CA0005E5E5E5E5E5E5E5E5E5E5E5F5F5F5F5F5F
:100CB0005F5F5F5F5F5F5F5F5F5F6060606060603E
:100CC000606060606060606060606161616161611E
:100CD00061616161616161616161626262626262FE
:100CE00062626262626262626263636363636363DD
:100CF00063636363636363636363646464646464BE
:100D0000646464646464646464646565656565659D
:100D1000656565656565656565656566666666667E
:100D2000666666666666666666666666676767675F
:100D30006767676767676767676767676768686840
:100D40006868686868686868686868686868686922
:100D50006969696969696969696969696969696903
:100D6000696A6A6A6A6A6A6A6A6A6A6A6A6A6A6AE4
:100D70006A6A6A6B6B6B6B6B6B6B6B6B6B6B6B6BC6
:100D80006B6B6B6B6B6B6C6C6C6C6C6C6C6C6C6CA9
:100D90006C6C6C6C6C6C6C6C6C6D6D6D6D6D6D6D8C
:100DA0006D6D6D6D6D6D6D6D6D6D6D6D6D6E6E6E70
:100DB0006E6E6E6E6E6E6E6E6E6E6E6E6E6E6E6E53
:100DC0006E6F6F6F6F6F6F6F6F6F6F6F6F6F6F6F34
:100DD0006F6F6F6F6F707070707070707070707018
:100DE00070707070707070707070707171717171FE
:100DF00071717171717171717171717171717171E3
:100E000071727272727272727272727272727272C3
:100E100072727272727272727373737373737373AA
:100E20007373737373737373737373737373737491
:100E30007474747474747474747474747474747472
:100E4000747474747474747475757575757575755A
:100E50007575757575757575757575757575757542
:100E60007576767676767676767676767676767623
:100E7000767676767676767676767676767777770F
:100E800077777777777777777777777777777777F2
:100E900077777777777777777778787878787878DB
:100EA00078787878787878787878787878787878C2
:100EB00078787878787878797979797979797979A9
:100EC0007979797979797979797979797979797992
:100ED00079797979797979797A7A7A7A7A7A7A7A7A
:100EE0007A7A7A7A7A7A7A7A7A7A7A7A7A7A7A7A62
:100EF0007A7A7A7A7A7A7A7A7A7A7A7B7B7B7B7B4D
:100F00007B7B7B7B7B7B7B7B7B7B7B7B7B7B7B7B31
:100F10007B7B7B7B7B7B7B7B7B7B7B7B7B7B7B7B21
:100F20007B7B7C7C7C7C7C7C7C7C7C7C7C7C7C7C03
:100F30007C7C7C7C7C7C7C7C7C7C7C7C7C7C7C7CF1
:100F40007C7C7C7C7C7C7C7C7C7C7C7C7C7C7D7DDF
:100F50007D7D7D7D7D7D7D7D7D7D7D7D7D7D7D7DC1
:100F60007D7D7D7D7D7D7D7D7D7D7D7D7D7D7D7DB1
:100F70007D7D7D7D7D7D7D7D7D7D7D7D7D7D7D7DA1
:100F80007E7D7E7E7E7E7E7E7E7E7E7E7E7E7E7E82
:100F90007E7E7E7E7E7E7E7E7E7E7E7E7E7E7E7E71
:100FA0007E7E7E7E7E7E7E7E7E7E7E7E7E7E7E7E61
:100FB0007E7E7E7E7E7E7E7E7E7E7E7E7E7E7E7E51
:100FC0007E7E7E7E7E7E7F7F7F7F7F7F7F7F7F7F37
:100FD0007F7F7F7F7F7F7F7F7F7F7F7F7F7F7F7F21
:100FE0007F7F7F7F7F7F7F7F7F7F7F7F7F7F7F7F11
:100FF0007F7F7F7F7F7F7F7F7F7F7F7F7F7F7F7F01
:101000007F7F7F7F7F7F7F7F7F7F7F7F7F7F7F7FF0
:101010007F7F7F7F7F7F7F7F7F7F7F7F7F7F7F7FE0
:101020007F7F7F7F7F7F7F7F7F7F7F7F7F7F7F7FD0
:101030007F7F7F7F7F7F7F7F7F7F7F7F7F7F7F7FC0
:101040007F7F7F7F7F7F7F7F7F7F7F7F7F7F7F7FB0
:101050007F7F7F7F7F7F7F7F7F7F7F7F7F7F7F7FA0
:101060007F7F7F7F7F7F7F7F7F7F7F7F7F7F7F7F90
:101070007F7F7F7F7F7F7F7F7F7F7F7F7F7F7F7F80
:101080007F7F7F7F7F7F7F7F7F7F7F7F7F7F7F7F70
:101090007F7F7F7F7F7F7F7F7F7F7F7F7F7F7F7F60
:1010A0007F7F7F7F7F7F7F7F7F7F7F7F7F7F7F7F50
:1010B0007F7F7F7F7F7F7F7F7F7F7F7F7F7F7F7F40
:1010C0007F7F7F7F7F7F7F7F7F7F7F7F7F7F7F7F30
:1010D0007F7F7F7F7F7F7F7F7F7F7F7F7F7F7F7F20
:1010E0007F7F7F7F7F7F7F7F7F7F7F7F7F7F7F7F10
:1010F0007F7F7F7F7F7F7F7F7F7F7F7F7F7F7F7F00
:101100007F7F7F7F7F7F7F7F7F7F7F7E7E7E7E7EF4
:101110007E7E7E7E7E7E7E7E7E7E7E7E7E7E7E7EEF
:101120007E7E7E7E7E7E7E7E7E7E7E7E7E7E7E7EDF
:101130007E7E7E7E7E7E7E7E7E7E7E7E7E7E7E7ECF
:101140007E7E7E7E7E7E7E7E7E7E7E7E7E7E7E7EBF
:101150007D7D7D7D7D7D7D7D7D7D7D7D7D7D7D7DBF
:101160007D7D7D7D7D7D7D7D7D7D7D7D7D7D7D7DAF
:101170007D7D7D7D7D7D7D7D7D7D7D7D7D7D7D7D9F
:101180007D7D7D7C7C7C7C7C7C7C7C7C7C7C7C7C9C
:101190007C7C7C7C7C7C7C7C7C7C7C7C7C7C7C7C8F
:1011A0007C7C7C7C7C7C7C7C7C7C7C7C7C7C7C7B80
:1011B0007B7B7B7B7B7B7B7B7B7B7B7B7B7B7B7B7F
:1011C0007B7B7B7B7B7B7B7B7B7B7B7B7B7B7B7B6F
:1011D0007B7B7B7B7B7B7A7A7A7A7A7A7A7A7A7A69
:1011E0007A7A7A7A7A7A7A7A7A7A7A7A7A7A7A7A5F
:1011F0007A7A7A7A7A7A7A7A7A7979797979797956
:10120000797979797979797979797979797979794E
:101210007979797979797979797978787878787844
:10122000787878787878787878787878787878783E
:101230007878787878787878777777777777777736
:10124000777777777777777777777777777777772E
:101250007777777777767676767676767676767629
:10126000767676767676767676767676767676761E
:10127000757575757575757575757575757575751E
:101280007575757575757575757474747474747415
:10129000747474747474747474747474747474740E
:1012A000747473737373737373737373737373730C
:1012B0007373737373737373737272727272727205
:1012C00072727272727272727272727272727272FE
:1012D00071717171717171717171717171717171FE
:1012E00071717171717170707070707070707070F8
:1012F00070707070707070707070706F6F6F6F6FF3
:101300006F6F6F6F6F6F6F6F6F6F6F6F6F6F6F6FED
:101310006E6E6E6E6E6E6E6E6E6E6E6E6E6E6E6EED
:101320006E6E6E6E6E6D6D6D6D6D6D6D6D6D6D6DE8
:101330006D6D6D6D6D6D6D6D6C6C6C6C6C6C6C6CE5
:101340006C6C6C6C6C6C6C6C6C6C6C6B6B6B6B6BE2
:101350006B6B6B6B6B6B6B6B6B6B6B6B6B6B6A6ADF
:101360006A6A6A6A6A6A6A6A6A6A6A6A6A6A6A6ADD
:1013700069696969696969696969696969696969DD
:1013800069696868686868686868686868686868DB
:1013900068686868676767676767676767676767D9
:1013A00067676767676666666666666666666666D8
:1013B00066666666666665656565656565656565D7
:1013C00065656565656565646464646464646464D6
:1013D00064646464646464646363636363636363D5
:1013E00063636363636363636262626262626262D5
:1013F00062626262626262616161616161616161D6
:1014000061616161616161606060606060606060D5
:10141000606060606060605F5F5F5F5F5F5F5F5FD5
:101420005F5F5F5F5F5F5E5E5E5E5E5E5E5E5E5ED6
:101430005E5E5E5E5E5D5D5D5D5D5D5D5D5D5D5DD7
:101440005D5D5D5D5C5C5C5C5C5C5C5C5C5C5C5CD8
:101450005C5C5C5B5B5B5B5B5B5B5B5B5B5B5B5BD9
:101460005B5A5A5A5A5A5A5A5A5A5A5A5A5A5A5ADB
:1014700059595959595959595959595959595858DE
:1014800058585858585858585858585857575757E0
:1014900057575757575757575757565656565656E2
:1014A00056565656565656565555555555555555E4
:1014B00055555555555554545454545454545454E6
:1014C00054545453535353535353535353535353E9
:1014D00053525252525252525252525252525151ED
:1014E00051515151515151515151515050505050F1
:1014F00050505050505050504F4F4F4F4F4F4F4FF4
:101500004F4F4F4F4F4E4E4E4E4E4E4E4E4E4E4EF6
:101510004E4E4D4D4D4D4D4D4D4D4D4D4D4D4D4CFA
:101520004C4C4C4C4C4C4C4C4C4C4C4C4B4B4B4BFF
:101530004B4B4B4B4B4B4B4B4A4A4A4A4A4A4A4A03
:101540004A4A4A4A4A494949494949494949494906
:10155000494848484848484848484848484847470C
:101560004747474747474747474746464646464611
:101570004646464646464545454545454545454515
:10158000454544444444444444444444444443431B
:101590004343434343434343434342424242424221
:1015A0004242424242424141414141414141414125
:1015B00041414040404040404040404040403F3F2B
:1015C0003F3F3F3F3F3F3F3F3F3F3E3E3E3E3E3E31
:1015D0003E3E3E3E3E3D3D3D3D3D3D3D3D3D3D3D36
:1015E0003D3C3C3C3C3C3C3C3C3C3C3C3B3B3B3B3E
:1015F0003B3B3B3B3B3B3B3B3A3A3A3A3A3A3A3A43
:101600003A3A3A3A39393939393939393939393847
:101610003838383838383838383837373737373750
:101620003737373737373636363636363636363654
:10163000363535353535353535353535343434345D
:101640003434343434343433333333333333333363
:10165000333332323232323232323232323131316B
:101660003131313131313131303030303030303072
:101670003030302F2F2F2F2F2F2F2F2F2F2F2E2E79
:101680002E2E2E2E2E2E2E2E2E2D2D2D2D2D2D2D81
:101690002D2D2D2D2C2C2C2C2C2C2C2C2C2C2C2B87
:1016A0002B2B2B2B2B2B2B2B2B2B2A2A2A2A2A2A90
:1016B0002A2A2A2A2A292929292929292929292896
:1016C00028282828282828282828272727272727A0
:1016D00027272727272626262626262626262626A5
:1016E00025252525252525252525242424242424B0
:1016F00024242424242323232323232323232322B6
:1017000022222222222222222222212120212122BF
:101710002121202121202020202020202020201FC6
:101720001F1F1F1F1F1F1F1F1F1E1E1E1E1E1E1ED0
:101730001E1E1E1E1D1D1D1D1D1D1D1D1D1D1C1CD7
:101740001C1C1C1C1C1C1C1C1C1B1B1B1B1B1B1BE0
:101750001B1B1B1A1A1A1A1A1A1A1A1A1A1A1919E8
:1017600019191919191919191818181818181818F1
:1017700018181817171717171717171717161616F9
:101780001616161616161616151515151515151501
:10179000151514141414141414141414131313130B
:1017A0001313131313131212121212121212121213
:1017B000111111111111111111111110101010101E
:1017C00010101010100F0F0F0F0F0F0F0F0F0F0E25
:1017D0000E0E0E0E0E0E0E0E0E0E0D0D0D0D0D0D2F
:1017E0000D0D0D0D0C0C0C0C0C0C0C0C0C0C0B0B37
:1017F0000B0B0B0B0B0B0B0B0A0A0A0A0A0A0A0A41
:101800000A0A090909090909090909090908080849
:101810000808080808080807070707070707070751
:10182000070606060606060606060605050505055C
:101830000505050505050404040404040404040462
:10184000030303030303030303030202020202026E
:101850000202020201010101010101010101000076
:10186000000000000000000000FFFFFFFFFFFFFF7F
:10187000FFFFFFFEFEFEFEFEFEFEFEFEFEFDFDFD88
:10188000FDFDFDFDFDFDFDFCFCFCFCFCFCFCFCFC91
:10189000FCFBFBFBFBFBFBFBFBFBFBFBFAFAFAFA9B
:1018A000FAFAFAFAFAFAF9F9F9F9F9F9F9F9F9F9A2
:1018B000F8F8F8F8F8F8F8F8F8F8F7F7F7F7F7F7AE
:1018C000F7F7F7F7F6F6F6F6F6F6F6F6F6F6F6F5B5
:1018D000F5F5F5F5F5F5F5F5F5F4F4F4F4F4F4F4BF
:1018E000F4F4F4F3F3F3F3F3F3F3F3F3F3F2F2F2C8
:1018F000F2F2F2F2F2F2F2F1F1F1F1F1F1F1F1F1D1
:10190000F1F1F0F0F0F0F0F0F0F0F0F0EFEFEFEFD9
:10191000EFEFEFEFEFEFEEEEEEEEEEEEEEEEEEEEE1
:10192000EDEDEDEDEDEDEDEDEDEDEDECECECECECEC
:10193000ECECECECECEBEBEBEBEBEBEBEBEBEBEAF3
:10194000EAEAEAEAEAEAEAEAEAEAE9E9E9E9E9E9FD
:10195000E9E9E9E9E8E8E8E8E8E8E8E8E8E8E7E705
:10196000E7E7E7E7E7E7E7E7E7E6E6E6E6E6E6E60E
:10197000E6E6E6E5E5E5E5E5E5E5E5E5E5E5E4E416
:10198000E4E4E4E4E4E4E4E4E3E3E3E3E3E3E3E31F
:10199000E3E3E3E2E2E2E2E2E2E2E2E2E2E1E1E127
:1019A000E1E1E1E1E1E1E1E0E0E0E0E0E0E0E0E030
:1019B000E0E0DFDFDFDFDFDFDFDFDFDFDFDEDEDE38
:1019C000DEDEDEDEDEDEDEDDDDDDDDDDDDDDDDDD40
:1019D000DDDDDCDCDCDCDCDCDCDCDCDCDBDBDBDB49
:1019E000DBDBDBDBDBDBDBDADADADADADADADADA50
:1019F000DADAD9D9D9D9D9D9D9D9D9D9D8D8D8D859
:101A0000D8D8D8D8D8D8D8D7D7D7D7D7D7D7D7D75F
:101A1000D7D7D6D6D6D6D6D6D6D6D6D6D5D5D5D568
:101A2000D5D5D5D5D5D5D5D4D4D4D4D4D4D4D4D46F
:101A3000D4D4D3D3D3D3D3D3D3D3D3D3D3D2D2D277
:101A4000D2D2D2D2D2D2D2D2D1D1D1D1D1D1D1D17E
:101A5000D1D1D1D0D0D0D0D0D0D0D0D0D0D0CFCF85
:101A6000CFCFCFCFCFCFCFCFCFCECECECECECECE8D
:101A7000CECECECECDCDCDCDCDCDCDCDCDCDCDCC93
:101A8000CCCCCCCCCCCCCCCCCCCCCBCBCBCBCBCB9C
:101A9000CBCBCBCBCBCACACACACACACACACACACAA1
:101AA000C9C9C9C9C9C9C9C9C9C9C9C9C8C8C8C8AA
:101AB000C8C8C8C8C8C8C8C7C7C7C7C7C7C7C7C7AF
:101AC000C7C7C6C6C6C6C6C6C6C6C6C6C6C6C5C5B6
:101AD000C5C5C5C5C5C5C5C5C5C4C4C4C4C4C4C4BD
:101AE000C4C4C4C4C4C3C3C3C3C3C3C3C3C3C3C3C1
:101AF000C2C2C2C2C2C2C2C2C2C2C2C2C1C1C1C1CA
:101B0000C1C1C1C1C1C1C1C0C0C0C0C0C0C0C0C0CE
:101B1000C0C0C0BFBFBFBFBFBFBFBFBFBFBFBFBED3
:101B2000BEBEBEBEBEBEBEBEBEBEBEBDBDBDBDBDDA
:101B3000BDBDBDBDBDBDBDBCBCBCBCBCBCBCBCBCDE
:101B4000BCBCBCBBBBBBBBBBBBBBBBBBBBBBBBBAE3
:101B5000BABABABABABABABABABABAB9B9B9B9B9EA
:101B6000B9B9B9B9B9B9B9B8B8B8B8B8B8B8B8B8EE
:101B7000B8B8B8B8B7B7B7B7B7B7B7B7B7B7B7B7F1
:101B8000B6B6B6B6B6B6B6B6B6B6B6B6B5B5B5B5F9
:101B9000B5B5B5B5B5B5B5B5B5B4B4B4B4B4B4B4FC
:101BA000B4B4B4B4B4B3B3B3B3B3B3B3B3B3B3B300
:101BB000B3B3B2B2B2B2B2B2B2B2B2B2B2B2B2B104
:101BC000B1B1B1B1B1B1B1B1B1B1B1B1B0B0B0B009
:101BD000B0B0B0B0B0B0B0B0B0AFAFAFAFAFAFAF0C
:101BE000AFAFAFAFAFAFAEAEAEAEAEAEAEAEAEAE0F
:101BF000AEAEAEADADADADADADADADADADADADAD12
:101C0000ACACACACACACACACACACACACACACABAB16
:101C1000ABABABABABABABABABABABAAAAAAAAAA19
:101C2000AAAAAAAAAAAAAAAAAAA9A9A9A9A9A9A91B
:101C3000A9A9A9A9A9A9A9A8A8A8A8A8A8A8A8A81D
:101C4000A8A8A8A8A8A7A7A7A7A7A7A7A7A7A7A71F
:101C5000A7A7A7A6A6A6A6A6A6A6A6A6A6A6A6A621
:101C6000A6A5A5A5A5A5A5A5A5A5A5A5A5A5A5A424
:101C7000A4A4A4A4A4A4A4A4A4A4A4A4A4A4A3A326
:101C8000A3A3A3A3A3A3A3A3A3A3A3A3A3A2A2A227
:101C9000A2A2A2A2A2A2A2A2A2A2A2A2A1A1A1A128
:101CA000A1A1A1A1A1A1A1A1A1A1A1A0A0A0A0A029
:101CB000A0A0A0A0A0A0A0A0A0A09F9F9F9F9F9F2A
:101CC0009F9F9F9F9F9F9F9F9F9F9E9E9E9E9E9E2A
:101CD0009E9E9E9E9E9E9E9E9E9D9D9D9D9D9D9D2B
:101CE0009D9D9D9D9D9D9D9D9D9C9C9C9C9C9C9C2B
:101CF0009C9C9C9C9C9C9C9C9C9C9B9B9B9B9B9B2A
:101D00009B9B9B9B9B9B9B9B9B9B9A9A9A9A9A9A29
:101D10009A9A9A9A9A9A9A9A9A9A9A999999999928
:101D20009999999999999999999999999898989827
:101D30009898989898989898989898989897979726
:101D40009797979797979797979797979797979624
:101D50009696969696969696969696969696969623
:101D60009695959595959595959595959595959522
:101D70009595959494949494949494949494949420
:101D8000949494949494939393939393939393931D
:101D9000939393939393939393929292929292921A
:101DA0009292929292929292929292929291919116
:101DB0009191919191919191919191919191919113
:101DC0009190909090909090909090909090909012
:101DD0009090909090908F8F8F8F8F8F8F8F8F8F0D
:101DE0008F8F8F8F8F8F8F8F8F8F8F8E8E8E8E8E08
:101DF0008E8E8E8E8E8E8E8E8E8E8E8E8E8E8E8E03
:101E00008E8D8D8D8D8D8D8D8D8D8D8D8D8D8D8D01
:101E10008D8D8D8D8D8D8D8D8C8C8C8C8C8C8C8CFA
:101E20008C8C8C8C8C8C8C8C8C8C8C8C8C8C8C8CF2
:101E30008B8B8B8B8B8B8B8B8B8B8B8B8B8B8B8BF2
:101E40008B8B8B8B8B8B8B8B8A8A8A8A8A8A8A8AEA
:101E50008A8A8A8A8A8A8A8A8A8A8A8A8A8A8A8AE2
:101E60008A8A8989898989898989898989898989E0
:101E700089898989898989898989898989888888D5
:101E800088888888888888888888888888888888D2
:101E900088888888888888888887878787878787C9
:101EA00087878787878787878787878787878787C2
:101EB00087878787878787868686868686868686BB
:101EC00086868686868686868686868686868686B2
:101ED00086868686868686868585858585858585AA
:101EE00085858585858585858585858585858585A2
:101EF0008585858585858585858585848484848497
:101F00008484848484848484848484848484848491
:101F10008484848484848484848484848484848481
:101F20008483838383838383838383838383838380
:101F30008383838383838383838383838383838371
:101F40008383838383838383838383838383828263
:101F50008282828282828282828282828282828261
:101F60008282828282828282828282828282828251
:101F70008282828282828282828282828282828241
:101F8000828281818181818181818181818181813F
:101F90008181818181818181818181818181818131
:101FA0008181818181818181818181818181818121
:101FB0008181818181818181818181818181818111
:101FC000818181818180808080808080808080800C
:101FD0008080808080808080808080808080808001
:101FE00080808080808080808080808080808080F1
:101FF00080808080808080808080808080808080E1
:1020000080808080808080808080808080808080D0
:1020100080808080808080808080808080808080C0
:1020200080808080808080808080808080808080B0
:1020300080808080808080808080808080808080A0
:102040008080808080808080808080808080808090
:102050008080808080808080808080808080808080
:1020600080808080808080800000000076A9080049
:10207000512D090004B90900054D0A00D3E90A00F1
:10208000F48F0B00F63F0C0070FA0C0000C00D003E
:102090004F910E00116F0F00025A1000EC52110008
:1020A000A35A1200087213000A9A1400A6D315004E
:1020B000E91F1700ED7F1800E0F4190000801B00F5
:1020C0009E221D0022DE1E0004B42000D8A522009E
:1020D00046B5240010E42600153429004DA72B0036
:1020E000D23F2E00DAFF3000C0E93300FFFF360098
:1020F0003D453A0044BC3D0008684100AF4B4500F7
:102100008C6A490020C84D002A6852009C4E570036
:10211000A47F5C00B4FF610080D36700FFFF6D0007
:102120007B8A740089787B0011D082005F978A00D7
:1021300018D5920041909B0053D0A400339DAE006F
:1021400046FFB80069FFC30000A7CF00FDFFDB001A
:10215000F414E9000BF1F60020A00501BE2E1501D4
:1021600030AA250182203701A6A04901663A5D0107
:102170008CFE7101D2FE8701004E9F01FAFFB7016C
:10218000F229D20120E2ED0140400B027C5D2A02DF
:102190004C544B0204416E024C419302CC74BA027F
:1021A00028FDE302A4FD0F03009C3E03F4FF6F0330
:1021B000E453A40340C4DB0380801604F8BA54043B
:1021C00098A896040882DC049882260598E974058C
:1021D00030FAC70548FB1F0600387D06E8FFDF061A
:1021E000C8A748078088B70700012D08F075A9081F
:1021F00030512D091004B90930054D0AA0D3E90A60
:10220000A0F48F0B00F63F0CC06FFA0C70FFBF0DEF
:10221000804E910EB0106F0FA0015A10E0EB5211DA
:1022200060A25A1220087213600A9A1440A7D315AC
:1022300040E81F1700EC7F1880DFF419E0FE7F1BD9
:10224000009D221D6021DE1E4003B420C0D7A522C0
:10225000C044B5244010E426C0143429804EA72B76
:1022600080D23F2E00D8FF300100000200000300A2
:10227000040005000000080002010000030407003C
:10228000000000000000000102040810204080014E
:1022900002040810200102040810200404040404AD
:1022A0000404040202020202020303030303030004
:1022B000000000250028002B00000000002400275B
:1022C000002A00007713E114B5156B1811241FBE06
:1022D000CFEFD8E0DEBFCDBF11E0A0E0B1E0E0E598
:1022E000F7E302C005900D92A231B107D9F724E0BF
:1022F000A2E1B1E001C01D92AB3CB207E1F712E2EE
:10230000CCECD2E204C02297FE010E94A21BC43C86
:10231000D107C9F70E94AF180C94A61B0C940000BB
:102320000C94BE132FB7F894AB01662757FD609548
:10233000762F3FE0440F551F661F771F3A95D1F760
:10234000FC0144835583668377832FBF08951F93D1
:10235000CF93DF93EC01CB01BA011FB7F89420E0D3
:1023600030E040E056E40E94CB1A20E030E040E04C
:102370005CE30E94CB1A20E030E040E857E40E9482
:10238000CB1A0E944E1A6C837D838E839F831FBF5E
:10239000DF91CF911F9108958CE390E00E94BC15CE
:1023A000BC0180EB91E00E9492118AE490E00E94CF
:1023B000BC15BC0186EA91E00E94921180E490E095
:1023C0000E94BC15BC018CE991E00E9492118DE441
:1023D00090E00E94BC15BC0182E991E00E9492113C
:1023E00083E490E00E94BC15BC0188E891E00E9463
:1023F000921181E590E00E94BC15BC018EE791E04E
:102400000E9492118CE390E00E94BC15BC0184E70D
:1024100091E00E94921184E590E00E94BC15BC01FD
:102420008AE691E00E9492114FE852EC6DE870E468
:1024300080E691E00E94A71149E354EB68EC7CE34D
:1024400086E591E00E94A71143EE55EA6BE97CE333
:102450008CE491E00E94A71149E25CE56FE87DE31E
:1024600082E491E00E94A71142E153E860E47DE339
:1024700088E391E00E94A71146EB53EF6DEF7CE3F8
:102480008EE291E00E94A71143E757ED62E97DE3F8
:1024900084E291E00E94A7114EE95FEE67E27DE3DE
:1024A0008AE191E00E94A7118FE780931201809347
:1024B000130180931401809315018093160180937A
:1024C0001701809318018093190161E083E00E9455
:1024D0009A1780E890E00C943A140F931F93FC0134
:1024E0004481558166817781008111812281338108
:1024F000400F511F621F731F408351836283738398
:10250000CB019F710084F185E02DE80FF91F8491C4
:102510001F910F91089580E691E00E946D12992716
:1025200087FD9095959587958093190186E591E0B3
:102530000E946D12809318018CE491E00E946D124C
:102540008093170182E491E00E946D12809316013E
:1025500088E391E00E946D12809315018EE291E074
:102560000E946D128093140184E291E00E946D122A
:10257000809313018AE191E00E946D128093120111
:1025800008950F931F93FC014481558166817781E3
:102590000081118122813381400F511F621F731FFF
:1025A0004083518362837383CB019F710084F185E3
:1025B000E02DE80FF91F84911F910F910895CF929C
:1025C000DF92EF92FF9280EB91E00E94C112A09106
:1025D0001901282F332727FD3095BB27A7FDB0957C
:1025E0000E946F1B6B017C0186EA91E00E94C11280
:1025F000909118018902C0011124AA2797FDA09586
:10260000BA2FC80ED91EEA1EFB1E8CE991E00E946B
:10261000C112909117018902C0011124AA2797FDC8
:10262000A095BA2FC80ED91EEA1EFB1E82E991E0C2
:102630000E94C112909116018902C0011124AA279B
:1026400097FDA095BA2FC80ED91EEA1EFB1E88E87A
:1026500091E00E94C112909115018902C0011124DC
:10266000AA2797FDA095BA2FC80ED91EEA1EFB1EF9
:102670008EE791E00E94C112909114018902C0017D
:102680001124AA2797FDA095BA2FC80ED91EEA1EBD
:10269000FB1E84E791E00E94C11290911301890210
:1026A000C0011124AA2797FDA095BA2FC80ED91EE4
:1026B000EA1EFB1E8AE691E00E94C112909112016F
:1026C0008902C0011124AA2797FDA095BA2F8C0D6D
:1026D0009D1DAE1DBF1D59E0B595A7959795879592
:1026E0005A95D1F7FF90EF90DF90CF90089588E64C
:1026F00090E09093B9018093B8019093AF018093DB
:10270000AE019093A5018093A40190939B018093C7
:102710009A01909391018093900190938701809307
:10272000860190937D0180937C0190937301809347
:102730007201909369018093680190935F01809387
:102740005E01909355018093540190934B018093C7
:102750004A01909341018093400190933701809307
:10276000360190932D0180932C0190932301809347
:10277000220108950E948B120C9466159091CB0350
:102780008091CA03981306C09091CD038091CC0329
:1027900098131AC00E94DF122091CB03E22FF0E0C1
:1027A000EE0FFF1FE653FE4F8C509F4F91838083A7
:1027B0002F5F2093CB03211107C08091CD0391E0BF
:1027C00089278093CD03089508951F920F920FB625
:1027D0000F9211242F933F938F939F93AF93BF93A7
:1027E000EF93FF938091CA03E82FF0E0EE0FFF1FF5
:1027F000E653FE4F208131818F5F8093CA038111A0
:1028000019C08091CC0391E089278093CC038091FB
:10281000CE039091CF03A091D003B091D103019644
:10282000A11DB11D8093CE039093CF03A093D0033D
:10283000B093D103C901E3E0880F991FEA95E1F74E
:1028400090672A989EBD0DB407FEFDCF9EB58EBD44
:102850000DB407FEFDCF8EB52A9AFF91EF91BF917F
:10286000AF919F918F913F912F910F900FBE0F903D
:102870001F901895CF93DF93EC010E94521781E0CF
:102880000E94681780E00E942B1584B58093C901CF
:1028900085B58093C80187B58093C70180916E008C
:1028A0008093C6019E0140E050E060E472E48FE056
:1028B00090E00E94501BDA01C90140E06AEB73E12D
:1028C0000E94C1160E94161784B58093C10185B578
:1028D0008093C00187B58093BF0180916E00809383
:1028E000BE01809180008093C5018091810080931A
:1028F000C40180918800909189008093C3018091E8
:102900006F008093C20161E089E00E949A17C1E0E4
:10291000C0931D0480E180931E0410921F048093D5
:1029200081001092800088EE91E0A0E0B0E0C093BA
:10293000180490931A04809319049093870080934D
:10294000860081E18093810061E089E00E949A170E
:102950008091800090911F04892B80688093800073
:102960002091190430911A04A4EFB0E00E94771B63
:10297000BAE09695879577956795BA95D1F7709354
:102980008900609388008091180490911E04892B1F
:1029900080938100C0936F00809180008093BD017F
:1029A000809181008093BC01809188009091890082
:1029B0008093BB0180916F008093BA01DF91CF912A
:1029C00008951092CA031092CB031092CC03109278
:1029D000CD030895811109C080917A0084608093AD
:1029E0007A0080917A008D7F1AC0813071F48091D5
:1029F0007A008B7F80937A0080917A008260809346
:102A00007A0080917A0081600FC0823079F48091E1
:102A10007A008B7F80937A0080917A008260809325
:102A20007A0080917A008E7F80937A00089580E00A
:102A300090E041E050E060917E009A01082E01C0D4
:102A4000220F0A94EAF7622B60937E000196883089
:102A5000910589F70895EAE7F0E090819860908306
:102A60000E94EA140C9417158770806480937C0090
:102A7000EAE7F0E08081806480830895CF93DF935C
:102A80001F92CDB7DEB78091DA039091DB038F3FC1
:102A90002FEF920761F0FC01EE52FC4F2081298359
:102AA00001979093DB038093DA03898101C08FEF54
:102AB00080930101809101018F3F21F080910101FC
:102AC0000E9434150F90DF91CF91089580910101FC
:102AD0008F3F29F40E943E1581E080930001089504
:102AE000EAE7F0E08081806480830895E09101014D
:102AF0008091780090917900EE0FFF0BE452FC4F2B
:102B00009183808308951F920F920FB60F92112424
:102B10002F933F934F935F936F937F938F939F93E5
:102B2000AF93BF93EF93FF9380910001882329F027
:102B30000E9470151092000107C00E9476150E9435
:102B40003E1581E080930001FF91EF91BF91AF911D
:102B50009F918F917F916F915F914F913F912F91B5
:102B60000F900FBE0F901F9018958FEF9FEF9093CF
:102B7000DB038093DA030895880F991F880F991F4C
:102B800088599F4DFC0165917591859194910895A7
:102B900082E0809317048FEF8093F2031092F40386
:102BA0008091EC0381508093F3038091ED03880FB3
:102BB00081608093150485EE8093BC00089584E0C5
:102BC000809317048FEF8093F2031092F403209107
:102BD000EE032093F303A091EF03B091F00385EF90
:102BE00093E0FC013E2F381B321718F43D913193CE
:102BF000F9CF8091F10390E0880F991F809315041D
:102C000085EE8093BC00089585ED8093BC00809193
:102C1000BC0084FDFCCF80911704809316041092B1
:102C2000170480911604833011F40C94DF15809101
:102C30001604813011F40C94C815089585EC809326
:102C4000BC008091170480931604109217048091A1
:102C50001604833011F40C94DF1580911604813032
:102C600011F40C94C81508951F920F920FB60F928D
:102C700011242F933F934F935F936F937F938F9381
:102C80009F93AF93BF93EF93FF938091B900887F99
:102C9000883239F170F4803109F130F4882309F475
:102CA0005BC08830D9F05CC08831D9F0803261F1E6
:102CB00057C08034C1F150F4803331F1883309F0CA
:102CC0004FC08093F2030E941E164AC08035F9F06F
:102CD0008835A9F1883409F043C040C080911504BB
:102CE00010C09091F4038091F3039817B8F5E09128
:102CF000F40381E08E0F8093F403F0E0EB50FC4F7F
:102D000080818093BB0015C08093F20327C0E091BF
:102D1000F40381E08E0F8093F4038091BB00F0E018
:102D2000EB50FC4F80839091F4038091F30398174C
:102D300010F485EC01C085E88093BC0011C0E091DF
:102D4000F40381E08E0F8093F4038091BB00F0E0E8
:102D5000EB50FC4F808302C01092F2030E940416D5
:102D6000FF91EF91BF91AF919F918F917F916F9163
:102D70005F914F913F912F910F900FBE0F901F9039
:102D80001895CF92DF92EF92FF9270932304609395
:102D9000220440932404A0E0B0E034E0880F991F9F
:102DA000AA1FBB1F3A95D1F720E030E0F901E8599E
:102DB000FD4DE491EE2381F06C017D01022E04C0F3
:102DC000F694E794D794C7940A94D2F751E0C516C5
:102DD000D506E104F10438F02F5F3F4F2B30310569
:102DE00029F780E01EC0A1E0B0E002C0AA0FBB1F1F
:102DF0002A95E2F7A70196010E94981B24E0959579
:102E00008795779567952A95D1F7709321046093FC
:102E1000200410926E0082E084BDE5BDCA94C7BC58
:102E200081E0FF90EF90DF90CF900895EEE6F0E024
:102E3000808182608083089578941F920F920FB6EC
:102E40000F9211242F933F934F935F936F937F9330
:102E50008F939F93AF93BF93EF93FF9310926E0066
:102E6000E0912204F09123040995F89480912404C0
:102E7000882311F016BCA99A80916E00826080931D
:102E80006E00FF91EF91BF91AF919F918F917F91D4
:102E90006F915F914F913F912F910F900FBE0F90C7
:102EA0001F90189561E08AE00E94D31761E08AE0E4
:102EB0000E949A178CB580618CBD8CB580648CBDE6
:102EC00061E08DE00E949A1761E08BE00C949A1704
:102ED000811103C08CB5806202C08CB58F7D8CBD22
:102EE0000895833081F028F4813099F08230A1F088
:102EF00008958730A9F08830B9F08430D1F48091FA
:102F000080008F7D03C0809180008F778093800048
:102F1000089584B58F7702C084B58F7D84BD0895F0
:102F20008091B0008F7703C08091B0008F7D809337
:102F3000B0000895CF93DF9390E0FC01E957FD4D79
:102F40002491FC01E556FD4D8491882349F190E0E0
:102F5000880F991FFC01E754FD4DA591B49181554F
:102F60009D4DFC01C591D4919FB7611108C0F894A3
:102F70008C91209582238C93888182230AC06230B1
:102F800051F4F8948C91322F309583238C9388815F
:102F9000822B888304C0F8948C91822B8C939FBFE2
:102FA000DF91CF9108950F931F93CF93DF931F92DB
:102FB000CDB7DEB7282F30E0F901ED58FD4D8491F3
:102FC000F901E957FD4D1491F901E556FD4D0491C4
:102FD0000023C9F0882321F069830E947117698159
:102FE000E02FF0E0EE0FFF1FE155FD4DA591B491EC
:102FF0009FB7F8948C91611103C01095812301C093
:10300000812B8C939FBF0F90DF91CF911F910F91D8
:1030100008951F920F920FB60F9211242F938F9342
:103020009F93EF93FF93E0913504F09136048081F4
:10303000E0913B04F0913C0482FD12C090818091AC
:103040003E048F5F8F7320913F04821751F0E0910F
:103050003E04F0E0EB5DFB4F958F80933E0401C092
:103060008081FF91EF919F918F912F910F900FBED3
:103070000F901F9018951F920F920FB60F92112468
:103080002F933F934F935F936F937F938F939F9370
:10309000AF93BF93EF93FF9385E294E00E94A6194C
:1030A000FF91EF91BF91AF919F918F917F916F9120
:1030B0005F914F913F912F910F900FBE0F901F90F6
:1030C000189585E294E00E946B1921E0892B09F4A0
:1030D00020E0822F0895109228041092270488EE91
:1030E00093E0A0E0B0E08093290490932A04A09399
:1030F0002B04B0932C0486E091E0909326048093F7
:10310000250485EC90E0909332048093310484ECA4
:1031100090E0909334048093330480EC90E090939B
:1031200036048093350481EC90E0909338048093CA
:10313000370482EC90E090933A048093390486EC53
:1031400090E090933C0480933B0410923E041092D4
:103150003F041092400410924104089508950E9483
:1031600030190E94AE180E94CC11C8E9D9E10E9422
:1031700090112097E1F30E949819F9CFCF92DF9236
:10318000EF92FF920F931F93CF93DF937C016A011D
:10319000EB0100E010E00C151D0571F06991D701FD
:1031A000ED91FC910190F081E02DC7010995892BEB
:1031B00019F00F5F1F4FEFCFC801DF91CF911F9123
:1031C0000F91FF90EF90DF90CF9008951F920F9294
:1031D0000FB60F9211242F933F938F939F93AF932A
:1031E000BF938091C3049091C404A091C504B09191
:1031F000C6043091C20423E0230F2D3720F401963A
:10320000A11DB11D05C026E8230F0296A11DB11D09
:103210002093C2048093C3049093C404A093C50474
:10322000B093C6048091C7049091C804A091C904CA
:10323000B091CA040196A11DB11D8093C70490935B
:10324000C804A093C904B093CA04BF91AF919F91E1
:103250008F913F912F910F900FBE0F901F90189557
:10326000789484B5826084BD84B5816084BD85B561
:10327000826085BD85B5816085BDEEE6F0E0808128
:1032800081608083E1E8F0E0108280818260808349
:10329000808181608083E0E8F0E0808181608083CC
:1032A000E1EBF0E0808184608083E0EBF0E08081FE
:1032B00081608083EAE7F0E08081846080838081A0
:1032C0008260808380818160808380818068808348
:1032D0001092C1000895FC01818D228D90E0805CE8
:1032E0009F4F821B91098F7399270895FC01918D3F
:1032F000828D981731F0828DE80FF11D858D90E059
:1033000008958FEF9FEF0895FC01918D828D98179E
:1033100061F0828DDF01A80FB11D5D968C91928DB9
:103320009F5F9F73928F90E008958FEF9FEF0895B6
:1033300081E698E1892B49F080E090E0892B29F023
:103340000E94611881110C9400000895FC01848D85
:10335000DF01A80FB11DA35ABF4F2C91848D90E0BF
:1033600001968F739927848FA689B7892C93A0899A
:10337000B1898C9180648C93938D848D981306C051
:103380000288F389E02D80818F7D80830895CF931B
:10339000DF93EC01888D8823C9F0EA89FB8980815D
:1033A00085FD05C0A889B9898C9186FD0FC00FB62F
:1033B00007FCF5CF808185FFF2CFA889B9898C9170
:1033C00085FFEDCFCE010E94A619E7CFDF91CF9107
:1033D0000895CF92DF92FF920F931F93CF93DF93C5
:1033E0001F92CDB7DEB76C0181E0D60158968C9361
:1033F00058975B969C915B975C968C915C97981321
:1034000007C05096ED91FC915197808185FD2EC0AB
:10341000F601038D10E00F5F1F4F0F731127F02E81
:10342000F601848DF81211C00FB607FCF9CFD60152
:103430005096ED91FC915197808185FFF1CFC601A7
:1034400069830E94A6196981EBCF838DE80FF11D76
:10345000E35AFF4F6083D6015B960C935B975296BD
:10346000ED91FC915397808180620CC0D6015696F5
:10347000ED91FC91579760835096ED91FC91519797
:1034800080818064808381E090E00F90DF91CF9114
:103490001F910F91FF90DF90CF9008955BD088F03F
:1034A0009F5790F0B92F9927B751A0F0D1F0660F30
:1034B000771F881F991F1AF0BA95C9F712C0B1304B
:1034C00081F062D0B1E008955FC0672F782F882720
:1034D000B85F39F0B93FCCF3869577956795B3958A
:1034E000D9F73EF490958095709561957F4F8F4FF9
:1034F0009F4F089597F99F6780E870E060E0089516
:103500009FEF80EC089500240A94161617061806FB
:103510000906089500240A941216130614060506D7
:103520000895092E0394000C11F4882352F0BB0F68
:1035300040F4BF2B11F460FF04C06F5F7F4F8F4FCB
:103540009F4F089557FD9058440F551F59F05F3F06
:1035500071F04795880F97FB991F61F09F3F79F0B5
:1035600087950895121613061406551FF2CF469537
:10357000F1DF08C0161617061806991FF1CF8695B9
:103580007105610508940895E894BB27662777279D
:10359000CB0197F908950BD0C4CFB5DF28F0BADF7F
:1035A00018F0952309F0A6CFABCF1124EECFCADFD8
:1035B000A0F3959FD1F3950F50E0551F629FF00146
:1035C000729FBB27F00DB11D639FAA27F00DB11D9F
:1035D000AA1F649F6627B00DA11D661F829F222728
:1035E000B00DA11D621F739FB00DA11D621F839FAF
:1035F000A00D611D221F749F3327A00D611D231F85
:10360000849F600D211D822F762F6A2F11249F57D2
:1036100050408AF0E1F088234AF0EE0FFF1FBB1FF5
:10362000661F771F881F91505040A9F79E3F510594
:1036300070F060CFAACF5F3FECF3983EDCF3869545
:1036400077956795B795F795E7959F5FC1F7FE2B3F
:10365000880F911D9695879597F90895A1E21A2EE6
:10366000AA1BBB1BFD010DC0AA1FBB1FEE1FFF1F26
:10367000A217B307E407F50720F0A21BB30BE40B76
:10368000F50B661F771F881F991F1A9469F76095BD
:103690007095809590959B01AC01BD01CF01089577
:1036A000052E97FB1EF400940E94671B57FD07D060
:1036B0000E942E1B07FC03D04EF40C94671B509500
:1036C0004095309521953F4F4F4F5F4F089590950E
:1036D0008095709561957F4F8F4F9F4F08950E9401
:1036E000771B332312F48A1B9B0B0C94881BA29F1D
:1036F000B001B39FC001A39F700D811D1124911DC6
:10370000B29F700D811D1124911D08950E94771B99
:10371000B7FF0895821B930B08950E94771BA59F06
:10372000900DB49F900DA49F800D911D11240895BC
:10373000B7FF0C948D1B0E948D1B821B930B089569
:10374000EE0FFF1F0590F491E02D0994F894FFCF40
:1037500001FF00000000E919BE186B1984197619E1
:02376000C71987
:00000001FF
