:100000000C9466040C948E040C948E040C948E0450
:100010000C948E040C948E040C948E040C948E0418
:100020000C948E040C948E040C948E040C948E0408
:100030000C948E040C944F070C94970A0C948E0425
:100040000C94A80F0C948E040C94C90C0C94FB0C0B
:100050000C948E040C940A090C948E040C948E0457
:100060000C94AF090C948E04808080808080808006
:100070008080808080808080808080808080808080
:100080008080808080808080808080808080808070
:100090008081818181818181818181818181818151
:1000A0008181828282828282828282828282828331
:1000B000838383838383838383838484848484840A
:1000C00084848484858585858585858585868686E1
:1000D00086868686868787878787878788888888B1
:1000E000888888888989898989898A8A8A8A8A8A7E
:1000F0008A8B8B8B8B8B8B8C8C8C8C8C8C8D8D8D45
:100100008D8D8E8E8E8E8E8E8F8F8F8F8F90909006
:1001100090909191919191929292929293939393C4
:10012000939494949494959595959696969696977F
:100130009797979898989898999999999A9A9A9A36
:100140009B9B9B9B9C9C9C9C9D9D9D9D9E9E9E9EE7
:100150009F9F9F9FA0A0A0A0A1A1A1A1A2A2A2A396
:10016000A3A3A3A4A4A4A4A5A5A5A6A6A6A6A7A741
:10017000A7A8A8A8A8A9A9A9AAAAAAAAABABABACE8
:10018000ACACACADADADAEAEAEAFAFAFB0B0B0B08D
:10019000B1B1B1B2B2B2B3B3B3B4B4B4B5B5B5B52D
:1001A000B6B6B6B7B7B7B8B8B8B9B9B9BABABABBCC
:1001B000BBBBBCBCBCBDBDBDBEBEBEBFBFBFC0C067
:1001C000C0C1C1C1C2C2C2C3C3C4C4C4C5C5C5C6FF
:1001D000C6C6C7C7C7C8C8C8C9C9C9CACACBCBCB96
:1001E000CCCCCCCDCDCDCECECFCFCFD0D0D0D1D129
:1001F000D1D2D2D3D3D3D4D4D4D5D5D5D6D6D7D7BC
:10020000D7D8D8D8D9D9DADADADBDBDBDCDCDDDD4C
:10021000DDDEDEDEDFDFE0E0E0E1E1E2E2E2E3E3DB
:10022000E3E4E4E5E5E5E6E6E7E7E7E8E8E8E9E969
:10023000EAEAEAEBEBECECECEDEDEDEEEEEFEFEFF6
:10024000F0F0F1F1F1F2F2F3F3F3F4F4F5F5F5F681
:10025000F6F6F7F7F8F8F8F9F9FAFAFAFBFBFCFC0E
:10026000FCFDFDFEFEFEFFFF000000010101020299
:100270000303030404050505060607070708080924
:1002800009090A0A0A0B0B0C0C0C0D0D0E0E0E0FB1
:100290000F1010101111121212131313141415153C
:1002A00015161617171718181819191A1A1A1B1BCA
:1002B0001C1C1C1D1D1D1E1E1F1F1F202020212158
:1002C00022222223232424242525252626272727E6
:1002D00028282829292A2A2A2B2B2B2C2C2C2D2D77
:1002E0002E2E2E2F2F2F3030303131323232333309
:1002F000333434343535363636373737383838399D
:1003000039393A3A3A3B3B3B3C3C3D3D3D3E3E3E33
:100310003F3F3F40404041414142424243434344CA
:100320004444454545464646474747484848494965
:10033000494A4A4A4A4B4B4B4C4C4C4D4D4D4E4E04
:100340004E4F4F4F4F5050505151515252525353A4
:100350005353545454555555555656565757575749
:10036000585858595959595A5A5A5B5B5B5B5C5CEF
:100370005C5C5D5D5D5E5E5E5E5F5F5F5F6060609A
:100380006061616161626262626363636364646449
:1003900064656565656666666667676767676868FA
:1003A0006868696969696A6A6A6A6A6B6B6B6B6BB0
:1003B0006C6C6C6C6C6D6D6D6D6E6E6E6E6E6E6F6A
:1003C0006F6F6F6F70707070707171717171717229
:1003D00072727272737373737373747474747474EB
:1003E00075757575757575767676767676767777B2
:1003F000777777777778787878787878797979797E
:10040000797979797A7A7A7A7A7A7A7A7A7B7B7B4D
:100410007B7B7B7B7B7B7B7C7C7C7C7C7C7C7C7C23
:100420007C7C7D7D7D7D7D7D7D7D7D7D7D7D7D7EFD
:100430007E7E7E7E7E7E7E7E7E7E7E7E7E7E7E7EDC
:100440007F7F7F7F7F7F7F7F7F7F7F7F7F7F7F7FBC
:100450007F7F7F7F7F7F7F7F7F7F7F7F7F7F7F7FAC
:100460007F7F7F7F7F7F7F7F7F7F7F7F7F7F7F7F9C
:100470007F7F7F7F7F7F7F7F7F7F7F7F7F7F7F7F8C
:100480007F7F7F7F7F7F7F7F7F7F7F7F7F7F7F7F7C
:100490007F7F7E7E7E7E7E7E7E7E7E7E7E7E7E7E7A
:1004A0007E7E7D7D7D7D7D7D7D7D7D7D7D7D7D7C7B
:1004B0007C7C7C7C7C7C7C7C7C7C7B7B7B7B7B7B82
:1004C0007B7B7B7B7A7A7A7A7A7A7A7A7A7979798B
:1004D000797979797978787878787878777777779B
:1004E00077777777767676767676757575757575AE
:1004F00075747474747474737373737373727272C7
:10050000727271717171717170707070706F6F6FE4
:100510006F6F6E6E6E6E6E6D6D6D6D6D6C6C6C6C06
:100520006C6B6B6B6B6B6A6A6A6A6A69696969682A
:100530006868686767676767666666666565656554
:100540006464646463636363626262626161616183
:10055000606060605F5F5F5F5E5E5E5E5D5D5D5CB4
:100560005C5C5C5B5B5B5B5A5A5A595959595858E9
:100570005857575757565656555555555454545322
:100580005353535252525151515050504F4F4F4F5D
:100590004E4E4E4D4D4D4C4C4C4B4B4B4A4A4A4A9D
:1005A00049494948484847474746464645454544DE
:1005B00044444343434242424141414040403F3F23
:1005C0003F3E3E3E3D3D3D3C3C3C3B3B3A3A3A396A
:1005D00039393838383737373636363535343434B4
:1005E00033333332323231313030302F2F2F2E2E01
:1005F0002E2D2D2C2C2C2B2B2B2A2A2A292928284E
:10060000282727272626252525242424232322229C
:100610002222212120201F1F1F1E1E1D1D1D1C1CEC
:100620001C1B1B1A1A1A191918181817171716163F
:100630001515151414131313121212111110101092
:100640000F0F0E0E0E0D0D0C0C0C0B0B0A0A0A09E7
:10065000090908080707070606050505040403033A
:10066000030202010101000000FFFFFEFEFEFDFD8E
:10067000FCFCFCFBFBFAFAFAF9F9F8F8F8F7F7F6E4
:10068000F6F6F5F5F5F4F4F3F3F3F2F2F1F1F1F037
:10069000F0EFEFEFEEEEEEEDEDECECECEBEBEAEA8B
:1006A000EAE9E9E8E8E8E7E7E7E6E6E5E5E5E4E4DE
:1006B000E3E3E3E2E2E2E1E1E0E0E0DFDFDEDEDE31
:1006C000DDDDDDDCDCDBDBDBDADADAD9D9D8D8D882
:1006D000D7D7D7D6D6D5D5D5D4D4D4D3D3D3D2D2D1
:1006E000D1D1D1D0D0D0CFCFCFCECECDCDCDCCCC1F
:1006F000CCCBCBCBCACAC9C9C9C8C8C8C7C7C7C66B
:10070000C6C6C5C5C5C4C4C4C3C3C2C2C2C1C1C1B3
:10071000C0C0C0BFBFBFBEBEBEBDBDBDBCBCBCBBFC
:10072000BBBBBABABAB9B9B9B8B8B8B7B7B7B6B641
:10073000B6B5B5B5B5B4B4B4B3B3B3B2B2B2B1B182
:10074000B1B0B0B0B0AFAFAFAEAEAEADADADACACC2
:10075000ACACABABABAAAAAAAAA9A9A9A8A8A8A8FD
:10076000A7A7A7A6A6A6A6A5A5A5A4A4A4A4A3A337
:10077000A3A3A2A2A2A1A1A1A1A0A0A0A09F9F9F6C
:100780009F9E9E9E9E9D9D9D9D9C9C9C9C9B9B9B9D
:100790009B9A9A9A9A9999999998989898989797CC
:1007A00097979696969696959595959494949494F5
:1007B000939393939392929292929191919191901B
:1007C000909090908F8F8F8F8F8E8E8E8E8E8E8D3D
:1007D0008D8D8D8D8C8C8C8C8C8C8B8B8B8B8B8B5B
:1007E0008A8A8A8A8A8A8A89898989898989888874
:1007F0008888888888878787878787878686868688
:100800008686868685858585858585858584848497
:1008100084848484848484838383838383838383A1
:1008200083838282828282828282828282828281A7
:1008300081818181818181818181818181818181A8
:1008400080808080808080808080808080808080A8
:100850008080808080808080808080808080808098
:100860008080808080808080010000020000030082
:100870000400050000000800020100000304070056
:100880000000000000000001020408102040800168
:1008900002040810200102040810200404040404C7
:1008A000040404020202020202030303030303001E
:1008B000000000250028002B000000000024002775
:1008C000002A0000B1064B083C092B0D11241FBE65
:1008D000CFEFD8E0DEBFCDBF11E0A0E0B1E0ECEAA1
:1008E000F5E202C005900D92A237B107D9F724E0D6
:1008F000A2E7B1E001C01D92A93CB207E1F718E000
:10090000CCECD8E004C02297FE010E94D012C43C77
:10091000D107C9F70E946F0D0C94D4120C940000FB
:100920004F925F926F927F92AF92BF92CF92DF927F
:10093000EF92FF920F931F93FC018081918122819E
:1009400033818617970734F471836083CB01821B50
:10095000930B07C06217730734F473836283861B9B
:10096000970B95838483A680B780CC24B7FCC09472
:10097000DC2CE080F1800027F7FC0095102F22810D
:100980003381442737FD4095542F882777FD809584
:10099000982F0084F185E02D2F01662457FC609488
:1009A000762C7F926F925F924F920E94610F0F9010
:1009B0000F900F900F90CB011F910F91FF90EF9030
:1009C000DF90CF90BF90AF907F906F905F904F90EF
:1009D000089526E040E052EC61E070E083E294E0AC
:1009E0000E94670C80E490E00C94A407CF92DF9201
:1009F000EF92FF92CF93DF9380E00E94DA08BC0170
:100A00008EEA91E00E949004AC012091080130919F
:100A10000901429FC001439F900D529F900D1124E8
:100A20002FB7F894662757FD6095762F3DE0440F69
:100A3000551F661F771F3A95D1F740939401509345
:100A4000950160939601709397012FBF2FB7F8948B
:100A5000AA2797FDA095BA2F4DE0880F991FAA1FCE
:100A6000BB1F4A95D1F780938A0190938B01A09385
:100A70008C01B0938D012FBF81E00E94DA08EC0158
:100A80006CE071E083E294E00E94BC0D4AE050E02B
:100A9000BE0183E294E00E946C0E64E171E083E2A7
:100AA00094E00E94BC0DBE0184EA91E00E94900493
:100AB000EC0166E171E083E294E00E94BC0D4AE043
:100AC00050E0BE0183E294E00E946C0E64E171E0AC
:100AD00083E294E00E94BC0D40918001509181011D
:100AE0006091820170918301ECE7F1E0C080D180D8
:100AF000E280F3804C0D5D1D6E1D7F1D4083518390
:100B000062837383CB019770E0918401F09185013A
:100B1000E80FF91FA491BB27A7FDB095A058BF4FC0
:100B20009E010E949D12BB2797FDBA95A92F982F71
:100B3000872F8093780190937901A0937A01B093E5
:100B40007B0169E271E083E294E00E94BC0D409178
:100B500078015091790160917A0170917B012AE0CE
:100B600030E083E294E00E94220E64E171E083E2CF
:100B700094E00E94BC0D82E00E94DA08EC0169E377
:100B800071E083E294E00E94BC0D4AE050E0BE01B7
:100B900083E294E00E946C0E64E171E083E294E0F1
:100BA0000E94BC0DBE018AE991E00E949004BC0144
:100BB000882777FD8095982F0E94311120E030E042
:100BC0004AE754E40E9496106B017C0161E471E0F5
:100BD00083E294E00E94BC0D22E030E0B701A60160
:100BE00083E294E00E945F0FCFB7F89420E030E0FA
:100BF00040E055E4C701B6010E94E51120E030E075
:100C000040E85CE30E94E51120E030E040E857E472
:100C10000E94E5110E94031160938001709381018D
:100C20008093820190938301CFBF83E294E0DF91B0
:100C3000CF91FF90EF90DF90CF900C94C50DCF92A5
:100C4000DF92EF92FF92CF93DF93E2E7F1E0C08073
:100C5000D180E280F380BB27F7FCBA95AF2D9E2DA3
:100C60008D2D209178013091790140917A01509138
:100C70007B01281B390B4A0B5B0BA0917601B091CD
:100C800077010E94BB12BB2797FDBA95A92F982F19
:100C9000872F8C0D9D1DAE1DBF1D80839183A28368
:100CA000B38340918A0150918B0160918C017091C6
:100CB0008D01E6E8F1E0C080D180E280F3804C0D48
:100CC0005D1D6E1D7F1D40835183628373839B0175
:100CD0003770E0918E01F0918F01E20FF31FE491E4
:100CE000C0909401D0909501E0909601F09097010A
:100CF000C0E9D1E0488159816A817B81C40ED51E4B
:100D0000E61EF71EC882D982EA82FB82292F3A2F7B
:100D10004B2F552747FD5A95AE2FBB27A7FDB09502
:100D20000E94C612DBE0660F771F881F991FDA95B5
:100D3000D1F76C0D7D1D8E1D9F1D9770E091980160
:100D4000F0919901E80FF91F8491992787FD9095FB
:100D5000DF91CF91FF90EF90DF90CF9008950C94AA
:100D600028071092AF011092AE018FEF93E090939D
:100D7000B1018093B0011092B3011092B20126E14B
:100D800030E03093B5012093B40128EB31E030938B
:100D9000B7012093B6011092A5011092A40190937F
:100DA000A7018093A6011092A9011092A8012CEB33
:100DB00032E03093AB012093AA012AE030E0309377
:100DC000AD012093AC0110929B0110929A01909377
:100DD0009D0180939C0110929F0110929E0180E1E1
:100DE00097E29093A1018093A00181E090E090931D
:100DF000A3018093A20188E690E0909399018093EB
:100E0000980190938F0180938E0190938501809338
:100E10008401209104013091050140910601509117
:100E2000070160E070E080E89FE30E942D1020E061
:100E300030E040E857E40E94E5110E940311E2E728
:100E4000F1E07583648308950E94F6040C94D00841
:100E50009091C9038091C803981306C09091CB0369
:100E60008091CA0398131AC00E941F062091C903DB
:100E7000E22FF0E0EE0FFF1FE853FE4F8C509F4F24
:100E8000918380832F5F2093C903211107C0809134
:100E9000CB0391E089278093CB03089508951F9297
:100EA0000F920FB60F9211242F933F938F939F931E
:100EB000AF93BF93EF93FF938091C803E82FF0E0C7
:100EC000EE0FFF1FE853FE4F208131818F5F80932B
:100ED000C803811119C08091CA0391E089278093CA
:100EE000CA038091CC039091CD03A091CE03B09121
:100EF000CF030196A11DB11D8093CC039093CD0328
:100F0000A093CE03B093CF03C901E3E0880F991FEC
:100F1000EA95E1F790672A989EBD0DB407FEFDCFD4
:100F20009EB58EBD0DB407FEFDCF8EB52A9AFF91FA
:100F3000EF91BF91AF919F918F913F912F910F9022
:100F40000FBE0F901F901895CF93DF93EC010E9476
:100F5000CD0A81E00E94E30A80E00E94950884B5F2
:100F60008093C70185B58093C60187B58093C5017D
:100F700080916E008093C4019E0140E050E060E4E7
:100F800072E48FE090E00E947E12DA01C90140E035
:100F900064E277E00E943C0A0E94910A84B5809343
:100FA000BF0185B58093BE0187B58093BD01809157
:100FB0006E008093BC01809180008093C30180917A
:100FC00081008093C2018091880090918900809374
:100FD000C10180916F008093C00161E089E00E94AF
:100FE000150BC1E0C0931B0480E180931C04109298
:100FF0001D04809381001092800088EE91E0A0E0B3
:10100000B0E0C09316049093180480931704909353
:1010100087008093860081E18093810061E089E010
:101020000E94150B8091800090911D04892B80688F
:10103000809380002091170430911804A4EFB0E051
:101040000E94A512BAE09695879577956795BA950F
:10105000D1F7709389006093880080911604909175
:101060001C04892B80938100C0936F0080918000C5
:101070008093BB01809181008093BA0180918800A8
:10108000909189008093B90180916F008093B8019D
:10109000DF91CF9108951092C8031092C903109266
:1010A000CA031092CB030895811109C080917A0080
:1010B000846080937A0080917A008D7F1AC081309D
:1010C00071F480917A008B7F80937A0080917A000E
:1010D000826080937A0080917A0081600FC08230B4
:1010E00079F480917A008B7F80937A0080917A00E6
:1010F000826080937A0080917A008E7F80937A005C
:10110000089580E090E041E050E060917E009A0117
:10111000082E01C0220F0A94EAF7622B60937E002A
:1011200001968830910589F70895EAE7F0E090810B
:10113000986090830E9454080C94810887708064A2
:1011400080937C00EAE7F0E08081806480830895EA
:10115000CF93DF931F92CDB7DEB78091D8039091E4
:10116000D9038F3F2FEF920761F0FC01E053FC4F52
:101170002081298301979093D9038093D803898193
:1011800001C08FEF80930B0180910B018F3F21F005
:1011900080910B010E949E080F90DF91CF910895DE
:1011A00080910B018F3F29F40E94A80881E0809371
:1011B0000A0108958E3008F08E502091D8033091A6
:1011C000D9032730310554F42F5F3F4F3093D903B3
:1011D0002093D803F901E053FC4F8083E82FF0E01F
:1011E000EE0FFF1FE652FC4F808191810895EAE7E0
:1011F000F0E08081806480830895E0910B0180910C
:10120000780090917900EE0FFF0BE652FC4F91832E
:10121000808308951F920F920FB60F9211242F937F
:101220003F934F935F936F937F938F939F93AF936E
:10123000BF93EF93FF9380910A01882329F00E94C6
:10124000F70810920A0107C00E94FD080E94A80832
:1012500081E080930A01FF91EF91BF91AF919F913F
:101260008F917F916F915F914F913F912F910F904F
:101270000FBE0F901F9018958FEF9FEF9093D9039B
:101280008093D803089582E0809315048FEF8093B4
:10129000F0031092F2038091EA0381508093F103EE
:1012A0008091EB03880F81608093130485EE809317
:1012B000BC00089584E0809315048FEF8093F003C1
:1012C0001092F2032091EC032093F103A091ED031F
:1012D000B091EE0383EF93E0FC013E2F381B3217F1
:1012E00018F43D913193F9CF8091EF0390E0880F8E
:1012F000991F8093130485EE8093BC00089585EDBB
:101300008093BC008091BC0084FDFCCF80911504CB
:10131000809314041092150480911404833011F406
:101320000C945A0980911404813011F40C944309EF
:10133000089585EC8093BC0080911504809314047B
:101340001092150480911404833011F40C945A09FE
:1013500080911404813011F40C94430908951F9274
:101360000F920FB60F9211242F933F934F935F93D9
:101370006F937F938F939F93AF93BF93EF93FF935D
:101380008091B900887F883239F170F4803109F199
:1013900030F4882309F45BC08830D9F05CC0883110
:1013A000D9F0803261F157C08034C1F150F48033FC
:1013B00031F1883309F04FC08093F0030E949909FE
:1013C0004AC08035F9F08835A9F1883409F043C066
:1013D00040C08091130410C09091F2038091F103FA
:1013E0009817B8F5E091F20381E08E0F8093F20335
:1013F000F0E0ED50FC4F80818093BB0015C08093DE
:10140000F00327C0E091F20381E08E0F8093F20396
:101410008091BB00F0E0ED50FC4F80839091F2038F
:101420008091F103981710F485EC01C085E8809352
:10143000BC0011C0E091F20381E08E0F8093F203B3
:101440008091BB00F0E0ED50FC4F808302C0109211
:10145000F0030E947F09FF91EF91BF91AF919F919F
:101460008F917F916F915F914F913F912F910F904D
:101470000FBE0F901F901895CF92DF92EF92FF92C0
:10148000709321046093200440932204A0E0B0E014
:1014900034E0880F991FAA1FBB1F3A95D1F720E0AF
:1014A00030E0F901E859F74FE491EE2381F06C0147
:1014B0007D01022E04C0F694E794D794C7940A9451
:1014C000D2F751E0C516D506E104F10438F02F5FDC
:1014D0003F4F2B30310529F780E01EC0A1E0B0E07E
:1014E00002C0AA0FBB1F2A95E2F7A70196010E942E
:1014F000C61224E095958795779567952A95D1F73B
:1015000070931F0460931E0410926E0082E084BDED
:10151000E5BDCA94C7BC81E0FF90EF90DF90CF900B
:101520000895EEE6F0E080818260808308957894EB
:101530001F920F920FB60F9211242F933F934F9348
:101540005F936F937F938F939F93AF93BF93EF932B
:10155000FF9310926E00E0912004F0912104099510
:10156000F89480912204882311F016BCA99A8091E6
:101570006E00826080936E00FF91EF91BF91AF91FA
:101580009F918F917F916F915F914F913F912F919B
:101590000F900FBE0F901F90189561E08AE00E9497
:1015A0004E0B61E08AE00E94150B8CB580618CBD0A
:1015B0008CB580648CBD61E08DE00E94150B61E00C
:1015C0008BE00C94150B811103C08CB5806202C0B6
:1015D0008CB58F7D8CBD0895833081F028F48130E7
:1015E00099F08230A1F008958730A9F08830B9F0E1
:1015F0008430D1F4809180008F7D03C08091800081
:101600008F7780938000089584B58F7702C084B56A
:101610008F7D84BD08958091B0008F7703C0809145
:10162000B0008F7D8093B0000895CF93DF9390E05A
:10163000FC01E957F74F2491FC01E556F74F8491DF
:10164000882349F190E0880F991FFC01E754F74F78
:10165000A591B4918155974FFC01C591D4919FB745
:10166000611108C0F8948C91209582238C93888115
:1016700082230AC0623051F4F8948C91322F309555
:1016800083238C938881822B888304C0F8948C9167
:10169000822B8C939FBFDF91CF9108950F931F935F
:1016A000CF93DF931F92CDB7DEB7282F30E0F9013B
:1016B000ED58F74F8491F901E957F74F1491F9016B
:1016C000E556F74F04910023C9F0882321F0698380
:1016D0000E94EC0A6981E02FF0E0EE0FFF1FE15558
:1016E000F74FA591B4919FB7F8948C91611103C005
:1016F0001095812301C0812B8C939FBF0F90DF91A8
:10170000CF911F910F910895FC01818D228D90E062
:10171000805C9F4F821B91098F7399270895FC016C
:10172000918D828D981731F0828DE80FF11D858D96
:1017300090E008958FEF9FEF0895FC01918D828DC9
:10174000981761F0828DDF01A80FB11D5D968C9115
:10175000928D9F5F9F73928F90E008958FEF9FEF20
:10176000089581E29DE0892B49F080E090E0892B8B
:1017700029F00E94210D81110C9400000895FC01B4
:10178000848DDF01A80FB11DA35ABF4F2C91848D0A
:1017900090E001968F739927848FA689B7892C933F
:1017A000A089B1898C9180648C93938D848D9813DA
:1017B00006C00288F389E02D80818F7D80830895A3
:1017C000CF93DF93EC01888D8823C9F0EA89FB89E8
:1017D000808185FD05C0A889B9898C9186FD0FC0DF
:1017E0000FB607FCF5CF808185FFF2CFA889B989B4
:1017F0008C9185FFEDCFCE010E94BF0BE7CFDF912B
:10180000CF910895CF92DF92FF920F931F93CF93C2
:10181000DF931F92CDB7DEB76C0181E0D6015896F9
:101820008C9358975B969C915B975C968C915C9798
:10183000981307C05096ED91FC915197808185FDDA
:101840002EC0F601038D10E00F5F1F4F0F7311279D
:10185000F02EF601848DF81211C00FB607FCF9CFF7
:10186000D6015096ED91FC915197808185FFF1CF83
:10187000C60169830E94BF0B6981EBCF838DE80F9E
:10188000F11DE35AFF4F6083D6015B960C935B9783
:101890005296ED91FC915397808180620CC0D601E5
:1018A0005696ED91FC91579760835096ED91FC917F
:1018B000519780818064808381E090E00F90DF9178
:1018C000CF911F910F91FF90DF90CF900895BF921D
:1018D000CF92DF92EF92FF92CF93DF93EC016A01F8
:1018E0007B01B22EE889F98982E08083411581EE7F
:1018F000580761057105A1F060E079E08DE390E0A3
:10190000A70196010E945C12215031094109510939
:101910005695479537952795211580E1380798F01A
:10192000E889F989108260E874E88EE190E0A70107
:1019300096010E945C1221503109410951095695C6
:10194000479537952795EC85FD853083EE85FF8596
:101950002083188EEC89FD89B082EA89FB89808119
:1019600080618083EA89FB89808188608083EA893D
:10197000FB89808180688083EA89FB8980818F7DF3
:101980008083DF91CF91FF90EF90DF90CF90BF9059
:1019900008951F920F920FB60F9211242F938F93D9
:1019A0009F93EF93FF93E0913304F091340480818F
:1019B000E0913904F0913A0482FD12C09081809147
:1019C0003C048F5F8F7320913D04821751F0E091AA
:1019D0003C04F0E0ED5DFB4F958F80933C0401C02B
:1019E0008081FF91EF919F918F912F910F900FBE6A
:1019F0000F901F9018951F920F920FB60F921124FF
:101A00002F933F934F935F936F937F938F939F9306
:101A1000AF93BF93EF93FF9383E294E00E94BF0BD9
:101A2000FF91EF91BF91AF919F918F917F916F91B6
:101A30005F914F913F912F910F900FBE0F901F908C
:101A4000189583E294E00E94840B21E0892B09F42D
:101A500020E0822F0895109226041092250488EE2B
:101A600093E0A0E0B0E08093270490932804A09333
:101A70002904B0932A0485E591E09093240480938F
:101A8000230485EC90E09093300480932F0484EC41
:101A900090E0909332048093310480EC90E0909336
:101AA00034048093330481EC90E090933604809367
:101AB000350482EC90E0909338048093370486ECF0
:101AC00090E090933A048093390410923C04109271
:101AD0003D0410923E0410923F04089508950E9420
:101AE000F20F0E946E0D0E94E904C1EBDBE00E9440
:101AF000AF062097E1F30E94B10BF9CFCF92DF92AE
:101B0000EF92FF920F931F93CF93DF937C016A01B3
:101B1000EB0100E010E00C151D0571F06991D70193
:101B2000ED91FC910190F081E02DC7010995892B81
:101B300019F00F5F1F4FEFCFC801DF91CF911F91B9
:101B40000F91FF90EF90DF90CF9008956115710590
:101B500081F0DB010D900020E9F7AD014150510902
:101B6000461B570BDC01ED91FC910280F381E02DC7
:101B7000099480E090E008950C94A60DDC01ED91AD
:101B8000FC910190F081E02D099461E671E00C94E4
:101B9000A60D8F929F92AF92BF92CF92DF92EF925B
:101BA000FF920F931F93CF93DF93CDB7DEB7A1972B
:101BB0000FB6F894DEBF0FBECDBF7C01C42EE52F5B
:101BC000CB01D22E19A221E02D1510F02AE0D22E41
:101BD0008E010F5D1F4F8D2C912CA12CB12C6C2DE3
:101BE0007E2FA50194010E945C128C2DD29E80193B
:101BF0001124015011098A3014F4805D01C0895C00
:101C0000F8018083211531054105510521F0C22ECF
:101C1000E32FCA01E4CFB801C7010E94A60DA19627
:101C20000FB6F894DEBF0FBECDBFDF91CF911F91ED
:101C30000F91FF90EF90DF90CF90BF90AF909F906B
:101C40008F900895CF92DF92EF92FF920F931F93A0
:101C5000CF93DF93EC016A017B012115310579F403
:101C6000E881F9810190F081E02D642FDF91CF911F
:101C70001F910F91FF90EF90DF90CF9009942A3041
:101C80003105E9F477FF1AC06DE20E94BE0D8C01A8
:101C900044275527BA014C195D096E097F092AE0CE
:101CA000CE010E94C90D800F911FDF91CF911F912E
:101CB0000F91FF90EF90DF90CF9008952AE0B70149
:101CC000A601CE01DF91CF911F910F91FF90EF9070
:101CD000DF90CF900C94C90D9A01AB01662757FD98
:101CE0006095762F0C94220E4F925F926F927F92A6
:101CF0008F929F92AF92BF92CF92DF92EF92FF921C
:101D00000F931F93CF93DF93EC016A017B01B22EF7
:101D10009A01AB01C701B6010E944812882319F04D
:101D200064E671E027C026013701E89477F82FEFC9
:101D30003FEF4FE75FE7C301B2010E9448128111F4
:101D40000DC02FEF3FEF4FE75FE7C301B2010E94E5
:101D5000921018161CF468E671E00CC02FEF3FEFEC
:101D60004FE75FE4C701B6010E94E1111816ACF419
:101D70006CE671E0CE01DF91CF911F910F91FF9042
:101D8000EF90DF90CF90BF90AF909F908F907F901B
:101D90006F905F904F900C94A60D2FEF3FEF4FE7A1
:101DA0005FECC701B6010E94921087FDE1CF20E0F1
:101DB00030E0A901C701B6010E94921087FF0AC056
:101DC0006DE2CE010E94BE0D8C01F7FAF094F7F897
:101DD000F09402C000E010E0A12C60E070E080E030
:101DE0009FE3AB1441F020E030E040E251E40E9478
:101DF0009610A394F6CF9B01AC01C701B6010E94D7
:101E00002E106B017C010E9403112B013C010E94EA
:101E10002F119B01AC01C701B6010E942D106B016F
:101E20007C012AE0B301A201CE010E94C90D080F76
:101E3000191FBB2039F060E771E0CE010E94A60DAA
:101E4000080F191F7B2C772041F120E030E040E2A1
:101E500051E4C701B6010E94E5116B017C010E94AB
:101E6000FE104B01AA2497FCA094BA2C2AE030E083
:101E7000B501A401CE010E94220E080F191FC50151
:101E8000B4010E9431119B01AC01C701B6010E944F
:101E90002D106B017C017A94D6CFC801DF91CF91D0
:101EA0001F910F91FF90EF90DF90CF90BF90AF9078
:101EB0009F908F907F906F905F904F9008950C94BB
:101EC000740E4F925F926F927F92AF92BF92CF92B9
:101ED000DF92EF92FF920F931F93CF93DF93CDB7D3
:101EE000DEB729013A01621B730B840B950B29891C
:101EF0003A894B895C892A193B094C095D09298B70
:101F00003A8B4B8B5C8B9B01AC0169897A898B89FD
:101F10009C890E944C12E418F50806091709A801CB
:101F200097010E947E122A0D3B1D4C1D5D1DCA01AA
:101F3000B901DF91CF911F910F91FF90EF90DF904A
:101F4000CF90BF90AF907F906F905F904F9008952B
:101F50001F920F920FB60F9211242F933F938F93DE
:101F60009F93AF93BF938091C1049091C204A091BD
:101F7000C304B091C4043091C00423E0230F2D3773
:101F800020F40196A11DB11D05C026E8230F02967D
:101F9000A11DB11D2093C0048093C1049093C2047D
:101FA000A093C304B093C4048091C5049091C60467
:101FB000A091C704B091C8040196A11DB11D8093E2
:101FC000C5049093C604A093C704B093C804BF91FE
:101FD000AF919F918F913F912F910F900FBE0F90D6
:101FE0001F901895789484B5826084BD84B5816013
:101FF00084BD85B5826085BD85B5816085BDEEE611
:10200000F0E0808181608083E1E8F0E010828081EF
:1020100082608083808181608083E0E8F0E080815D
:1020200081608083E1EBF0E0808184608083E0EB7D
:10203000F0E0808181608083EAE7F0E08081846065
:1020400080838081826080838081816080838081C1
:10205000806880831092C10008955058BB27AA273A
:102060000ED075C166D130F06BD120F031F49F3FB6
:1020700011F41EF45BC10EF4E095E7FB51C1E92FAA
:1020800077D180F3BA17620773078407950718F0B2
:1020900071F49EF58FC10EF4E0950B2EBA2FA02D92
:1020A0000B01B90190010C01CA01A0011124FF2705
:1020B000591B99F0593F50F4503E68F11A16F04000
:1020C000A22F232F342F4427585FF3CF46953795FF
:1020D0002795A795F0405395C9F77EF41F16BA0BC4
:1020E000620B730B840BBAF09150A1F0FF0FBB1F72
:1020F000661F771F881FC2F70EC0BA0F621F731FBB
:10210000841F48F4879577956795B795F7959E3F17
:1021100008F0B3CF9395880F08F09927EE0F9795A5
:1021200087950895D9D008F481E008950CD00FC1A7
:1021300007D140F0FED030F021F45F3F19F0F0C03D
:10214000511139C1F3C014D198F39923C9F3552320
:10215000B1F3951B550BBB27AA276217730784079A
:1021600038F09F5F5F4F220F331F441FAA1FA9F350
:1021700033D00E2E3AF0E0E830D091505040E69542
:10218000001CCAF729D0FE2F27D0660F771F881FA3
:10219000BB1F261737074807AB07B0E809F0BB0B92
:1021A000802DBF01FF2793585F4F2AF09E3F5105B6
:1021B00068F0B6C000C15F3FECF3983EDCF3869553
:1021C00077956795B795F7959F5FC9F7880F911D2C
:1021D0009695879597F90895E1E0660F771F881F18
:1021E000BB1F621773078407BA0720F0621B730BCB
:1021F000840BBA0BEE1F88F7E095089504D068941D
:10220000B111D9C00895BCD088F09F5790F0B92F74
:102210009927B751A0F0D1F0660F771F881F991F3B
:102220001AF0BA95C9F712C0B13081F0C3D0B1E04D
:102230000895C0C0672F782F8827B85F39F0B93F5D
:10224000CCF3869577956795B395D9F73EF490953D
:102250008095709561957F4F8F4F9F4F0895E894BB
:1022600009C097FB3EF490958095709561957F4FDE
:102270008F4F9F4F9923A9F0F92F96E9BB2793958C
:10228000F695879577956795B795F111F8CFFAF49C
:10229000BB0F11F460FF1BC06F5F7F4F8F4F9F4FCD
:1022A00016C0882311F096E911C0772321F09EE82B
:1022B000872F762F05C0662371F096E8862F70E091
:1022C00060E02AF09A95660F771F881FDAF7880F6B
:1022D0009695879597F90895990F0008550FAA0BC1
:1022E000E0E8FEEF16161706E807F907C0F0121629
:1022F0001306E407F50798F0621B730B840B950B2C
:1023000039F40A2661F0232B242B252B21F4089580
:102310000A2609F4A140A6958FEF811D811D08951D
:1023200097F99F6780E870E060E008959FEF80EC88
:10233000089500240A94161617061806090608952B
:1023400000240A9412161306140605060895092E91
:102350000394000C11F4882352F0BB0F40F4BF2B00
:1023600011F460FF04C06F5F7F4F8F4F9F4F089540
:1023700057FD9058440F551F59F05F3F71F0479536
:10238000880F97FB991F61F09F3F79F0879508951B
:10239000121613061406551FF2CF4695F1DF08C03A
:1023A000161617061806991FF1CF86957105610557
:1023B00008940895E894BB2766277727CB0197F9FF
:1023C00008958ADF08F48FEF08950BD0C0CFB1DFF6
:1023D00028F0B6DF18F0952309F0A2CFA7CF11247B
:1023E000EACFC6DFA0F3959FD1F3950F50E0551FBC
:1023F000629FF001729FBB27F00DB11D639FAA275A
:10240000F00DB11DAA1F649F6627B00DA11D661FA8
:10241000829F2227B00DA11D621F739FB00DA11DC9
:10242000621F839FA00D611D221F749F3327A00D83
:10243000611D231F849F600D211D822F762F6A2F1F
:1024400011249F5750408AF0E1F088234AF0EE0FA4
:10245000FF1FBB1F661F771F881F91505040A9F7B1
:102460009E3F510570F05CCFA6CF5F3FECF3983EE6
:10247000DCF3869577956795B795F795E7959F5F18
:10248000C1F7FE2B880F911D9695879597F90895B2
:1024900023DF880B990B0895DB018F939F930E9494
:1024A000BB12BF91AF91A29F800D911DA39F900D74
:1024B000B29F900D11240895A1E21A2EAA1BBB1BF6
:1024C000FD010DC0AA1FBB1FEE1FFF1FA217B30700
:1024D000E407F50720F0A21BB30BE40BF50B661F16
:1024E000771F881F991F1A9469F7609570958095DA
:1024F00090959B01AC01BD01CF010895052E97FB7E
:102500001EF400940E94951257FD07D00E945C12A1
:1025100007FC03D04EF40C949512509540953095DD
:1025200021953F4F4F4F5F4F08959095809570953F
:1025300061957F4F8F4F9F4F08950E94A5123323BF
:1025400012F48A1B9B0B0C94B612A29FB001B39F8E
:10255000C001A39F700D811D1124911DB29F700DAC
:10256000811D1124911D08950E94A512B7FF0895A1
:10257000821B930B08950E94A512A59F900DB49FF6
:10258000900DA49F800D911D11240895B7FF0C9408
:10259000BB120E94BB12821B930B0895EE0FFF1F0C
:0C25A0000590F491E02D0994F894FFCF11
:1025AC00010000003333733F050001FF4C445231EE
:1025BC00203D200009004C4452315F63616C69621C
:1025CC007261746564203D2000666D5F696E746590
:1025DC006E73697479203D20004C445232203D20AA
:1025EC00002020206D6F645F7370656564203D2052
:1025FC000000000000020C7E0D840B9D0B8F0BE085
:10260C000B0D0A006E616E00696E66006F766600D7
:02261C002E008E
:00000001FF
