:100000000C94A7020C94CF020C94CF020C94CF0254
:100010000C94CF020C94CF020C94CF020C94CF021C
:100020000C94CF020C94CF020C94CF020C94CF020C
:100030000C94CF020C948F040C94E6070C94CF021E
:100040000C94CD090C94CF020C94F0080C94220966
:100050000C94CF020C942D060C94CF020C94CF027A
:100060000C94FE060C94CF0207634236B79BD8A7C8
:100070001A39685618AEBAAB558C1D3CB7CC5763CD
:10008000BD6DEDFD753EF6177231BF000000803F7B
:1000900008000000BE922449123EABAAAA2ABECD97
:1000A000CCCC4C3E00000080BEABAAAAAA3E000009
:1000B0000000BF000000803F000000000008417801
:1000C000D3BB4387D1133D190E3CC3BD4282AD2B38
:1000D0003E68EC8276BED98FE1A93E4C80EFFFBE30
:1000E00001C4FF7F3F00000000000001020304057F
:1000F000060708090A0B0C0D0E0F10111213141528
:10010000161718191A1B1C1D1E1F20212223242517
:10011000262728292A2B2C2D2E2F30313233343507
:10012000363738393A3B3C3D3E3F404142434445F7
:10013000464748494A4B4C4D4E4F505152535455E7
:10014000565758595A5B5C5D5E5F606162636465D7
:10015000666768696A6B6C6D6E6F707172737475C7
:10016000767778797A7B7C7D7E7F7E7D7C7B7A79E1
:100170007877767574737271706F6E6D6C6B6A6977
:100180006867666564636261605F5E5D5C5B5A5967
:100190005857565554535251504F4E4D4C4B4A4957
:1001A0004847464544434241403F3E3D3C3B3A3947
:1001B0003837363534333231302F2E2D2C2B2A2937
:1001C0002827262524232221201F1E1D1C1B1A1927
:1001D0001817161514131211100F0E0D0C0B0A0917
:1001E000080706050403020100FFFEFDFCFBFAF907
:1001F000F8F7F6F5F4F3F2F1F0EFEEEDECEBEAE9F7
:10020000E8E7E6E5E4E3E2E1E0DFDEDDDCDBDAD9E6
:10021000D8D7D6D5D4D3D2D1D0CFCECDCCCBCAC9D6
:10022000C8C7C6C5C4C3C2C1C0BFBEBDBCBBBAB9C6
:10023000B8B7B6B5B4B3B2B1B0AFAEADACABAAA9B6
:10024000A8A7A6A5A4A3A2A1A09F9E9D9C9B9A99A6
:100250009897969594939291908F8E8D8C8B8A8996
:10026000888786858483828180808081828384855B
:10027000868788898A8B8C8D8E8F909192939495A6
:10028000969798999A9B9C9D9E9FA0A1A2A3A4A596
:10029000A6A7A8A9AAABACADAEAFB0B1B2B3B4B586
:1002A000B6B7B8B9BABBBCBDBEBFC0C1C2C3C4C576
:1002B000C6C7C8C9CACBCCCDCECFD0D1D2D3D4D566
:1002C000D6D7D8D9DADBDCDDDEDFE0E1E2E3E4E556
:1002D000E6E7E8E9EAEBECEDEEEFF0F1F2F3F4F546
:1002E000F6F7F8F9FAFBFCFDFEFF00010202030439
:1002F0000506070809090A0B0C0D0E0F1010111244
:1003000013141516171819191A1B1C1D1E1F20214E
:100310002223232425262728292A2B2C2D2E2F3053
:10032000303132333435363738393A3B3C3D3E3F55
:1003300040414243444546474848494A4B4C4D4E4C
:100340004F505152535455565758595A5B5C5D5E45
:100350005F606162636465666768696A6B6C6E6F33
:10036000707172727475767778787878777675743C
:10037000727171706F6E6C6B6A69686766656463D1
:100380006261605F5E5D5C5B5A59585756555453C5
:100390005251504F4E4D4C4B4A49484847464544B0
:1003A000434241403F3E3D3C3B3A39383736353495
:1003B00033323130302F2E2D2C2B2A292827262579
:1003C0002423232221201F1E1D1C1B1A1919181754
:1003D00016151413121110100F0E0D0C0B0A09092B
:1003E00008070605040303020100FFFEFDFDFCFBF8
:1003F000FAF9F8F7F7F6F5F4F3F2F2F1F0EFEEEDC3
:10040000EDECEBEAE9E9E8E7E6E5E5E4E3E2E1E182
:10041000E0DFDEDEDDDCDBDADAD9D8D7D7D6D5D43B
:10042000D3D3D2D1D1D0CFCECECDCCCBCBCAC9C8ED
:10043000C8C7C6C5C5C4C3C3C2C1C0C0BFBEBEBD98
:10044000BCBBBBBAB9B9B8B7B7B6B5B5B4B3B3B23C
:10045000B1B1B0AFAFAEADADACABABAAAAA9A8A8D5
:10046000A7A6A6A5A5A4A3A3A2A1A1A2A3A3A4A550
:10047000A5A6A6A7A8A8A9AAAAABABACADADAEAFDE
:10048000AFB0B1B1B2B3B3B4B5B5B6B7B7B8B9B927
:10049000BABBBBBCBDBEBEBFC0C0C1C2C3C3C4C566
:1004A000C5C6C7C8C8C9CACBCBCCCDCECECFD0D19C
:1004B000D1D2D3D3D4D5D6D7D7D8D9DADADBDCDDCD
:1004C000DEDEDFE0E1E1E2E3E4E5E5E6E7E8E9E9F5
:1004D000EAEBECEDEDEEEFF0F1F2F2F3F4F5F6F716
:1004E000F7F8F9FAFBFCFDFDFEFF01000002000039
:1004F00003000400050000000800020100000304DE
:100500000700000000000000000102040810204065
:1005100080010204081020010204081020040404D1
:10052000040404040402020202020203030303039C
:100530000300000000250028002B0000000000241C
:100540000027002A00003B048B055F065209112496
:100550001FBECFEFD8E0DEBFCDBF11E0A0E0B1E01D
:10056000EEE2FEE102C005900D92A431B107D9F789
:1005700026E0A4E1B1E001C01D92A336B207E1F785
:1005800015E0CEE4D5E004C02297FE010E94110FD1
:10059000C634D107C9F70E9496090C94150F0C9424
:1005A00000000C9468041F93CF93DF93EC01CB0100
:1005B000BA011FB7F89420E030E040E054E40E9414
:1005C000E40C20E030E040E858E30E94E40C20E036
:1005D00030E040E857E40E94E40C0E94060C6C8373
:1005E0007D838E839F831FBFDF91CF911F910895DD
:1005F00060E070E080E492E40E946606AB01BC011A
:1006000088E493E00E94D3022FB7F89489EE96EA2B
:10061000A0E0B0E08093380390933903A0933A03AD
:10062000B0933B032FBF80E00E943B0897FD0396E9
:1006300095958795959587958F578093230360E0CF
:1006400070E080E592E40E946606AB01BC018EE397
:1006500093E00E94D3022FB7F89481E598EBA5E0D0
:10066000B0E080932E0390932F03A0933003B093B8
:1006700031032FBF81E00E943B0897FD03969595BB
:100680008795959587958F5780931A0280E890E01B
:100690000C94E4040F931F93FC01448155816681FF
:1006A00077810081118122813381400F511F621FA8
:1006B000731F4083518362837383CB0191700084E5
:1006C000F185E02DE80FF91F84911F910F91089596
:1006D00084E393E00E944A03992787FD9095805C0C
:1006E0009F4F90931701809316018AE293E00E9436
:1006F0004A0387FD895F859585958595992787FDAF
:1007000090954196909315018093140108950F934D
:100710001F93FC01F395208131812F5F3F4F2F778D
:10072000332731832083F901E41BF50BEF77FF2793
:10073000EE0FFF1FE80FF91F00811181FC01EE5F32
:10074000FE4F70817003A001719F500D1124440F62
:10075000452F441F550B4F3751053CF440387FEF70
:10076000570724F440E85FEF01C04FE7F901EE0FAF
:10077000FF1FE80FF91F552747FD5095460F511DE4
:1007800067FD5A9551834083C8011F910F910895C9
:100790000F931F93CF93DF9380914C0390914D0360
:1007A000A0914E03B0914F03E8E4F3E04081518102
:1007B00062817381840F951FA61FB71F8083918369
:1007C000A283B383CD019170E0915003F091510366
:1007D000E80FF91FC49140911601509117016C2F39
:1007E00081E292E00E948703DD27C7FDD095F3E008
:1007F000D595C795FA95E1F7C80FD91F40914203E7
:10080000509143036091440370914503EEE3F3E09C
:100810000081118122813381400F511F621F731F9C
:100820004083518362837383CB019170E0914603CF
:10083000F0914703E80FF91F149140911401509172
:100840001501612F88E191E00E948703212F332752
:1008500027FD3095A3E035952795AA95E1F7280F58
:10086000391F2C0F3D1FC90195958795DF91CF91B9
:100870001F910F9108958AEE92E090935103809317
:10088000500390934703809346038AEE90E0909341
:100890003D0380933C039093330380933203109283
:1008A0002203109221031092230310922503109229
:1008B0002403109219021092180210921A02109238
:1008C0001C0210921B0208950E9468030C941006EB
:1008D0009091630580916205981306C0909165051B
:1008E0008091640598131AC00E94C8032091630583
:1008F000E22FF0E0EE0FFF1FEE59FC4F8C509F4FA0
:10090000918380832F5F20936305211107C080911D
:10091000650591E0892780936505089508951F92E4
:100920000F920FB60F9211242F933F938F939F93A3
:10093000AF93BF93EF93FF9380916205E82FF0E0B0
:10094000EE0FFF1FEE59FC4F208131818F5F8093A6
:100950006205811119C08091640591E08927809317
:1009600064058091660590916705A0916805B09136
:1009700069050196A11DB11D8093660590936705D9
:10098000A0936805B0936905C901E3E0880F991F3A
:10099000EA95E1F790672A989EBD0DB407FEFDCF5A
:1009A0009EB58EBD0DB407FEFDCF8EB52A9AFF9180
:1009B000EF91BF91AF919F918F913F912F910F90A8
:1009C0000FBE0F901F901895CF93DF93EC010E94FC
:1009D0001C0881E00E94320880E00E94D50584B5A1
:1009E0008093610385B58093600387B580935F032F
:1009F00080916E0080935E039E0140E050E060E4D1
:100A000072E48FE090E00E94CE0EDA01C90140E06E
:100A100064E674E00E948B070E94E00784B580932F
:100A2000590385B58093580387B580935703809108
:100A30006E00809356038091800080935D038091C7
:100A4000810080935C03809188009091890080935D
:100A50005B0380916F0080935A0361E089E00E94FC
:100A60008108C1E0C093B50580E18093B60510927E
:100A7000B705809381001092800088EE91E0A0E09D
:100A8000B0E0C093B0059093B2058093B105909308
:100A900087008093860081E18093810061E089E096
:100AA0000E948108809180009091B705892B806811
:100AB000809380002091B1053091B205A4EFB0E0A1
:100AC0000E94ED0EBAE09695879577956795BA9551
:100AD000D1F770938900609388008091B005909160
:100AE000B605892B80938100C0936F0080918000B0
:100AF00080935503809181008093540380918800F6
:100B0000909189008093530380916F0080935203EA
:100B1000DF91CF91089510926205109263051092B3
:100B20006405109265050895811109C080917A00CD
:100B3000846080937A0080917A008D7F1AC0813022
:100B400071F480917A008B7F80937A0080917A0093
:100B5000826080937A0080917A0081600FC0823039
:100B600079F480917A008B7F80937A0080917A006B
:100B7000826080937A0080917A008E7F80937A00E1
:100B8000089580E090E041E050E060917E009A019D
:100B9000082E01C0220F0A94EAF7622B60937E00B0
:100BA00001968830910589F70895EAE7F0E0908191
:100BB000986090830E9494050C94C10587708064AE
:100BC00080937C00EAE7F0E0808180648083089570
:100BD000CF93DF931F92CDB7DEB7809172059091CE
:100BE00073058F3F2FEF920761F0FC01E659FA4F32
:100BF00020812983019790937305809372058981E1
:100C000001C08FEF80930101809101018F3F21F09E
:100C1000809101010E94DE050F90DF91CF91089530
:100C2000809101018F3F29F40E94E80581E08093C3
:100C300000010895EAE7F0E08081806480830895F0
:100C4000E09101018091780090917900EE0FFF0B07
:100C5000EC58FA4F9183808308951F920F920FB63C
:100C60000F9211242F933F934F935F936F937F9332
:100C70008F939F93AF93BF93EF93FF938091000166
:100C8000882329F00E941A061092000107C00E94D2
:100C900020060E94E80581E080930001FF91EF911A
:100CA000BF91AF919F918F917F916F915F914F9184
:100CB0003F912F910F900FBE0F901F9018958FEFBF
:100CC0009FEF90937305809372050895CF92DF9202
:100CD000EF92FF926B017C0120E030E0A9010E94BD
:100CE0009A0B8823B9F020E030E040E451E4C701DA
:100CF000B6010E949E0B9B01AC0160E070E080E0B9
:100D000090E40E94470D23E130ED42E051E40E945F
:100D1000E40C03C060E070E0CB01FF90EF90DF9047
:100D2000CF90089582E08093AF058FEF80938A057E
:100D300010928C0580918405815080938B05809161
:100D40008505880F81608093AD0585EE8093BC009A
:100D5000089584E08093AF058FEF80938A05109209
:100D60008C052091860520938B05A0918705B09175
:100D700088058DE895E0FC013E2F381B321718F4EA
:100D80003D913193F9CF8091890590E0880F991FAB
:100D90008093AD0585EE8093BC00089585ED80932A
:100DA000BC008091BC0084FDFCCF8091AF05809396
:100DB000AE051092AF058091AE05833011F40C940E
:100DC000A9068091AE05813011F40C949206089525
:100DD00085EC8093BC008091AF058093AE051092A6
:100DE000AF058091AE05833011F40C94A906809173
:100DF000AE05813011F40C94920608951F920F9263
:100E00000FB60F9211242F933F934F935F936F93DD
:100E10007F938F939F93AF93BF93EF93FF938091B3
:100E2000B900887F883239F170F4803109F130F4EB
:100E3000882309F45BC08830D9F05CC08831D9F0D0
:100E4000803261F157C08034C1F150F4803331F108
:100E5000883309F04FC080938A050E94E8064AC093
:100E60008035F9F08835A9F1883409F043C040C0D5
:100E70008091AD0510C090918C0580918B059817DD
:100E8000B8F5E0918C0581E08E0F80938C05F0E041
:100E9000E357FA4F80818093BB0015C080938A0589
:100EA00027C0E0918C0581E08E0F80938C058091A6
:100EB000BB00F0E0E357FA4F808390918C0580915E
:100EC0008B05981710F485EC01C085E88093BC0071
:100ED00011C0E0918C0581E08E0F80938C0580918C
:100EE000BB00F0E0E357FA4F808302C010928A05FE
:100EF0000E94CE06FF91EF91BF91AF919F918F918C
:100F00007F916F915F914F913F912F910F900FBE05
:100F10000F901F901895CF92DF92EF92FF927093EF
:100F2000BB056093BA054093BC05A0E0B0E034E097
:100F3000880F991FAA1FBB1F3A95D1F720E030E018
:100F4000F901E651FB4FE491EE2381F06C017D0144
:100F5000022E04C0F694E794D794C7940A94D2F76B
:100F600051E0C516D506E104F10438F02F5F3F4F7C
:100F70002B30310529F780E01EC0A1E0B0E002C0AF
:100F8000AA0FBB1F2A95E2F7A70196010E94070F3F
:100F900024E095958795779567952A95D1F7709375
:100FA000B9056093B80510926E0082E084BDE5BD7E
:100FB000CA94C7BC81E0FF90EF90DF90CF90089576
:100FC000EEE6F0E0808182608083089578941F923D
:100FD0000F920FB60F9211242F933F934F935F936D
:100FE0006F937F938F939F93AF93BF93EF93FF93F1
:100FF00010926E00E091BA05F091BB050995F89446
:101000008091BC05882311F016BCA99A80916E00CE
:10101000826080936E00FF91EF91BF91AF919F919D
:101020008F917F916F915F914F913F912F910F9091
:101030000FBE0F901F90189561E08AE00E94BA08D9
:1010400061E08AE00E9481088CB580618CBD8CB51E
:1010500080648CBD61E08DE00E94810861E08BE0DE
:101060000C948108811103C08CB5806202C08CB5DC
:101070008F7D8CBD08958E3008F08E508770209142
:10108000020190E4299F90011124822B80937C001F
:1010900080917A00806480937A0080917A0086FD46
:1010A000FCCF809178002091790090E0922B0895F8
:1010B000833081F028F4813099F08230A1F00895D6
:1010C0008730A9F08830B9F08430D1F48091800065
:1010D0008F7D03C0809180008F778093800008957A
:1010E00084B58F7702C084B58F7D84BD08958091CB
:1010F000B0008F7703C08091B0008F7D8093B000E7
:101100000895CF93DF9390E0FC01E75FFA4F2491BD
:10111000FC01E35EFA4F8491882349F190E0880F47
:10112000991FFC01E55CFA4FA591B4918F5C9A4F31
:10113000FC01C591D4919FB7611108C0F8948C91BE
:10114000209582238C93888182230AC0623051F4D7
:10115000F8948C91322F309583238C938881822B45
:10116000888304C0F8948C91822B8C939FBFDF916D
:10117000CF9108950F931F93CF93DF931F92CDB715
:10118000DEB7282F30E0F901EB50FB4F8491F901D5
:10119000E75FFA4F1491F901E35EFA4F04910023DF
:1011A000C9F0882321F069830E9458086981E02FE3
:1011B000F0E0EE0FFF1FEF5CFA4FA591B4919FB7DF
:1011C000F8948C91611103C01095812301C0812B8B
:1011D0008C939FBF0F90DF91CF911F910F91089536
:1011E0001F920F920FB60F9211242F938F939F93FC
:1011F000EF93FF93E091CD05F091CE058081E091D2
:10120000D305F091D40582FD12C090818091D6055E
:101210008F5F8F732091D705821751F0E091D6052B
:10122000F0E0E354FA4F958F8093D60501C080819A
:10123000FF91EF919F918F912F910F900FBE0F9083
:101240001F9018951F920F920FB60F9211242F9393
:101250003F934F935F936F937F938F939F93AF933E
:10126000BF93EF93FF938DEB95E00E948D0AFF9162
:10127000EF91BF91AF919F918F917F916F915F910E
:101280004F913F912F910F900FBE0F901F90189587
:101290008DEB95E00E94520A21E0892B09F420E0B1
:1012A000822F08951092C0051092BF0588EE93E03A
:1012B000A0E0B0E08093C1059093C205A093C30560
:1012C000B093C40587E091E09093BE058093BD057F
:1012D00085EC90E09093CA058093C90584EC90E07A
:1012E0009093CC058093CB0580EC90E09093CE0555
:1012F0008093CD0581EC90E09093D0058093CF054D
:1013000082EC90E09093D2058093D10586EC90E03A
:101310009093D4058093D3051092D6051092D705EB
:101320001092D8051092D905089508950E94170AC1
:101330000E9495090E94F802CFE7DAE00E94D102EC
:101340002097E1F30E947F0AF9CFCF92DF92EF92CC
:10135000FF920F931F93CF93DF937C016A01EB0100
:1013600000E010E00C151D0571F06991D701ED91B9
:10137000FC910190F081E02DC7010995892B19F0AE
:101380000F5F1F4FEFCFC801DF91CF911F910F91DA
:10139000FF90EF90DF90CF9008951F920F920FB6BD
:1013A0000F9211242F933F938F939F93AF93BF93EB
:1013B00080915B0690915C06A0915D06B0915E06FF
:1013C00030915A0623E0230F2D3720F40196A11DFA
:1013D000B11D05C026E8230F0296A11DB11D209363
:1013E0005A0680935B0690935C06A0935D06B093CB
:1013F0005E0680915F0690916006A0916106B091B3
:1014000062060196A11DB11D80935F069093600650
:10141000A0936106B0936206BF91AF919F918F91A7
:101420003F912F910F900FBE0F901F9018957894B9
:1014300084B5826084BD84B5816084BD85B58260D9
:1014400085BD85B5816085BDEEE6F0E08081816077
:101450008083E1E8F0E01082808182608083808177
:1014600081608083E0E8F0E0808181608083E1EB4F
:10147000F0E0808184608083E0EBF0E08081816037
:101480008083EAE7F0E080818460808380818260ED
:1014900080838081816080838081806880831092D6
:1014A000C1000895FC01818D228D90E0805C9F4FEA
:1014B000821B91098F7399270895FC01918D828D6C
:1014C000981731F0828DE80FF11D858D90E0089519
:1014D0008FEF9FEF0895FC01918D828D981761F039
:1014E000828DDF01A80FB11D5D968C91928D9F5F5B
:1014F0009F73928F90E008958FEF9FEF089588E497
:1015000099E0892B49F080E090E0892B29F00E9436
:10151000480981110C9400000895FC01848DDF01BD
:10152000A80FB11DA35ABF4F2C91848D90E0019656
:101530008F739927848FA689B7892C93A089B18945
:101540008C9180648C93938D848D981306C002884F
:10155000F389E02D80818F7D80830895CF93DF9381
:10156000EC01888D8823C9F0EA89FB89808185FD9B
:1015700005C0A889B9898C9186FD0FC00FB607FCFC
:10158000F5CF808185FFF2CFA889B9898C9185FF3D
:10159000EDCFCE010E948D0AE7CFDF91CF91089564
:1015A000CF92DF92FF920F931F93CF93DF931F92FF
:1015B000CDB7DEB76C0181E0D60158968C93589771
:1015C0005B969C915B975C968C915C97981307C097
:1015D0005096ED91FC915197808185FD2EC0F601CA
:1015E000038D10E00F5F1F4F0F731127F02EF601D0
:1015F000848DF81211C00FB607FCF9CFD6015096B2
:10160000ED91FC915197808185FFF1CFC6016983EF
:101610000E948D0A6981EBCF838DE80FF11DE35A9B
:10162000FF4F6083D6015B960C935B975296ED91CA
:10163000FC915397808180620CC0D6015696ED9143
:10164000FC91579760835096ED91FC915197808162
:101650008064808381E090E00F90DF91CF911F91B3
:101660000F91FF90DF90CF9008955058BB27AA2785
:101670000ED070C161D130F066D120F031F49F3FBF
:1016800011F41EF456C10EF4E095E7FB4CC1E92FAE
:1016900072D180F3BA17620773078407950718F0B1
:1016A00071F49EF58AC10EF4E0950B2EBA2FA02D91
:1016B0000B01B90190010C01CA01A0011124FF27FF
:1016C000591B99F0593F50F4503E68F11A16F040FA
:1016D000A22F232F342F4427585FF3CF46953795F9
:1016E0002795A795F0405395C9F77EF41F16BA0BBE
:1016F000620B730B840BBAF09150A1F0FF0FBB1F6C
:10170000661F771F881FC2F70EC0BA0F621F731FB4
:10171000841F48F4879577956795B795F7959E3F11
:1017200008F0B3CF9395880F08F09927EE0F97959F
:1017300087950895D4D008F481E008950CD00AC1AB
:1017400002D140F0F9D030F021F45F3F19F0EBC046
:10175000511134C1EEC00FD198F39923C9F3552329
:10176000B1F3951B550BBB27AA2762177307840794
:1017700038F09F5F5F4F220F331F441FAA1FA9F34A
:1017800033D00E2E3AF0E0E830D091505040E6953C
:10179000001CCAF729D0FE2F27D0660F771F881F9D
:1017A000BB1F261737074807AB07B0E809F0BB0B8C
:1017B000802DBF01FF2793585F4F2AF09E3F5105B0
:1017C00068F0B1C0FBC05F3FECF3983EDCF3869558
:1017D00077956795B795F7959F5FC9F7880F911D26
:1017E0009695879597F90895E1E0660F771F881F12
:1017F000BB1F621773078407BA0720F0621B730BC5
:10180000840BBA0BEE1F88F7E0950895BCD088F0E2
:101810009F5790F0B92F9927B751A0F0D1F0660FDC
:10182000771F881F991F1AF0BA95C9F712C0B130F7
:1018300081F0C3D0B1E00895C0C0672F782F88270A
:10184000B85F39F0B93FCCF3869577956795B39536
:10185000D9F73EF490958095709561957F4F8F4FA5
:101860009F4F0895E89409C097FB3EF490958095AA
:10187000709561957F4F8F4F9F4F9923A9F0F92F56
:1018800096E9BB279395F695879577956795B795D4
:10189000F111F8CFFAF4BB0F11F460FF1BC06F5FBA
:1018A0007F4F8F4F9F4F16C0882311F096E911C0CC
:1018B000772321F09EE8872F762F05C0662371F0ED
:1018C00096E8862F70E060E02AF09A95660F771F01
:1018D000881FDAF7880F9695879597F90895990FDD
:1018E0000008550FAA0BE0E8FEEF16161706E807EA
:1018F000F907C0F012161306E407F50798F0621B0B
:10190000730B840B950B39F40A2661F0232B242BDF
:10191000252B21F408950A2609F4A140A6958FEFFE
:10192000811D811D089597F99F6780E870E060E050
:1019300008959FEF80EC089500240A941616170668
:1019400018060906089500240A94121613061406B0
:1019500005060895092E0394000C11F4882352F013
:10196000BB0F40F4BF2B11F460FF04C06F5F7F4FCB
:101970008F4F9F4F089557FD9058440F551F59F0B2
:101980005F3F71F04795880F97FB991F61F09F3F6C
:1019900079F087950895121613061406551FF2CF95
:1019A0004695F1DF08C0161617061806991FF1CFE5
:1019B00086957105610508940895E894BB2766270C
:1019C0007727CB0197F908950BD0C4CFB5DF28F066
:1019D000BADF18F0952309F0A6CFABCF1124EECFD4
:1019E000CADFA0F3959FD1F3950F50E0551F629F7A
:1019F000F001729FBB27F00DB11D639FAA27F00D68
:101A0000B11DAA1F649F6627B00DA11D661F829F8E
:101A10002227B00DA11D621F739FB00DA11D621F73
:101A2000839FA00D611D221F749F3327A00D611D90
:101A3000231F849F600D211D822F762F6A2F112472
:101A40009F5750408AF0E1F088234AF0EE0FFF1FC5
:101A5000BB1F661F771F881F91505040A9F79E3FFC
:101A6000510570F060CFAACF5F3FECF3983EDCF3F6
:101A7000869577956795B795F795E7959F5FC1F739
:101A8000FE2B880F911D9695879597F90895FA0179
:101A9000EE0FFF1F30962105310599F16115710593
:101AA00061F48038BFE39B0749F168949038810561
:101AB00061F08038BFEF9B0741F0992342F5FF3F6B
:101AC000E1053105210511F1E8940894E795D90164
:101AD000AA2329F4AB2FBE2FF85FD0F310C0FF5F0D
:101AE00070F4A695E0F7F73950F019F0FF3A38F4A2
:101AF0009F779F930CD00F9007FC905808953EF06D
:101B000018CF60E070E080E89FE308954FE79F778B
:101B10005F934F933F932F939ED02F913F914F917F
:101B20005F9152DF05C019F40EF0FDCE46CF01CF14
:101B30002ADFC8F39638C0F707F80F92E8942BE332
:101B40003AEA48EB5FE74EDF0F920F920F924DB7E4
:101B50005EB70F92C0D0E8E6F0E016D04F915F91EB
:101B6000EF91FF91E595EE1FFF1F49F0FE57E068EA
:101B70004427EE0F441FFA95E1F74195550B32D0FB
:101B80000F9007FE26C00895DF93CF931F930F9306
:101B9000FF92EF92DF927B018C01689405C0DA2EF0
:101BA000EF011EDFFE01E894A59125913591459145
:101BB0005591AEF3EF016BDDFE019701A801DA94B8
:101BC00079F7DF90EF90FF900F911F91CF91DF9108
:101BD00008959B01AC0160E070E080E89FE3AECD2A
:101BE000A2CEACC0D0DEE8F39923D9F3940F511DF7
:101BF000BBF39150504094F059F0882332F0660FB7
:101C0000771F881F91505040C1F79E3F510544F700
:101C1000880F911D9695879597F908955F3FACF0D1
:101C2000983E9CF0BB27869577956795B79508F405
:101C3000B1609395C1F7BB0F58F711F460FFE8CF7F
:101C40006F5F7F4F8F4F9F4FE3CFB8CE0EF076C0C0
:101C500070CE689468CE97DEC8F39923D1F3C6F3AB
:101C6000DF93CF931F930F93FF92C92FDD27882314
:101C70002AF02197660F771F881FDAF720E030E0FF
:101C800040E85FEB9FE3883920F0803E30F02196FA
:101C90008F77ECDCE0E9F0E003C0E8DCEDEBF0E0AE
:101CA00073DF8B01BE01EC01FB2E6F577109759537
:101CB000771F880B990BD8DD28E132E741E35FE31A
:101CC0008FDEAF2D9801AE01FF900F911F91CF9144
:101CD000DF91DDDC3FCEFA01DC01AA0FBB1F9B01C7
:101CE000AC01BF5728F422273327442750781FC060
:101CF000B75188F4AB2F0024469537952795011CE2
:101D0000A395D2F3002069F0220F331F441FB3952F
:101D1000DAF30DD0AACC61307105A0E88A07B94684
:101D200030F49B01AC01662777278827907830969E
:101D300021F0208331834283538308959F3F31F004
:101D4000915020F4879577956795B795880F911DE9
:101D50009695879597F90895A1E21A2EAA1BBB1BA9
:101D6000FD010DC0AA1FBB1FEE1FFF1FA217B30767
:101D7000E407F50720F0A21BB30BE40BF50B661F7D
:101D8000771F881F991F1A9469F760957095809541
:101D900090959B01AC01BD01CF010895052E97FBE5
:101DA0001EF400940E94E50E57FD07D00E94AC0E71
:101DB00007FC03D04EF40C94E50E509540953095F9
:101DC00021953F4F4F4F5F4F0895909580957095A7
:101DD00061957F4F8F4F9F4F0895A29FB001B39F92
:101DE000C001A39F700D811D1124911DB29F700D24
:101DF000811D1124911D08950E94ED0EA59F900D47
:101E0000B49F900DA49F800D911D11240895B7FFDC
:101E10000C94FC0E0E94FC0E821B930B0895EE0F97
:0E1E2000FF1F0590F491E02D0994F894FFCF78
:101E2E0001FF0100000000D00AA509520A6B0A5DED
:041E3E000AAE0A00DE
:00000001FF
