:100000000C9466020C948E020C948E020C948E0258
:100010000C948E020C948E020C948E020C948E0220
:100020000C948E020C948E020C948E020C948E0210
:100030000C948E020C9461030C949F060C948E0217
:100040000C9469080C948E020C948C070C94BE07D7
:100050000C948E020C9412050C948E020C948E0259
:100060000C94B7050C948E0217446677786F645C25
:100070005B5F656A6A66615D5C5E616464615E5B6C
:100080005A5B5D5F5F5D5B5958585A5B5B5A5756C8
:100090005555565757565452525253535352514F27
:1000A0004E4E4F50504F4D4C4B4B4C4C4C4B4A4985
:1000B00048484849484847454544454545444342E2
:1000C000414141424241403F3E3E3E3E3E3E3D3C3C
:1000D0003B3A3B3B3B3A393837373737373736359A
:1000E00034343434343333323131313131302F2FF1
:1000F0002E2D2D2D2D2D2C2B2B2A2A2A2A2A29284C
:1001000027272727272626252424232323232222A3
:100110002120202020201F1F1E1D1D1D1D1D1C1BFA
:100120001B1A1A1A1A1A191817171717171616154D
:100130001414141313131312111110101010100FA4
:100140000E0E0D0D0D0D0D0C0B0B0A0A0A0A0A09F5
:100150000808070707070606050504040404030347
:100160000202010101010000FFFFFEFEFEFEFDFD97
:10017000FCFCFBFBFBFBFBFAF9F9F8F8F8F8F8F7E5
:10018000F6F6F5F5F5F5F5F4F3F3F2F2F2F2F2F135
:10019000F1F0EFEFEFEFEFEEEEEDEDECECECECEC81
:1001A000EBEAEAEAE9E9E9E9E8E7E7E7E7E7E6E6CB
:1001B000E5E5E4E4E4E4E4E3E2E2E1E1E1E1E1E015
:1001C000E0DFDFDEDEDEDEDEDDDCDCDCDBDCDBDB5D
:1001D000DADAD9D9D9D9D9D8D8D7D6D6D6D6D6D6A3
:1001E000D5D4D4D3D3D3D3D3D2D2D1D1D1D1D1D0EA
:1001F000D0CFCECECECECECECDCCCCCBCBCBCCCB2F
:10020000CBCAC9C9C9C9C9C9C8C7C7C6C6C6C6C66F
:10021000C6C5C4C4C3C4C4C4C3C2C1C1C1C1C1C1B1
:10022000C1C0BFBEBEBFBFBFBEBDBCBCBCBCBDBDF0
:10023000BCBBBAB9B9BABABABAB9B7B7B7B7B8B82E
:10024000B8B6B5B4B4B5B6B6B5B4B2B1B1B2B3B46C
:10025000B4B2B0AEAEB0B2B3B2B0ACAAAAADB1B4A3
:10026000B3AEA7A1A1ADC5EA0001020405070809C4
:100270000B0C0E0F101213151617191A1B1D1E202A
:10028000212224252628292A2C2D2E2F31323335C0
:100290003637383A3B3C3D3E404142434445464771
:1002A000494A4B4C4D4E4F50515253545556575846
:1002B00059595A5B5C5D5E5E5F6061626263646453
:1002C00065666667686869696A6A6B6B6C6C6D6D98
:1002D0006E6E6F6F6F70707070717171717272721B
:1002E00072727272737373737373737373727272E5
:1002F0007272727271717171707070706F6F6F6EF7
:100300006E6D6D6C6C6B6B6A6A696968686766664E
:1003100065646463626261605F5E5E5D5C5B5A59E6
:10032000595857565554535251504F4E4D4C4B4AB5
:100330004947464544434241403E3D3C3B3A3837BD
:1003400036353332312F2E2D2C2A292826252422EA
:1003500021201E1D1C1A191716151312100F0E0C32
:100360000B0908070504020100FEFDFBFAF8F7F689
:10037000F4F3F1F0EFEDECEAE9E8E6E5E4E2E1DFE1
:10038000DEDDDBDAD9D7D6D5D3D2D1D0CECDCCCA2B
:10039000C9C8C7C5C4C3C2C1BFBEBDBCBBBAB9B85A
:1003A000B6B5B4B3B2B1B0AFAEADACABAAA9A8A765
:1003B000A6A6A5A4A3A2A1A1A09F9E9D9D9C9B9B38
:1003C0009A999998979796969595949493939292D3
:1003D00091919090908F8F8F8F8E8E8E8E8D8D8D30
:1003E0008D8D8D8D8C8C8C8C8C8C8C8C8C8C8D8D47
:1003F0008D8D8D8D8E8E8E8E8F8F8F8F9090909114
:10040000919292939394949595969697979899999B
:100410009A9B9B9C9D9D9E9FA0A1A1A2A3A4A5A6E3
:10042000A6A7A8A9AAABACADAEAFB0B1B2B3B4B5F4
:10043000B6B8B9BABBBCBDBEC0C1C2C3C4C5C7C8CB
:10044000C9CACCCDCED0D1D2D3D5D6D7D9DADBDD7F
:10045000DEDFE1E2E4E5E6E8E9EAECEDEFF0F1F316
:10046000F4F6F7F8FAFBFDFE0100000200000300BD
:10047000040005000000080002010000030407005A
:10048000000000000000000102040810204080016C
:1004900002040810200102040810200404040404CB
:1004A0000404040202020202020303030303030022
:1004B000000000250028002B000000000024002779
:1004C000002A0000210370044405EE0711241FBE1A
:1004D000CFEFD8E0DEBFCDBF11E0A0E0B1E0E8E3B0
:1004E000F6E102C005900D92A431B107D9F724E0DE
:1004F000A4E1B1E001C01D92AB33B207E1F714E013
:10050000CCECD4E004C02297FE010E94160BC43C40
:10051000D107C9F70E9432080C941A0B0C94000002
:1005200080E490E00E94B60320E030E04AE754E423
:1005300060911C0170911D0180911E0190911F011D
:100540000E944E0A0E94D10960931801709319010C
:1005500080931A0190931B012FB7F89480E090ECE0
:10056000ADE0B0E08093240190932501A093260193
:10057000B09327012FBF08950F931F930E945D042E
:10058000009114011091150120911601309117016D
:10059000601771078207930760F18091000188233B
:1005A00049F088E690E09093290180932801109209
:1005B000000109C088E692E0909329018093280108
:1005C00081E0809300010E945D0400911801109168
:1005D000190120911A0130911B01600F711F821FB8
:1005E000931F6093140170931501809316019093EB
:1005F00017011F910F910895809124019091250179
:10060000A0912601B0912701E0E2F1E04081518103
:1006100062817381840F951FA61FB71F808391830A
:10062000A283B383CD019170E0912801F09129015B
:10063000E80FF91F8491992787FD909508950C94F0
:100640003A038FE692E1A3E8B1E480931C01909312
:100650001D01A0931E01B0931F011092180110926A
:10066000190110921A0110921B0108950E94BC02F8
:100670000C94F50490913B0380913A03981306C0C3
:1006800090913D0380913C0398131AC00E94FC0294
:1006900020913B03E22FF0E0EE0FFF1FE65CFE4FE0
:1006A0008C509F4F918380832F5F20933B032111B8
:1006B00007C080913D0391E0892780933D03089511
:1006C00008951F920F920FB60F9211242F933F930C
:1006D0008F939F93AF93BF93EF93FF9380913A03D0
:1006E000E82FF0E0EE0FFF1FE65CFE4F2081318126
:1006F0008F5F80933A03811119C080913C0391E090
:10070000892780933C0380913E0390913F03A09101
:100710004003B09141030196A11DB11D80933E039A
:1007200090933F03A0934003B0934103C901E3E0DA
:10073000880F991FEA95E1F790672A989EBD0DB43E
:1007400007FEFDCF9EB58EBD0DB407FEFDCF8EB565
:100750002A9AFF91EF91BF91AF919F918F913F9115
:100760002F910F900FBE0F901F901895CF93DF938E
:10077000EC010E94D50681E00E94EB0680E00E9419
:10078000BA0484B58093390185B58093380187B563
:100790008093370180916E00809336019E0140E086
:1007A00050E060E472E48FE090E00E94D30ADA0146
:1007B000C90140E066E373E00E9444060E94990686
:1007C00084B58093310185B58093300187B58093DE
:1007D0002F0180916E0080932E0180918000809384
:1007E000350180918100809334018091880090913F
:1007F00089008093330180916F008093320161E022
:1008000089E00E941D07C1E0C0938D0380E18093C1
:100810008E0310928F03809381001092800088EEE7
:1008200091E0A0E0B0E0C093880390938A038093A6
:100830008903909387008093860081E180938100F3
:1008400061E089E00E941D078091800090918F03F4
:10085000892B8068809380002091890330918A03DE
:10086000A4EFB0E00E94F20ABAE0969587957795DA
:100870006795BA95D1F7709389006093880080914D
:10088000880390918E03892B80938100C0936F0021
:100890008091800080932D018091810080932C01B4
:1008A000809188009091890080932B0180916F0046
:1008B00080932A01DF91CF91089520913A0380918E
:1008C0003E0390913F03A0914003B09141036627FE
:1008D000782F892F9A2F620F711D811D911D089508
:1008E00010923A0310923B0310923C0310923D0386
:1008F0000895811109C080917A00846080937A0004
:1009000080917A008D7F1AC0813071F480917A00D5
:100910008B7F80937A0080917A00826080937A0046
:1009200080917A0081600FC0823079F480917A00E2
:100930008B7F80937A0080917A00826080937A0026
:1009400080917A008E7F80937A00089580E090E015
:1009500041E050E060917E009A01082E01C0220F14
:100960000A94EAF7622B60937E0001968830910525
:1009700089F70895EAE7F0E09081986090830E94FB
:1009800079040C94A6048770806480937C00EAE765
:10099000F0E08081806480830895CF93DF931F927D
:1009A000CDB7DEB780914A0390914B038F3F2FEF75
:1009B000920761F0FC01EE5BFC4F208129830197D7
:1009C00090934B0380934A03898101C08FEF8093FA
:1009D0000201809102018F3F21F0809102010E946B
:1009E000C3040F90DF91CF910895809102018F3F52
:1009F00029F40E94CD0481E0809301010895EAE783
:100A0000F0E08081806480830895E091020180910C
:100A1000780090917900EE0FFF0BE45BFC4F91831F
:100A2000808308951F920F920FB60F9211242F9377
:100A30003F934F935F936F937F938F939F93AF9366
:100A4000BF93EF93FF9380910101882329F00E94C7
:100A5000FF041092010107C00E9405050E94CD0409
:100A600081E080930101FF91EF91BF91AF919F9140
:100A70008F917F916F915F914F913F912F910F9047
:100A80000FBE0F901F9018958FEF9FEF90934B0321
:100A900080934A03089582E0809387038FEF8093C9
:100AA00062031092640380915C038150809363031E
:100AB00080915D03880F81608093850385EE80932C
:100AC000BC00089584E0809387038FEF80936203D6
:100AD0001092640320915E0320936303A0915F034F
:100AE000B091600385E693E0FC013E2F381B32177E
:100AF00018F43D913193F9CF8091610390E0880F14
:100B0000991F8093850385EE8093BC00089585ED41
:100B10008093BC008091BC0084FDFCCF8091870352
:100B2000809386031092870380918603833011F4AB
:100B30000C94620580918603813011F40C944B056E
:100B4000089585EC8093BC00809187038093860391
:100B50001092870380918603833011F40C94620510
:100B600080918603813011F40C944B0508951F92F7
:100B70000F920FB60F9211242F933F934F935F93D1
:100B80006F937F938F939F93AF93BF93EF93FF9355
:100B90008091B900887F883239F170F4803109F191
:100BA00030F4882309F45BC08830D9F05CC0883108
:100BB000D9F0803261F157C08034C1F150F48033F4
:100BC00031F1883309F04FC0809362030E94A10580
:100BD0004AC08035F9F08835A9F1883409F043C05E
:100BE00040C08091850310C090916403809163039D
:100BF0009817B8F5E091640381E08E0F8093640349
:100C0000F0E0EB59FC4F80818093BB0015C08093CE
:100C1000620327C0E091640381E08E0F8093640338
:100C20008091BB00F0E0EB59FC4F8083909164030E
:100C300080916303981710F485EC01C085E88093D8
:100C4000BC0011C0E091640381E08E0F80936403C7
:100C50008091BB00F0E0EB59FC4F808302C0109202
:100C600062030E948705FF91EF91BF91AF919F9121
:100C70008F917F916F915F914F913F912F910F9045
:100C80000FBE0F901F901895CF92DF92EF92FF92B8
:100C9000709393036093920340939403A0E0B0E0B9
:100CA00034E0880F991FAA1FBB1F3A95D1F720E0A7
:100CB00030E0F901E859FB4FE491EE2381F06C013B
:100CC0007D01022E04C0F694E794D794C7940A9449
:100CD000D2F751E0C516D506E104F10438F02F5FD4
:100CE0003F4F2B30310529F780E01EC0A1E0B0E076
:100CF00002C0AA0FBB1F2A95E2F7A70196010E9426
:100D00000C0B24E095958795779567952A95D1F7F3
:100D1000709391036093900310926E0082E084BD03
:100D2000E5BDCA94C7BC81E0FF90EF90DF90CF9003
:100D30000895EEE6F0E080818260808308957894E3
:100D40001F920F920FB60F9211242F933F934F9340
:100D50005F936F937F938F939F93AF93BF93EF9323
:100D6000FF9310926E00E0919203F0919303099526
:100D7000F89480919403882311F016BCA99A80916D
:100D80006E00826080936E00FF91EF91BF91AF91F2
:100D90009F918F917F916F915F914F913F912F9193
:100DA0000F900FBE0F901F90189561E08AE00E948F
:100DB000560761E08AE00E941D078CB580618CBDFA
:100DC0008CB580648CBD61E08DE00E941D0761E000
:100DD0008BE00C941D07811103C08CB5806202C0AA
:100DE0008CB58F7D8CBD0895833081F028F48130DF
:100DF00099F08230A1F008958730A9F08830B9F0D9
:100E00008430D1F4809180008F7D03C08091800078
:100E10008F7780938000089584B58F7702C084B562
:100E20008F7D84BD08958091B0008F7703C080913D
:100E3000B0008F7D8093B0000895CF93DF9390E052
:100E4000FC01E957FB4F2491FC01E556FB4F8491CF
:100E5000882349F190E0880F991FFC01E754FB4F6C
:100E6000A591B49181559B4FFC01C591D4919FB739
:100E7000611108C0F8948C91209582238C9388810D
:100E800082230AC0623051F4F8948C91322F30954D
:100E900083238C938881822B888304C0F8948C915F
:100EA000822B8C939FBFDF91CF9108950F931F9357
:100EB000CF93DF931F92CDB7DEB7282F30E0F90133
:100EC000ED58FB4F8491F901E957FB4F1491F9015B
:100ED000E556FB4F04910023C9F0882321F0698374
:100EE0000E94F4066981E02FF0E0EE0FFF1FE1554C
:100EF000FB4FA591B4919FB7F8948C91611103C0F9
:100F00001095812301C0812B8C939FBF0F90DF919F
:100F1000CF911F910F9108951F920F920FB60F92CC
:100F200011242F938F939F93EF93FF93E091A50349
:100F3000F091A6038081E091AB03F091AC0382FDB8
:100F400012C090818091AE038F5F8F732091AF03A9
:100F5000821751F0E091AE03F0E0EB56FC4F958F15
:100F60008093AE0301C08081FF91EF919F918F919B
:100F70002F910F900FBE0F901F9018951F920F92F8
:100F80000FB60F9211242F933F934F935F936F935C
:100F90007F938F939F93AF93BF93EF93FF9385E9D5
:100FA00093E00E942909FF91EF91BF91AF919F912A
:100FB0008F917F916F915F914F913F912F910F9002
:100FC0000FBE0F901F90189585E993E00E94EE08E0
:100FD00021E0892B09F420E0822F089510929803D4
:100FE0001092970388EE93E0A0E0B0E0809399031D
:100FF00090939A03A0939B03B0939C0387E091E0A6
:10100000909396038093950385EC90E09093A203D0
:101010008093A10384EC90E09093A4038093A303B6
:1010200080EC90E09093A6038093A50381EC90E080
:101030009093A8038093A70382EC90E09093AA0377
:101040008093A90386EC90E09093AC038093AB036C
:101050001092AE031092AF031092B0031092B1033E
:10106000089508950E94B3080E9431080E949002DA
:10107000CBE1D9E00E941F032097E1F30E941B09F6
:10108000F9CFCF92DF92EF92FF920F931F93CF93FE
:10109000DF937C016A01EB0100E010E00C151D05F7
:1010A00071F06991D701ED91FC910190F081E02DF3
:1010B000C7010995892B19F00F5F1F4FEFCFC801AA
:1010C000DF91CF911F910F91FF90EF90DF90CF9024
:1010D00008951F920F920FB60F9211242F933F93F2
:1010E0008F939F93AF93BF93809133049091340477
:1010F000A0913504B09136043091320423E0230FDF
:101100002D3720F40196A11DB11D05C026E8230F3F
:101110000296A11DB11D2093320480933304909355
:101120003404A0933504B093360480913704909131
:101130003804A0913904B0913A040196A11DB11D63
:101140008093370490933804A0933904B0933A0401
:10115000BF91AF919F918F913F912F910F900FBEB3
:101160000F901F901895789484B5826084BD84B5E3
:10117000816084BD85B5826085BD85B5816085BD92
:10118000EEE6F0E0808181608083E1E8F0E01082AB
:10119000808182608083808181608083E0E8F0E0EC
:1011A000808181608083E1EBF0E0808184608083D6
:1011B000E0EBF0E0808181608083EAE7F0E080810D
:1011C000846080838081826080838081816080836D
:1011D0008081806880831092C1000895FC01818D18
:1011E000228D90E0805C9F4F821B91098F7399271D
:1011F0000895FC01918D828D981731F0828DE80F52
:10120000F11D858D90E008958FEF9FEF0895FC010B
:10121000918D828D981761F0828DDF01A80FB11D2D
:101220005D968C91928D9F5F9F73928F90E0089551
:101230008FEF9FEF089584EE97E0892B49F080E0CF
:1012400090E0892B29F00E94E40781110C940000A2
:101250000895FC01848DDF01A80FB11DA35ABF4F73
:101260002C91848D90E001968F739927848FA689A5
:10127000B7892C93A089B1898C9180648C93938DCC
:10128000848D981306C00288F389E02D80818F7DBC
:1012900080830895CF93DF93EC01888D8823C9F074
:1012A000EA89FB89808185FD05C0A889B9898C916F
:1012B00086FD0FC00FB607FCF5CF808185FFF2CF0A
:1012C000A889B9898C9185FFEDCFCE010E942909AB
:1012D000E7CFDF91CF910895CF92DF92FF920F93E6
:1012E0001F93CF93DF931F92CDB7DEB76C0181E0E0
:1012F000D60158968C9358975B969C915B975C9619
:101300008C915C97981307C05096ED91FC91519782
:10131000808185FD2EC0F601038D10E00F5F1F4F09
:101320000F731127F02EF601848DF81211C00FB63D
:1013300007FCF9CFD6015096ED91FC915197808131
:1013400085FFF1CFC60169830E9429096981EBCF2E
:10135000838DE80FF11DE35AFF4F6083D6015B9642
:101360000C935B975296ED91FC915397808180622C
:101370000CC0D6015696ED91FC915797608350961C
:10138000ED91FC91519780818064808381E090E0B1
:101390000F90DF91CF911F910F91FF90DF90CF9031
:1013A00008955BD088F09F5790F0B92F9927B751D7
:1013B000A0F0D1F0660F771F881F991F1AF0BA9519
:1013C000C9F712C0B13081F062D0B1E008955FC0BA
:1013D000672F782F8827B85F39F0B93FCCF386950F
:1013E00077956795B395D9F73EF49095809570956C
:1013F00061957F4F8F4F9F4F089597F99F6780E8C2
:1014000070E060E008959FEF80EC089500240A9456
:101410001616170618060906089500240A941216CF
:101420001306140605060895092E0394000C11F402
:10143000882352F0BB0F40F4BF2B11F460FF04C0AF
:101440006F5F7F4F8F4F9F4F089557FD9058440F08
:10145000551F59F05F3F71F04795880F97FB991F13
:1014600061F09F3F79F087950895121613061406D0
:10147000551FF2CF4695F1DF08C01616170618065D
:10148000991FF1CF86957105610508940895E89438
:10149000BB2766277727CB0197F908950BD0C4CFD8
:1014A000B5DF28F0BADF18F0952309F0A6CFABCF4F
:1014B0001124EECFCADFA0F3959FD1F3950F50E032
:1014C000551F629FF001729FBB27F00DB11D639FF6
:1014D000AA27F00DB11DAA1F649F6627B00DA11D9C
:1014E000661F829F2227B00DA11D621F739FB00D42
:1014F000A11D621F839FA00D611D221F749F3327B2
:10150000A00D611D231F849F600D211D822F762F4A
:101510006A2F11249F5750408AF0E1F088234AF047
:10152000EE0FFF1FBB1F661F771F881F9150504093
:10153000A9F79E3F510570F060CFAACF5F3FECF353
:10154000983EDCF3869577956795B795F795E7957F
:101550009F5FC1F7FE2B880F911D9695879597F990
:101560000895A1E21A2EAA1BBB1BFD010DC0AA1FE4
:10157000BB1FEE1FFF1FA217B307E407F50720F0FC
:10158000A21BB30BE40BF50B661F771F881F991F77
:101590001A9469F760957095809590959B01AC01C0
:1015A000BD01CF010895052E97FB1EF400940E9403
:1015B000EA0A57FD07D00E94B10A07FC03D04EF497
:1015C0000C94EA0A50954095309521953F4F4F4F26
:1015D0005F4F089590958095709561957F4F8F4FDF
:1015E0009F4F0895A29FB001B39FC001A39F700DAC
:1015F000811D1124911DB29F700D811D1124911D1B
:1016000008950E94F20AA59F900DB49F900DA49F8B
:10161000800D911D11240895B7FF0C94010B0E94B9
:10162000010B821B930B0895EE0FFF1F0590F491A1
:08163000E02D0994F894FFCFAE
:101638000101FF000000006C094108EE080709F9E4
:04164800084A090043
:00000001FF
