:100000000C94662C0C948E2C0C948E2C0C948E2CB0
:100010000C948E2C0C948E2C0C948E2C0C948E2C78
:100020000C948E2C0C948E2C0C948E2C0C948E2C68
:100030000C948E2C0C94A32E0C9464320C948E2C65
:100040000C942E340C948E2C0C9451330C948333DA
:100050000C948E2C0C9454300C948E2C0C948E2C6E
:100060000C947C310C948E2C0000FF00FF0100FFEB
:100070000000000000FFFEF8E5C0ADF97B7CF9AFA1
:10008000D3200EB7E92B245729BAF70595C9210BC0
:10009000284D3207D4D0DFBACB262D3D6A0ECB00D7
:1000A000DD91CE1B2A40321E20F7C6ABB107370DBB
:1000B000275A26F1D8A9B0DEFA20515225EECED823
:1000C000D2CAF90D1E5841FCF6E8B9C3E9FA163D4B
:1000D0004420FCEED6BBCFF5052846220005EEC233
:1000E000C9EC031D2E281C0DF2CFC5E804061C33F5
:1000F0002812FAD7CCE4F4FD12292C16FFECD8D93B
:10010000EEFA09242D1B0BF4DCDAE8F503172A2399
:100110000BFBEADEE4F2FD14291E0AFFEDDFDFEA45
:1001200002171B170F07FAE0DBEFFA0715181A0C76
:10013000F1E5E8E9F205151B150C00EEE6E7F00124
:100140001011141205F0E3E7F2FA0814191706F279
:10015000E9E8ECF2FF1520170AFEEDECEBEAFF14DC
:1001600016181505F2E8E3EDFD091417160DF9E967
:10017000E6E9F2030E16191202F2E6E5ECFF0D14A1
:10018000191809F5E7E3EBF804111B190CFAEBE574
:10019000EAF1FC0E1A181101F1EAE8E9F90B151A57
:1001A0001505F9EEE7EAF301101A170CFEF1E9E97B
:1001B000F1FD0A15171105F4EAEBEEF90710141317
:1001C00008FBF1EAECF6FE0913130E04F3EBEDF075
:1001D000FB0912130F05F9F1EDF0F6010E14120CE4
:1001E000FFF2EEEEF2000C10110C02F7EEEDF2FB56
:1001F000080E100D06FBF3F1F0F5020B0D0F0C01CC
:10020000F5F0F0F5FE060C0F0F07F7F0F0F1F8042B
:100210000A0D100BFEF5F0EDF400090E0E0C02F8BD
:10022000F2F1F3FB050B0E0C06FCF8F3F1F5FF09F8
:100230000C0D0AFFF7F4F0F5FF06090D0C03FBF4B3
:10024000F3F6FC01060A0D09FEF8F5F3F8FF040ABF
:100250000C0A03FBF4F3F5FB03070B0D04FCF9F4A4
:10026000F3F9FF040C0C0601FBF5F4F5FE05080B91
:100270000A01FDF9F2F7FEFF050B090500F7F4F599
:10028000F90005080B07FFFAF6F4F8FF0207080863
:1002900005FDF7F6F7FB0205080A04FDFAF7F6FA82
:1002A000FF0408090500FDF8F8F9FD020709060238
:1002B000FEF8F6F8FB000508060401FBF8F7FBFF63
:1002C0000307070502FDF8F6F8FC0105070704FF20
:1002D000FBF9F7FB000306080500FBF8F8FAFD023E
:1002E00005070703FDF9F7F9FC0105060604FFFC05
:1002F000F9F9FBFE0306060502FDFBF9FAFC010411
:1003000006060300FBF9F9FBFE0406040401FDFBED
:10031000F9FAFE010306040200FBFAFCFBFE0203ED
:10032000050400FEFCF9FCFF000405030300FBFAD2
:10033000FBFC000203050300FDFCFBFCFE010505C0
:100340000301FEFCFBFBFD0103040303FFFCFBFBBD
:10035000FEFF0203030201FEFCFCFCFE010304039A
:1003600001FFFDFCFCFE0003020202FFFDFDFCFCA0
:10037000000102040301FFFCFCFCFD000303020179
:10038000FEFCFDFCFD000203040200FEFCFBFDFF81
:100390000103030301FEFDFDFCFE0002030301FF58
:1003A000FDFDFCFEFF0202020100FEFDFBFD00015F
:1003B00002030301FEFDFDFDFE000102040100FE3B
:1003C000FDFDFDFF0101020200FEFDFCFEFF00023B
:1003D000020201FFFEFDFDFE000102020100FEFD22
:1003E000FDFEFE0102020200FEFEFDFDFF00000315
:1003F000020100FEFDFEFDFF0101020100FFFEFD06
:10040000FEFF000202010100FEFEFEFE00010102ED
:100410000100FFFEFDFEFF0001020101FFFEFDFDE8
:10042000FF0101010201FFFEFEFEFE0000020102CB
:1004300000FEFEFEFDFE0001020101FFFEFDFEFECC
:10044000FF0102010200FEFEFDFDFF0001020200AD
:1004500000FEFDFEFEFF0201020200FEFEFDFD00A9
:10046000000102010000FEFEFEFF0001010201008A
:10047000FFFFFDFEFF0000010100FFFFFEFEFF0089
:100480000101010000FFFEFEFFFFFF01010000FF70
:10049000FEFEFFFF0000010100FFFFFEFEFF000067
:1004A00001000000FFFEFEFFFF000001010000FF51
:1004B000FEFFFF0000010100FFFFFEFEFFFFFF0047
:1004C000010000FFFFFFFFFFFF0001000000FFFE33
:1004D000FFFFFF00010000FFFFFEFFFFFF00000124
:1004E0000000FFFFFEFFFF000001010000FFFEFE15
:1004F000FFFFFF00000000FFFFFFFFFFFF00000005
:10050000FFFFFFFEFFFFFF0000000000FFFFFFFFF7
:10051000FF000000000000FFFFFFFF0000010000DF
:100520000000FFFEFFFF000100000000FFFFFFFFD3
:10053000FF00010000FFFFFEFFFFFF0001000000C1
:10054000FFFEFFFF000000000000FFFFFFFFFFFFB6
:100550000000000000FFFFFFFF00FF000000FFFFA2
:10056000FFFFFFFFFF0000000000FFFFFEFFFF0096
:100570000000FF00FFFFFFFF000000000000FFFF82
:10058000FFFFFF0000000000FFFFFFFFFF00000073
:10059000000000FFFFFFFFFF0000000000FFFFFF63
:1005A000FFFF0000000000FF00FFFFFF0000000051
:1005B000000000FFFFFFFF0000000000FFFFFFFF43
:1005C00000FF000000FF00FFFFFFFFFF0000000032
:1005D0000000FFFFFFFF00000000FF00FFFFFFFF24
:1005E000FF0000000000FFFFFFFF00000000000010
:1005F000FFFFFFFFFF00000000FF00FFFFFF000004
:1006000000000000FFFFFFFFFF00000000000000EF
:1006100000FFFFFF000000000000FFFFFFFF00FFE2
:1006200000FF0000FFFFFFFFFFFF0000000000FFD2
:1006300000FF0000FF00000000FFFF00FFFFFF00C1
:1006400000FF00FFFFFF00FF00000000FF00FFFFB2
:10065000FFFFFF0000000000FFFFFF00FF000000A1
:100660000000FFFFFFFFFFFFFF0000000000FF0092
:10067000FF00FF0000000000FFFFFF000000FF0080
:10068000FF00FFFFFFFF00FF00FF00FF00FFFFFF75
:10069000FFFF00FF0000FFFFFF00FFFF00FF000063
:1006A000000000FF00FF00FF0000FF00FF00FFFF51
:1006B0000000FF000000000000FF00FF00FF00003E
:1006C00000FF00FFFF00FF00000000FF00FFFFFF32
:1006D00000FF00FFFF00000000FF0000FF00FFFF21
:1006E00000FF00FF00FF0000FF00FF00FF00FF0011
:1006F000FF00FF00FF00FFFFFF00FFFFFF00FF0004
:1007000000FFFF00FF0000FF00FF00FF00FF0000F0
:1007100000000000FF00FF000000FF000000FF00DD
:10072000000000000000000000FFFFFF00FF0000CD
:1007300000FF00FF00FF00FFFFFF00000000FF00C0
:10074000FF00FFFF0000000000FFFF00FF000000AF
:10075000FF0000FFFFFF0000000000FF00FF00FFA0
:10076000FF000000FFFFFF000000FFFF0000FFFF91
:100770000000FFFF00FF0000FF00FFFF00FFFFFF82
:1007800000FFFF00FF0000FF00FF00FF0000FF0070
:1007900000FF00FFFF00FF00FF000000FF00FFFF61
:1007A000000000FF00000000FF00FF00FF0000FF4E
:1007B00000FF00FF00FF00FF00FF0000FF0000003F
:1007C000FF00FFFF00FF00FF00000000FF00FF0030
:1007D000FFFF00FF00FF00FF00FFFFFF0000FF0022
:1007E00000FF00FFFFFFFF00000000FF00FF000010
:1007F00000FF00FF0000FF00FF00FF00FF000000FF
:1008000000FF00FFFFFF0000FF00FF0000FFFF00F0
:10081000FF00FF00FF00FF0000FFFF00FF00FF00E0
:1008200000FF0000FFFF00FF0000FFFF00FF00FFD0
:1008300000FF00000000FF00FF00FF0000FF0000BD
:10084000FF0000FFFF0000FF00FF00FF00FF00FFB0
:1008500000FF0000FF00FF00FF00FF00FF0000FF9F
:1008600000FFFF00FF00FF0001000000FF01FF018B
:1008700001FF00FDF2D4A7A5067D791FE3D8EAE7C2
:10088000D9F0F7FC3348372900E0DFC0A5DD1815A3
:100890001232482D07FFEDB3A6E1F9FF212B3647B1
:1008A0002AFBE2D3C2C4D7F910244F561CFF08E13B
:1008B000B4B9C9DF132D2B373B280CE4C0B5C4E90C
:1008C000FEFE1E4D462619FBD0C6C4C5DD00213BE9
:1008D00041372709E7C9B3BCDDF1092F3D36301890
:1008E000EDC9BFCAE2F401152F3C381CFDE8D5D193
:1008F000DEDFED0E22282F2613FFE2CDCFDCF00342
:1009000011202C2B1E07E5D8DFE0E4F90B1A29296A
:100910001E0BF5E6E4DFE4F100111F1F1C1603F2C5
:10092000EADFDBE9FB09131C1F1B0AF6E6DFE2EB3B
:10093000F4000C18201D0BF9F3EBE4E9F3FC0811AB
:1009400016191207FAECE4E6ECF7020A131B170873
:10095000FAF0E6E7F0F90007101B180DFFF5EEEFCF
:10096000F1F4FD060E15150D03FAF3EDECF3FD059C
:10097000070D100E0903F7EFEEF1F8FF030C131447
:100980000C04F8EDEBF0F9FE040E120E0903FBF473
:10099000EEEFF4FA00070C0E0B0500F7EFEEF4FA99
:1009A00000050B0F0D0700FAF4F0F2F8FE030C102F
:1009B0000E0700FBF5F0F1F6FE04090B0B0903FC32
:1009C000F6F1F1F8FF02060B0E0C0800F6F1F1F655
:1009D000FC00050A0D0B0700F9F3EFF2FA01060A15
:1009E0000D0A0602FBF4EFF4FAFF04080B0B0904EE
:1009F000FCF6F2F3F7FE01050B0D080400FBF4F220
:100A0000F6FA0006090B0B0702FCF4F0F3F8FF03FB
:100A1000080C0E0903FCF4F2F5F8FC00060C0E0AB3
:100A200005FFF8F5F4F2F600080C0D0A0400FCF7D7
:100A3000F2F2F6FB030A0C0B0A06FDF6F3F2F5FCE4
:100A40000307090B090501FCF8F4F3F6FC03090B95
:100A50000C0A03FEF9F3F1F4FB03070A0C0A060083
:100A6000F9F6F4F3F7FE05090B0B0804FFFAF4F1AD
:100A7000F5FA01050A0B0A0702FCF5F3F2F5FD048D
:100A8000080B0C0903FDF7F2F2F5FAFF050A0C0A50
:100A90000702FBF5F3F4F8FE04070A0C0804FFFA5A
:100AA000F4F4F5FA00060A0A0A0700FCF8F4F3F871
:100AB000FF02070B0A0702FEFAF6F6F7FB0004072F
:100AC00009080400FCF8F5F6FAFD02060909060219
:100AD000FFFBF6F6F9FD01040709060301FDF8F72F
:100AE000F9FCFE010607070402FDFBF8F8FBFD0117
:100AF000040707050300FCF9F9FAFD0003060606E2
:100B00000300FDFAF9FAFBFD010405050401FEFBF3
:100B1000FAFAFBFD00030304050200FCFAF9FAFCF3
:100B2000FF010305050301FDFBFAFBFCFE010305C4
:100B3000040301FEFCFAFAFAFE000203040402FFB9
:100B4000FEFCFAFBFDFF010304040301FEFCFBFCB9
:100B5000FCFEFF020305050300FDFBFBFCFDFF029D
:100B60000404030301FEFCFBFBFDFF01020303027F
:100B700001FFFDFBFBFCFE00020203040200FEFC81
:100B8000FBFCFDFF010204030201FEFCFCFBFCFE7A
:100B9000010203030301FFFDFCFBFDFEFF01020355
:100BA000020200FEFDFDFCFEFE000103020201FF49
:100BB000FEFDFCFDFEFF010203020100FEFDFDFD46
:100BC000FE00010202020100FFFEFDFDFEFE00012B
:100BD0000102020000FEFEFDFDFE00000102020116
:100BE00001FFFEFDFDFE00000102020100FFFEFD0F
:100BF000FDFEFEFF010202010100FFFEFDFDFEFF02
:100C0000000202020101FFFEFDFDFEFFFF010202E4
:100C10000200FFFEFDFDFDFEFF010202020100FEDB
:100C2000FDFDFDFD0001010202010000FEFDFDFDD4
:100C3000FEFF010202020100FEFDFDFEFEFF0101BA
:100C400002020100FFFEFDFDFEFF000102020101A4
:100C5000FFFFFEFDFEFEFF0101020201FFFEFEFDA1
:100C6000FEFEFF000101020000FFFEFEFEFEFF008F
:100C7000000101000000FFFEFEFEFEFF000101007A
:100C80000100FFFEFEFEFEFF000000010000FFFF6E
:100C9000FEFEFEFF00000001010000FFFFFEFEFE61
:100CA000FF000001000100FFFFFFFFFFFFFF00004A
:100CB0000000000000FFFFFFFF0000000000000038
:100CC00000FFFFFFFFFFFF0000000000FFFFFFFF2E
:100CD000FFFFFF000000000000FF00FFFFFFFFFF1D
:100CE00000000001000000FFFFFFFF00FF00000008
:100CF0000000FFFFFFFEFFFFFF0000000000FFFFFE
:100D0000FFFEFFFFFF000000000000FFFFFEFFFFEF
:100D1000FFFF0000010000FFFFFFFFFFFF000000DA
:100D200001000000FFFFFFFFFF00FF0000000000C8
:100D3000FFFFFFFFFF000000000000000000FFFEBB
:100D4000FFFF00000000000000FFFFFFFEFFFF00AC
:100D50000000000000FFFFFFFFFF0000FF00000099
:100D600000FFFFFFFFFFFFFF00000000000000FF8B
:100D7000FFFFFFFF00FF000000FFFFFFFFFFFFFF7F
:100D8000000000000000FFFFFFFFFFFF0000000069
:100D9000000000FFFFFFFF00FF0000000000000058
:100DA000FFFFFFFFFF00000000000000FFFFFFFF4C
:100DB00000FF000000000000FFFFFFFFFFFF00003A
:100DC0000000000000FFFFFFFFFFFF00000000FF2A
:100DD000FFFFFFFFFFFF00FF0000000000FF00FF1C
:100DE000FFFFFF000000000000FFFFFFFFFFFFFF0D
:100DF00000000000FF00FF00FFFFFF0000000000F8
:100E00000000FFFFFFFFFFFF0000000000000000E8
:100E1000FFFFFFFF00000000000000FFFFFFFFFFDB
:100E2000FF0000000000FFFFFFFFFF0000000000C8
:100E300000000000FFFFFFFFFF0000000000FF00B8
:100E4000FFFFFFFFFF0000000000FF00FFFFFFFFAC
:100E5000FF0000FF000000FFFFFF00FFFFFFFF009B
:100E600000000000FF0000FFFFFF00000000000086
:100E70000000FFFF00FFFF00FF000000FF0000FF79
:100E8000FFFF00FF0000000000FFFFFFFFFF00FF6B
:100E90000000000000000000FFFF0000FF00FF0056
:100EA00000000000FFFFFF0000000000000000FF46
:100EB00000FF00FF0000FF00FF00FF00FF00FF0039
:100EC000FF0000FF000000FFFFFFFFFFFF0000002A
:100ED000000000FF00FF00FF00FFFF00FF00FF0019
:100EE000FFFFFF00FFFFFF0000FF000000FF00FF0B
:100EF000FFFFFF00000000000000FF00FFFF0000F8
:100F0000FF00000000FF00FFFFFFFFFF00000000E8
:100F1000000000FF00FF00FF00FF0000FF0000FFD7
:100F2000FFFFFFFFFFFF000000000000FFFFFFFFCB
:100F300000000000FF00FF0000FFFFFFFF00FF00B8
:100F4000000000FF00FFFF000000FF00FF000000A6
:100F500000FF00FFFF00FFFFFF00000000FFFFFF9A
:100F6000FFFFFF00000000FF00FF00FFFFFF00FF8A
:100F70000000000000000000FFFFFFFF00FF000076
:100F8000FF00FFFFFF00FFFF000000000000FF0068
:100F9000FF00FFFF00FF0000FF00FF00FF00FF0059
:100FA000FF0000FF00FF00FF00FFFFFF00FFFFFF4B
:100FB0000000FF00FF00FF00FF0000000000000035
:100FC00000FFFFFF0000FF00FF0000000000FF0027
:100FD000FF00000000FF0000FF00FFFFFFFFFFFF1A
:100FE0000000FF00000000FF00FFFF0000FF00FF07
:100FF00000FF00FFFFFF00FF0000FF000000FF00F8
:10100000FF00FFFF00FF0000FF00FF00FFFFFFFFEA
:10101000FF00FF000000000000FF0000FF00FF00D5
:1010200000000000FFFFFF00FFFFFF0000FF00FFC8
:1010300000FF00FF00FF00FF00FF00FF00FF00FFB8
:1010400000FF00FF00FF00FF00FF00FF00FF00FFA8
:1010500000FF000000FF00FF000000FF00FF00FF96
:101060000000FF00FF00000001000000000100017F
:10107000000000000001000000FADFAA9CF56F7D6F
:1010800031F1C4CFF9F9FF09E5DA154D503200D638
:10109000D2E003F3A5C22C5024FB0F2F1B05F8C48C
:1010A000B2DEF90C0CF90F33372B14E8C8D6000365
:1010B000CCC60531352C18040208F9D6C3D4EFFE8E
:1010C0000C1C2A230F121F07D7C3D7EDF1FD0F12F7
:1010D0001C2B2913FDEEE3DBDEE9F2F2F7173830C3
:1010E0000BF8FF04F4DED2D4ED101D11101B2017F5
:1010F00005F3E1D5DCF30201FF0D272D1801F3ED17
:10110000EFEDE4DDEB0A1D1816181205FBF4E9DE1D
:10111000DEEF010A10151B18140CFAE6E2EBEBEEF9
:10112000F9060F1A252310F9E9E6EAE9E8EFF909CB
:101130001F271A0700FAEEE7EBECECF80E1B17116D
:101140000F100AFCEAE5E9F0FA010208161A110488
:10115000FEF5EAE8EFEFF2FD0C1A1A0F0805FFF7AB
:10116000EEE9EAF200090A111A160900FEF3EAE8AC
:10117000EEF600070D1215110901F8EFEEEEEEF490
:1011800000080D16191206FCF4F0ECEBEFF9050E51
:1011900012120E0B06FCF1E9EBF2F4F9040C0F113C
:1011A000120B00F6F1EEEFF0F5FC050B11140F0732
:1011B00000F8F0EBEFF5F8000A0F12120C04FDF541
:1011C000F1EFF1F6F9020B0E0F0F0A04FCF6F1EF46
:1011D000F1F7FE040C0F110D0700FAF3F1F0F3F82C
:1011E00000080C0D0D0B07FFF7F3F0F1F6FC0106FC
:1011F0000C0E0D0804FDF4F2F2F3F7FE04080A0CDD
:101200000B0601FCF6F4F4F4F9FF03070B0D0B06D3
:10121000FFF9F5F2F2F5FA02070B0B0B0904FDF8E2
:10122000F5F4F4F7FC03070A0B0A0703FCF8F5F3DF
:10123000F4F9FD03090D0B0A0600F9F5F4F4F6FBC9
:10124000FF040A0E0C0703FFFBF6F3F3F7FD030799
:10125000090B090806FEF7F4F5F6F9FE02060A0C7A
:101260000A0600FBF9F8F5F5FAFD03080A0805057A
:1012700002FDF7F4F4F6FA0005070708090500FA7D
:10128000F7F4F4F7FBFF03080A090803FEF9F7F582
:10129000F5F7FC01050909080602FEFAF7F3F5FA6D
:1012A000FE02060809090602FDFAF7F6F8FCFD0140
:1012B000070909080400FDFBF8F6F8FBFE0308091E
:1012C00008070401FDF9F7F6F9FD00040707070513
:1012D00003FFFBF9F6F6F9FE02040608070401FD18
:1012E000F9F7F7F9FBFD02040606050301FEFAF81B
:1012F000F7F8FC0003040607050400FBF8F8F9FC06
:10130000FD00030507070502FEFCFAF9F9FBFD01E4
:10131000040506060401FFFCF9F8FAFCFE010506C7
:10132000060504FFFCFAFAFAFAFCFF0204060504BB
:101330000200FCFAFAFAFCFDFF030505050301FFB4
:10134000FCFAF9FAFCFF02030405050201FFFCF9AF
:10135000FAFBFEFF01040505050100FEFCFBFAFC9B
:10136000FEFF010406050402FEFDFCFAFAFCFE0085
:10137000030405040301FEFCFAF9FBFCFF0103046E
:1013800006050300FDFCFBFAFBFDFE010305050459
:101390000100FEFCFBFBFBFE00030404040401FF50
:1013A000FDFBFBFBFCFF01020404040200FEFDFB4D
:1013B000FBFCFDFE010204040302FFFEFDFCFBFB3F
:1013C000FDFF01030404030200FEFDFBFBFCFDFF27
:1013D000010403040301FFFDFDFBFCFDFE0001030E
:1013E00003030201FEFEFCFCFCFDFE0002030303FE
:1013F0000200FEFDFCFBFCFDFF010203040301FFF4
:10140000FEFDFCFCFDFE0002020303020100FEFCE7
:10141000FCFCFDFE0101020303020100FDFCFCFCDB
:10142000FDFE01020303030100FFFDFDFCFDFEFEC6
:10143000010203020201FFFEFDFDFDFDFE000102AF
:1014400003030201FFFEFDFCFDFDFE00010202029E
:101450000100FFFEFDFDFDFDFE0002020202010093
:10146000FFFDFCFCFDFE00010102020101FFFFFD8A
:10147000FDFEFEFFFF010102020100FFFEFEFDFE78
:10148000FEFF00010201010100FFFEFEFDFEFFFF65
:1014900000010201010100FFFEFEFDFEFEFF000152
:1014A00001010100FFFFFEFEFDFEFF000001010241
:1014B000010000FEFEFEFEFEFF0000010201010031
:1014C000FFFFFEFEFEFEFFFF010201010000FFFE26
:1014D000FEFDFEFFFF00010101010000FFFFFEFE17
:1014E000FFFFFF010102010101FFFFFEFEFEFFFF02
:1014F000FF010101010100FFFFFEFEFEFFFF0000F2
:101500000101010100FFFFFEFEFEFF0000010101DD
:10151000000000FFFEFEFEFEFF00000101010000D2
:10152000FFFEFFFEFEFEFF00000001010000FFFFC6
:10153000FFFEFEFFFF0001010101000000FEFFFEB3
:10154000FEFFFF000001010000FFFFFEFEFEFFFFA7
:10155000FF00000001000000FFFEFEFFFFFF000093
:1015600001010100FF00FFFEFEFEFFFF0000010180
:10157000000000FFFEFEFFFFFFFF00000000000074
:1015800000FFFFFEFFFFFF00000001000000FF0062
:10159000FFFEFFFFFF00000000000000FFFFFFFE56
:1015A000FFFFFF00010101010000FFFFFEFEFEFF43
:1015B000FF00000001000000FFFFFFFEFFFF000032
:1015C000000000000000FFFFFFFFFFFF0000000021
:1015D000000000FFFFFFFFFFFFFF00000000000012
:1015E00000FFFFFFFFFFFFFF00000000000000FF03
:1015F000FFFFFFFF0000000000000000FFFFFFFFF3
:10160000FFFFFF00000000000000FFFFFFFFFFFFE3
:10161000FF00000000000000FFFFFFFFFFFFFF00D2
:10162000000000000000FFFFFFFFFFFF00000000C0
:1016300000000000FFFFFFFFFFFF000000000000B0
:101640000000FFFFFFFFFF00FF00000000FF00FFA2
:10165000FFFFFFFFFFFF000000000000FFFFFFFF94
:10166000FFFFFFFF00000000000000FFFFFFFFFF83
:101670000000000000000000FFFFFFFFFFFFFF0071
:10168000000000000000FFFFFFFFFFFF0000000060
:10169000000000FFFFFFFFFFFFFF00000000000051
:1016A0000000FFFFFFFFFF0000000000000000003F
:1016B000FFFFFFFFFFFFFF000000000000FFFFFF34
:1016C000FFFFFF0000000000000000FFFFFFFFFF22
:1016D000FF000000000000FF00FFFFFFFFFFFF0012
:1016E000FF000000000000FFFFFFFFFFFF00000001
:1016F000000000FFFFFFFFFFFFFFFF0000000000F2
:101700000000FFFFFFFFFFFF0000000000000000DF
:10171000FFFFFFFFFFFF0000000000FFFFFFFFFFD4
:10172000FFFF00FF000000000000FFFFFFFFFFFFC2
:10173000FF00000000000000FFFFFFFFFFFFFF00B1
:101740000000000000FFFFFFFFFFFFFF00000000A0
:10175000000000FF00FFFFFFFFFF00FF0000000090
:101760000000FFFFFFFFFFFFFF000000000000FF81
:10177000FFFFFFFFFFFF0000000000000000FF0070
:10178000FFFFFF00FF000000000000FFFFFFFFFF62
:10179000FF0000000000000000FFFFFFFFFFFFFF51
:1017A00000FF0000000000FFFFFFFF00FFFF00FF41
:1017B0000000FF00FF00FFFFFF00FFFF0000000030
:1017C000FF000000FFFFFFFFFF0000000000FF0020
:1017D000FFFFFFFF00FF00FF00000000FF00FFFF12
:1017E000FFFFFF0000FF00000000FF00FFFF00FF01
:1017F000FFFF00000000FF00FF00FFFFFFFFFF00F2
:1018000000000000FF00FF00000000FFFFFF0000DD
:1018100000000000FF00FF00FFFF000000FF0000CD
:10182000000000FFFFFF00FFFF00000000FF0000BE
:1018300000FFFFFFFFFFFF000000000000FFFF00B0
:10184000FFFFFF00FF000000000000FFFFFFFFFFA1
:10185000FFFF000000FF00FF0000FF00FF00FF008F
:10186000FF00FF0000FF000001FF0000010000FF7B
:1018700000000000000000000000000000FF000069
:1018800000000000FF00FDF1D0A7AC00627C47F82B
:10189000CEED0DFEE8D9DAEBEE0533413523150523
:1018A000E3DDFDF8CDBBC8FC2A1607162B381F0256
:1018B000F3F4FDE6CCCBD5EE1228200C0C263A2A08
:1018C000FDDBDCE5DEDBD9EB040A0C11263A2F1236
:1018D000F3E8EDEFEEE5D2CFEA14291D1016252628
:1018E00015FCF0E6DDD8D3E0F603080D1520282A14
:1018F0001B00E8E1EAEDDED3DBF5101C1919202509
:10190000200EFFEFE3DEDCDDE5F0011318191E21E8
:101910002114FFEFE8E7E1D9DEEB001014181D20D9
:10192000201809F6EAE5E8E8E7E6EF01131A1A18C5
:1019300018191205F4E8E1DCDCE5F30009151B1EBB
:10194000211F1501F0E7E2E1E7E9ECF707171D1B9E
:101950001E180F03F9F0E3DFE3E6EAF6020E1517AF
:101960001A17110B02F5E8E2E7EBECF2FD09151C82
:101970001B18140B03F9F0E8E5E8EEF3FA030E1672
:101980001917110A06FEF3EBE8EAEDF1FA00091166
:10199000181A170F07FEF5EEE9E8ECF4FA01080F44
:1019A0001617130B04FFF8F1EDECEEF0F5FE060D43
:1019B0001014130C0500FCF5EFEAEDF2F900030733
:1019C0000D1213100903FBF4F1EFEDEDF4FD030725
:1019D0000E12130E0901FBF6F4F0EEF1F6FC03080B
:1019E0000C0E0E0E0C04FDF7F4F0EFF3F7FB000500
:1019F000090C0F100C05FDF9F6F2F2F3F6FA0007E8
:101A0000090B0A0A080400FCF8F4F4F4F5F9FF04E1
:101A100007090E0F0A0702FDF7F4F3F2F4F9FF04C9
:101A20000607080B0A0703FCF5F2F3F6F8FAFF02C3
:101A3000070A0B0B090401FEF9F7F5F5F5F90004A7
:101A40000506090A090502FEF9F6F6F6F7FAFE029E
:101A500004070C09060402FEF9F8F8F6F7FAFF028B
:101A60000305090A070402FEFCFAF8F7F7FAFCFF7F
:101A700003070808060502FFFBF9F7F6F6F9FE0171
:101A80000305060807050301FDF8F6F7F8FAFCFF61
:101A90000104050808070400FDFAF8F8F7F8FAFF52
:101AA0000305070808070301FFFAF8F8F8F9FAFD3B
:101AB000010406070807040301FEFAF8F8F7FAFD27
:101AC000FF0205070707070400FBF9F9F9F8F9FB1E
:101AD000FD0104070808060301FEFBF9F7F7F9FB0F
:101AE000FE0204060606070502FEFBF9F7F7FAFBFD
:101AF000FD010406070706040200FDFBF9F8F9FBE7
:101B0000FCFF0204060606060400FDFBFAF9FAFAD9
:101B1000FCFE0104050505050302FFFCFAF8F8FACE
:101B2000FCFE0103040405060401FFFCFBF9FAFABC
:101B3000FAFCFE0105060505040300FDFBF9F8F9B2
:101B4000FAFCFF0203050505050301FEFCFAF8F99E
:101B5000FBFCFE0104060505040402FFFCFAF9F98A
:101B6000FBFCFE000204050504030201FEFBFAFB78
:101B7000FBFBFC000204040604030200FFFCFBF96B
:101B8000FAFCFDFF0103040405040301FFFCFBFA5A
:101B9000FAFBFCFE0103040404040301FEFDFBFA4E
:101BA000FAFBFDFE0001030504040301FFFDFBFB3E
:101BB000FAFBFCFDFF02030304040201FFFEFDFB30
:101BC000FAFBFCFDFE0002040404030200FEFDFB20
:101BD000FBFBFDFEFF0102030503020101FFFDFC0B
:101BE000FBFCFCFDFE0002030304030201FFFEFDFB
:101BF000FCFBFCFDFE0001020304030201FFFEFDED
:101C0000FBFBFCFDFD000102030403020200FEFDDC
:101C1000FCFCFCFDFEFF0102030404020100FEFDCA
:101C2000FDFCFCFDFEFF0001020303020201FFFEBA
:101C3000FDFCFCFCFDFE0001020303030201FFFEAC
:101C4000FDFCFCFCFCFE0001020303030201FFFE9D
:101C5000FDFCFCFCFDFE000101020303020200FE8C
:101C6000FEFDFCFCFCFEFF0001020202020100007E
:101C7000FEFEFDFCFDFEFFFF00010203020100006D
:101C8000FFFEFDFDFDFEFEFF00010202020201005B
:101C9000FFFEFDFDFDFDFFFF00000202020101004D
:101CA00000FEFDFDFDFDFEFF00010102020101003D
:101CB000FFFFFEFDFDFEFFFF00000101020101002C
:101CC00000FFFEFDFDFEFEFFFF000101010201011C
:101CD00000FFFEFEFEFEFEFFFF000001020101010B
:101CE0000000FFFEFEFDFDFEFF00000101010101FD
:101CF00000FFFFFEFEFEFEFEFFFF000101010101ED
:101D000000FFFFFEFEFEFEFEFEFF000101010101DD
:101D10000000FFFEFEFEFEFEFEFF000001010101CD
:101D20000100FFFEFEFEFEFEFFFF000001010101BB
:101D3000010000FFFFFEFEFEFEFF000000010101AA
:101D40000100FFFFFEFEFEFEFEFF0000010101019B
:101D5000000000FFFEFEFEFEFEFFFF00000101018D
:101D600001000000FFFEFEFEFEFFFFFF000000017D
:101D700000000000FFFFFEFEFEFFFF00FF0001016C
:101D800001010000FFFFFEFEFEFEFFFF000000015C
:101D9000010000FFFFFFFEFEFEFFFF00000000014C
:101DA00001000000FFFFFFFEFEFEFF00FF0001003C
:101DB00001010000FFFFFFFFFEFFFFFFFF0000002B
:101DC000000000FF00FFFFFFFFFFFFFFFF0000001C
:101DD00000000000FFFFFFFFFFFFFFFFFF0000000C
:101DE0000000000000FFFFFFFFFFFFFFFF000000FB
:101DF0000000000000FFFFFFFFFFFFFFFF000000EB
:101E000000000000000000FFFFFFFFFFFFFF0000D9
:101E10000000000000FFFFFFFFFFFFFFFFFF0000CB
:101E200000000000000000FFFFFFFFFFFF000000B8
:101E3000000000000000FFFFFFFFFFFFFFFF0000AA
:101E4000000000000000FFFFFFFFFFFFFFFFFF009B
:101E5000000000000000FFFFFFFFFFFFFFFF00008A
:101E600000000000000000FFFFFFFFFFFFFFFFFF7B
:101E700000000000000000FF00FFFFFFFFFF00FF69
:101E80000000000000000000FFFFFFFFFFFFFFFF5A
:101E90000000000000000000FFFFFFFFFFFFFF0049
:101EA000000000000000000000FFFFFFFFFFFFFF39
:101EB000FF0000000000000000FFFFFFFFFFFFFF2A
:101EC000FF00000000000000FF00FFFFFFFFFFFF1A
:101ED000000000000000000000FFFFFFFFFFFFFF09
:101EE000FF00000000000000FF00FFFFFFFFFFFFFA
:101EF000000000000000000000FFFFFFFFFFFFFFE9
:101F0000FF000000000000000000FF00FFFFFFFFD7
:101F100000FF0000000000000000FFFFFFFFFFFFC8
:101F2000FFFF0000000000000000FFFFFFFFFFFFB9
:101F3000FFFF00FF0000000000FF00FFFFFFFFFFAA
:101F4000FFFFFF0000000000000000FF00FFFFFF98
:101F500000FFFF000000000000FF00FFFFFFFFFF89
:101F6000FF00FF000000000000FF00FFFFFFFFFF79
:101F700000FF000000000000000000FF00FFFFFF66
:101F8000FFFFFF000000000000000000FFFFFFFF58
:101F9000FFFF00FF0000000000000000FFFFFFFF48
:101FA000FFFFFFFF0000FF00000000000000FFFF38
:101FB000FFFFFFFF0000000000000000FFFFFFFF29
:101FC000FFFFFF00000000000000FF0000FFFFFF18
:101FD000FFFFFFFF000000000000000000FF00FF07
:101FE000FFFF00FF00000000000000000000FFFFF6
:101FF000FFFFFFFFFF00FF000000000000FFFFFFEA
:10200000FFFFFF00FF0000000000FF0000FFFFFFD8
:10201000FFFFFFFF00FF00000000000000FF00FFC7
:1020200000FFFF00FF00FF000000000000FFFFFFB7
:10203000FFFFFFFF00FF0000000000000000FF00A6
:10204000FFFF00FFFF00FF00000000000000FF0096
:10205000FF00FFFFFFFF00000000FF00FF00000087
:10206000FF00FF0000FF0000000001FF01FF01FF73
:1020700000000001FF0000FF01FF0000000001F868
:10208000D29889E0517D7141EBD00409DED3DCE4C4
:10209000F1DEE10F3B56472202F0F9020B0CD68E1F
:1020A0009FF21C2310E7F6293D3A1F040405F9EBC3
:1020B000E2DADDEDE7DCF50A102734210A04172EF9
:1020C00021EEBFBBDBFCFEE0D4EB091F313323174D
:1020D00015161500E1D3D3DEE8E2E3F60C191B1563
:1020E000151F302703E8E1E8F3EBD8D3D7E8031B4B
:1020F00022190B1228322303EDE5E5E5DEDCE6EEDE
:10210000F3FA0414272C25170B020402FBECD7CE9C
:10211000D7EF030703000A1F2B291E1007FCF2EC60
:10212000ECE9E4DFDDE7F5061925241E1613181384
:10213000FEE4D8D6DBE5F0F7FC0008161E201D16DD
:102140001008FCF0EFEFE8E5E4E6EFFC0814120FEE
:10215000181E1C1407F6ECE7E2E3E9EAECF5000AC6
:102160001315181E1E130803FAF0E9E5E5E6E7EE7D
:10217000FA0812161A201B0F0B0CFFEFE8E6E6E632
:10218000E8F1FC03060E181E1B13100C00F4F3F00C
:10219000E8E3E8EEF5FD040E1A1A1411110D04FA25
:1021A000F6F3EAE4E8F0F5F9FE0712141213140D41
:1021B00004FEFBF6EDE9EBEFEEF1FE0A0D0E101456
:1021C000150E0401FFF6EEEBEEF1EFF1FA03090B49
:1021D0001012120F0A0600FAF3F0EFEFEFF0FA0117
:1021E000040811140F0D0D0902FBF7F5F0EDEDF1E8
:1021F000F7FD00050D14100F120DFFF7F3F3F3EFC9
:10220000F0F3F8FE02060D0F0B0B0D0C04FFFCF8AB
:10221000F2EFF0F2F7FBFF0305080D0E0E0B02FEC6
:10222000FEFBF4F2F4F5F4F6FD03090B0C0C0C0ABA
:10223000060201FBF4F0F2F5F8F8FC0003080D0DBE
:102240000C090603FFFDF8F3F4F6F6F8F9FF0307AF
:102250000909090A090601FEFBF5F3F4F5F6F9FD93
:102260000105080A0A0A0A0903FFFBF7F6F7F6F464
:10227000F6FBFF00050B0C0B09080502FDFAF7F64B
:10228000F4F3F6FBFEFF050909080B0B0701FDFB44
:10229000F9F6F4F3F3F7FCFF03080A090A0A070446
:1022A00000FDF9F7F5F5F7F9FBFD000506070A0C47
:1022B00009050300FDF8F6F3F4F4F7FD0204040742
:1022C0000A0B0A070602FDF8F7F6F6F5F6FBFE0222
:1022D00004070A0B09080603FFFBF9F6F4F5F8FBFF
:1022E000FCFD0205080B0B0A0804FFFEFBF8F5F5E0
:1022F000F6F8F9FD020608090809080602FFFBF9CD
:10230000F6F6F8F7F8FB000306090A0807060402C8
:10231000FEFBF7F7F8F7F8FAFE01020507090807D0
:102320000503FFFCFAF8F8F6F6F7FBFF02050708CD
:102330000809070401FDF9F8F8F6F8F8FAFD0003BA
:1023400006080808070401FFFDFBF9F7F6F8FAFC98
:10235000FF010506070808080400FEFCF9F7F7F975
:10236000F9FAFC01040606080807040101FEFBF95E
:10237000F7F9F9F9FCFF020405070807050302FF56
:10238000FBF9F9F9F8F9FBFE000204060706060559
:1023900002FFFDFBF9F9F8F8FAFCFE01030505055B
:1023A00006050400FFFDFAF8F8FAFAFBFD00030445
:1023B00005060706040100FFFDFAF9F9FAFAFD0027
:1023C00001020405060604030200FCFAFAFAF9FA0F
:1023D000FBFE00020406060503030300FDFCFBFAF6
:1023E000F9FAFCFEFF000204050505040200FEFDEB
:1023F000FCFAFAFAFBFCFD000203040404040301E6
:1024000000FEFDFBFBFBFCFCFDFE000304040505D8
:10241000030201FEFDFCFBFAFBFCFDFF00020304CE
:10242000040403030100FDFCFCFBFBFBFCFDFF00BF
:102430000304040404030200FFFCFCFBFBFBFCFDA3
:10244000FE010203030404030201FFFEFCFBFBFB8D
:10245000FCFDFEFF010303030303020100FFFDFC7B
:10246000FCFBFCFCFDFF000202030404030200FF6E
:10247000FEFDFCFCFCFCFDFE000102030303030265
:102480000100FFFEFDFCFCFDFDFEFF000203030357
:102490000302010000FEFDFCFCFCFCFDFFFF00014F
:1024A000030304030201FFFFFDFCFCFCFDFDFEFF36
:1024B000000102030302020100FFFEFDFDFCFCFD22
:1024C000FDFF00000103030302020100FFFEFDFC0B
:1024D000FCFCFDFEFF000102030303030200FFFEFC
:1024E000FDFCFCFCFDFDFFFF0102020203030201F3
:1024F00000FFFEFDFDFCFDFDFF00FF0102020202E8
:10250000020100FFFEFEFDFCFDFDFEFF00000202D9
:10251000020202010100FFFEFDFDFDFDFEFEFF00C7
:10252000010202020201010000FEFEFDFDFDFDFEB2
:10253000FF000001010202010101FFFFFEFEFEFD9E
:10254000FEFEFEFF000101020202010100FFFFFE8C
:10255000FDFDFDFEFEFF000101010202010100FF81
:10256000FFFEFEFDFDFEFEFE000001010202010174
:102570000100FFFEFEFDFEFDFEFEFF000101010168
:102580000101010000FEFEFEFEFDFEFEFFFF000158
:1025900001010202010100FFFEFEFDFDFEFEFEFF45
:1025A000000001010101010100FFFFFEFEFEFEFE31
:1025B000FEFFFF000101010101010000FFFFFEFE1F
:1025C000FEFEFEFFFF000000010101010000FFFF11
:1025D000FEFEFEFEFEFFFFFF000101010101010002
:1025E00000FFFFFEFEFEFEFEFF00000001010101F4
:1025F000000000FFFFFFFEFEFEFEFFFFFF000001E8
:10260000010101010000FFFFFEFEFEFEFEFFFF00D4
:102610000000010101010000FFFFFEFEFEFEFEFEC4
:10262000FFFF000001010101000000FFFFFEFEFEB0
:10263000FEFEFFFFFF000001010101000000FFFF9F
:10264000FEFEFEFEFFFFFF0000000101010000FF93
:10265000FFFFFEFEFEFEFFFFFF0000010101010182
:10266000000000FFFFFFFEFFFEFFFF000000000074
:102670000000000000FFFFFFFFFFFFFFFF00000062
:1026800000000000000000FFFFFFFFFFFEFFFFFF54
:1026900000000000000000000000FFFFFFFFFFFF40
:1026A000FFFFFF000000000000000000FFFFFFFF31
:1026B000FFFFFFFFFFFF0000000000000000FFFF22
:1026C000FFFFFFFFFFFFFFFF000000000000000012
:1026D0000000FFFFFFFFFFFFFFFF00000000000002
:1026E00000000000FFFFFFFFFFFFFFFF00000000F2
:1026F000000000000000FFFFFFFFFFFFFFFFFFFFE4
:10270000000000000000000000FFFFFFFFFFFFFFD0
:10271000FFFF000000000000000000FFFFFFFFFFC0
:10272000FFFFFF00FF000000000000000000FFFFAF
:10273000FFFFFFFFFFFFFF000000000000000000A0
:10274000FFFFFFFFFFFFFFFFFFFF00000000000093
:10275000000000FFFFFFFFFFFFFFFF000000000081
:102760000000000000FFFFFFFFFFFFFFFFFF000072
:102770000000000000000000FFFFFFFFFFFFFFFF61
:1027800000000000000000000000FFFFFFFFFFFF4F
:10279000FFFFFFFF000000000000000000FFFFFF40
:1027A000FFFFFFFFFFFF000000000000000000FF30
:1027B000FFFFFFFFFFFFFFFF000000000000000021
:1027C000FF00FFFFFFFFFFFFFFFF00000000000012
:1027D0000000000000FFFFFFFFFFFFFF00FF000001
:1027E000000000000000FFFFFFFFFFFFFFFFFFFFF3
:1027F000000000000000000000FFFFFFFFFFFFFFE0
:10280000FFFF000000000000000000FFFFFFFFFFCF
:10281000FFFFFFFFFF0000000000000000FFFFFFC0
:10282000FFFFFFFFFFFF00000000000000000000AE
:1028300000FFFFFFFFFFFFFFFF00000000000000A0
:102840000000FF00FFFFFFFFFFFFFF00FF00000091
:1028500000000000FF00FF00FFFFFFFF00FF00007F
:10286000000000FF00000000010001FF00FF00FF6A
:102870000000000100000001FF00FE00FE01FFFF5C
:1028800001FF01FFFF0200F2BC829C195E526D5AEB
:10289000E2CC0F0DEEDEBCBEF805FDEED922662CB3
:1028A0000A2F10F914DFC72026DDBDB9BBFA3C1191
:1028B000F00506080A2B4A290F04E6DA050CCFCBEF
:1028C000F7E9DDECEE012423101C2718120701059F
:1028D00004FEE2BBC5FD04F5F9EFE90D211B21273C
:1028E0001D1208010200F5E9D4D2E2E7ECFBFBF986
:1028F0000C1B1A2124140B130EF9EDE9EAEBE7E5A2
:10290000E7E9EDF906131C18161511111911FDF35D
:10291000E9DCE1EAF1EFEBE9F401141C19191D16E9
:10292000110A00FC00F8E9E3E7E8E6ECEFFC0E171B
:10293000120D151C201A0FFBF0EDE9EEEFE9E5ECA6
:10294000F7FD01090E1015150D06131304FFF8EF1E
:10295000EDE9E8E4E9F7F7FB030E0E141C18141177
:1029600004FBFCFAF2E8E8E7E6EAF2F702101610D8
:10297000121613131005F8FAFCF2E7E9E6EAF7F687
:10298000F6FE070C14171213110C05FFF9F7F0EC03
:10299000E9E6E8F4FB0004020B1619120C0A0C0914
:1029A00003F8F1F0EFE8E5EAF0FC01000710171773
:1029B000130C0C0B03FEF6F2EEECEAECEFF4F8FD70
:1029C000040F141211120E0F0BFDF9F9F3EAE8E8E7
:1029D000EFF5F7F5FB0711100F100F0F0F0800FDB3
:1029E000FBF2EBECEDEBF0F2F8030A080C1013101D
:1029F000100D0A04FCF3ECEFF1EFEAEEF5F9030831
:102A0000090B1213100E0D0904FEF2EDEEEFEEEDC0
:102A1000EDF2FB0608080F14160F0E0A0701F9F075
:102A2000F0F0F0E9E9F2F9FF0204080D14100E0EBF
:102A30000F08FEF8F4F3F3EEE6E9F4FAFBFF030CFB
:102A40001115110D0E0F08FCF6F6F4EFE9E8EFF79B
:102A5000FBFC02060B1014120E0C0902FFFBF8F22D
:102A6000EFEAEAF1F6FBFC01070C0E0F100E0F0A5D
:102A700002FDF9F8F2EDEBEDF3F8F9F9FF070F0EAF
:102A80000E0E0E0A0702FFFEFAF1ECECF0F4F8F875
:102A9000FB0106080C11100D0A040401FAF3EFEF14
:102AA000F4F5F2F4F7FE0306080D100F0D0A070700
:102AB00000F9F0EEF0F2F4F2F5FA0002070B0A105A
:102AC0000D0A070605FEF8F4F2F5F4F1F1F6FB0045
:102AD0000307090D0F0C090A0A05FEF6F3F4F4F5D5
:102AE000F2F3F7FDFE0207090D0D0909070702FEC3
:102AF000F9F6F4F3F0F1F5FAFAFF02070A0B0D0DFF
:102B00000B0803FFFAFBF8F3F2F1F3F6F8FC010609
:102B100009090B0A09080804FFFDF8F7F5F4F3F5B5
:102B2000F6F8FBFF0207090D0C0C07070100FFF880
:102B3000F5F3F2F2F5F6FBFF01050808090C0A09A6
:102B4000050200FDF8F7F5F3F4F8F6F9FD020508C3
:102B50000A0A0B0A080301FEFBF8F7F3F3F5F7F88E
:102B6000FBFF0304080A0B0A0A07050100FBF8F53E
:102B7000F5F4F6F7F9FC01020607080A0A0904034E
:102B800000FFFBF9F7F3F5F5F7F7FCFF030606077F
:102B900007090A070300FEFCFAF5F5F4F7F7FAFC5B
:102BA000FF020707080908090602FFFBFCF9F5F513
:102BB000F4F8F8F9FEFF030507080A070604030006
:102BC000FCFBF8F6F5F7F7F8FBFE01030507070A2B
:102BD0000905040300FDFAF9F7F6F7F6F9FAFE0124
:102BE00002050609080805040302FDFAF6F7F5F7E1
:102BF000F6F9FCFC01030608090606050502FFFCC0
:102C0000FAF9F8F6F6F7FAFCFE00030608070504E1
:102C1000050302FFFCFAF9F7F7F7F9FBFDFEFF01E8
:102C20000506050607040301FFFDFBF9F8F7F8F8B0
:102C3000FAFD0000030406060705050200FEFDFA82
:102C4000F9F7F7F9FAFBFDFF01040504050706048F
:102C500001FFFEFDFBF9F8F9FAFAFBFDFF010304A1
:102C6000040506060301FFFEFDFBF8F9F9F8F9FB80
:102C7000FE0001020405060604030101FFFCFAF947
:102C8000FAF9F9F9FCFF0001030405060604020144
:102C900000FDFCFAF9F9F9F9FAFDFF00010304055A
:102CA0000504040301FFFDFCFBFBFAFAFAFBFDFF40
:102CB0000001020505050403020100FDFCFBFAFB0F
:102CC000FAFBFCFDFF00010303040403030300FE01
:102CD000FDFCFBFBFBFAFBFCFDFF0001030403030F
:102CE00003030200FFFDFCFCFAFAFBFCFCFDFF0005
:102CF000010203040403030100FEFDFCFCFBFBFBDB
:102D0000FBFDFEFF00020203030303030200FFFDBD
:102D1000FDFBFCFBFBFCFCFEFF00020203040402C3
:102D2000010100FFFDFCFBFBFCFCFCFDFEFF0101C3
:102D30000203040302020100FFFDFDFCFBFBFBFCA0
:102D4000FDFE0001020203030203020100FEFDFC7E
:102D5000FBFCFCFCFCFDFFFF00020202030202017F
:102D60000000FEFDFDFCFBFBFCFDFDFEFF00020282
:102D7000030302020200FFFEFEFDFCFCFCFCFDFE64
:102D8000FFFF00010202030201010000FEFEFDFC44
:102D9000FCFCFCFDFEFF000101020202010101003A
:102DA000FFFEFEFDFCFCFCFDFEFEFF00010102013A
:102DB0000302010000FFFEFEFDFDFCFCFDFDFEFF29
:102DC00000010101010201010000FFFEFEFDFDFC0A
:102DD000FDFDFEFEFF00000102020202010000FFF5
:102DE000FEFDFDFDFDFDFDFEFFFF000001010102F6
:102DF00001010000FFFEFDFDFDFDFDFDFEFEFF00EB
:102E0000010101010101010000FEFEFDFDFDFDFDCE
:102E1000FEFEFE0000010101010101010000FEFEB5
:102E2000FEFDFDFDFDFDFEFFFF00000101020101B1
:102E30000000FFFFFFFEFEFEFEFEFEFFFF000000A3
:102E400001010101000000FFFFFEFEFEFEFEFEFE8E
:102E5000FFFFFF00000101010101000000FFFFFE74
:102E6000FEFEFEFEFFFFFF0000000000010000006C
:102E7000FFFFFFFEFEFEFEFEFEFEFFFF0000000065
:102E8000000000000000FFFFFFFEFEFEFEFEFFFF51
:102E9000FFFF000000000000000000FFFFFFFEFE3B
:102EA000FEFEFEFFFFFF000000000001000000002A
:102EB000FFFFFFFEFEFEFEFEFFFFFF000000000022
:102EC0000100000000FFFFFEFEFEFEFEFEFFFF0011
:102ED00000000000000000000000FFFFFEFEFEFEFC
:102EE000FEFEFFFF00FF000000000000000000FFEA
:102EF000FFFFFFFFFFFFFFFFFF00FF0000000000DC
:102F0000000000FFFFFFFFFFFFFFFFFFFFFFFF00CD
:102F10000000000000000000FFFFFFFFFFFFFFFFB9
:102F2000FFFFFF0000000000000000000000FFFFA6
:102F3000FFFFFFFFFFFFFFFF000000000000000099
:102F40000000FFFFFFFFFFFFFFFFFFFFFF0000008C
:102F500000000000000000FFFFFFFFFFFFFFFFFF7A
:102F6000FFFF00000000000000000000FFFFFFFF67
:102F7000FFFFFFFFFFFFFF0000000000000000FF59
:102F800000FFFFFFFFFFFFFFFFFFFFFF000000004C
:102F9000000000000000FFFFFFFFFFFFFFFFFFFF3B
:102FA000FF000000000000000000FF00FFFFFFFF27
:102FB000FFFFFFFFFF00000000000000000000FF17
:102FC000FFFFFFFFFFFFFFFFFFFFFF00000000000C
:102FD00000000000FFFFFFFFFFFFFFFFFFFFFF00FC
:102FE00000000000000000000000FFFFFFFFFFFFE7
:102FF000FFFFFFFF00000000000000FF00FF00FFD8
:10300000FFFFFFFFFFFFFFFFFF00FF0000000000CA
:10301000000000FFFFFFFFFFFFFFFFFFFF00FF00BB
:10302000000000000000FF00FFFFFFFFFFFFFFFFA9
:10303000FFFFFF00FF00000000000000FFFFFFFF98
:10304000FFFFFFFFFFFFFFFFFF00FF000000FF008B
:10305000FF00FFFFFFFFFFFFFFFFFFFFFF00FF007D
:1030600000000000000000FF00FE01000100000061
:10307000000000FFFFFF00FF000000FDF0CCA4A354
:10308000D808265D7E4C0CFE0B0A08F8C1A6BEDBF4
:10309000FD09F4E6022D1DFE0B100D3A5724F3F73F
:1030A000DBC4E70E0703FFDBCFE2E0E8FF0B080F0E
:1030B000261A0B191C0811220FF1F2FCFBFDFEE28F
:1030C000CBCED9EE04140D0100F9FC14221D2329E6
:1030D0001E0BFFF0DFE9FCFEF9EBD2CBE4070B059A
:1030E000FDF0F80B1113232D261D11F1E2ECFAFA75
:1030F000FEF9ECE1E2DDDBEE0512150BFB03182116
:103100001E160B020A1004F3E9EDEEEDE4D9D8ED3A
:10311000020F1002FAFC0813181F201F140BFDEFFA
:10312000ECEFF4F4F5F0EDECE9E9F4FF0608070440
:103130000A111616161007080802F9F2EDE8E8ED74
:10314000EBEAF0F5F9FF090C0F1010100E0D060652
:10315000090B0804FBEEE3E1E8F2F9F9F8FBF9F9F1
:10316000FC0109151C1E1A0E070405FEF6F6F3F203
:10317000F1F0EEF0F5F7F3F3F3FF0C1816110E0E65
:103180000B090600030603FBF1EAE5E9F1F8FBFB96
:10319000FAFAFE03080D101614110A0503FFFFFDCD
:1031A000FAF3EFECEBF0F5FBFBFEFAF7FE040A0F87
:1031B0001515110D07FFFEFF00FBF9F4F4F0EBED20
:1031C000F1F5F8FFFF01070E10100E0905080602C1
:1031D000FEFEFBFAF8F3EDEEF1F6FDFCFAFC00055D
:1031E00006090A0C111311070000FDFCF8F5F6F5AD
:1031F000F6F4F1F0F3FC000203080A0F0E0E0B09BF
:10320000070803FEF7F7F6F6F5F4F3F1F5F5F8FE27
:103210000305090A0A090A0A0908090502FEF8F461
:10322000F2F1F0F2F5F5F6FBFE0105070709090BCF
:103230000A0B080602FEFCF9F8F5F7F7F8F7F4F3C5
:10324000F5F7FE0106080D0C090B0806050601FD41
:10325000FAF8F7F4F5F4F4F7F9FAFCFE02050A09B6
:10326000080908060706040001FDFCF8F6F3F4F46B
:10327000F7F7FAFEFF020304060608080907070528
:1032800001FFFDFAF7F8F7F6F5F6F7FAFBFEFE0197
:1032900004070809080907070300FDFCFBFBFAF710
:1032A000F6F3F4F8FAFD0002020404050609080723
:1032B000060502FEFEFBFAF9F8F6F6F4F7F8FCFF55
:1032C000020305060707050605050402FFFEFCFAD2
:1032D000FAF9F7F6F8F9F9FCFD010304040506060E
:1032E000060506040400FDFBFAFAF8F8F6F7F9F90A
:1032F000FBFC00010405060506060705040100FFA6
:10330000FEFBF9F8F8F9F9F9F9FCFCFFFF030306F5
:103310000709060604040200FEFDFAFBFAF8F7F6B8
:10332000FAFAFCFCFFFF0203050405070707040285
:103330000000FFFBFBF8F7F6F8F8F8FAFEFE0103D1
:103340000305050807070504030000FCFCFAF8F86C
:10335000F7F6F7F9FDFE000002030507070507066B
:10336000050201FEFDFCFBFAFAF7F8F7F9FBFB009A
:10337000FF020304060506040404050200FDFCFA2E
:10338000FBF8F9F7F8F9FBFCFE000202050506055B
:10339000050506030300FFFBFAF7F9F9F9F7F9F958
:1033A000FCFD00000303060607050603040201FFF7
:1033B000FCFAFAF9F9F9F8F9F9FCFDFF0202050542
:1033C0000606050604040201FFFCFCF9F9F8F9F908
:1033D000FAFAFCFDFF0002030405060505030302DB
:1033E0000000FDFCFAFAF8F9F9FBF9FBFCFFFF021B
:1033F0000302050506050503030000FCFCFAFBF9C2
:10340000FAFAFAFBFCFBFE000003030404050506C0
:10341000040401FEFFFCFCFAFAF9FAF9FAFBFDFCE0
:103420000000030205040505040503010000FDFD7D
:10343000FBFAF9F9FAF9FBFBFDFF000202030305B1
:1034400004050303020000FCFDFBFBFBFAFAF9FB99
:10345000FBFDFE0000020304040305030303010057
:10346000FDFDFDFCFAFAFAFAFCFCFDFDFE0101028D
:103470000203030404030100FF00FEFDFBFAFBFB53
:10348000FCFDFDFDFD00FF01010204030303020139
:103490000100FEFEFDFCFCFAFBFBFBFDFDFEFF0058
:1034A00000010202040403020100FFFFFFFDFCFB18
:1034B000FBFBFBFBFCFEFF00FF000101030303021B
:1034C00001010100FFFDFDFCFCFCFBFBFBFDFEFF21
:1034D000FF00FF01020303030202010100FFFFFEE0
:1034E000FDFDFCFBFBFCFCFDFEFF000000010102FA
:1034F0000303020101FF00FFFEFDFCFCFBFCFCFCE2
:10350000FDFEFF00000100010203020201000000B5
:10351000FFFDFDFDFCFDFBFCFDFDFEFFFF000101CD
:103520000202020202010100FF00FEFEFDFDFCFDA1
:10353000FCFDFDFEFEFF000001010101020202018F
:1035400000FFFFFFFDFDFDFCFDFDFDFDFDFFFF009C
:103550000001010101010101000000FFFEFEFDFD6F
:10356000FDFCFCFDFEFEFFFFFF0001010201010268
:1035700001010000FFFEFEFEFEFDFDFDFDFEFEFF63
:10358000FFFF0000010201000000000000FFFFFE3D
:10359000FEFDFDFDFEFDFEFEFE00FF00000002013F
:1035A000000101000000FFFFFEFEFEFDFDFDFDFE2F
:1035B000FEFEFF00FF00000001020101000000000C
:1035C00000FFFEFEFEFEFEFEFEFEFEFF00FF000010
:1035D0000001010100000000FFFFFFFEFEFEFEFEF5
:1035E000FEFEFEFEFFFF00000000000001010001E2
:1035F00000FF00FFFEFEFEFEFEFEFEFEFEFEFFFFE3
:103600000000000100010101000000FFFFFEFEFEBE
:10361000FEFEFEFEFEFEFEFE0000000000010100B8
:1036200001000000FFFFFFFEFEFEFEFEFEFEFEFEAE
:10363000FFFF0000000101010001000000FFFFFF8B
:10364000FFFEFEFEFEFEFEFEFEFFFFFFFF0001008E
:10365000010000000000FF00FFFEFEFEFEFEFEFE79
:10366000FEFEFFFF00FF0000000100000000000060
:10367000FFFFFFFFFFFFFEFEFEFFFFFF00FF00005A
:10368000000000000000000000FFFFFFFFFFFFFF41
:10369000FFFFFFFFFFFF0000000000000000000030
:1036A000000000FFFFFFFFFFFFFFFEFFFFFFFF0027
:1036B000FF00000000000000000000FF00FFFFFF0F
:1036C000FFFFFFFFFFFFFFFFFF0000000000000003
:1036D0000000000000FFFFFFFFFFFFFFFFFFFFFFF5
:1036E000FF00FF000000000000000000FF00FFFFDF
:1036F000FFFFFFFFFFFFFFFFFFFFFF00FF000000D6
:10370000000000000000FF00FFFFFFFFFFFEFFFFC3
:10371000FFFFFFFFFFFF00000000000000000000AF
:10372000FF00FFFFFFFFFFFFFFFFFFFFFF00FF00A6
:10373000FF00000000000000FF00FFFFFFFFFFFF91
:10374000FFFFFFFFFFFF00FF000000000000000080
:1037500000FF00FFFFFFFFFFFFFFFFFFFFFFFFFF77
:10376000FFFFFF00000000000000000000FFFFFF5F
:10377000FFFFFFFFFFFFFFFFFFFFFF000000000054
:1037800000000000FF00FFFFFFFFFFFFFFFFFFFF44
:10379000FFFFFF0000000000000000FF0000FF002E
:1037A000FFFFFFFFFFFFFFFFFFFFFFFF00FF000026
:1037B0000000000000000000FFFFFFFFFFFFFFFF11
:1037C000FFFFFFFFFFFFFF00000000000000FF0001
:1037D000FF00FF00FFFFFFFFFFFFFFFFFFFFFF00F6
:1037E000FF000000FF00FF00FF00FFFFFFFFFFFFE3
:1037F000FFFFFFFFFFFFFFFFFF00FF0000FF0000D4
:10380000FFFFFFFF00FFFFFFFFFFFFFFFFFFFFFFC7
:10381000FFFF00FF00FF00FF00FF00FF00FFFFFFB2
:10382000FFFFFFFFFFFFFFFFFF00FF00FF00FF00A4
:1038300000000000FF00FFFFFFFFFFFFFFFFFFFF93
:10384000FFFFFFFF0000FF00FF0000FF00FF00FF81
:10385000FFFFFFFFFFFFFFFFFFFFFF00FFFF00FF76
:103860000000FF00FF00FF000101FFFF00FF00FF5D
:10387000FF0200EAB080B82636174F7C34EAE9FE32
:103880000D2718D7A7A4DC12F7CADDF5285B1BDBD0
:10389000EEFF184952FAADE22B3717EEE9E5E6FAEA
:1038A0000AF5D6E90CFFDAC8F232341709E8D9165E
:1038B000482807FBF404181400E9D8E500FCEDDD06
:1038C000D6001B01F0F3EBF720301C05F8041714A9
:1038D0001713FBF100FFEDE9EEFAFAE3D6E5F30684
:1038E0001D14F0E3F50E27250F05030B1815FDEF4A
:1038F000F2FE0AFBE2E0E9F0FC01F2E7EAFA0D165B
:10390000100603010A16180F0E0C08FEF4F4FBFA59
:10391000F5F2EAE0E9FCFFF7EDEAF90E191A1308EF
:103920000912161206FD040D03FAF1E8EBFBFEF195
:10393000E9E8F0F900FFFDFA030B0E120F0E161E58
:103940000CFAFDFFFF0305F6E1E1F0FCFFF5EBE704
:10395000F3030B0605010412140B050A11100F0ADC
:10396000FEEEF1FFFCF0F0ECE9F2FDF8F1F5FF07F7
:103970000700060F16110B0403030B130BFAEFF0ED
:10398000F4F7FCF4ECEBF3F9FCF8F6FC060A0A0792
:103990000B0E10101006FEFF0401FDF9F4F3F3F511
:1039A000F1EEF1F7FAFCFBFBFE080D0D0905090F1E
:1039B00015100701FEFAFBFFF9F4F5F4F0EFF2F64B
:1039C000F5FAFFFEFE04070509100F0C0C0C0606A5
:1039D0000805FDFBF7EFF0F6F4F1F3F7F7F5FC025D
:1039E0000205070407110E0A0A0A03040604FCF87C
:1039F000FDFCF2F3F6F1F0F7FBF5F7FDFE0106052D
:103A0000080D100808090A060305FDF6FAFEF8F687
:103A1000F7F5F0F4F7F9FAFEFE01030606090B0BC1
:103A200008090905040401F8F8F9F7F3F3F7F6F7C4
:103A3000FAFAF9FBFE0407070305070906090B0656
:103A4000010302FDF8FBFAF6F4F2F3F5F9FCFEFDD2
:103A5000FE0202040709080806060506010100FE29
:103A6000F8F9FAFBF8F6F6F8F6FAFCFCFD020305A5
:103A70000304050B09070603050401FFFBF9F8FA27
:103A8000F6F4F5F8F8FDFBFAFA000407080404055B
:103A90000A0A080403FF000100FAF8FAF8F5F6F83C
:103AA000F7F9FCFDFFFFFF020607070508080605FA
:103AB0000402FEFEFEFDF9F9F6F7F7FAFAF9F8F856
:103AC000FF010504010305090A070503040403FFB8
:103AD000FDFCFBF9F7F6F7F9FBFAFAFAFE00010034
:103AE0000305050707050506050302FFFAFBFCFBB6
:103AF000F7F8F8F8F7F9FAFBFD00FF0003040708F0
:103B000007060404030300FFFEFDFCFBF8F7F9F7CA
:103B1000F7F8FAFAFF01010002040606050505059B
:103B200005040400FEFDFBFCFAF8F7F8F6F9FBFAD1
:103B3000FBFCFF0004050506040606080503020059
:103B4000FFFEFCFBF9F8F7F8F7F9F9FBFCFEFE00C5
:103B500003040305060608050402040300FFFCFB3A
:103B6000FAFAF9F8F7F9FAFAF9FCFE00030303038D
:103B7000050607060502030202FEFDFBFAFAFCF940
:103B8000F8F7F9FBFBFEFEFF00010403060605043F
:103B90000603030100FEFFFEFDF9FAF9F8F8FCFB4D
:103BA000FCFCFE00000104020305070504050303F5
:103BB00002FFFEFCFBFCFAF9FBF8F9F9FCFBFEFE48
:103BC0000001020404060406040603020001FEFFCD
:103BD000FCFCFAF9F8FAF9FAFAFBFCFD000203041E
:103BE00004030605050405020200FFFDFBFCFAF8CC
:103BF000F9F9F8FAFAFDFEFE0000030303040506D6
:103C000005040302020000FEFCFAFCFCF9F9F8FAD4
:103C1000FBFCFCFFFE01020202050505040602038F
:103C2000010100FEFDFCFBFCFBFAFAFAFBFDFCFEC9
:103C3000FDFF01030205030504030402020000FF67
:103C4000FCFDFBFCF9FAFBFAFAFBFDFDFD000002AE
:103C50000203030404050403010101FEFEFCFCFB56
:103C6000FBF9FAFBFAFCFCFEFE0000010102020374
:103C7000030303030200FF00FFFEFDFCFBFCFCFC52
:103C8000FBFCFCFDFE000000000204030304020133
:103C900003010000FEFEFDFDFBFAFAFBFCFCFCFD4F
:103CA000FEFF000101010203030401010101010003
:103CB00000FEFEFDFCFBFBFBFBFCFDFDFDFEFF0033
:103CC0000101020303030302010101FF00FFFDFDE7
:103CD000FDFCFBFBFBFBFDFEFEFFFFFF0002030202
:103CE00002020303020100FF00FFFDFDFCFBFBFBE2
:103CF000FCFCFBFDFDFF00FF0000020303030202CA
:103D0000010101FFFFFFFEFDFCFCFBFBFBFCFDFDD9
:103D1000FDFE000000010103030203020101010096
:103D2000FFFFFFFDFDFDFBFBFCFCFDFCFDFEFF00BE
:103D3000000101020203030201010000FFFFFEFD7A
:103D4000FDFDFDFCFCFCFDFDFDFEFFFF0001010192
:103D50000202020201010000FF00FFFEFDFCFCFC6C
:103D6000FCFCFCFDFEFEFFFFFF0000010202020260
:103D700002010100FFFFFFFEFEFDFDFDFDFDFDFD5B
:103D8000FDFEFFFF00000000020202020100010030
:103D900000FFFFFEFEFEFDFDFCFDFDFDFEFEFFFF44
:103DA00000000001010102020101010000FFFFFF0C
:103DB000FEFDFEFDFDFDFDFDFEFEFEFF000000011F
:103DC00001010101010101000000FFFFFEFEFDFEF7
:103DD000FEFEFEFDFDFEFEFF0000000001010101F0
:103DE0000101010000FF00FFFFFEFEFEFDFDFEFEE3
:103DF000FEFEFEFFFFFF00000001010101010100C6
:103E00000000FFFEFEFEFEFEFDFDFDFEFEFEFEFFCF
:103E1000FFFF00000001010101010100000000FF9F
:103E2000FEFEFEFEFEFEFDFEFEFEFEFFFFFFFF00AD
:103E30000000010101010100000000FFFFFEFEFE85
:103E4000FEFEFDFEFEFEFEFEFFFF00000000010183
:103E500001010100000000FFFFFFFEFEFEFEFEFE6E
:103E6000FEFEFEFFFE00FF0000000000000100005B
:103E7000000000FFFFFFFFFEFEFEFEFEFEFEFFFF56
:103E8000FFFF000000000000000000000000000034
:103E9000FFFFFFFEFEFEFEFEFEFEFFFFFFFF00FF38
:103EA000000000000000000000000000FFFFFFFF16
:103EB000FEFFFEFEFEFFFFFFFF00FFFF0000000011
:103EC00000000000000000FF00FFFFFFFFFFFEFEFC
:103ED000FFFFFFFFFFFFFF000000000000000000E9
:103EE000000000FF00FFFFFFFFFFFEFEFEFEFFFFE2
:103EF000FFFFFF00000000000000000000000000C5
:103F000000FFFFFFFFFFFEFEFEFFFFFFFFFFFF00C2
:103F10000000000000000000000000FF00FFFFFFA5
:103F2000FFFFFFFFFFFFFFFFFFFF00FF000000009C
:103F3000000000000000000000FFFFFFFFFFFFFF88
:103F4000FFFFFFFFFFFFFFFF000000000000000079
:103F500000000000FF00FFFFFFFFFFFFFFFFFFFF6C
:103F6000FFFFFF00FF00000000000000000000FF56
:103F700000FFFFFFFFFFFFFFFFFFFFFFFFFFFFFF50
:103F800000000000000000000000000000FFFFFF34
:103F9000FFFFFFFFFFFFFFFFFFFFFFFF00FF00002E
:103FA0000000000000000000FFFFFFFFFFFFFFFF19
:103FB000FFFFFFFFFFFFFFFF00FF0000000000000A
:103FC000000000FF00FF00FFFFFFFFFFFFFFFFFFFC
:103FD000FFFFFFFFFF00FF0000000000FF00FF00E9
:103FE00000FF00FFFFFFFFFFFFFFFFFFFFFFFFFFDF
:103FF00000FF00FF00FF0000000000FF00FF00FFC7
:10400000FFFFFFFFFFFFFFFFFFFFFFFF00FF00FFBE
:1040100000FF00000000FF00FF00FF00FFFFFFFFA8
:10402000FFFFFFFFFFFFFFFF00FF00FF00FF00009B
:1040300000FF00FF00FF0000FFFFFFFFFFFFFFFF8B
:10404000FFFFFFFFFFFF00FF00FF0000FF00000079
:10405000FF0000FFFFFFFFFFFFFFFFFFFFFFFF006D
:10406000FF00FFFF00FF00000000FF00FF0101FF55
:1040700000FFFFFAE5BCA0BEFB0B022A717D4306E0
:10408000EAE6FB1617F9C2A6D00507FFFAD3A5DBAF
:10409000455A2802ECE6F911242B13E4ED243218DA
:1040A00000E1D5F5232408E5BCBBF62621FEDCC3E0
:1040B000DC1D3415F1DBDE02344834FDCACF113C7F
:1040C0002E10F7E3E1021F0BDFCAD4F81514F6DC5B
:1040D000D0E20C2817FBEAE8F91B311EFCEF0018B0
:1040E000251904F1E5E6001B16F7DFDAE6F2FBFF1F
:1040F000F7F0EDF9050AFFF7F8000D1C2012040097
:10410000060B151807F4EBF40509FDEAE3E7EEFFEB
:1041100006FEE9DCE5FA0D1109FCF90012211C0D7F
:1041200001040F171307F7EBF2FF07FFF7EBE5E7C3
:10413000F400FCECE5EAF9060B09FFF9FD0D1C1F84
:104140001A0AFD000C161206F7F0F0F8FEFCEEE875
:10415000EBF2FD01F9EDE8EEFB090F08FFFC071893
:1041600021190AFEFF0917180CF8EAEFFC0A06F4F9
:10417000E4DEE8F901FCF2EAEDFC0A0E06FBF705C5
:10418000171D1B0D03FE0613170CF9EFF2000905AE
:10419000F4E6E1E8F4FDFAF3EBEEF8040B06FF00B9
:1041A000060F12120E0B08090E0F07FBF6F6FCFEA7
:1041B000FDF7F0EBE8F0F7F8F2F1F3FA0209090580
:1041C0000104090F11100B0707090A0804FEFBFA86
:1041D000F9FAF9F5EFF0F1F3F5F4F3F5F7FE040968
:1041E00009060607090C100A07070806090801FB5B
:1041F000F9F6F8F9F8F4F1F2F3F6F8F8F5F7FBFE52
:10420000040507060808090C09070506060708063D
:10421000FFFAFBF9F8F7F4F1EFF2F6F9FCF8F7F82A
:10422000FD010605030408080C0C09010105080B33
:104230000700FBF9FDFFFDF7F1F0F2F6F9FBF7F5EA
:10424000F7FD020506020003080C0C0D0705050723
:10425000080601FEFCFBFCFBFAF5F1F2F5F7F5F7B9
:10426000F8F9FBFF0204030506080B090A08070911
:1042700008040200FEFDFAFAF9F7F7F6F7F7F7F689
:10428000F8F8FBFBFF0003040506080708090A0805
:104290000606060401FFFBFBF8F9FAF7F5F3F7F859
:1042A000F9F9FAF8FBFC00010504060507080907FF
:1042B00007050402020200FEFCFBF9FAF7F8F8F821
:1042C000F9F7F8FAFAFCFE000100020408080707F3
:1042D00005040504050301FFFF00FEFEFAF9F7F8E7
:1042E000F7F8F7F7F7F9FCFC0001010103060508F0
:1042F0000705060405040501FFFEFEFCFCFCFBFAB5
:10430000F6F6F7F7FAF8FAFBFEFE020303040504DB
:1043100005050604050304050400FFFEFBFCFBFC89
:10432000FAF9F7F8FBFBF9FBFBFEFE0204030301BD
:104330000406070703030304040303FFFEFCFDFE5A
:10434000FCFAF7F6F9FAFCFAFBFAFCFF00040203A8
:1043500003040505060303000304030200FEFFFC3B
:10436000FDFBFBFAF8F9FAFBFCFBFCFDFD0000038A
:104370000201020403060504030201020001FFFD1D
:10438000FAFBFCFBFBFAF8F9FAFDFDFDFBFD000072
:10439000020202010303050603040002020201FFF8
:1043A000FDFCFCFDFCFBFAF8FAFBFCFDFDFCFE004D
:1043B000010302030103030407050301020102FFD5
:1043C000FEFCFBFBFCFCFCFBFCF9FBFBFEFDFDFD2E
:1043D000000103030203020303030302010001FFC0
:1043E00001FFFEFDFBFCFBFCFCFCFBFCFCFEFEFD00
:1043F000FDFFFE01020202020203020402020001AA
:104400000000FFFEFCFCFCFBFDFDFCFBFBFDFEFFDA
:10441000FFFEFF000101030202030204030302FF87
:10442000FFFFFE00FFFEFCFCFCFCFBFDFBFCFDFCBB
:10443000FEFEFFFF00000103020302030101000270
:104440000001FFFFFEFEFDFEFBFDFBFCFCFEFDFD93
:10445000FDFDFE0000010100020201030203010153
:10446000020101FEFFFDFFFDFEFDFDFCFDFDFDFD6A
:10447000FDFDFEFF000000FF00000102030101003E
:104480000100010000FFFEFEFDFEFEFDFDFDFDFD45
:10449000FFFEFDFDFFFFFF00010001010101010121
:1044A000FF0100000000FEFEFDFEFEFEFDFDFCFD26
:1044B000FEFFFEFEFEFFFF00010101000101010100
:1044C0000101FF000000FF00FEFEFEFEFDFDFDFD00
:1044D000FDFDFDFDFEFFFF000000010101010101E6
:1044E000010101000000FF00FFFFFEFEFDFDFDFDDC
:1044F000FEFEFDFEFEFFFFFFFF00000001010101C7
:104500000101010101FF0000FF00FFFEFDFDFDFDB7
:10451000FEFDFDFDFDFEFFFFFF00000001010101AA
:10452000010101010100FF00FF00FFFEFFFDFDFD95
:10453000FEFDFEFDFDFEFDFFFFFFFFFF0000010190
:1045400001010101010101FF00FF00FFFFFEFEFD6F
:10455000FDFDFDFEFDFDFDFEFFFFFFFF0000000174
:10456000010101010101000100FFFF00FFFEFEFD4E
:10457000FDFDFDFEFDFDFEFEFFFFFFFFFF00000055
:1045800000010101010101010000FFFFFF00FFFE2A
:10459000FEFDFDFDFDFDFDFDFEFEFFFFFFFFFFFF3C
:1045A00001010101010001000000FF00FFFFFFFF0A
:1045B000FEFEFDFDFDFEFDFEFEFEFFFFFF00FFFF18
:1045C000FF000000010000000000000000FF00FFED
:1045D000FEFEFEFEFEFEFEFEFEFEFEFEFEFF00FFF7
:1045E00000FF000000000000000000000000FFFFCE
:1045F000FEFEFFFEFEFEFEFEFEFEFEFEFEFEFF00D7
:10460000FF000000000001010000000000000000A9
:10461000FFFFFFFEFEFEFEFEFEFEFEFEFEFEFFFFB5
:1046200000FF00000000000000000000000000FF8C
:1046300000FFFFFFFEFEFEFEFEFEFEFEFEFEFEFE95
:10464000FFFF00FF0000000000010000000000006C
:10465000FF00FFFEFFFEFEFEFEFEFEFEFEFEFFFF73
:10466000FEFFFFFF0000000000000000000000004F
:104670000000FFFFFFFFFFFFFFFFFFFFFFFFFFFF48
:10468000FFFFFFFF00FF000000000000000000002F
:10469000000000FFFFFFFFFFFFFFFFFFFFFEFFFF28
:1046A000FFFFFFFFFFFF00FFFF0000000000000012
:1046B000000000FF00FF00FFFFFFFFFFFFFFFFFF05
:1046C000FFFFFFFFFFFFFF000000000000000000F1
:1046D000000000FF00FFFF00FFFFFFFFFFFFFFFFE5
:1046E000FEFFFFFFFFFFFFFFFF00000000000000D4
:1046F00000000000FF00FF00FFFFFFFFFFFFFFFFC4
:10470000FFFFFFFFFFFFFFFF00FF00FF00FF0000B4
:1047100000000000000000FF0000FFFFFFFFFFFFA0
:10472000FFFFFFFFFFFFFFFFFF00FF000000000093
:104730000000000000000000FF00FF00FFFFFFFF7F
:10474000FFFFFFFFFFFFFFFFFFFF00FF00FF00FF76
:10475000000000000000000000FFFFFFFFFFFFFF60
:10476000FFFFFFFFFFFFFFFFFFFFFFFFFFFF000057
:10477000000000000000000000000000FFFFFFFF3D
:10478000FFFFFFFFFFFFFFFFFFFFFFFFFF00FF0037
:1047900000000000000000000000FF00FF00FFFF1D
:1047A000FFFFFFFFFFFFFFFFFFFFFFFF00FF000016
:1047B000FF00FF0000000000000000FF00FFFFFFFF
:1047C000FFFFFFFFFFFFFFFFFFFFFFFFFFFF00FFF8
:1047D00000FF00FF000000000000000000FF00FFDD
:1047E000FFFFFFFFFFFFFFFFFFFFFFFFFFFFFFFFD9
:1047F000FFFF000000000000000000FF0000FF00BD
:10480000FFFFFFFFFFFFFFFFFFFFFFFFFFFFFFFFB8
:1048100000FF00000000000000000000FF00FF009B
:10482000FF00FFFFFFFFFFFFFFFFFFFFFFFFFF0096
:10483000FFFFFF00FF00FF00FF0000000000FF007F
:10484000FF00FF00FFFFFFFFFFFFFFFFFFFFFFFF76
:10485000FFFF00FF000000FF00FF00000000FF005E
:1048600000FF00FF00FF00FF0001FF01FF0001FF4C
:1048700000FF00FE00FFFFF9E3B9A0B8F00F0C0D38
:1048800035687E6D22E0CEC2D2F61D381DF7C8A66F
:10489000B8B8E42D524501C7AAC40F2F473C11E414
:1048A000C3E5011A3F312B0CCBBCD922544013E590
:1048B000D7D8E2FA061B11E8DDD3E2F409190DFBA3
:1048C000DAD4FE130E0902050304050D17140F07B1
:1048D0000101FF050E0C02EAE3F70D0CF9E7E5EA2A
:1048E000F5F1EEF701FEF6F2F1F6FF070F0F070103
:1048F000FF0A0C08090E16150AFCF6FC03080A0646
:10490000FCEFE8EBF2000302FEF0E1DCE8FF12133B
:1049100004F8F1F6FE0A14171408FDF6F905121D45
:104920001A0DFEF3F6FD030402FCF4EAE7EDF801CC
:1049300002FDF5F0F2F6FCFCFAF8FCFF070C0D099D
:1049400006060507070B0E100902FEFC000101FB1D
:10495000F3F0F1F6F8FAF6F4F6F9F9F6F4F7FE02E8
:10496000030000FDFDFF060E11130D0802010208F1
:104970000C090300F7F6FB000600FCF5F1F0F0F37C
:10498000FB00FFFAF0F0F3FB050B0D0802FCFE0044
:10499000091012110A04FDFE02070A06FFF5F3F7DB
:1049A000FBFDFAF9F9F6F3F5F4F7F8F7FBFBFCFD7C
:1049B000FF00020104090906040508090A070704A3
:1049C00001FF02020301FCF9F6F6F5F7F8F9F5F636
:1049D000F3F3F6FC00FDFBF8FC01070808090707E4
:1049E0000607090D0C090700FEFF01060200FCF78F
:1049F000F5F2F7FDFCFBF4F0F1F4FCFE0301FCFC26
:104A0000F9FE050B0E0B080304060A0C090601FE4D
:104A1000FDFF0003FFFFFCFAF8F8FAFBF9F6F3F1EB
:104A2000F4F8FC00FEFDFCFF00040307070601FF8D
:104A3000010509080906050203040101FEFFFAF752
:104A4000F6F8F8FAF8F8F6F5F7F8FBFBFBFCFD00D2
:104A500000FF020408090907050707070905050201
:104A6000020000FFFDFCFCF8F8F7F9F9F9F9F6F996
:104A7000F9FBFCFCFDFEFF00FF0101040506050734
:104A8000050606070907050100FFFEFDFF00FEF908
:104A9000F6F3F6F8FCFCF9F8F6FAFCFCFFFD00FF73
:104AA00000FF0003070708060406050604060403C2
:104AB0000200FDFDFBFDFBFAFAF6F7F5F9F9FAFA4B
:104AC000FAFAFCFBFEFF02020203020304060707D8
:104AD000050403050504040201FEFEFDFBFAFAFDD0
:104AE000FDFBF8F7F7FBFBFCFBFBFCFBFCFDFF040D
:104AF0000504040303050607060404030202040375
:104B000001FEFEFCFAFBFAFBFBF9F9F7F9FAFBFDF3
:104B1000FFFDFDFCFDFE0000030204030403050588
:104B2000060603040100010001FEFDFCFBFBFAFB8D
:104B3000FAFCFBF9F7F7F9FBFDFFFEFEFEFE0000B5
:104B4000040605050304040305050603020201FF2C
:104B500000FEFFFDFDFAFBFAFAFAFAF9FAFBFAFC9D
:104B6000FCFDFEFE00FF0202020303040203040533
:104B70000505040202010000FF00FCFCFAFAF8FA45
:104B8000FAFBFCFAFAF9FAFBFCFEFF0000FF000159
:104B9000020405060504030303030402030100FEE7
:104BA000FEFDFEFCFCFBFBFAF9F9F9FCFBFCFCFC4E
:104BB000FBFCFEFF000101030203050505050604D9
:104BC000040402020000FFFFFFFDFDFDFCFCFAFAF9
:104BD000F9FAFAFBFCFBFCFCFCFEFF000100010102
:104BE000010303040605040402020102020301FE9C
:104BF000FEFBFCFBFCFBFCFCFAFBFBFCFBFCFCFCFB
:104C0000FEFEFDFFFF02020302030203040405048B
:104C100003030201010000FFFFFDFDFDFCFDFCFBA5
:104C2000FCFBF9FCFBFDFCFDFDFFFD00FF000202AB
:104C300003020404030503040202020000FFFEFF56
:104C4000FEFEFDFCFCFDFDFBFCFAFAFAFDFCFDFDA1
:104C5000FEFF00FFFF02020202030103040404033B
:104C600003010001FF00FF00FEFDFCFCFDFDFDFC5B
:104C7000FBFBFAFCFDFDFDFEFE00FF000101010251
:104C80000101020303040201010100010000FFFE13
:104C9000FDFDFDFDFCFDFCFCFBFBFCFCFDFEFEFE4A
:104CA000FF00FF00010102010101010203020201F4
:104CB000010100010000FFFFFEFDFDFDFCFCFCFC0E
:104CC000FCFCFDFCFDFDFEFFFFFF00FF00010102FB
:104CD0000202030102020101010000000000FFFFC7
:104CE000FDFDFDFCFCFCFCFDFCFDFDFDFDFDFEFFF6
:104CF000FF000000000101020203020101010201A4
:104D0000010100FFFFFFFEFEFEFDFDFDFCFBFCFBC5
:104D1000FCFDFCFDFDFEFFFFFF00000000010102A5
:104D2000020201020201020101000000FFFFFFFD7B
:104D3000FEFDFDFCFCFCFCFCFDFDFDFDFDFFFFFFA1
:104D40000000000000010101010202020201010154
:104D500001000000FFFFFEFDFEFDFDFDFCFDFCFC73
:104D6000FCFDFEFEFEFEFEFFFF0000000001010054
:104D700001010102020101000000FFFF00FFFEFE31
:104D8000FEFDFDFDFDFDFDFDFDFDFDFEFEFEFF004A
:104D9000FF00000000000101020202020100010008
:104DA00000000000FFFFFEFEFEFDFEFDFDFDFDFD1F
:104DB000FDFDFDFEFEFFFF00FF0000000001000101
:104DC0000001010101010000FF00FF00FFFFFEFEE6
:104DD000FEFEFEFDFEFEFDFEFEFEFEFEFEFF00FFF1
:104DE00000000000000000010101010101000000BD
:104DF00000FF0000FFFFFEFEFEFEFEFEFEFEFDFECB
:104E0000FEFEFEFEFE00FF00FF00000000000101AC
:104E10000101000000000000FF00FFFFFFFFFEFE99
:104E2000FEFEFEFEFEFEFEFEFEFEFEFFFFFFFF009C
:104E3000FF0000000001000101010100000000006E
:104E4000FFFFFFFFFEFFFEFEFEFEFEFDFEFEFEFE7E
:104E5000FEFEFEFEFF000000FF000000000100005B
:104E600001000100000000000000FFFFFFFFFFFE47
:104E7000FFFFFFFEFFFEFFFFFFFFFFFFFFFFFF0043
:104E80000000000000000000000000000000FF0023
:104E9000FFFFFFFFFFFFFFFFFFFFFFFFFEFFFFFF23
:104EA000FFFFFFFFFF00FF00000000000000000008
:104EB000000000000000000000FFFFFFFFFFFFFFF9
:104EC000FFFFFFFEFFFFFFFFFFFFFFFF00FF0000F0
:104ED000000000000000000000000000000000FFD3
:104EE000FFFFFFFFFFFFFFFFFFFFFFFEFFFFFFFFD3
:104EF000FFFFFFFFFF0000000000000000000000B7
:104F00000000000000000000FFFFFFFFFFFFFFFEAA
:104F1000FFFFFFFFFFFFFFFFFFFFFF0000FF00FF9E
:104F20000000000000000000000000000000000081
:104F3000FFFFFFFFFFFFFFFFFFFFFFFFFFFFFFFF81
:104F4000FFFFFFFFFFFF0000000000000000000067
:104F50000000000000000000FFFFFFFFFFFFFFFF59
:104F6000FFFFFFFFFFFFFFFFFFFFFFFF00FF00FF4F
:104F7000000000000000000000000000000000FF32
:104F800000FFFFFFFFFFFFFFFFFFFFFFFFFFFFFF30
:104F9000FF00FF00FF000000000000000000000014
:104FA0000000000000FF00FFFFFFFFFFFFFFFFFF0B
:104FB000FFFFFFFFFFFFFFFFFFFFFF00FFFF0000FE
:104FC00000000000000000000000000000FFFFFFE4
:104FD000FFFFFFFFFFFFFFFFFFFFFFFFFFFFFFFFE1
:104FE00000FFFFFFFF00FF00FF000000FF00FF00C9
:104FF0000000FF000000FFFFFFFFFFFFFFFFFFFFBC
:10500000FFFFFFFFFFFFFFFF00FF00FF00FF0000AB
:10501000FF00000000FF000000FF00FF00FF00FF96
:10502000FFFFFFFFFFFFFFFFFFFFFFFFFFFFFFFF90
:10503000FFFF00000000FF0000000000FF00000074
:10504000FF0000000000FF00FFFFFFFFFFFFFFFF6A
:10505000FFFFFFFFFFFFFFFFFFFFFFFF00FF00005D
:105060000000FF00FF00FF00FFFFFF00FFFF01FF48
:105070000000FE0100FF02FDEBBE9DC8243C00E1E4
:1050800007475F593FFED4B7A7E33B5B3CF3AA82D7
:105090009AE0417B44EDCBC2C6EB1F494806C6BF30
:1050A000DAF724453F16D1B2D8062436371BEACDAD
:1050B000F115140C0A130CE0CFE4000B11110CEFE6
:1050C000D2D7F70808020E09E7DBED020E14191C0F
:1050D00003E1D9F31222221804E7E0F215251B0B95
:1050E000FDE2D0E1071D1C05F2DFD7E3051E1C0021
:1050F000E4DFEAF602141402F3F60105070C0E0AC7
:1051000000FF080B04FF030C0C0400FEFCF5F70184
:10511000080400F8EEE8EC000D0AF5E4E5F0FC0800
:10512000120E00F1F2FB060E121001F2F4FF0D1345
:10513000151003FDFA00070802F9F7F5F6FAFFFC6F
:10514000F8F4F2F7F7F9FCFCF9F9FB00FFFAF8FCC8
:1051500003060607060102050A0B0E0E0903FE00F0
:10516000050906FEFAF7F5F7FE0000FEF5F2F1F488
:10517000F90000F9F2EFF6FE05080801FDFE01074F
:105180000A0E0C0602FF01090D0E09050100FEFBC7
:10519000FCFBFEFF00FBF4F3F2F5FAFEFDFDF5ED7E
:1051A000EEF3FF080A0300F9FB01080B0F0D05FCE5
:1051B000FBFF0910100C02FBF7FC020505FFF8F3DA
:1051C000F2F3F80100FBF7F6EFF1F5FDFF02FEFA4E
:1051D000FBF9FF060A08090502000103090D0B0B84
:1051E00006FFFE0006070600FAF5F5F6FBFCFBFBE2
:1051F000F8F7F4F2F6FCFEFDFBF8FBFAFD000606FC
:10520000070404030508090A0908080404FF000448
:105210000702FEFDF7F9F8FBFBFEFBF8F5F4F2F4EC
:10522000FAFE00FBF8F5F8FB0207090502FE000094
:1052300005070C0D08030000070B0C0A03FCF5F929
:10524000FBFDFF00FEF6F1F0F6F9FDFFFBF7F3F1D1
:10525000F4FA0204060502FF0004070C0B0906001D
:10526000FF00060A0B0A03FDF9FBFE0201FFFEF830
:10527000F1F3F7FBFFFFF9F6F1F0F4000300FFFB99
:10528000FBFB00060B0D080501FE00050A0D0B05D2
:1052900001FFFF01040501FEF9F6F8F9FAFBFCF93C
:1052A000F7F5F3F5F9FFFFFEF9F8FAFE0005080738
:1052B000050301040306080A0704030005040505A5
:1052C00002FFFAFAFAFBFCFBFAF9F8F5F7FAFBF938
:1052D000FBF8F7F7FAFC01000200020204060707D8
:1052E0000806060503050607060302FEFEFEFFFF8D
:1052F000FDFDFAF9F7F8F9F9FAF9FBF7F8F9FBFB14
:10530000FCFFFEFE0001040305040405040403067B
:105310000607050503020000FFFFFFFDFCFAF9F98F
:10532000FAFBFCFBF8F7F6F8F9FBFCFFFDFDFE00CD
:105330000204060704020203060707070504020128
:105340000304060200FEFCFBFAFBFAFBFAFBF8F78B
:10535000F8F8FBFCFBFCFBFBFBFDFF020304040174
:105360000002050807070604020103040504020001
:10537000FCFCFCFCFFFCFCF9F9F7F8F9FCFCFCFB7D
:10538000F7F9FAFDFE00FF00FF0102030306050620
:105390000502040404040503010201FEFEFDFFFFF3
:1053A000FBFAFAF8FAFAFCFCFAFAF8F9FAFCFDFF53
:1053B000FFFF00FE010202050406040303030504C7
:1053C00005040301010000FE00FEFEFCFBF8FAFAF2
:1053D000FCFBFCFAFAF9FAFCFBFDFF00FEFEFD0007
:1053E000000305050403010302040605030102018D
:1053F000030101FEFFFCFCFBFBFAFCFCFBFAF8F9E5
:10540000FBFCFDFCFDFBFCFCFF00FF0202030203B2
:105410000302040305060403020302030202FFFF62
:10542000FCFCFCFDFDFDFCFDFAFAF9FBFCFDFDFCBE
:10543000FDFBFCFDFFFF0102010201020305040464
:105440000203030202020102FFFFFFFFFEFFFEFD57
:10545000FCFCFAFAFAFDFCFCFBFCFBFBFDFCFEFF8E
:10546000FF00000200020303020303030303010120
:105470000202010000FFFFFEFEFDFDFDFCFBFBFC48
:10548000FBFCFCFDFDFCFDFDFEFEFEFF000001003F
:1054900001010102020203020201020101010100F5
:1054A000FFFFFF00FEFDFDFCFCFCFBFCFDFDFDFC29
:1054B000FCFCFDFEFFFFFFFF00FF010101010202F6
:1054C00002020101020301010100000100FFFFFFD0
:1054D000FEFDFDFDFCFCFCFCFCFDFCFDFDFDFDFD01
:1054E000FEFE0000FF0000010102020201010202B3
:1054F0000301010100000000FF0000FDFDFCFDFDB7
:10550000FDFDFCFCFCFCFCFDFDFEFDFEFFFE0000C5
:10551000000101010101020202010101010100017A
:1055200000010000FFFFFFFFFEFDFDFDFDFCFDFC97
:10553000FDFDFDFDFDFDFEFEFFFFFF00FF00000184
:105540000101010101010101020100000000000050
:10555000FFFFFEFEFEFDFEFDFDFCFDFDFDFDFDFD74
:10556000FEFEFEFE00FFFF00FF0000000101010142
:1055700001010100000001000000FF00FFFFFEFE2E
:10558000FEFEFDFDFDFDFDFEFDFDFEFEFEFFFEFF40
:10559000FFFF000000000000010100000000010109
:1055A00001000000FF00FFFFFFFFFEFEFEFEFEFE0B
:1055B000FDFEFEFDFDFEFEFEFEFFFE00FF00FF0005
:1055C000FF000000000100000100000000000000DA
:1055D0000000FF00FFFFFFFEFEFEFEFEFEFEFEFEE1
:1055E000FEFEFEFEFFFFFFFFFF0000FF00000001C8
:1055F000000000000000000000FF0000FF0000FFAE
:10560000FEFEFEFEFEFEFEFEFEFEFEFEFEFEFEFFB9
:10561000FEFFFF00FF00FF0000000000010000008F
:105620000000000000000000FFFFFFFFFFFFFEFE84
:10563000FEFEFEFEFEFEFEFEFEFEFEFFFEFFFFFF86
:10564000FFFF00000000000100000000000000005B
:105650000000FF00FFFFFFFFFFFFFFFEFEFEFEFE5C
:10566000FEFEFFFEFFFEFFFFFFFFFFFFFF0000004B
:10567000000000000000000000000000000000FF2B
:1056800000FFFFFFFFFFFFFFFFFFFFFFFFFFFFFF29
:10569000FFFFFFFF00FF00000000FF000000000010
:1056A0000000000000FF00FF00FF00FF00FFFFFF01
:1056B000FFFFFFFFFFFFFFFFFFFFFFFFFFFFFFFFFA
:1056C000FFFF00FF00FF000000000000000000FFDF
:1056D000000000FF00FFFFFFFFFFFFFFFFFFFFFFD6
:1056E000FFFFFFFFFFFFFFFFFFFFFF00FF00FF00C7
:1056F00000FF00000000000000FF00FF000000FFAE
:1057000000FFFFFFFFFFFFFFFFFFFFFFFFFFFFFFA8
:10571000FFFFFFFFFF0000FF00FF0000000000FF91
:1057200000000000FF00000000FF00FF0000FFFF7E
:1057300000FFFFFFFFFFFFFFFFFFFFFFFFFFFFFF78
:10574000FFFFFF00FF00FF00000000FF000000005F
:1057500000FF000000FF00FF00FFFFFFFFFFFFFF53
:10576000FFFFFFFFFFFFFFFFFF00FFFFFF00FF0046
:105770000000FF00FF00FF000000FF0000FF00FF2F
:1057800000FF00FFFFFFFFFFFFFFFFFFFFFFFFFF27
:10579000FFFFFFFFFFFFFFFFFFFF0000FF00FF0015
:1057A000FF000000FF00FF0000FF0000FF00FF00FF
:1057B000FFFFFFFFFFFFFFFFFFFFFFFFFFFFFFFFF9
:1057C000FFFF00FF00FF00FF00FF00FF00FF00FFE2
:1057D00000FF00FF00FF00FF0000FFFFFFFFFFFFD3
:1057E000FFFFFFFFFFFFFFFFFFFFFFFFFFFF00FFC8
:1057F00000FF00FF00FF00FF00FF0000FF00FF00B0
:1058000000FF00FF0000FFFFFFFFFFFFFFFFFFFFA4
:10581000FFFFFFFFFFFF00FFFFFFFFFFFF00FFFF96
:10582000FF0000000000000000FF00FFFF00FFFF7E
:10583000FFFFFF00FFFFFFFFFFFFFFFFFFFFFFFF77
:10584000FFFFFFFF0000FF00FF00FF00FFFF00FF62
:105850000000FF0000FF00FF00FF00FF00FFFFFF50
:10586000FFFFFF00FFFF00FF010000020000030038
:105870000400050000000800020100000304070006
:105880000000000000000001020408102040800118
:105890000204081020010204081020040404040477
:1058A00004040402020202020203030303030300CE
:1058B000000000250028002B000000000024002725
:1058C000002A00001F2EB22F8630B33311241FBED2
:1058D000CFEFD8E0DEBFCDBF11E0A0E0B1E0ECE358
:1058E000FEE602C005900D92A633B107D9F724E079
:1058F000A6E3B1E001C01D92AC39B207E1F718E5AB
:10590000CCECD8E504C02297FE010E941837C43CB5
:10591000D107C9F70E94F7330C941C370C94000090
:10592000CF93EAE3F1E080E090E0A1E0B0E02FB7B0
:10593000F89484839583A683B7832FBF739621E061
:10594000E337F207A1F7C09116016C2F70E080E0F9
:1059500090E00E94C23520918701309188014091EA
:10596000890150918A010E9450360E9496356093B9
:10597000830170938401809385019093860186E072
:10598000C89FB001112480E090E00E94C2352091B0
:105990007B0130917C0140917D0150917E010E94FC
:1059A00050360E949635609377017093780180930A
:1059B000790190937A0180E490E0CF910C94F82ED5
:1059C0006FEF80E50C94F2300F931F930E949F2F8E
:1059D00000917F011091800120918101309182011D
:1059E000601771078207930708F449C000913601D8
:1059F00010E00E94E02CF801E95CFE4F80838BE010
:105A00000E940631E091360193E1E99FF0011124F3
:105A1000E65CFE4FA82FB0E0AA0FBB1FA050BF4FFF
:105A20008D919C91918780872FB7F8948385948579
:105A3000A585B68580839183A283B3832FBF809190
:105A400036018F5F833019F08093360102C01092C7
:105A500036010E949F2F00918301109184012091B3
:105A6000850130918601600F711F821F931F609323
:105A70007F017093800180938101909382010E9445
:105A80009F2F009173011091740120917501309145
:105A90007601601771078207930708F449C00091E7
:105AA000360110E00E94E02CF801E95CFE4F808393
:105AB0008BE00E940631E091360193E1E99FF0010D
:105AC0001124E65CFE4FA82FB0E0AA0FBB1FA05028
:105AD000BF4F8D919C91918780872FB7F8948385D4
