:100000000C9466040C948E040C948E040C948E0450
:100010000C948E040C948E040C948E040C948E0418
:100020000C948E040C948E040C948E040C948E0408
:100030000C948E040C9412060C9479090C948E0482
:100040000C94430B0C948E040C94660A0C94980A3E
:100050000C948E040C94CD070C948E040C948E0496
:100060000C9491080C948E0400000001010102021E
:100070000303030404050505060607070708080926
:1000800009090A0A0A0B0B0C0C0C0D0D0E0E0E0FB3
:100090000F1010101111121212131313141415153E
:1000A00015161617171718181819191A1A1A1B1BCC
:1000B0001C1C1C1D1D1D1E1E1F1F1F20202021215A
:1000C00022222223232424242525252626272727E8
:1000D00028282829292A2A2A2B2B2B2C2C2C2D2D79
:1000E0002E2E2E2F2F2F303030313132323233330B
:1000F000333434343535363636373737383838399F
:1001000039393A3A3A3B3B3B3C3C3D3D3D3E3E3E35
:100110003F3F3F40404041414142424243434344CC
:100120004444454545464646474747484848494967
:10013000494A4A4A4A4B4B4B4C4C4C4D4D4D4E4E06
:100140004E4F4F4F4F5050505151515252525353A6
:10015000535354545455555555565656575757574B
:10016000585858595959595A5A5A5B5B5B5B5C5CF1
:100170005C5C5D5D5D5E5E5E5E5F5F5F5F6060609C
:10018000606161616162626262636363636464644B
:1001900064656565656666666667676767676868FC
:1001A000686869696969696A6A6A6A6B6B6B6B6BB3
:1001B0006C6C6C6C6C6D6D6D6D6D6E6E6E6E6E6F6D
:1001C0006F6F6F6F7070707070717171717171722B
:1001D00072727272737373737373747474747474ED
:1001E00075757575757575767676767676777777B3
:1001F0007777777777787878787878787979797980
:10020000797979797A7A7A7A7A7A7A7A7A7B7B7B4F
:100210007B7B7B7B7B7B7B7C7C7C7C7C7C7C7C7C25
:100220007C7C7D7D7D7D7D7D7D7D7D7D7D7D7D7EFF
:100230007E7E7E7E7E7E7E7E7E7E7E7E7E7E7E7EDE
:100240007F7F7F7F7F7F7F7F7F7F7F7F7F7F7F7FBE
:100250007F7F7F7F7F7F7F7F7F7F7F7F7F7F7F7FAE
:100260007F7F7F7F7F7F7F7F7F7F7F7F7F7F7F7F9E
:100270007F7F7F7F7F7F7F7F7F7F7F7F7F7F7F7F8E
:100280007F7F7F7F7F7F7F7F7F7F7F7F7F7F7F7F7E
:100290007F7E7E7E7E7E7E7E7E7E7E7E7E7E7E7E7D
:1002A0007E7E7D7D7D7D7D7D7D7D7D7D7D7D7D7C7D
:1002B0007C7C7C7C7C7C7C7C7C7C7B7B7B7B7B7B84
:1002C0007B7B7B7B7A7A7A7A7A7A7A7A7A7979798D
:1002D000797979797978787878787878777777779D
:1002E00077777776767676767676757575757575B1
:1002F00075747474747474737373737373727272C9
:10030000727271717171717170707070706F6F6FE6
:100310006F6F6E6E6E6E6E6D6D6D6D6D6C6C6C6C08
:100320006C6B6B6B6B6B6A6A6A6A6A69696969682C
:100330006868686767676767666666666565656556
:100340006464646463636363626262626161616185
:10035000606060605F5F5F5F5E5E5E5E5D5D5D5CB6
:100360005C5C5C5B5B5B5B5A5A5A595959595858EB
:100370005857575757565656555555555454545324
:100380005353535252525151515050504F4F4F4F5F
:100390004E4E4E4D4D4D4C4C4C4B4B4B4A4A4A4A9F
:1003A00049494948484847474746464645454544E0
:1003B00044444343434242424141414040403F3F25
:1003C0003F3E3E3E3D3D3D3C3C3B3B3B3A3A3A396D
:1003D00039393838383737373636363535343434B6
:1003E00033333332323231313030302F2F2F2E2E03
:1003F0002E2D2D2C2C2C2B2B2B2A2A2A2929282850
:10040000282727272626252525242424232322229E
:100410002222212120201F1F1F1E1E1D1D1D1C1CEE
:100420001C1B1B1A1A1A1919181818171717161641
:100430001515151414131313121212111110101094
:100440000F0F0E0E0E0D0D0C0C0C0B0B0A0A0A09E9
:10045000090908080707070606050505040403033C
:100460000302020101010000FFFFFFFEFEFEFDFD91
:10047000FCFCFCFBFBFAFAFAF9F9F8F8F8F7F7F6E6
:10048000F6F6F5F5F5F4F4F3F3F3F2F2F1F1F1F039
:10049000F0EFEFEFEEEEEDEDEDECECECEBEBEAEA8E
:1004A000EAE9E9E8E8E8E7E7E7E6E6E5E5E5E4E4E0
:1004B000E3E3E3E2E2E2E1E1E0E0E0DFDFDFDEDE32
:1004C000DDDDDDDCDCDBDBDBDADADAD9D9D8D8D884
:1004D000D7D7D7D6D6D6D5D5D4D4D4D3D3D3D2D2D2
:1004E000D1D1D1D0D0D0CFCFCFCECECDCDCDCCCC21
:1004F000CCCBCBCBCACAC9C9C9C8C8C8C7C7C7C66D
:10050000C6C6C5C5C5C4C4C4C3C3C2C2C2C1C1C1B5
:10051000C0C0C0BFBFBFBEBEBEBDBDBDBCBCBCBBFE
:10052000BBBBBABABAB9B9B9B8B8B8B7B7B7B6B643
:10053000B6B5B5B5B5B4B4B4B3B3B3B2B2B2B1B184
:10054000B1B0B0B0B0AFAFAFAEAEAEADADADACACC4
:10055000ACACABABABAAAAAAAAA9A9A9A8A8A8A8FF
:10056000A7A7A7A6A6A6A6A5A5A5A4A4A4A4A3A339
:10057000A3A3A2A2A2A1A1A1A1A0A0A0A09F9F9F6E
:100580009F9E9E9E9E9D9D9D9D9C9C9C9C9B9B9B9F
:100590009B9A9A9A9A9999999998989898989797CE
:1005A00097979696969696959595959494949494F7
:1005B000939393939392929292929191919191901D
:1005C000909090908F8F8F8F8F8E8E8E8E8E8E8D3F
:1005D0008D8D8D8D8C8C8C8C8C8C8B8B8B8B8B8B5D
:1005E0008A8A8A8A8A8A8A89898989898989888876
:1005F000888888888887878787878787868686868A
:100600008686868685858585858585858584848499
:1006100084848484848484838383838383838383A3
:1006200083838282828282828282828282828281A9
:1006300081818181818181818181818181818181AA
:1006400080808080808080808080808080808080AA
:10065000808080808080808080808080808080809A
:10066000808080808080808080808080808080808A
:10067000808080808080808080808080808080807A
:10068000808080808080808080808080808080806A
:10069000808181818181818181818181818181814B
:1006A000818182828282828282828282828282832B
:1006B0008383838383838383838384848484848404
:1006C00084848484858585858585858585868686DB
:1006D00086868686868787878787878788888888AB
:1006E000888888888989898989898A8A8A8A8A8A78
:1006F0008A8B8B8B8B8B8B8C8C8C8C8C8C8D8D8D3F
:100700008D8D8E8E8E8E8E8E8F8F8F8F8F90909000
:1007100090909191919191929292929293939393BE
:100720009394949494949595959596969696969779
:100730009797979898989898999999999A9A9A9A30
:100740009B9B9B9B9C9C9C9C9D9D9D9D9E9E9E9EE1
:100750009F9F9F9FA0A0A0A0A1A1A1A1A2A2A2A390
:10076000A3A3A3A4A4A4A4A5A5A5A6A6A6A6A7A73B
:10077000A7A8A8A8A8A9A9A9AAAAAAAAABABABACE2
:10078000ACACACADADADAEAEAEAFAFAFB0B0B0B087
:10079000B1B1B1B2B2B2B3B3B3B4B4B4B5B5B5B527
:1007A000B6B6B6B7B7B7B8B8B8B9B9B9BABABABBC6
:1007B000BBBBBCBCBCBDBDBDBEBEBEBFBFBFC0C061
:1007C000C0C1C1C1C2C2C2C3C3C4C4C4C5C5C5C6F9
:1007D000C6C6C7C7C7C8C8C8C9C9C9CACACBCBCB90
:1007E000CCCCCCCDCDCDCECECFCFCFD0D0D0D1D123
:1007F000D1D2D2D3D3D3D4D4D4D5D5D5D6D6D7D7B6
:10080000D7D8D8D8D9D9DADADADBDBDBDCDCDDDD46
:10081000DDDEDEDEDFDFE0E0E0E1E1E2E2E2E3E3D5
:10082000E3E4E4E5E5E5E6E6E7E7E7E8E8E8E9E963
:10083000EAEAEAEBEBECECECEDEDEDEEEEEFEFEFF0
:10084000F0F0F1F1F1F2F2F3F3F3F4F4F5F5F5F67B
:10085000F6F6F7F7F8F8F8F9F9FAFAFAFBFBFCFC08
:10086000FCFDFDFEFEFEFFFF010000020000030094
:100870000400050000000800020100000304070056
:100880000000000000000001020408102040800168
:1008900002040810200102040810200404040404C7
:1008A000040404020202020202030303030303001E
:1008B000000000250028002B000000000024002775
:1008C000002A0000B4050E07FF07C80A11241FBE46
:1008D000CFEFD8E0DEBFCDBF11E0A0E0B1E0E6EAA7
:1008E000FAE102C005900D92A831B107D9F725E0D1
:1008F000A8E1B1E001C01D92AE39B207E1F718E0FE
:10090000CCECD8E004C02297FE010E944D0DC43CFF
:10091000D107C9F70E940C0B0C94510D0C940000E8
:10092000809104019091050190938C0280938B0239
:1009300080E490E00C9467060C94EB052FB7F894D4
:10094000AB01662757FD6095762F3DE0440F551F9C
:10095000661F771F3A95D1F7FC0144835583668360
:1009600077832FBF0895CF92DF92EF92FF920F937C
:100970001F93CF93DF9380E00E949D074AE5C42E2A
:1009800041E0D42ED601CD91DC915CE5E52E51E01D
:10099000F52EFE01EE0FFF1FE65EFE4F0081118176
:1009A000222717FD2095322FD7014D915D916D9132
:1009B0007C911397401B510B620B730B8C01222708
:1009C00017FD2095322F400F511F621F731F4D934B
:1009D0005D936D937C931397918380832196CF7160
:1009E000DD27F601D183C083BA010090600102C007
:1009F000759567950A94E2F7709319016093180151
:100A00008FE791E00E949E04209118013091190116
:100A1000C9E8D2E08881998101968F7799279983D7
:100A2000888340918B0250918C02FC01E41BF50BF2
:100A3000EF77FF27DC01AA0FBB1FA757BE4F2D93EF
:100A40003C93EE0FFF1FE757FE4F6081718185E7F2
:100A500091E00E949E04E881F981809102019091C9
:100A60000301E81BF90BEF77FF27EE0FFF1FE75796
:100A7000FE4F608171818BE691E00E949E04E881C7
:100A8000F9818091000190910101E81BF90BEF774A
:100A9000FF27EE0FFF1FE757FE4F6081718181E650
:100AA00091E0DF91CF911F910F91FF90EF90DF9038
:100AB000CF900C949E040F931F93FC0144815581A9
:100AC000668177810081118122813381400F511F1E
:100AD000621F731F4083518362837383CB019770BE
:100AE0000084F185E02DE80FF91F84911F910F918B
:100AF00008951F93CF93DF938FE791E00E945B05EA
:100B0000182F85E791E00E945B05C82FDD27C7FD00
:100B1000D095C10FD11D17FDDA958BE691E00E94AB
:100B20005B05992787FD909595958795C80FD91FE7
:100B300081E691E00E945B05282F332727FD309541
:100B400035952795359527952C0F3D1FC901880FA1
:100B5000991F820F931F53E0959587955A95E1F75A
:100B6000DF91CF911F91089510928A02109289020D
:100B700088E690E0909388018093870190937E01AE
:100B800080937D01909374018093730190936A0127
:100B90008093690110925B0110925A0110925C01DE
:100BA00010925D0110925E0110925F0160E270E0B0
:100BB00080E090E00E94060860936001EAE1F1E0C5
:100BC0001192119281E0EA35F807D1F708950E9459
:100BD000B3040C94930790919E0480919D04981304
:100BE00006C09091A00480919F0498131AC00E949F
:100BF000790520919E04E22FF0E0EE0FFF1FE356EF
:100C0000FD4F8C509F4F918380832F5F20939E04D4
:100C1000211107C08091A00491E089278093A0044E
:100C2000089508951F920F920FB60F9211242F93DB
:100C30003F938F939F93AF93BF93EF93FF938091D5
:100C40009D04E82FF0E0EE0FFF1FE356FD4F2081DB
:100C500031818F5F80939D04811119C080919F0421
:100C600091E0892780939F048091A1049091A20430
:100C7000A091A304B091A4040196A11DB11D80937D
:100C8000A1049093A204A093A304B093A404C90167
:100C9000E3E0880F991FEA95E1F790672A989EBDD7
:100CA0000DB407FEFDCF9EB58EBD0DB407FEFDCF82
:100CB0008EB52A9AFF91EF91BF91AF919F918F913D
:100CC0003F912F910F900FBE0F901F901895CF93CB
:100CD000DF93EC010E94AF0981E00E94C50980E02A
:100CE0000E94580784B580939C0285B580939B022F
:100CF00087B580939A0280916E00809399029E013D
:100D000040E050E060E472E48FE090E00E940A0D61
:100D1000DA01C90140E067EE75E00E941E090E94F9
:100D2000730984B58093940285B58093930287B547
:100D30008093920280916E00809391028091800056
:100D4000809398028091810080939702809188001F
:100D5000909189008093960280916F008093950214
:100D600061E089E00E94F709C1E0C093F00480E1EE
:100D70008093F1041092F20480938100109280001D
:100D800088EE91E0A0E0B0E0C093EB049093ED0416
:100D90008093EC04909387008093860081E1809398
:100DA000810061E089E00E94F709809180009091C4
:100DB000F204892B8068809380002091EC043091AC
:100DC000ED04A4EFB0E00E94290DBAE09695879556
:100DD00077956795BA95D1F77093890060938800ED
:100DE0008091EB049091F104892B80938100C09352
:100DF0006F008091800080939002809181008093A9
:100E00008F02809188009091890080938E0280915A
:100E10006F0080938D02DF91CF91089510929D0411
:100E200010929E0410929F041092A00408958111C4
:100E300009C080917A00846080937A0080917A0062
:100E40008D7F1AC0813071F480917A008B7F8093FE
:100E50007A0080917A00826080937A0080917A0093
:100E600081600FC0823079F480917A008B7F80930B
:100E70007A0080917A00826080937A0080917A0073
:100E80008E7F80937A00089580E090E041E050E00A
:100E900060917E009A01082E01C0220F0A94EAF7A1
:100EA000622B60937E0001968830910589F7089542
:100EB000EAE7F0E09081986090830E9417070C9415
:100EC00044078770806480937C00EAE7F0E08081CB
:100ED000806480830895CF93DF931F92CDB7DEB7F0
:100EE0008091AD049091AE048F3F2FEF920761F097
:100EF000FC01EB55FB4F2081298301979093AE04B1
:100F00008093AD04898101C08FEF809307018091A8
:100F100007018F3F21F0809107010E9461070F9028
:100F2000DF91CF910895809107018F3F29F40E94AE
:100F30006B0781E08093060108958E3008F08E5093
:100F40002091AD043091AE042730310554F42F5F69
:100F50003F4F3093AE042093AD04F901EB55FB4FA6
:100F60008083E82FF0E0EE0FFF1FE155FB4F8081FB
:100F700091810895EAE7F0E080818064808308959C
:100F8000E09107018091780090917900EE0FFF0BBE
:100F9000E155FB4F9183808308951F920F920FB606
:100FA0000F9211242F933F934F935F936F937F93EF
:100FB0008F939F93AF93BF93EF93FF93809106011D
:100FC000882329F00E94BA071092060107C00E94E8
:100FD000C0070E946B0781E080930601FF91EF91AB
:100FE000BF91AF919F918F917F916F915F914F9141
:100FF0003F912F910F900FBE0F901F9018958FEF7C
:101000009FEF9093AE048093AD0408950F931F93C8
:101010008B019C0166277727CB01601B710B820B2C
:10102000930B60237123822393230E94AB0C27E14F
:1010300096958795779567952A95D1F76F5771099A
:10104000810991091F910F91089582E08093EA042C
:101050008FEF8093C5041092C7048091BF04815024
:101060008093C6048091C004880F81608093E80457
:1010700085EE8093BC00089584E08093EA048FEFAE
:101080008093C5041092C7042091C1042093C60424
:10109000A091C204B091C30488EC94E0FC013E2FFF
:1010A000381B321718F43D913193F9CF8091C40465
:1010B00090E0880F991F8093E80485EE8093BC0030
:1010C000089585ED8093BC008091BC0084FDFCCF29
:1010D0008091EA048093E9041092EA048091E90483
:1010E000833011F40C943C088091E904813011F4B0
:1010F0000C942508089585EC8093BC008091EA0447
:101100008093E9041092EA048091E904833011F499
:101110000C943C088091E904813011F40C9425086A
:1011200008951F920F920FB60F9211242F933F93A1
:101130004F935F936F937F938F939F93AF93BF93DF
:10114000EF93FF938091B900887F883239F170F472
:10115000803109F130F4882309F45BC08830D9F07C
:101160005CC08831D9F0803261F157C08034C1F160
:1011700050F4803331F1883309F04FC08093C504B7
:101180000E947B084AC08035F9F08835A9F188347F
:1011900009F043C040C08091E80410C09091C7049A
:1011A0008091C6049817B8F5E091C70481E08E0FCE
:1011B0008093C704F0E0E853FB4F80818093BB002D
:1011C00015C08093C50427C0E091C70481E08E0F4D
:1011D0008093C7048091BB00F0E0E853FB4F80830D
:1011E0009091C7048091C604981710F485EC01C053
:1011F00085E88093BC0011C0E091C70481E08E0FA8
:101200008093C7048091BB00F0E0E853FB4F8083DC
:1012100002C01092C5040E946108FF91EF91BF9136
:10122000AF919F918F917F916F915F914F913F917E
:101230002F910F900FBE0F901F901895CF92DF92B5
:10124000EF92FF927093F6046093F5044093F704D5
:10125000A0E0B0E034E0880F991FAA1FBB1F3A95A9
:10126000D1F720E030E0F901E859F74FE491EE239F
:1012700081F06C017D01022E04C0F694E794D794AE
:10128000C7940A94D2F751E0C516D506E104F104DB
:1012900038F02F5F3F4F2B30310529F780E01EC01B
:1012A000A1E0B0E002C0AA0FBB1F2A95E2F7A70198
:1012B00096010E94430D24E0959587957795679553
:1012C0002A95D1F77093F4046093F30410926E00A2
:1012D00082E084BDE5BDCA94C7BC81E0FF90EF9079
:1012E000DF90CF900895EEE6F0E080818260808309
:1012F000089578941F920F920FB60F9211242F9396
:101300003F934F935F936F937F938F939F93AF938D
:10131000BF93EF93FF9310926E00E091F504F0916C
:10132000F6040995F8948091F704882311F016BC0F
:10133000A99A80916E00826080936E00FF91EF9178
:10134000BF91AF919F918F917F916F915F914F91DD
:101350003F912F910F900FBE0F901F90189561E055
:101360008AE00E94300A61E08AE00E94F7098CB5A9
:1013700080618CBD8CB580648CBD61E08DE00E9485
:10138000F70961E08BE00C94F709811103C08CB57B
:10139000806202C08CB58F7D8CBD0895833081F052
:1013A00028F4813099F08230A1F008958730A9F0B7
:1013B0008830B9F08430D1F4809180008F7D03C0F3
:1013C000809180008F7780938000089584B58F7717
:1013D00002C084B58F7D84BD08958091B0008F7761
:1013E00003C08091B0008F7D8093B0000895CF93AB
:1013F000DF9390E0FC01E957F74F2491FC01E5569B
:10140000F74F8491882349F190E0880F991FFC01E0
:10141000E754F74FA591B4918155974FFC01C591C1
:10142000D4919FB7611108C0F8948C9120958223C4
:101430008C93888182230AC0623051F4F8948C9195
:10144000322F309583238C938881822B888304C02C
:10145000F8948C91822B8C939FBFDF91CF9108954C
:101460000F931F93CF93DF931F92CDB7DEB7282F33
:1014700030E0F901ED58F74F8491F901E957F74F42
:101480001491F901E556F74F04910023C9F0882320
:1014900021F069830E94CE096981E02FF0E0EE0F10
:1014A000FF1FE155F74FA591B4919FB7F8948C9128
:1014B000611103C01095812301C0812B8C939FBFC4
:1014C0000F90DF91CF911F910F9108951F920F926E
:1014D0000FB60F9211242F938F939F93EF93FF9347
:1014E000E0910805F09109058081E0910E05F091E9
:1014F0000F0582FD12C09081809111058F5F8F735F
:1015000020911205821751F0E0911105F0E0E850AA
:10151000FB4F958F8093110501C08081FF91EF9162
:101520009F918F912F910F900FBE0F901F90189544
:101530001F920F920FB60F9211242F933F934F9348
:101540005F936F937F938F939F93AF93BF93EF932B
:10155000FF9388EF94E00E94030CFF91EF91BF91FD
:10156000AF919F918F917F916F915F914F913F913B
:101570002F910F900FBE0F901F90189588EF94E059
:101580000E94C80B21E0892B09F420E0822F0895E6
:101590001092FB041092FA0488EE93E0A0E0B0E011
:1015A0008093FC049093FD04A093FE04B093FF0489
:1015B0008CE091E09093F9048093F80485EC90E03E
:1015C000909305058093040584EC90E090930705C3
:1015D0008093060580EC90E09093090580930805C0
:1015E00081EC90E090930B0580930A0582EC90E0EB
:1015F00090930D0580930C0586EC90E090930F0579
:1016000080930E0510921105109212051092130589
:1016100010921405089508950E948D0B0E940B0BE3
:101620000E949004C5EFDBE00E949C042097E1F348
:101630000E94F50BF9CFCF92DF92EF92FF920F93BA
:101640001F93CF93DF937C016A01EB0100E010E070
:101650000C151D0571F06991D701ED91FC91019078
:10166000F081E02DC7010995892B19F00F5F1F4FFD
:10167000EFCFC801DF91CF911F910F91FF90EF90B5
:10168000DF90CF9008951F920F920FB60F92112402
:101690002F933F938F939F93AF93BF938091960522
:1016A00090919705A0919805B09199053091950575
:1016B00023E0230F2D3720F40196A11DB11D05C095
:1016C00026E8230F0296A11DB11D20939505809356
:1016D000960590939705A0939805B09399058091EE
:1016E0009A0590919B05A0919C05B0919D0501964E
:1016F000A11DB11D80939A0590939B05A0939C0515
:10170000B0939D05BF91AF919F918F913F912F9184
:101710000F900FBE0F901F901895789484B582603B
:1017200084BD84B5816084BD85B5826085BD85B585
:10173000816085BDEEE6F0E0808181608083E1E834
:10174000F0E010828081826080838081816080836C
:10175000E0E8F0E0808181608083E1EBF0E080816F
:1017600084608083E0EBF0E0808181608083EAE741
:10177000F0E08081846080838081826080838081CA
:10178000816080838081806880831092C100089589
:10179000FC01818D228D90E0805C9F4F821B91091E
:1017A0008F7399270895FC01918D828D981731F0E0
:1017B000828DE80FF11D858D90E008958FEF9FEFEA
:1017C0000895FC01918D828D981761F0828DDF0163
:1017D000A80FB11D5D968C91928D9F5F9F73928F24
:1017E00090E008958FEF9FEF08958EEB9AE0892B9C
:1017F00049F080E090E0892B29F00E94BE0A811117
:101800000C9400000895FC01848DDF01A80FB11D28
:10181000A35ABF4F2C91848D90E001968F73992726
:10182000848FA689B7892C93A089B1898C91806413
:101830008C93938D848D981306C00288F389E02DD4
:1018400080818F7D80830895CF93DF93EC01888D15
:101850008823C9F0EA89FB89808185FD05C0A889B4
:10186000B9898C9186FD0FC00FB607FCF5CF80813A
:1018700085FFF2CFA889B9898C9185FFEDCFCE0184
:101880000E94030CE7CFDF91CF910895CF92DF92B2
:10189000FF920F931F93CF93DF931F92CDB7DEB7C5
:1018A0006C0181E0D60158968C9358975B969C9179
:1018B0005B975C968C915C97981307C05096ED915E
:1018C000FC915197808185FD2EC0F601038D10E0BB
:1018D0000F5F1F4F0F731127F02EF601848DF81242
:1018E00011C00FB607FCF9CFD6015096ED91FC91CF
:1018F0005197808185FFF1CFC60169830E94030C57
:101900006981EBCF838DE80FF11DE35AFF4F6083B0
:10191000D6015B960C935B975296ED91FC91539791
:10192000808180620CC0D6015696ED91FC9157974C
:1019300060835096ED91FC91519780818064808303
:1019400081E090E00F90DF91CF911F910F91FF9078
:10195000DF90CF900895E89409C097FB3EF49095EE
:101960008095709561957F4F8F4F9F4F9923A9F078
:10197000F92F96E9BB279395F69587957795679507
:10198000B795F111F8CFFAF4BB0F11F460FF1BC04B
:101990006F5F7F4F8F4F9F4F16C0882311F096E9DE
:1019A00011C0772321F09EE8872F762F05C066238C
:1019B00071F096E8862F70E060E02AF09A95660F45
:1019C000771F881FDAF7880F9695879597F90895FE
:1019D000A1E21A2EAA1BBB1BFD010DC0AA1FBB1F33
:1019E000EE1FFF1FA217B307E407F50720F0A21BA5
:1019F000B30BE40BF50B661F771F881F991F1A9412
:101A000069F760957095809590959B01AC01BD013B
:101A1000CF010895052E97FB1EF400940E94210D1E
:101A200057FD07D00E94E80C07FC03D04EF40C943D
:101A3000210D50954095309521953F4F4F4F5F4F69
:101A4000089590958095709561957F4F8F4F9F4F2A
:101A50000895A29FB001B39FC001A39F700D811D87
:101A60001124911DB29F700D811D1124911D0895A7
:101A70000E94290DA59F900DB49F900DA49F800DED
:101A8000911D11240895B7FF0C94380D0E94380D54
:101A9000821B930B0895EE0FFF1F0590F491E02D2C
:061AA0000994F894FFCF49
:101AA6007F003C00200001FF00000000460C1B0BDD
:081AB600C80BE10BD30B240C5B
:00000001FF
